:104BF900EFD3940540037F0122123B44FED3940373
:104C090040037F0222EF7041EE700B900001123BCE
:104C19005DF452935294123B44B4010B900001127B
:104C29003B5D4293F45294123B44FEB4020A900055
:104C390001123B5D42934294EEB4030D90000112C0
:104C49003B5DFEF45293EE4294EF64017043123BD4
:104C590044FE700B900001123B5DF452915292EEAA
:104C6900B4010B900001123B5D4291F45292123B48
:104C790044B4020A900001123B5D42914292123BF8
:104C890044B4030D900001123B5DFEF45291EE42D3
:104C990092EF64027043123B44FE700B90000112C4
:104CA9003B5DF452955296EEB4010B900001123B14
:104CB9005D4295F45296123B44B4020A90000112E7
:104CC9003B5D42954296123B44B4030D900001129C
:104CD9003B5DFEF45295EE4296EF64037043123B3E
:104CE90044FE700B900001123B5DF452B152B2EEDA
:104CF900B4010B900001123B5D42B1F452B2123B78
:104D090044B4020A900001123B5D42B142B2123B27
:104D190044B4030D900001123B5DFEF452B1EE4222
:104D2900B2EF64047043123B44FE700B9000011211
:104D39003B5DF452B352B4EEB4010B900001123B47
:104D49005D42B3F452B4123B44B4020A900001121A
:104D59003B5D42B342B4123B44B4030D90000112CF
:104D69003B5DFEF452B3EE42B4EF64057043123B6F
:104D790044FF700B900001123B5DF452C952CAEF17
:104D8900B4010B900001123B5D42C9F452CA123BB7
:104D990044B4020A900001123B5D42C942CA123B67
:104DA90044B4030D900001123B5DFFF452C9EF4278
:044DB900CA7F00228B
:0D68EB00E4F5C7F5C5F5C675C380F5C422F8
:10661D0075C78275C5018FC4EEF5C375C65A75C6AB
:07662D00A500AFC21268EBEB
:016634002243
:1066040075C78275C5028FC4EEF5C3AF058FC27519
:09661400C65A75C6A5000268EB28
:1066EE0075C78275C5038FC4EEF5C375C65A75C6D8
:0566FE00A5000268EB9D
:1049A900900265EBF0A3EAF0A3E9F0900264EFF05E
:1049B900E4900268F0EF64016003024B0590026421
:1049C900E0FF75F00DA4248BF582E43401F58374BE
:1049D90001F0A37401F0A374B2F0EF75F00DA424F3
:1049E9008EF582E43401F5837401F0A37401F0A318
:1049F90074D1F0EF75F00DA4248BF582E43401F540
:104A090083E0FBA3E0FAA3E0F9EF75F00DA424918C
:104A1900F582E43401F583EBF0A3EAF0A3E9F0EFC2
:104A290075F00DA4248BF582E43401F583E0FBA332
:104A3900E0FAA3E0F9EF75F00DA42494F582E434CB
:104A490001F583EBF0A3EAF0A3E9F0EF75F00DA40B
:104A59002497F582E43401F583E4F0FE7F20FD7BA1
:104A6900017A0179B2123DC3900265E0FBA3E0FA35
:104A7900A3E0F9900001123B5D6401703053877F18
:104A8900759850438E40538EFE53890F4389209069
:104A99000002123D567F007E467D057C00123C8D4A
:104AA900EFF404F58BF58DC2ABD28E803A90026596
:104AB900E0FBA3E0FAA3E0F9900001123B5D640278
:104AC900703A53877F759850438E04900002123DC7
:104AD900567F007E467D057C00123C8DEFF404F57F
:104AE9009C438E01438E10900265E0FBA3E0FAA37C
:104AF900E0F9900008123B5D24FF92AC900264E05B
:104B090064026003024BF8E0FF75F00DA4248BF5F5
:104B190082E43401F5837401F0A37401F0A374D223
:104B2900F0EF75F00DA4248EF582E43401F5837459
:104B390001F0A37401F0A374F1F0EF75F00DA42452
:104B49008BF582E43401F583E0FBA3E0FAA3E0F9F5
:104B5900EF75F00DA42491F582E43401F583EBF0AF
:104B6900A3EAF0A3E9F0EF75F00DA4248BF582E434
:104B79003401F583E0FBA3E0FAA3E0F9EF75F00D4A
:104B8900A42494F582E43401F583EBF0A3EAF0A3BD
:104B9900E9F0EF75F00DA42497F582E43401F5836B
:104BA900E4F0FE7F20FD7B017A0179D2123DC353E7
:104BB9008EF7759A50438E04900265E0FBA3E0FAE4
:104BC900A3E0F9900002123D567F007E467D057CE8
:104BD90000123C8DEFF404F59C438E10900265E0C1
:0F4BE900FBA3E0FAA3E0F9900008123B5D42AF96
:014BF800229A
:030023000259DFA0
:1059DF00C0E0C0F0C083C082C0D075D000C000C08E
:1059EF0001C002C003209803025AC3C29890019EBF
:1059FF00E0FBA3E0FAA3E0F9C003C002C001A3A338
:105A0F00E0FAA3E0F9C3D082D083D0E0E99582EA2F
:105A1F00958340349001A4E0B4012D900198E0F9F2
:105A2F00A3E0FAA3E09001A1C9F0A3EAF0A3E9F083
:105A3F00900198E0F9A3A3E090019EC9F0A3EAF0CA
:105A4F00A3E9F09001A4E4F090019BE0FBA3E0FA3E
:105A5F00A3E0F9C003C002C0019001A1E0FBA3E0E5
:105A6F00FAA3E0F9D082D083D0E06B7008E96582A9
:105A7F007003EA65839001A17028E0FBA3E0FAA30D
:105A8F00E0F9E599123BDF900198E0F9A3E0FAA362
:105A9F00E09001A1C9F0A3EAF0A3E9F0A37401F02B
:105AAF008012E0FBA3E475F001123C3BA9F0FAE58C
:105ABF0099123BDFD003D002D001D000D0D0D082DA
:075ACF00D083D0F0D0E032DB
:030043000258DF81
:1058DF00C0E0C0F0C083C082C0D075D000C000C08F
:1058EF0001C002C003E59A20E0030259CC539AFE8F
:1058FF009001ABE0FBA3E0FAA3E0F9C003C002C044
:10590F0001A3E0FBA3E0FAA3E0F9D082D083D0E0BB
:10591F006B7008E965827003EA658370349001B19A
:10592F00E0B4012D9001A5E0F9A3E0FAA3E0900106
:10593F00AEC9F0A3EAF0A3E9F09001A5E0F9A3A3A3
:10594F00E09001ABC9F0A3EAF0A3E9F09001B1E454
:10595F00F09001A8E0FBA3E0FAA3E0F9C003C002B6
:10596F00C0019001AEE0FBA3E0FAA3E0F9D082D032
:10597F0083D0E06B7008E965827003EA658390015C
:10598F00AE7028E0FBA3E0FAA3E0F9E59B123BDF42
:10599F009001A5E0F9A3E0FAA3E09001AEC9F0A34E
:1059AF00EAF0A3E9F0A37401F08012E0FBA3E47521
:1059BF00F001123C3BA9F0FAE59B123BDFD003D07C
:1059CF0002D001D000D0D0D082D083D0F0D0E0323E
:104F6000900252EBF0A3EAF0A3E9F0900251EFF0C7
:104F700075F00DA42494F582E43401F583E0F9A3DF
:104F8000E0FAA3E0900257C9F0A3EAF0A3E9F0EF3A
:104F900075F00DA42491F582E43401F583E0F9A3C2
:104FA000E0FAA3E090025AC9F0A3EAF0A3E9F0E422
:104FB000FFFE900252E0F9A3E0FAA3E090025DC97F
:104FC000F0A3EAF0A3E9F0900257E0FBA3E0FAA314
:104FD000E0F9C003C002C001A3E0FBA3E0FAA3E034
:104FE000F9D082D083D0E06B7008E965827003EA63
:104FF000658370030250CB0FBF00010ED3900256A1
:10500000E09F900255E09E50030250CB900251E089
:1050100075F00DA4248EF582E43401F583E0FBA342
:10502000E0FAA3E0F9C003C002C00190025AE0FB1D
:10503000A3E0FAA3E0F9D082D083D0E06B7008E956
:1050400065827003EA658390025A7057E0FBA3E023
:10505000FAA3E0F9123B44FD900252E0FBA3E47591
:10506000F001123C3BA9F0FAED123BDF900251E057
:10507000FD75F00DA4248BF582E43401F583E0F98D
:10508000A3E0FAA3E090025AC9F0A3EAF0A3E9F082
:10509000ED75F00DA42497F582E43401F583E4F076
:1050A000024FC7E0FBA3E475F001123C3BA9F0FA04
:1050B000123B44FD900252E0FBA3E475F001123C68
:1050C0003BA9F0FAED123BDF024FC7900257E0FB1D
:1050D000A3E0FAA3E0F9900251E075F00DA4249149
:0F50E000F582E43401F583EBF0A3EAF0A3E9F0E5
:0150EF00229E
:0F68CD00EF24FE6006047006C2AC2253AFFE2219
:0F68DC00EF24FE6006047006D2AC2243AF012207
:055BCC00900255EFF00E
:105BD100E4FDFCEF7003025CA7E0FF1268CDE07505
:105BE100F00DA4248BF582E43401F583A3E0FAA33C
:105BF100E0AE02FF900255E075F00DA4248EF5820F
:105C0100E43401F583A3E0FAA3E0C39FFFEA9ECF4A
:105C11002401FDE43FFCFEAF057D00900255E075D7
:105C2100F00DA4248BF582E43401F583E0FBA3E0BD
:105C3100FAA3E0F9123DC3900255E0FF75F00DA4FF
:105C4100248BF582E43401F583E0FBA3E0FAA3E0C1
:105C5100F9EF75F00DA42494F582E43401F583EB9A
:105C6100F0A3EAF0A3E9F0EF75F00DA4248BF5821F
:105C7100E43401F583E0FBA3E0FAA3E0F9EF75F06A
:105C81000DA42491F582E43401F583EBF0A3EAF04D
:105C9100A3E9F0EF75F00DA42497F582E43401F542
:065CA10083E4F01268DC50
:015CA70022DA
:10002600000000000001C2000000960000004B0026
:0C00360000002580000012C000000960DE
:105D6C00126414126904126573900256123D92006B
:105D7C0001C2007F01125403C2B7900256123D9229
:105D8C000001C2007F01125403900000E0FBA3E06D
:105D9C00FAA3E0F9123B446073900001123B5DC31F
:105DAC009407504B123B44FFC007900001123B5D1F
:105DBC0025E025E02426F582E43400F583123D46E7
:105DCC00900256123D86D007125403900000E0FB5F
:105DDC00A3E0FAA3E0F9123B44FF125BCC90000065
:105DEC00E0FBA3E0FAA3E0F9123B44FF1268DC905D
:105DFC000000E0FBA3E0FAA3E0F9900137123B5D51
:0F5E0C00B401091261D790013B7401F0D2AF22AB
:1061D700124756900000E0FBA3E0FAA3E0F9123B58
:1061E700446056900001123B5DC39407504B123B2D
:1061F70044FFC007900001123B5D25E025E02426FF
:10620700F582E43400F583123D46900256123D862E
:10621700D007125403900000E0FBA3E0FAA3E0F9D3
:10622700123B44FF125BCC900000E0FBA3E0FAA313
:0A623700E0F9123B44FF1268DC227C
:0100200022BD
:1064140090024774FFF0E4900246F07B017A02791F
:1064240046FF124BF97B017A0279467F01124BF940
:106434007B017A0279467F02124BF97B017A027959
:10644400467F03124BF97B017A0279467F04024BA3
:01645400F94E
:0B690400438905E4F58CF58AD28C2253
:10657300900000E0FBA3E0FAA3E0F99000D1123B06
:106583005D24FE600E047015438905E4F58CF58ADD
:0E659300D28C22438950E4F58DF58BD28E22F6
:1057D000EF14B4230040030258DC9057E875F0033F
:1057E000A4C58325F0C58373025851025856025848
:1057F0005A02585E02586202586602586A02586E8F
:1058000002587202587602587A02587E0258820272
:10581000588602588A02588E0258920258960258A8
:105820009A02589E0258A20258A60258AA0258AEDE
:105830000258B20258B60258BA0258BE0258C20202
:1058400058C60258CA0258CE0258D20258D6025838
:10585000D6A2800258D8A281807EA282807AA283BA
:105860008076A2848072A285806EA286806AA287DA
:105870008066A2A78062A2A6805EA2A5805AA2A48A
:105880008056A2A38052A2A2804EA2A1804AA2A0CA
:105890008046A2908042A291803EA292803AA2933A
:1058A0008036A2948032A295802EA296802AA2975A
:1058B0008026A2B28022A2B3801EA2B4801AA2B512
:1058C0008016A2B68012A2B7800EA2C7800AA2C616
:0F58D0008006A2C58002A2C4E433FF227F01221A
:105EB800E4FE123B44FF1257D0123B44C3944040C7
:105EC800037F0022900003123B5DB4FF079000039C
:105ED800E4123BF1900006123B5D70329000011213
:105EE8003B5DB507059000058058900002123B5DA8
:105EF800FD900005123B5DC39D500C900005740198
:105F0800123BAC7E0180419000067401800D900028
:105F180001123B5D6F600B900005E4123BF1E4FE5B
:105F28008026900003123B5DFF900005123B5DC385
:105F38009F500C9000057401123BACE4FE80099060
:0A5F48000006E4123BF17E01AF06F3
:015F5200222C
:0E50F000900255EBF0A3EAF0A3E9F0A3EDF077
:1050FE00900255E0FBA3E0FAA3E0F9EDFF7E00E994
:10510E002FF9EE3AFA90FFFF123B5DFEE490025942
:10511E00F0AF061257D0AD07E490025AF0AF06EF8B
:10512E00C3944040037F0022900255E0FBA3E0FAB7
:10513E00A3E0F9900012123B5DFF900258E0FE14BE
:10514E00FCEFA804088002C313D8FC540190025A45
:10515E00F0EE2409F582E433F583123B5D900011E5
:10516E00123BF1900008123B5DB4FF12900255E025
:10517E00FBA3E0FAA3E0F9900008E4123BF19002E1
:10518E005AE07051900255E0FBA3E0FAA3E0F990CB
:10519E000006123B5DB50509900011E4123BF1804B
:1051AE0024900007123B5DFF900011123B5DC39FE0
:1051BE00501B900255E0FBA3E0FAA3E0F99000111A
:1051CE007401123BAC9002597401F0805A90025A4D
:1051DE007401F08041900255E0FBA3E0FAA3E0F9E0
:1051EE00900006123B5D6D6009900011E4123BF1D8
:1051FE008024900008123B5DFF900011123B5DC3AE
:10520E009F501A900255E0FBA3E0FAA3E0F990003C
:10521E00117401123BACE4900259F0800AE4900242
:10522E005AF090025904F0900255E0FBA3E0FAA365
:10523E00E0F9900011123B5DFF900258E0FE240948
:10524E00F582E433F583EF123BF1E92412F9E43AE7
:10525E00FA123B44FFEE14FE90025AE0FDA8060837
:0F526E008002C333D8FC4F123BDF900259E0FFA0
:01527D00220E
:106241004253505F47657455736172745278427559
:10625100666665723A496E646578206F7665726626
:106261006C6F772121212020555341525478203DD4
:106271002025623032640D0A0052786C656E7468B4
:106281003A496E646578206F766572666C6F772126
:1062910021212020555341525478203D2025623040
:0562A10032640D0A004B
:1068BC00900281EFF0FD7F01126455900281E0FFA0
:0168CC0022A9
:05540300900255EFF0DE
:1054080064016003025494E0FF75F00AA42428F5AF
:1054180082E43402F5837401F0A37401F0A374F2FA
:10542800F0EF75F00AA4242BF582E43402F58374B6
:1054380001F0A37402F0A37411F0EF75F00AA4242C
:1054480028F582E43402F583E0FBA3E0FAA3E0F94F
:10545800EF75F00AA4242EF582E43402F583EBF00C
:10546800A3EAF0A3E9F0EF75F00AA42431F582E489
:105478003402F583E4F0FE7F20FD7B017A0179F2A6
:10548800123DC390025B7401F0025521900255E071
:10549800FF64026003025562EF75F00AA42428F540
:1054A80082E43402F5837401F0A37402F0A3741249
:1054B800F0EF75F00AA4242BF582E43402F5837426
:1054C80001F0A37402F0A37431F0EF75F00AA4247C
:1054D80028F582E43402F583E0FBA3E0FAA3E0F9BF
:1054E800EF75F00AA4242EF582E43402F583EBF07C
:1054F800A3EAF0A3E9F0EF75F00AA42431F582E4F9
:105508003402F583E4F0FE7F20FD7B017A027912F4
:10551800123DC390025B7402F0E4FFFEFDFC9002B2
:1055280056E0F8A3E0F9A3E0FAA3E0FBC3123D3587
:105538006028900256E0FCA3E0FDA3E0FEA3E0FF94
:1055480090025C123D869002627401F0900255E070
:0A555800FF7B017A02795A1249A97B
:015562002226
:1044DD00900248EBF0A3EAF0A3E9F0900247EFF069
:1044ED00E490024DF0A3F0A3F0A3F0EF600A900268
:1044FD0047E0FBC394034004E4FEFF22EB75F00A92
:10450D00A4242EF582E43402F583A3E0FAA3E0AEF1
:10451D0002FF900247E075F00AA4242BF582E434E3
:10452D0002F583A3E0FAA3E0C39FFFEA9EFEEF240A
:10453D0001FDE43EFC900247E0FF75F00AA4242E35
:10454D00F582E43402F583E0FBA3E0FAA3E0F990F1
:10455D000255ECF0A3EDF0124F6090024DEEF0A37A
:10456D00EFF0900247E0FF75F00AA4242EF582E4E7
:10457D003402F583E0FBA3E0FAA3E0F990024DE0ED
:10458D00FCA3E0FDE92DF9EA3CFAEF75F00AA4244D
:10459D002EF582E43402F583EBF0A3EAF0A3E9F003
:1045AD00900247E0FF75F00AA42428F582E4340256
:1045BD00F583A3E0FAA3E0AC02FDEF75F00AA424A5
:1045CD002EF582E43402F583A3E0FAA3E0C39DFE49
:1045DD00EA9C90024DF0A3CEF0900247E0FF75F0FB
:1045ED000AA4242BF582E43402F583E0FBA3E0FA60
:1045FD00A3E0F9C003C002C001EF75F00AA4242E98
:10460D00F582E43402F583A3E0FAA3E0F9C3D08286
:10461D00D083D0E0E99582EA9583401B125E1B7B27
:10462D00FF7A627941900247E090025CF0123ED62B
:10463D00E490024DF0A3F090024BE0FEA3E0FFC327
:10464D0090024EE09F90024DE09E50030246DEEE3A
:10465D00F0A3EFF07BFF7A62797A900247E0900247
:10466D005CF0123ED6E490024FF0A3F090024BE0C6
:10467D00FEA3E0FF90024FE0FCA3E0FDC39FEC9E84
:10468D005045900247E075F00AA42428F582E434E1
:10469D0002F583E0FBA3E0FAA3E0F98D828C83128F
:1046AD003B5DFF900248E0FBA3E475F001123C3B3B
:1046BD00A9F0FAEF123BDF900250E004F070069083
:1046CD00024FE004F080A5900247E0FF125E1B80D0
:1046DD0060E490024FF0A3F090024DE0FEA3E0FFE6
:1046ED00A3E0FCA3E0FDC39FEC9E5045900247E084
:1046FD0075F00AA42428F582E43402F583E0FBA3C7
:10470D00E0FAA3E0F98D828C83123B5DFF900248A5
:10471D00E0FBA3E475F001123C3BA9F0FAEF123B6C
:10472D00DF900250E004F0700690024FE004F0803C
:10473D00A7900248E0FBA3E0FAA3E0F9E4123BDF07
:08474D0090024DE0FEA3E0FF25
:014755002241
:055E1B00900251EFF0C0
:105E2000EF7003025EB7E0FFC394034003025EB766
:105E3000EF75F00AA42428F582E43402F583A3E088
:105E4000FAA3E0AE02FF900251E075F00AA4242B01
:105E5000F582E43402F583A3E0FAA3E0C39FFFEAEE
:105E60009ECF2401CF3400FCFE7D00900251E075EE
:105E7000F00AA42428F582E43402F583E0FBA3E0D1
:105E8000FAA3E0F9123DC3900251E0FF75F00AA4B5
:105E90002428F582E43402F583E0FBA3E0FAA3E0D2
:105EA000F9EF75F00AA4242EF582E43402F583EBB1
:075EB000F0A3EAF0A3E9F002
:015EB70022C8
:10664D00EFB401063099FDC29922EFB40208E59A24
:07665D0030E1FB539AFD221E
:10645500900282EFF0A3EDF0D2B712691990028293
:10646500E0FF6028C394035023EF24FE600B047003
:106475000E900283E0F5998006900283E0F59B90EB
:0D6485000282E0FF12664DC2B712691922B3
:0E630900900255EFF0A3EBF0A3EAF0A3E9F049
:10631700E490025BF0A3F090025BF0A3F0900259C7
:10632700E0FEA3E0FFC390025CE09F90025BE09E6B
:10633700502A900255E0FFA3E0FBA3E475F0011299
:106347003C3BA9F0FA123B44FD12645590025CE015
:0C63570004F070C990025BE004F080C10B
:016363002217
:10527E006138000300000000000000000000000084
:10528E000000000000000000000000000000000010
:10529E000000000000000000000000000000000000
:1052AE0000000000000000000000000000000000F0
:1052BE0000000000000000000000000000000000E0
:1052CE0000000000000000000000000000000000D0
:1052DE0000000000000000000000000000000000C0
:1052EE0000000000000000000000000000000000B0
:1052FE0000000000000000000000000000000000A0
:10530E00000000000000000000000000000000008F
:10531E00000000000000000000000000000000007F
:10532E00000000000000000000000000000000006F
:10533E00000000000000000000000000000000005F
:10534E00000000000000000000000000000000004F
:10535E00000000000000000000000000000000003F
:10536E00000000000000000000000000000000002F
:10537E00000000000000000000000000000000001F
:10538E00000000000000000000000000000000000F
:10539E0000000000000000000000000000000000FF
:1053AE0000000000000000000000000043000001AB
:0253BE000003EA
:10181C007F017E0012661D900000E0FBA3E0FAA39E
:10182C00E0F9EF123BDF7F027E0012661D90000094
:10183C00E0FBA3E0FAA3E0F9900001EF123BF17F8B
:10184C00037E0012661D900000E0FBA3E0FAA3E00B
:10185C00F9900003EF123BF17F047E0012661D909D
:10186C000000E0FBA3E0FAA3E0F9900004EF123BC8
:10187C00F17F147E0012661D900000E0FBA3E0FADD
:10188C00A3E0F9900005EF123BF17F057E00126694
:10189C001D900000E0FBA3E0FAA3E0F9900006EF36
:1018AC00123BF17F067E0012661D900000E0FBA348
:1018BC00E0FAA3E0F9900007EF123BF17F077E00FE
:1018CC0012661D900000E0FBA3E0FAA3E0F9900083
:1018DC0009EF123BF17F087E0012661D900000E0BC
:1018EC00FBA3E0FAA3E0F990000AEF123BF17F09A9
:1018FC007E0012661D900000E0FBA3E0FAA3E0F965
:10190C0090000CEF123BF17F0E7E0012661D9000D2
:10191C0000E0FBA3E0FAA3E0F990000DEF123BF11D
:10192C007F0A7E0012661D900000E0FBA3E0FAA384
:10193C00E0F990000FEF123BF17F0E7E0012661D56
:10194C00900000E0FBA3E0FAA3E0F9900010EF1286
:10195C003BF17F0B7E0012661D900000E0FBA3E0C4
:10196C00FAA3E0F9900012EF123BF17F0E7E001209
:10197C00661D900000E0FBA3E0FAA3E0F9900013D1
:10198C00EF123BF17F0C7E0012661D900000E0FB15
:10199C00A3E0FAA3E0F9900015EF123BF17F0E7E65
:1019AC000012661D900000E0FBA3E0FAA3E0F990A2
:1019BC000016EF123BF17F0D7E0012661D900000A9
:1019CC00E0FBA3E0FAA3E0F9900018EF123BF17FE3
:1019DC000E7E0012661D900000E0FBA3E0FAA3E06F
:1019EC00F9900019EF123BF17F0F7E0012661D90EB
:1019FC000000E0FBA3E0FAA3E0F990001BEF123B20
:101A0C00F17F107E0012661D900000E0FBA3E0FA4F
:101A1C00A3E0F990001EEF123BF17F117E001266DD
:101A2C001D900000E0FBA3E0FAA3E0F990001FEF8B
:101A3C00123BF17F127E0012661D900000E0FBA3AA
:101A4C00E0FAA3E0F9900021EF123BF17F137E0046
:101A5C0012661D900000E0FBA3E0FAA3E0F99000F1
:101A6C0022EF123BF17F207E0012661D900000E0F9
:101A7C00FBA3E0FAA3E0F9900024EF123BF17F21E5
:101A8C007E0012661D900000E0FBA3E0FAA3E0F9D3
:101A9C00900025EF123BF17F227E0012661D900014
:101AAC0000E0FBA3E0FAA3E0F9900026EF123BF173
:101ABC007F237E0012661D900000E0FBA3E0FAA3DA
:101ACC00E0F9900027EF123BF17F247E0012661D97
:101ADC00900000E0FBA3E0FAA3E0F9900028EF12DD
:101AEC003BF17F287E0012661D900000E0FBA3E016
:101AFC00FAA3E0F990002BEF123BF17F297E001244
:101B0C00661D900000E0FBA3E0FAA3E0F990002C26
:101B1C00EF123BF17F2A7E0012661D900000E0FB65
:101B2C00A3E0FAA3E0F990002DEF123BF17F2B7E9E
:101B3C000012661D900000E0FBA3E0FAA3E0F99010
:101B4C00002EEF123BF17F2C7E0012661D900000E0
:101B5C00E0FBA3E0FAA3E0F990002FEF123BF17F3A
:101B6C00307E0012661D900000E0FBA3E0FAA3E0BB
:101B7C00F9900032EF123BF17F317E0012661D901E
:101B8C000000E0FBA3E0FAA3E0F9900033EF123B76
:101B9C00F17F327E0012661D900000E0FBA3E0FA9C
:101BAC00A3E0F9900034EF123BF17F337E00126614
:101BBC001D900000E0FBA3E0FAA3E0F9900035EFE4
:101BCC00123BF17F347E0012661D900000E0FBA3F7
:101BDC00E0FAA3E0F9900036EF123BF17F387E007B
:101BEC0012661D900000E0FBA3E0FAA3E0F9900060
:101BFC0039EF123BF17F397E0012661D900000E038
:101C0C00FBA3E0FAA3E0F990003AEF123BF17F3A24
:101C1C007E0012661D900000E0FBA3E0FAA3E0F941
:101C2C0090003BEF123BF17F3B7E0012661D900053
:101C3C0000E0FBA3E0FAA3E0F990003CEF123BF1CB
:101C4C007F3C7E0012661D900000E0FBA3E0FAA32F
:101C5C00E0F990003DEF123BF17F407E0012661DD3
:101C6C00900000E0FBA3E0FAA3E0F9900040EF1233
:101C7C003BF17F417E0012661D900000E0FBA3E06B
:101C8C00FAA3E0F9900041EF123BF17F427E001283
:101C9C00661D900000E0FBA3E0FAA3E0F99000427F
:101CAC00EF123BF17F437E0012661D900000E0FBBB
:101CBC00A3E0FAA3E0F9900043EF123BF17F447EDE
:101CCC000012661D900000E0FBA3E0FAA3E0F9907F
:101CDC000044EF123BF17F487E0012661D9000001D
:101CEC00E0FBA3E0FAA3E0F9900047EF123BF17F91
:101CFC00497E0012661D900000E0FBA3E0FAA3E011
:101D0C00F9900048EF123BF17F4A7E0012661D905D
:101D1C000000E0FBA3E0FAA3E0F9900049EF123BCE
:101D2C00F17F4B7E0012661D900000E0FBA3E0FAF1
:101D3C00A3E0F990004AEF123BF17F4C7E00126653
:101D4C001D900000E0FBA3E0FAA3E0F990004BEF3C
:101D5C00123BF17F507E0012661D900000E0FBA349
:101D6C00E0FAA3E0F990004EEF123BF17F517E00B8
:101D7C0012661D900000E0FBA3E0FAA3E0F99000CE
:101D8C004FEF123BF17F527E0012661D900000E077
:101D9C00FBA3E0FAA3E0F9900050EF123BF17F5364
:101DAC007E0012661D900000E0FBA3E0FAA3E0F9B0
:101DBC00900051EF123BF17F547E0012661D900093
:101DCC0000E0FBA3E0FAA3E0F9900052EF123BF124
:101DDC007F587E0012661D900000E0FBA3E0FAA382
:101DEC00E0F9900055EF123BF17F597E0012661D11
:101DFC00900000E0FBA3E0FAA3E0F9900056EF128C
:101E0C003BF17F5A7E0012661D900000E0FBA3E0C0
:101E1C00FAA3E0F9900057EF123BF17F5B7E0012C2
:101E2C00661D900000E0FBA3E0FAA3E0F9900058D7
:101E3C00EF123BF17F5C7E0012661D900000E0FB10
:101E4C00A3E0FAA3E0F9900059EF123BF17F607E1A
:101E5C000012661D900000E0FBA3E0FAA3E0F990ED
:101E6C00005CEF123BF17F617E0012661D9000005A
:101E7C00E0FBA3E0FAA3E0F990005DEF123BF17FE9
:101E8C00627E0012661D900000E0FBA3E0FAA3E066
:101E9C00F990005EEF123BF17F637E0012661D909D
:101EAC000000E0FBA3E0FAA3E0F990005FEF123B27
:101EBC00F17F647E0012661D900000E0FBA3E0FA47
:101ECC00A3E0F9900060EF123BF17F687E00126690
:101EDC001D900000E0FBA3E0FAA3E0F9900063EF93
:101EEC00123BF17F697E0012661D900000E0FBA39F
:101EFC00E0FAA3E0F9900064EF123BF17F6A7E00F8
:101F0C0012661D900000E0FBA3E0FAA3E0F990003C
:101F1C0065EF123BF17F6B7E0012661D900000E0B6
:101F2C00FBA3E0FAA3E0F9900066EF123BF17F6CA3
:101F3C007E0012661D900000E0FBA3E0FAA3E0F91E
:101F4C00900067EF123BF17F707E0012661D9000CF
:101F5C0000E0FBA3E0FAA3E0F990006AEF123BF17A
:101F6C007F717E0012661D900000E0FBA3E0FAA3D7
:101F7C00E0F990006BEF123BF17F727E0012661D50
:101F8C00900000E0FBA3E0FAA3E0F990006CEF12E4
:101F9C003BF17F737E0012661D900000E0FBA3E016
:101FAC00FAA3E0F990006DEF123BF17F747E001202
:101FBC00661D900000E0FBA3E0FAA3E0F990006E30
:101FCC00EF123BF17F787E0012661D900000E0FB63
:101FDC00A3E0FAA3E0F9900071EF123BF17F797E58
:101FEC000012661D900000E0FBA3E0FAA3E0F9905C
:101FFC000072EF123BF17F7A7E0012661D9000009A
:10200C00E0FBA3E0FAA3E0F9900073EF123BF17F41
:10201C007B7E0012661D900000E0FBA3E0FAA3E0BB
:10202C00F9900074EF123BF17F7C7E0012661D90DC
:10203C000000E0FBA3E0FAA3E0F9900075EF123B7F
:10204C00F17F807E0012661D900000E0FBA3E0FA99
:10205C00A3E0F9900078EF123BF17F817E001266CD
:10206C001D900000E0FBA3E0FAA3E0F9900079EFEB
:10207C00123BF17F827E0012661D900000E0FBA3F4
:10208C00E0FAA3E0F990007AEF123BF17F837E0037
:10209C0012661D900000E0FBA3E0FAA3E0F99000AB
:1020AC007BEF123BF17F847E0012661D900000E0F6
:1020BC00FBA3E0FAA3E0F990007CEF123BF17F88E0
:1020CC007E0012661D900000E0FBA3E0FAA3E0F98D
:1020DC0090007FEF123BF17F897E0012661D90000D
:1020EC0000E0FBA3E0FAA3E0F9900080EF123BF1D3
:1020FC007F8A7E0012661D900000E0FBA3E0FAA32D
:10210C00E0F9900081EF123BF17F8B7E0012661D8F
:10211C00900000E0FBA3E0FAA3E0F9900082EF123C
:10212C003BF17F8C7E0012661D900000E0FBA3E06B
:10213C00FAA3E0F9900083EF123BF17F907E00123E
:10214C00661D900000E0FBA3E0FAA3E0F990008686
:10215C00EF123BF17F917E0012661D900000E0FBB8
:10216C00A3E0FAA3E0F9900087EF123BF17F927E97
:10217C000012661D900000E0FBA3E0FAA3E0F990CA
:10218C000088EF123BF17F937E0012661D900000D9
:10219C00E0FBA3E0FAA3E0F9900089EF123BF17F9A
:1021AC00947E0012661D900000E0FBA3E0FAA3E011
:1021BC00F990008AEF123BF17F987E0012661D9019
:1021CC000000E0FBA3E0FAA3E0F99000E6EF123B7D
:1021DC00F17FA07E0012661D900000E0FBA3E0FAE8
:1021EC00A3E0F99000E7EF123BF17FA87E001266A6
:1021FC001D900000E0FBA3E0FAA3E0F99000E8EFEB
:10220C00123BF17FB07E0012661D900000E0FBA334
:10221C00E0FAA3E0F99000E9EF123BF17FB57E0004
:10222C0012661D900000E0FBA3E0FAA3E0F9900019
:10223C00EAEF123BF17F997E0012661D900000E0E0
:10224C00FBA3E0FAA3E0F99000ECEF123BF17F9ACC
:10225C007E0012661D900000E0FBA3E0FAA3E0F9FB
:10226C009000EDEF123BF17F9B7E0012661D9000FB
:10227C0000E0FBA3E0FAA3E0F99000EEEF123BF1D3
:10228C007F9D7E0012661D900000E0FBA3E0FAA388
:10229C00E0F99000F9EF123BF17FA47E0012661D6D
:1022AC00900000E0FBA3E0FAA3E0F99000FAEF1233
:1022BC003BF17FAC7E0012661D900000E0FBA3E0BA
:1022CC00FAA3E0F99000FBEF123BF17FB47E001211
:1022DC00661D900000E0FBA3E0FAA3E0F99000FC7F
:1022EC00EF123BF17FB67E0012661D900000E0FB02
:1022FC00A3E0FAA3E0F99000FDEF123BF17FB77E6B
:10230C000012661D900000E0FBA3E0FAA3E0F99038
:10231C0000FEEF123BF17FB37E0012661D900000B1
:10232C00E0FBA3E0FAA3E0F99000FFEF123BF17F92
:10233C009C7E0012661D900000E0FBA3E0FAA3E077
:10234C00F99000EFEF123BF17FB87E0012661D9002
:10235C000000E0FBA3E0FAA3E0F990008DEF123B44
:10236C00F17FB97E0012661D900000E0FBA3E0FA3D
:10237C00A3E0F990008EEF123BF17FBA7E0012665B
:10238C001D900000E0FBA3E0FAA3E0F990008FEFB2
:10239C00123BF17FBB7E0012661D900000E0FBA398
:1023AC00E0FAA3E0F9900090EF123BF17FBC7E00C5
:1023BC0012661D900000E0FBA3E0FAA3E0F9900088
:1023CC0091EF123BF17FC07E0012661D900000E081
:1023DC00FBA3E0FAA3E0F9900094EF123BF17FC16C
:1023EC007E0012661D900000E0FBA3E0FAA3E0F96A
:1023FC00900095EF123BF17FC27E0012661D90009B
:10240C0000E0FBA3E0FAA3E0F9900096EF123BF199
:10241C007FC37E0012661D900000E0FBA3E0FAA3D0
:10242C00E0F9900097EF123BF17FC47E0012661D1D
:10243C00900000E0FBA3E0FAA3E0F9900098EF1203
:10244C003BF17FC87E0012661D900000E0FBA3E00C
:10245C00FAA3E0F990009BEF123BF17FC97E0012CA
:10246C00661D900000E0FBA3E0FAA3E0F990009C4D
:10247C00EF123BF17FCA7E0012661D900000E0FB5C
:10248C00A3E0FAA3E0F990009DEF123BF17FCB7E25
:10249C000012661D900000E0FBA3E0FAA3E0F990A7
:1024AC00009EEF123BF17FCC7E0012661D90000067
:1024BC00E0FBA3E0FAA3E0F990009FEF123BF17F61
:1024CC00D07E0012661D900000E0FBA3E0FAA3E0B2
:1024DC00F99000A2EF123BF17FD17E0012661D90A5
:1024EC000000E0FBA3E0FAA3E0F99000A3EF123B9D
:1024FC00F17FD27E0012661D900000E0FBA3E0FA93
:10250C00A3E0F99000A4EF123BF17FD37E0012669A
:10251C001D900000E0FBA3E0FAA3E0F99000A5EF0A
:10252C00123BF17FD47E0012661D900000E0FBA3ED
:10253C00E0FAA3E0F99000A6EF123BF17FD87E0001
:10254C0012661D900000E0FBA3E0FAA3E0F99000F6
:10255C00A9EF123BF17FD97E0012661D900000E0BE
:10256C00FBA3E0FAA3E0F99000AAEF123BF17FDAAB
:10257C007E0012661D900000E0FBA3E0FAA3E0F9D8
:10258C009000ABEF123BF17FDB7E0012661D9000DA
:10259C0000E0FBA3E0FAA3E0F99000ACEF123BF1F2
:1025AC007FDC7E0012661D900000E0FBA3E0FAA326
:1025BC00E0F99000ADEF123BF17FE07E0012661D5A
:1025CC00900000E0FBA3E0FAA3E0F99000B0EF125A
:1025DC003BF17FE17E0012661D900000E0FBA3E062
:1025EC00FAA3E0F99000B1EF123BF17FE27E00120A
:1025FC00661D900000E0FBA3E0FAA3E0F99000B2A6
:10260C00EF123BF17FE37E0012661D900000E0FBB1
:10261C00A3E0FAA3E0F99000B3EF123BF17FE47E64
:10262C000012661D900000E0FBA3E0FAA3E0F99015
:10263C0000B4EF123BF17FE87E0012661D900000A3
:10264C00E0FBA3E0FAA3E0F99000B7EF123BF17FB7
:10265C00E97E0012661D900000E0FBA3E0FAA3E007
:10266C00F99000B8EF123BF17FEA7E0012661D90E4
:10267C000000E0FBA3E0FAA3E0F99000B9EF123BF5
:10268C00F17FEB7E0012661D900000E0FBA3E0FAE8
:10269C00A3E0F99000BAEF123BF17FEC7E001266DA
:1026AC001D900000E0FBA3E0FAA3E0F99000BBEF63
:1026BC00123BF17FF07E0012661D900000E0FBA340
:1026CC00E0FAA3E0F9900100EF123BF17FF87E00F5
:1026DC0012661D900000E0FBA3E0FAA3E0F9900164
:1026EC0001EF123BF17F007E0112661D900000E0AD
:1026FC00FBA3E0FAA3E0F9900102EF123BF17FF1AA
:10270C007E0012661D900000E0FBA3E0FAA3E0F946
:10271C00900106EF123BF17FF27E0012661D9000D5
:10272C0000E0FBA3E0FAA3E0F9900107EF123BF104
:10273C007FF37E0012661D900000E0FBA3E0FAA37D
:10274C00E0F9900108EF123BF17FF47E0012661D58
:10275C00900000E0FBA3E0FAA3E0F9900109EF126E
:10276C003BF17F087E0112661D900000E0FBA3E0A8
:10277C00FAA3E0F99000BEEF123BF17F097E011243
:10278C00661D900000E0FBA3E0FAA3E0F99000BF07
:10279C00EF123BF17F0A7E0112661D900000E0FBF8
:1027AC00A3E0FAA3E0F99000C0EF123BF17F0B7E9F
:1027BC000112661D900000E0FBA3E0FAA3E0F99083
:1027CC0000C1EF123BF17F0C7E0112661D900000E0
:1027DC00E0FBA3E0FAA3E0F99000C2EF123BF17F1B
:1027EC00107E0112661D900000E0FBA3E0FAA3E04E
:1027FC00F99000C5EF123BF17F117E0112661D901E
:10280C000000E0FBA3E0FAA3E0F99000C6EF123B56
:10281C00F17F127E0112661D900000E0FBA3E0FA2E
:10282C00A3E0F99000C7EF123BF17F137E01126613
:10283C001D900000E0FBA3E0FAA3E0F99000C8EFC4
:10284C00123BF17F147E0112661D900000E0FBA389
:10285C00E0FAA3E0F99000C9EF123BF17F207E0172
:10286C0012661D900000E0FBA3E0FAA3E0F99000D3
:10287C00D1EF123BF17F217E0112661D900000E02A
:10288C00FBA3E0FAA3E0F99000D2EF123BF17F2218
:10289C007E0112661D900000E0FBA3E0FAA3E0F9B4
:1028AC009000D3EF123BF17F237E0112661D900046
:1028BC0000E0FBA3E0FAA3E0F99000D4EF123BF1A7
:1028CC007F247E0112661D900000E0FBA3E0FAA3BA
:1028DC00E0F99000D5EF123BF17F407E0112661DAE
:1028EC00900000E0FBA3E0FAA3E0F99000D8EF120F
:1028FC003BF17F417E0112661D900000E0FBA3E0DE
:10290C00FAA3E0F99000D9EF123BF17F427E01125D
:10291C00661D900000E0FBA3E0FAA3E0F99000DA5A
:10292C00EF123BF17F437E0112661D900000E0FB2D
:10293C00A3E0FAA3E0F99000DBEF123BF17F447EB9
:10294C000112661D900000E0FBA3E0FAA3E0F990F1
:10295C0000DCEF123BF17FA87E0112661D90000097
:10296C00E0FBA3E0FAA3E0F99000DFEF123BF17F6C
:10297C00A97E0112661D900000E0FBA3E0FAA3E023
:10298C00F99000E0EF123BF17FAA7E0112661D90D8
:10299C000000E0FBA3E0FAA3E0F99000E1EF123BAA
:1029AC00F17FAB7E0112661D900000E0FBA3E0FA04
:1029BC00A3E0F99000E2EF123BF17FAC7E011266CE
:1029CC001D900000E0FBA3E0FAA3E0F99000E3EF18
:1029DC00123BF17FD47E0112661D900000E0FBA338
:1029EC00E0FAA3E0F99000CCEF123BF17FD07E012E
:1029FC0012661D900000E0FBA3E0FAA3E0F9900042
:102A0C00CDEF123BF17FD17E0112661D900000E0EC
:102A1C00FBA3E0FAA3E0F99000CEEF123BF17FD2DA
:102A2C007E0112661D900000E0FBA3E0FAA3E0F922
:102A3C009000CFEF123BF17FD37E0112661D900008
:102A4C0000E0FBA3E0FAA3E0F99000D0EF123BF119
:102A5C007F387E0112661D900000E0FBA3E0FAA314
:102A6C00E0F990011AEF123BF17F397E0112661DDD
:102A7C00900000E0FBA3E0FAA3E0F990011BEF1239
:102A8C003BF17F3A7E0112661D900000E0FBA3E053
:102A9C00FAA3E0F990011CEF123BF17F3B7E01128F
:102AAC00661D900000E0FBA3E0FAA3E0F990011D85
:102ABC00EF123BF17F3C7E0112661D900000E0FBA3
:102ACC00A3E0FAA3E0F990011EEF123BF17F3D7EEB
:102ADC000112661D900000E0FBA3E0FAA3E0F99060
:102AEC00011FEF123BF17F3E7E0112661D9000002C
:102AFC00E0FBA3E0FAA3E0F9900120EF123BF17F99
:102B0C003F7E0112661D900000E0FBA3E0FAA3E0FB
:102B1C00F9900121EF123BF17F367E0112661D9078
:102B2C000000E0FBA3E0FAA3E0F9900122EF123BD6
:102B3C00F17F377E0112661D900000E0FBA3E0FAE6
:102B4C00A3E0F9900123EF123BF17FFB7E011266AB
:102B5C001D900000E0FBA3E0FAA3E0F9900137EF31
:102B6C00123BF17FFC7E0112661D900000E0FBA37E
:102B7C00E0FAA3E0F9900136EF123BF17FFD7E0104
:102B8C0012661D900000E0FBA3E0FAA3E0F99001AF
:102B9C0034EF123BF17FFE7E0112661D900000E0C7
:0E2BAC00FBA3E0FAA3E0F9900135EF023BF144
:10004600900255EEF0A3EFF0A3EDF012181C90020B
:1000560055E0FEA3E0FF1266EE900255E0FEA3E037
:10006600FF64014E7005A3E0FD8009900003E0FDEA
:100076007F017E00126604900255E0FEA3E0FF6455
:10008600024E7005A3E0FD8009900004E0FD7F02AA
:100096007E00126604900255E0FEA3E0FF64034E64
:1000A6007005A3E0FD8009900006E0FD7F037E0059
:1000B600126604900255E0FEA3E0FF64044E70054C
:1000C600A3E0FD8009900007E0FD7F047E00126634
:1000D60004900255E0FEA3E0FF64144E7005A3E011
:1000E600FD8009900008E0FD7F147E0012660490F2
:1000F6000255E0FEA3E0FF64054E7005A3E0FD8017
:1001060009900009E0FD7F057E0012660490025505
:10011600E0FEA3E0FF64064E7005A3E0FD800990B3
:10012600000AE0FD7F067E00126604900255E0FE9E
:10013600A3E0FF64074E7005A3E0FD800990000C64
:10014600E0FD7F077E00126604900255E0FEA3E004
:10015600FF64084E7005A3E0FD800990000DE0FDE8
:100166007F087E00126604900255E0FEA3E0FF645D
:10017600094E7005A3E0FD800990000FE0FD7F09A0
:100186007E00126604900255E0FEA3E0FF640E4E68
:100196007005A3E0FD8009900010E0FD7F0E7E0053
:1001A600126604900255E0FEA3E0FF640A4E700555
:1001B600A3E0FD8009900012E0FD7F0A7E00126632
:1001C60004900255E0FEA3E0FF640E4E7005A3E026
:1001D600FD8009900013E0FD7F0E7E0012660490FC
:1001E6000255E0FEA3E0FF640B4E7005A3E0FD8020
:1001F60009900015E0FD7F0B7E0012660490025503
:10020600E0FEA3E0FF640E4E7005A3E0FD800990BA
:100216000016E0FD7F0E7E00126604900255E0FE99
:10022600A3E0FF640C4E7005A3E0FD800990001862
:10023600E0FD7F0C7E00126604900255E0FEA3E00E
:10024600FF640E4E7005A3E0FD8009900019E0FDE5
:100256007F0E7E00126604900255E0FEA3E0FF6466
:100266000D4E7005A3E0FD800990001BE0FD7F0D9B
:100276007E00126604900255E0FEA3E0FF640E4E77
:100286007005A3E0FD800990001CE0FD7F0E7E0056
:10029600126604900255E0FEA3E0FF640F4E70055F
:1002A600A3E0FD800990001EE0FD7F0F7E00126630
:1002B60004900255E0FEA3E0FF64104E7005A3E033
:1002C600FD8009900021E0FD7F107E0012660490FB
:1002D6000255E0FEA3E0FF64114E7005A3E0FD8029
:1002E60009900022E0FD7F117E00126604900255FF
:1002F600E0FEA3E0FF64124E7005A3E0FD800990C6
:100306000024E0FD7F127E00126604900255E0FE96
:10031600A3E0FF64134E7005A3E0FD80099000255D
:10032600E0FD7F137E00126604900255E0FEA3E016
:10033600FF64204E7005A3E0FD8009900027E0FDD4
:100346007F207E00126604900255E0FEA3E0FF6463
:10035600214E7005A3E0FD8009900028E0FD7F2175
:100366007E00126604900255E0FEA3E0FF64224E72
:100376007005A3E0FD8009900029E0FD7F227E0044
:10038600126604900255E0FEA3E0FF64234E70055A
:10039600A3E0FD800990002AE0FD7F237E0012661F
:1003A60004900255E0FEA3E0FF64244E7005A3E02E
:1003B600FD800990002BE0FD7F247E0012660490EC
:1003C6000255E0FEA3E0FF64284E7005A3E0FD8021
:1003D6000990002EE0FD7F287E00126604900255EB
:1003E600E0FEA3E0FF64294E7005A3E0FD800990BE
:1003F600002FE0FD7F297E00126604900255E0FE84
:10040600A3E0FF642A4E7005A3E0FD80099000304A
:10041600E0FD7F2A7E00126604900255E0FEA3E00E
:10042600FF642B4E7005A3E0FD8009900031E0FDCE
:100436007F2B7E00126604900255E0FEA3E0FF6467
:100446002C4E7005A3E0FD8009900032E0FD7F2C64
:100456007E00126604900255E0FEA3E0FF64304E73
:100466007005A3E0FD8009900035E0FD7F307E0039
:10047600126604900255E0FEA3E0FF64314E70055B
:10048600A3E0FD8009900036E0FD7F317E00126614
:1004960004900255E0FEA3E0FF64324E7005A3E02F
:1004A600FD8009900037E0FD7F327E0012660490E1
:1004B6000255E0FEA3E0FF64334E7005A3E0FD8025
:1004C60009900038E0FD7F337E00126604900255E5
:1004D600E0FEA3E0FF64344E7005A3E0FD800990C2
:1004E6000039E0FD7F347E00126604900255E0FE7E
:1004F600A3E0FF64384E7005A3E0FD800990003C40
:10050600E0FD7F387E00126604900255E0FEA3E00F
:10051600FF64394E7005A3E0FD800990003DE0FDC3
:100526007F397E00126604900255E0FEA3E0FF6468
:100536003A4E7005A3E0FD800990003EE0FD7F3A4B
:100546007E00126604900255E0FEA3E0FF643B4E77
:100556007005A3E0FD800990003FE0FD7F3B7E0033
:10056600126604900255E0FEA3E0FF643C4E70055F
:10057600A3E0FD8009900040E0FD7F3C7E0012660E
:1005860004900255E0FEA3E0FF64404E7005A3E030
:10059600FD8009900043E0FD7F407E0012660490D6
:1005A6000255E0FEA3E0FF64414E7005A3E0FD8026
:1005B60009900044E0FD7F417E00126604900255DA
:1005C600E0FEA3E0FF64424E7005A3E0FD800990C3
:1005D6000045E0FD7F427E00126604900255E0FE73
:1005E600A3E0FF64434E7005A3E0FD80099000463A
:1005F600E0FD7F437E00126604900255E0FEA3E014
:10060600FF64444E7005A3E0FD8009900047E0FDBD
:100616007F447E00126604900255E0FEA3E0FF646C
:10062600484E7005A3E0FD800990004AE0FD7F4832
:100636007E00126604900255E0FEA3E0FF64494E78
:100646007005A3E0FD800990004BE0FD7F497E0028
:10065600126604900255E0FEA3E0FF644A4E700560
:10066600A3E0FD800990004CE0FD7F4A7E00126603
:1006760004900255E0FEA3E0FF644B4E7005A3E034
:10068600FD800990004DE0FD7F4B7E0012660490D0
:100696000255E0FEA3E0FF644C4E7005A3E0FD802A
:1006A6000990004EE0FD7F4C7E00126604900255D4
:1006B600E0FEA3E0FF64504E7005A3E0FD800990C4
:1006C6000051E0FD7F507E00126604900255E0FE68
:1006D600A3E0FF64514E7005A3E0FD80099000522F
:1006E600E0FD7F517E00126604900255E0FEA3E015
:1006F600FF64524E7005A3E0FD8009900053E0FDB3
:100706007F527E00126604900255E0FEA3E0FF646D
:10071600534E7005A3E0FD8009900054E0FD7F5321
:100726007E00126604900255E0FEA3E0FF64544E7C
:100736007005A3E0FD8009900055E0FD7F547E0022
:10074600126604900255E0FEA3E0FF64584E700561
:10075600A3E0FD8009900058E0FD7F587E001266F8
:1007660004900255E0FEA3E0FF64594E7005A3E035
:10077600FD8009900059E0FD7F597E0012660490C5
:100786000255E0FEA3E0FF645A4E7005A3E0FD802B
:100796000990005AE0FD7F5A7E00126604900255C9
:1007A600E0FEA3E0FF645B4E7005A3E0FD800990C8
:1007B600005BE0FD7F5B7E00126604900255E0FE62
:1007C600A3E0FF645C4E7005A3E0FD800990005C29
:1007D600E0FD7F5C7E00126604900255E0FEA3E019
:1007E600FF64604E7005A3E0FD800990005FE0FDA8
:1007F6007F607E00126604900255E0FEA3E0FF646F
:10080600614E7005A3E0FD8009900060E0FD7F6108
:100816007E00126604900255E0FEA3E0FF64624E7D
:100826007005A3E0FD8009900061E0FD7F627E0017
:10083600126604900255E0FEA3E0FF64634E700565
:10084600A3E0FD8009900062E0FD7F637E001266F2
:1008560004900255E0FEA3E0FF64644E7005A3E039
:10086600FD8009900063E0FD7F647E0012660490BF
:100876000255E0FEA3E0FF64684E7005A3E0FD802C
:1008860009900066E0FD7F687E00126604900255BE
:10089600E0FEA3E0FF64694E7005A3E0FD800990C9
:1008A6000067E0FD7F697E00126604900255E0FE57
:1008B600A3E0FF646A4E7005A3E0FD80099000681E
:1008C600E0FD7F6A7E00126604900255E0FEA3E01A
:1008D600FF646B4E7005A3E0FD8009900069E0FDA2
:1008E6007F6B7E00126604900255E0FEA3E0FF6473
:1008F6006C4E7005A3E0FD800990006AE0FD7F6CF8
:100906007E00126604900255E0FEA3E0FF64704E7E
:100916007005A3E0FD800990006DE0FD7F707E000C
:10092600126604900255E0FEA3E0FF64714E700566
:10093600A3E0FD800990006EE0FD7F717E001266E7
:1009460004900255E0FEA3E0FF64724E7005A3E03A
:10095600FD800990006FE0FD7F727E0012660490B4
:100966000255E0FEA3E0FF64734E7005A3E0FD8030
:1009760009900070E0FD7F737E00126604900255B8
:10098600E0FEA3E0FF64744E7005A3E0FD800990CD
:100996000071E0FD7F747E00126604900255E0FE51
:1009A600A3E0FF64784E7005A3E0FD800990007413
:1009B600E0FD7F787E00126604900255E0FEA3E01B
:1009C600FF64794E7005A3E0FD8009900075E0FD97
:1009D6007F797E00126604900255E0FEA3E0FF6474
:1009E6007A4E7005A3E0FD8009900076E0FD7F7ADF
:1009F6007E00126604900255E0FEA3E0FF647B4E83
:100A06007005A3E0FD8009900077E0FD7F7B7E0006
:100A1600126604900255E0FEA3E0FF647C4E70056A
:100A2600A3E0FD8009900078E0FD7F7C7E001266E1
:100A360004900255E0FEA3E0FF64804E7005A3E03B
:100A4600FD800990007BE0FD7F807E0012660490A9
:100A56000255E0FEA3E0FF64814E7005A3E0FD8031
:100A66000990007CE0FD7F817E00126604900255AD
:100A7600E0FEA3E0FF64824E7005A3E0FD800990CE
:100A8600007DE0FD7F827E00126604900255E0FE46
:100A9600A3E0FF64834E7005A3E0FD800990007E0D
:100AA600E0FD7F837E00126604900255E0FEA3E01F
:100AB600FF64844E7005A3E0FD800990007FE0FD91
:100AC6007F847E00126604900255E0FEA3E0FF6478
:100AD600884E7005A3E0FD8009900082E0FD7F88C6
:100AE6007E00126604900255E0FEA3E0FF64894E84
:100AF6007005A3E0FD8009900083E0FD7F897E00FC
:100B0600126604900255E0FEA3E0FF648A4E70056B
:100B1600A3E0FD8009900084E0FD7F8A7E001266D6
:100B260004900255E0FEA3E0FF648B4E7005A3E03F
:100B3600FD8009900085E0FD7F8B7E0012660490A3
:100B46000255E0FEA3E0FF648C4E7005A3E0FD8035
:100B560009900086E0FD7F8C7E00126604900255A7
:100B6600E0FEA3E0FF64904E7005A3E0FD800990CF
:100B76000089E0FD7F907E00126604900255E0FE3B
:100B8600A3E0FF64914E7005A3E0FD800990008A02
:100B9600E0FD7F917E00126604900255E0FEA3E020
:100BA600FF64924E7005A3E0FD800990008BE0FD86
:100BB6007F927E00126604900255E0FEA3E0FF6479
:100BC600934E7005A3E0FD800990008CE0FD7F93B5
:100BD6007E00126604900255E0FEA3E0FF64944E88
:100BE6007005A3E0FD800990008DE0FD7F947E00F6
:100BF600126604900255E0FEA3E0FF64984E70056D
:100C0600A3E0FD80099000E9E0FD7F987E00126672
:100C160004900255E0FEA3E0FF64A04E7005A3E039
:100C2600FD80099000EAE0FD7FA07E001266049038
:100C36000255E0FEA3E0FF64A84E7005A3E0FD8028
:100C4600099000EBE0FD7FA87E0012660490025535
:100C5600E0FEA3E0FF64B04E7005A3E0FD800990BE
:100C660000ECE0FD7FB07E00126604900255E0FEC7
:100C7600A3E0FF64B54E7005A3E0FD80099000ED8A
:100C8600E0FD7FB57E00126604900255E0FEA3E00B
:100C9600FF64994E7005A3E0FD80099000EFE0FD2A
:100CA6007F997E00126604900255E0FEA3E0FF6481
:100CB6009A4E7005A3E0FD80099000F0E0FD7F9A52
:100CC6007E00126604900255E0FEA3E0FF649B4E90
:100CD6007005A3E0FD80099000F1E0FD7F9B7E009A
:100CE600126604900255E0FEA3E0FF649C4E700578
:100CF600A3E0FD80099000F2E0FD7F9C7E00126675
:100D060004900255E0FEA3E0FF649D4E7005A3E04B
:100D1600FD80099000FCE0FD7F9D7E001266049038
:100D26000255E0FEA3E0FF64A44E7005A3E0FD803B
:100D3600099000FDE0FD7FA47E0012660490025536
:100D4600E0FEA3E0FF64AC4E7005A3E0FD800990D1
:100D560000FEE0FD7FAC7E00126604900255E0FEC8
:100D6600A3E0FF64B44E7005A3E0FD80099000FF88
:100D7600E0FD7FB47E00126604900255E0FEA3E01B
:100D8600FF64B64E7005A3E0FD8009900100E0FD0A
:100D96007FB67E00126604900255E0FEA3E0FF6473
:100DA600B74E7005A3E0FD8009900101E0FD7FB715
:100DB6007E00126604900255E0FEA3E0FF64B34E87
:100DC6007005A3E0FD8009900102E0FD7FB37E007F
:100DD600126604900255E0FEA3E0FF64B84E70056B
:100DE600A3E0FD8009900090E0FD7FB87E001266CA
:100DF60004900255E0FEA3E0FF64B94E7005A3E03F
:100E0600FD8009900091E0FD7FB97E001266049096
:100E16000255E0FEA3E0FF64BA4E7005A3E0FD8034
:100E260009900092E0FD7FBA7E001266049002559A
:100E3600E0FEA3E0FF64BB4E7005A3E0FD800990D1
:100E46000093E0FD7FBB7E00126604900255E0FE33
:100E5600A3E0FF64BC4E7005A3E0FD8009900094FA
:100E6600E0FD7FBC7E00126604900255E0FEA3E022
:100E7600FF64C04E7005A3E0FD8009900097E0FD79
:100E86007FC07E00126604900255E0FEA3E0FF6478
:100E9600C14E7005A3E0FD8009900098E0FD7FC17A
:100EA6007E00126604900255E0FEA3E0FF64C24E87
:100EB6007005A3E0FD8009900099E0FD7FC27E00E9
:100EC600126604900255E0FEA3E0FF64C34E70056F
:100ED600A3E0FD800990009AE0FD7FC37E001266C4
:100EE60004900255E0FEA3E0FF64C44E7005A3E043
:100EF600FD800990009BE0FD7FC47E001266049091
:100F06000255E0FEA3E0FF64C84E7005A3E0FD8035
:100F16000990009EE0FD7FC87E001266049002558F
:100F2600E0FEA3E0FF64C94E7005A3E0FD800990D2
:100F3600009FE0FD7FC97E00126604900255E0FE28
:100F4600A3E0FF64CA4E7005A3E0FD80099000A0EF
:100F5600E0FD7FCA7E00126604900255E0FEA3E023
:100F6600FF64CB4E7005A3E0FD80099000A1E0FD73
:100F76007FCB7E00126604900255E0FEA3E0FF647C
:100F8600CC4E7005A3E0FD80099000A2E0FD7FCC69
:100F96007E00126604900255E0FEA3E0FF64D04E88
:100FA6007005A3E0FD80099000A5E0FD7FD07E00DE
:100FB600126604900255E0FEA3E0FF64D14E700570
:100FC600A3E0FD80099000A6E0FD7FD17E001266B9
:100FD60004900255E0FEA3E0FF64D24E7005A3E044
:100FE600FD80099000A7E0FD7FD27E001266049086
:100FF6000255E0FEA3E0FF64D34E7005A3E0FD803A
:10100600099000A8E0FD7FD37E0012660490025589
:10101600E0FEA3E0FF64D44E7005A3E0FD800990D6
:1010260000A9E0FD7FD47E00126604900255E0FE22
:10103600A3E0FF64D84E7005A3E0FD80099000ACE4
:10104600E0FD7FD87E00126604900255E0FEA3E024
:10105600FF64D94E7005A3E0FD80099000ADE0FD68
:101066007FD97E00126604900255E0FEA3E0FF647D
:10107600DA4E7005A3E0FD80099000AEE0FD7FDA50
:101086007E00126604900255E0FEA3E0FF64DB4E8C
:101096007005A3E0FD80099000AFE0FD7FDB7E00D8
:1010A600126604900255E0FEA3E0FF64DC4E700574
:1010B600A3E0FD80099000B0E0FD7FDC7E001266B3
:1010C60004900255E0FEA3E0FF64E04E7005A3E045
:1010D600FD80099000B3E0FD7FE07E00126604907B
:1010E6000255E0FEA3E0FF64E14E7005A3E0FD803B
:1010F600099000B4E0FD7FE17E001266049002557F
:10110600E0FEA3E0FF64E24E7005A3E0FD800990D7
:1011160000B5E0FD7FE27E00126604900255E0FE17
:10112600A3E0FF64E34E7005A3E0FD80099000B6DE
:10113600E0FD7FE37E00126604900255E0FEA3E028
:10114600FF64E44E7005A3E0FD80099000B7E0FD62
:101156007FE47E00126604900255E0FEA3E0FF6481
:10116600E84E7005A3E0FD80099000BAE0FD7FE837
:101176007E00126604900255E0FEA3E0FF64E94E8D
:101186007005A3E0FD80099000BBE0FD7FE97E00CD
:10119600126604900255E0FEA3E0FF64EA4E700575
:1011A600A3E0FD80099000BCE0FD7FEA7E001266A8
:1011B60004900255E0FEA3E0FF64EB4E7005A3E049
:1011C600FD80099000BDE0FD7FEB7E001266049075
:1011D6000255E0FEA3E0FF64EC4E7005A3E0FD803F
:1011E600099000BEE0FD7FEC7E0012660490025579
:1011F600E0FEA3E0FF64F04E7005A3E0FD800990D9
:101206000103E0FD7FF07E00126604900255E0FEC9
:10121600A3E0FF64F84E7005A3E0FD800990010489
:10122600E0FD7FF87E00126604900255E0FEA3E022
:10123600FFB40009EEB40105A3E0FD8009900105A5
:10124600E0FD7F007E01126604900255E0FEA3E0F9
:10125600FF64F14E7005A3E0FD8009900109E0FDF1
:101266007FF17E00126604900255E0FEA3E0FF6463
:10127600F24E7005A3E0FD800990010AE0FD7FF2C1
:101286007E00126604900255E0FEA3E0FF64F34E72
:101296007005A3E0FD800990010BE0FD7FF37E0061
:1012A600126604900255E0FEA3E0FF64F44E70055A
:1012B600A3E0FD800990010CE0FD7FF47E0012663C
:1012C60004900255E0FEA3E0FFBE0108BF0805A397
:1012D600E0FD80099000C1E0FD7F087E01126604F2
:1012E600900255E0FEA3E0FFBE0108BF0905A3E09A
:1012F600FD80099000C2E0FD7F097E011266049020
:101306000255E0FEA3E0FFBE0108BF0A05A3E0FD0B
:1013160080099000C3E0FD7F0A7E011266049002F8
:1013260055E0FEA3E0FFBE0108BF0B05A3E0FD806C
:10133600099000C4E0FD7F0B7E0112660490025501
:10134600E0FEA3E0FFBE0108BF0C05A3E0FD800997
:101356009000C5E0FD7F0C7E01126604900255E008
:10136600FEA3E0FFBE0108BF1005A3E0FD800990C3
:1013760000C8E0FD7F107E01126604900255E0FE73
:10138600A3E0FFBE0108BF1105A3E0FD80099000A0
:10139600C9E0FD7F117E01126604900255E0FEA3AE
:1013A600E0FFBE0108BF1205A3E0FD80099000CA58
:1013B600E0FD7F127E01126604900255E0FEA3E076
:1013C600FFBE0108BF1305A3E0FD80099000CBE036
:1013D600FD7F137E01126604900255E0FEA3E0FF36
:1013E600BE0108BF1405A3E0FD80099000CCE0FD16
:1013F6007F147E01126604900255E0FEA3E0FFBE54
:101406000108BF2005A3E0FD80099000D4E0FD7F20
:10141600207E01126604900255E0FEA3E0FFBE01A5
:1014260008BF2105A3E0FD80099000D5E0FD7F21DE
:101436007E01126604900255E0FEA3E0FFBE01089D
:10144600BF2205A3E0FD80099000D6E0FD7F227E45
:1014560001126604900255E0FEA3E0FFBE0108BF3C
:101466002305A3E0FD80099000D7E0FD7F237E01E0
:10147600126604900255E0FEA3E0FFBE0108BF24F9
:1014860005A3E0FD80099000D8E0FD7F247E0112CF
:101496006604900255E0FEA3E0FFBE0108BF4005CA
:1014A600A3E0FD80099000DBE0FD7F407E0112662F
:1014B60004900255E0FEA3E0FFBE0108BF4105A36C
:1014C600E0FD80099000DCE0FD7F417E01126604AC
:1014D600900255E0FEA3E0FFBE0108BF4205A3E06F
:1014E600FD80099000DDE0FD7F427E0112660490DA
:1014F6000255E0FEA3E0FFBE0108BF4305A3E0FDE1
:1015060080099000DEE0FD7F437E011266049002B2
:1015160055E0FEA3E0FFBE0108BF4405A3E0FD8041
:10152600099000DFE0FD7F447E01126604900255BB
:10153600E0FEA3E0FFBE0108BFA805A3E0FD800909
:101546009000E2E0FD7FA87E01126604900255E05D
:10155600FEA3E0FFBE0108BFA905A3E0FD80099038
:1015660000E3E0FD7FA97E01126604900255E0FECD
:10157600A3E0FFBE0108BFAA05A3E0FD8009900015
:10158600E4E0FD7FAA7E01126604900255E0FEA308
:10159600E0FFBE0108BFAB05A3E0FD80099000E5B2
:1015A600E0FD7FAB7E01126604900255E0FEA3E0EB
:1015B600FFBE0108BFAC05A3E0FD80099000E6E090
:1015C600FD7FAC7E01126604900255E0FEA3E0FFAB
:1015D600BE0108BFD405A3E0FD80099000CFE0FD61
:1015E6007FD47E01126604900255E0FEA3E0FFBEA2
:1015F6000108BFD005A3E0FD80099000D0E0FD7F83
:10160600D07E01126604900255E0FEA3E0FFBE0103
:1016160008BFD105A3E0FD80099000D1E0FD7FD190
:101626007E01126604900255E0FEA3E0FFBE0108AB
:10163600BFD205A3E0FD80099000D2E0FD7FD27EF7
:1016460001126604900255E0FEA3E0FFBE0108BF4A
:10165600D305A3E0FD80099000D3E0FD7FD37E0192
:10166600126604900255E0FEA3E0FFBE0108BF38F3
:1016760005A3E0FD800990011DE0FD7F387E011283
:101686006604900255E0FEA3E0FFBE0108BF3905DF
:10169600A3E0FD800990011EE0FD7F397E01126600
:1016A60004900255E0FEA3E0FFBE0108BF3A05A381
:1016B600E0FD800990011FE0FD7F3A7E011266047D
:1016C600900255E0FEA3E0FFBE0108BF3B05A3E084
:1016D600FD8009900120E0FD7F3B7E0112660490AB
:1016E6000255E0FEA3E0FFBE0108BF3C05A3E0FDF6
:1016F6008009900121E0FD7F3C7E01126604900284
:1017060055E0FEA3E0FFBE0108BF3D05A3E0FD8056
:1017160009900122E0FD7F3D7E011266049002558C
:10172600E0FEA3E0FFBE0108BF3E05A3E0FD800981
:10173600900123E0FD7F3E7E01126604900255E093
:10174600FEA3E0FFBE0108BF3F05A3E0FD800990B0
:101756000124E0FD7F3F7E01126604900255E0FE03
:10176600A3E0FFBE0108BF3605A3E0FD8009900196
:1017760025E0FD7F367E01126604900255E0FEA349
:10178600E0FFBE0108BF3705A3E0FD8009900126F2
:10179600E0FD7F377E01126604900255E0FEA3E06D
:1017A600FFBE0108BFFB05A3E0FD800990013AE0FA
:1017B600FD7FFB7E01126604900255E0FEA3E0FF6A
:1017C600BE0108BFFC05A3E0FD8009900139E0FDDC
:1017D6007FFC7E01126604900255E0FEA3E0FFBE88
:1017E6000108BFFD05A3E0FD8009900137E0FD7FFC
:1017F600FD7E01126604900255E0FEA3E0FFBE01E5
:1018060008BFFE05A3E0FD8009900138E0FD7FFEDC
:061816007E0112660422AF
:0B654300900259EBF0A3EAF0A3E9F08E
:10654E00E4FF7EF1AD060EA805E6FD900259E0FBD4
:10655E00A3E475F001123C3BA9F0FAED123BDF0FFC
:04656E00EFB407E09F
:016572002206
:09690F00007F0B7EBEDEFEDFFC02
:01691800225C
:10671800AD07AC06ED1DAE0470011C4E6005126994
:046728000F80F122CB
:0769190000750D87D50DFD8F
:016920002254
:1053C00042028F0000420292000042028D00004122
:1053D00002910041028400410285004102860041A1
:1053E000028700410288004102890042028A0000CF
:0453F00041028C00EA
:10649200900000E0FBA3E0FAA3E02432F9E43AFA28
:1064A200125EB890024CEFF0900000E0FBA3E0FA1D
:1064B200A3E02439F9E43AFA125EB890024CE0B44F
:0A64C2000106EF70037F01227F0046
:0164CC0022AD
:1064CD00900000E0FBA3E0FAA3E02432F9E43AFAED
:1064DD00125EB890024CEFF0900000E0FBA3E0FAE2
:1064ED00A3E02439F9E43AFA125EB890024CE07058
:0A64FD0007EFB401037F01227F00C6
:016507002271
:104DBD00900000E0FBA3E0FAA3E02463F9E43AFAE3
:104DCD00125EB890024CEFF0900000E0FBA3E0FA09
:104DDD00A3E0245CF9E43AFA125EB890024DEFF0CC
:104DED00900000E0FBA3E0FAA3E0F9900060123B15
:104DFD005DFF90024CE0B401069002847401F0EF67
:104E0D00B407004003024F5D904E1CF82828730232
:104E1D004E31024E53024E89024EB6024EE4024E00
:104E2D00EA024F1090024DE0FEB40109900284E0B9
:104E3D00B40102802FEEB4010A900285E0B40103A3
:104E4D007F0122024F569000CD123B5DFD7C0090FC
:104E5D00028DE0FAA3E0FBD39DEA9C400B90028407
:104E6D00E0B40104E4024F40D3EB9DEA9C400A906C
:104E7D000285E0B401037F0122024F5690024DE0FE
:104E8D00B40123900000E0FBA3E0FAA3E0F9900049
:104E9D00CD123B5DFFD390028EE09F90028DE0948A
:104EAD000040037F01227F002290024DE0640160EB
:104EBD0020900000E0FBA3E0FAA3E0F99000CD12F2
:104ECD003B5DFFD390028EE09F90028DE0940040F9
:104EDD00037F01227F002290024DE0FF229000000F
:104EED00E0FBA3E0FAA3E0F99000CD123B5DFFD308
:104EFD0090028EE09F90028DE0940040037F01228E
:104F0D007F0022900000E0FBA3E0FAA3E0F99000FF
:104F1D00CD123B5DFFD390028EE09F90028DE09409
:104F2D00004026900284E0B4011290024CE070091A
:104F3D00900284F0A304F0FF227F0022900285E00E
:104F4D00B401037F01227F0022E4900285F0FF224D
:024F5D007F00D3
:014F5F00222F
:10672C00900000E0FBA3E0FAA3E0242BF9E43AFA92
:03673C00125EB832
:01673F002237
:10674000900000E0FBA3E0FAA3E0246AF9E43AFA3F
:03675000125EB81E
:016753002223
:10000300900000E0FBA3E0FAA3E02486F9E43AFAC7
:0C001300125EB8EFB401037FF0227F0002
:01001F0022BE
:10675400900000E0FBA3E0FAA3E024B0F9E43AFAE5
:03676400125EB80A
:01676700220F
:10676800900000E0FBA3E0FAA3E0247FF9E43AFA02
:03677800125EB8F6
:01677B0022FB
:1065A100900000E0FBA3E0FAA3E02400F9EA340143
:1065B100FA7D011250F0EFB401047F4680027F148E
:0165C10022B7
:1065C200900000E0FBA3E0FAA3E02400F9EA340122
:1065D200FA7D021250F0EFB401047F4680027F146C
:0165E2002296
:10677C00900000E0FBA3E0FAA3E024A2F9E43AFACB
:03678C00125EB8E2
:01678F0022E7
:10679000900000E0FBA3E0FAA3E02440F9E43AFA19
:0367A000125EB8CE
:0167A30022D3
:1067A400900000E0FBA3E0FAA3E02447F9E43AFAFE
:0367B400125EB8BA
:0167B70022BF
:1067B800900000E0FBA3E0FAA3E02478F9E43AFAB9
:0367C800125EB8A6
:0167CB0022AB
:1067CC00900000E0FBA3E0FAA3E02455F9E43AFAC8
:0367DC00125EB892
:0167DF002297
:1067E000900000E0FBA3E0FAA3E024A9F9E43AFA60
:0367F000125EB87E
:0167F3002283
:1067F400900000E0FBA3E0FAA3E0248DF9E43AFA68
:03680400125EB869
:01680700226E
:105F5300900000E0FBA3E0FAA3E0245CF9E43AFA42
:105F6300125EB890024CEFF0900000E0FBA3E0FA61
:105F7300A3E02463F9E43AFA125EB890024DEFF01D
:105F8300900000E0FBA3E0FAA3E024B7F9E43AFAB7
:105F9300125EB8900000E0FBA3E0FAA3E0F99000E2
:105FA30067123B5D603D24FE602504703390024C14
:105FB300E0FEB40111900286E0700B04F0900068DB
:105FC300E4123BF1801DEE701A900286F08014906B
:105FD300024DE0B40107EFB401037F01227F0022E9
:085FE3007F002290024DE0FF57
:015FEB002293
:10680800900000E0FBA3E0FAA3E02494F9E43AFA4C
:03681800125EB855
:01681B00225A
:10681C00900000E0FBA3E0FAA3E02424F9E43AFAA8
:03682C00125EB841
:01682F002246
:10357F00E490024CF0900000E0FBA3E0FAA3E024FB
:10358F00E6F9E43AFA7D011250F090024DEFF09017
:10359F000000E0FBA3E0FAA3E024E6F9E43AFA7DA9
:1035AF00021250F090024EEFF0900000E0FBA3E00B
:1035BF00FAA3E024E6F9E43AFA7D031250F0900200
:1035CF004FEFF0900000E0FBA3E0FAA3E024E6F950
:1035DF00E43AFA7D041250F0900250EFF0900000A0
:1035EF00E0FBA3E0FAA3E024E6F9E43AFA7D051242
:1035FF0050F0900251EFF0900000E0FBA3E0FAA32F
:10360F00E0F99000EF123B5D900252F0E92463F96C
:10361F00E43AFA125EB8900253EFF0900000E0FB2C
:10362F00A3E0FAA3E024B7F9E43AFA125EB89002E5
:10363F0054EFF0900000E0FBA3E0FAA3E024B0F910
:10364F00E43AFA125EB8EFB40109900253E0700346
:10365F007F0822900252E004700302398C14B40ADE
:10366F00004003023A4390367CF828287302369ABA
:10367F000236EE023A4302373902377C0237C20272
:10368F0037FC023A430238420238DB90024EE02503
:10369F00E0FF90024DE04FFF90024FE025E025E064
:1036AF004FFFA3E033333354F84FFF90024CF0BF7A
:1036BF0001030239D290024CE0FFB402030239E950
:1036CF00EFB404030239FAEFB40803023A11EFB46E
:1036DF000503023A22EFB40F03023A38023A409040
:1036EF00024EE025E0FF90024DE04FFF90024FE0C9
:1036FF0025E025E04FFF90024CF0BF06030239D2C0
:10370F0090024CE0FFB405030239E9EFB404030261
:10371F0039FAEFB40303023A11EFB40203023A226B
:10372F00EFB40103023A38023A40900253E0B40179
:10373F0003023A4890024EE025E0FF90024DE04F21
:10374F0090024CF0700790028704F0801490024CA6
:10375F00E0B403089002877402F08005E4900287BA
:10376F00F0900254E06003023A48023A4490025348
:10377F00E0B40103023A4890024EE025E0FF9002C8
:10378F004DE04FFF90024CF0BF020890028774018A
:10379F00F0801490024CE0B401089002877402F09C
:1037AF008005E4900287F0900254E06003023A48EB
:1037BF00023A4490024EE025E0FF90024DE04FFFA9
:1037CF0090024FE025E025E04FFF90024CF0900271
:1037DF0091F0BF01030239D290024CE0FFB4020313
:1037EF000239E9EFB404030239FA023A4090024E6B
:1037FF00E025E0FF90024DE04FFF90024FE025E003
:10380F0025E04FFFA3E033333354F84FFF90024CC2
:10381F00F0BF07030239D290024CE0FFB40203025B
:10382F0039E9EFB404030239FAEFB40803023A118D
:10383F00023A4090024EE025E0FF90024DE04FFF2C
:10384F0090024FE025E025E04FFFA3E033333354E0
:10385F00F84FFFA3E0C454F04F90024CF0E0FF90FC
:10386F000291F0900000E0FBA3E0FAA3E0F99000D2
:10387F00F9123B5DFEEFB506030239D29000FA1242
:10388F003B5DFF90024CE0FEB507030239E9900063
:10389F00FB123B5DB506030239FA9000FC123B5D4B
:1038AF00FF90024CE0FEB50703023A119000FD12A3
:1038BF003B5DB50603023A229000FE123B5DFF907E
:1038CF00024CE0B50703023A38023A4090024EE04C
:1038DF0025E0FF90024DE04FFF90024FE025E025DD
:1038EF00E04FFFA3E033333354F84FFFA3E0C4544A
:1038FF00F04F90024CF0E0FF900291F0900000E04A
:10390F00FBA3E0FAA3E0F99000F9123B5DFEEFB5DF
:10391F0006030239D29000FA123B5DFF90024CE091
:10392F00FEB507030239E99000FB123B5DB50603B4
:10393F000239FA9000FC123B5DFF90024CE0FEB59D
:10394F000703023A119000FD123B5DB50603023AE0
:10395F00229000FE123B5DFF90024CE0FEB5070384
:10396F00023A38900000E0FBA3E0FAA3E0F99000E0
:10397F00FF123B5D6E6003023A48023A4490024EDA
:10398F00E025E0FF90024DE04FFF90024FE025E071
:10399F0025E04FFFA3E033333354F84FFFA3E0C4C8
:1039AF0054F04F90024CF0E0FF900291F090000025
:1039BF00E0FBA3E0FAA3E0F99000F9123B5DFEEF04
:1039CF00B506089002877401F0806E9000FA123BE2
:1039DF005DFF90024CE0FEB507089002877402F07D
:1039EF0080579000FB123B5DB50608900287740369
:1039FF00F080469000FC123B5DFF90024CE0FEB55C
:103A0F0007089002877404F0802F9000FD123B5D31
:103A1F00B506089002877405F0801E9000FE123BD9
:103A2F005DFF90024CE0B507089002877408F080A4
:0E3A3F0008E48001E4900287F0900287E0FF27
:013A4D002256
:10683000900000E0FBA3E0FAA3E024C5F9E43AFAF3
:03684000125EB82D
:016843002232
:10684400900000E0FBA3E0FAA3E0244EF9E43AFA56
:03685400125EB819
:01685700221E
:10685800900000E0FBA3E0FAA3E024B7F9E43AFAD9
:03686800125EB805
:01686B00220A
:10686C00900000E0FBA3E0FAA3E0249BF9E43AFAE1
:03687C00125EB8F1
:01687F0022F6
:10688000900000E0FBA3E0FAA3E024BEF9E43AFAAA
:03689000125EB8DD
:0168930022E2
:1065E300900000E0FBA3E0FAA3E02400F9EA340101
:1065F300FA7D031250F0EFB401047F4680027F144A
:016603002274
:105CA800900000E0FBA3E0FAA3E02432F9E43AFA1A
:105CB800125EB890024CEFF0900000E0FBA3E0FA0F
:105CC800A3E02439F9E43AFA125EB890024DEFF0F5
:105CD800900000E0FBA3E0FAA3E02471F9E43AFAAB
:105CE800125EB890024EEFF0900000E0FBA3E0FADD
:105CF800A3E0F9900032123B5DFF1257D090024F9B
:105D0800EFF0900000E0FBA3E0FAA3E0F99000397F
:105D1800123B5DFF1257D0900000E0FBA3E0FAA30E
:105D2800E0F9900075123B5DB4010690024EE0FF69
:105D38002290024FE0B4010FEFB4010B900288E00B
:105D4800700504F07F002290024CE0B4010FA3E03C
:105D5800B4010A900288E0B401037F0122E49002B2
:035D680088F0FFC1
:015D6B002215
:0C68F80012357FEF60037F01227F002239
:10689400900000E0FBA3E0FAA3E024D8F9E43AFA7C
:0368A400125EB8C9
:0168A70022CE
:1068A800900000E0FBA3E0FAA3E024DFF9E43AFA61
:0368B800125EB8B5
:0168BB0022BA
:10666400900000E0FBA3E0FAA3E0241AF9EA340165
:06667400FA7D011250F056
:01667A0022FD
:10667B00900000E0FBA3E0FAA3E0241AF9EA34014E
:06668B00FA7D021250F03E
:0166910022E6
:10669200900000E0FBA3E0FAA3E0241AF9EA340137
:0666A200FA7D031250F026
:0166A80022CF
:1066A900900000E0FBA3E0FAA3E0241AF9EA340120
:0666B900FA7D041250F00E
:0166BF0022B8
:1066C000900000E0FBA3E0FAA3E0241AF9EA340109
:0666D000FA7D051250F0F6
:0166D60022A1
:1066D700900000E0FBA3E0FAA3E0241AF9EA3401F2
:0666E700FA7D061250F0DE
:0166ED00228A
:105AD600900000E0FBA3E0FAA3E0F99000CF123BB0
:105AE6005DFD7003FEFF22900289E06D6003025B9C
:105AF600BDF0AF8CA3F0A3EFF0E0F8E4F0E890027D
:105B06008AF0AF8AA3E02FF090028AE03400F0E03A
:105B1600FCA3E0FD90028DECF0A3EDF09000CE1218
:105B26003B5DFF7009EF2401FFE433FE801C90000B
:105B360000E0FBA3E0FAA3E0F99000CE123B5DFF84
:105B46007E0090028AE0FCA3E0FD123C1390028ADC
:105B5600EEF0A3EFF0C390028BE0948890028AE007
:105B6600941340077403F0A37420F0E4F58CF58ACF
:105B760090028AE07002A3E07043900000E0FBA36D
:105B8600E0FAA3E0F99000D0123B5DD39400402DDB
:105B9600124DBDBF0127900000E0FBA3E0FAA3E091
:105BA600F99000D0123B5D75F00AA4FF90028AE5D9
:105BB600F0F0A3EFF08006900289E004F090028AEC
:055BC600E0FEA3E0FF7A
:015BCB0022B7
:10556300E490024CF0A3F0A3F0A3F0900000E0FB62
:10557300A3E0FAA3E0F99000D1123B5D24FE600F93
:1055830004701890024EE58CF0A3E58AF0800F902A
:10559300024EE58DF0A3E58BF080030256A6900240
:1055A3004EE0FF90024CE4F0A3EFF0E0F8E4F0E803
:1055B30090024CF090024FE0FF90024DE02FF090EC
:1055C300024CE03400F0900000E0FBA3E0FAA3E01B
:1055D300F99000D4123B5DFF70030256AF90029224
:1055E300E0FCA3E0FDC390024DE09D90024CE09CE3
:1055F3004020EFFD900292E0FAA3E0FB90024CE022
:10560300FEA3E0FF9BFBEE9AFAD3EB9DEA940050D6
:105613005222900292E0FEA3E0FBE4C39BFBE49ED4
:10562300FA74019400F9E49400F890024CE0FEA3AC
:10563300E0FFE4FCFDEB2FFFEA3EFEED39FDEC3825
:10564300FCC007900000E0FBA3E0FAA3E0F99000A0
:10565300D4123B5DFBE4FAF9F8D007C3123D1F40B7
:10566300028049900292E0FCA3E0FDEC90024EF030
:10567300EDA3F0900000E0FBA3E0FAA3E0F99000B3
:10568300D1123B5D24FE600F04701890024EE0F5CA
:105693008CA3E0F58A801090024EE0F58DA3E0F52F
:1056A3008B8004E4FEFF22900292800390024CE080
:0456B300FEA3E0FF73
:0156B70022D0
:1047560012181C900000E0FBA3E0FAA3E0F9900019
:1047660032123B5D700790003204123BF190003923
:10477600123B5D70089000397402123BF190005CA8
:10478600123B5D700890005C7403123BF190002BA5
:10479600123B5D700890002B7404123BF190006A86
:1047A600123B5D700890006A7405123BF19000861A
:1047B600123B5D70089000867406123BF19000B0C3
:1047C600123B5D70089000B07407123BF190007FB9
:1047D600123B5D700890007F7408123BF190010057
:1047E600123B5D700AF5827583017409123BF190E4
:1047F6000101123B5D7008900101740A123BF190B1
:1048060000A2123B5D70089000A2740B123BF1905F
:104816000040123B5D7008900040740C123BF19012
:104826000047123B5D7008900047740D123BF190F3
:104836000078123B5D7008900078740E123BF19080
:104846000055123B5D7008900055740F123BF190B5
:1048560000A9123B5D70089000A97410123BF190FC
:10486600008D123B5D700890008D7411123BF19023
:104876000063123B5D70089000637412123BF19066
:104886000094123B5D70089000947413123BF190F3
:104896000024123B5D70089000247414123BF190C2
:1048A60000E6123B5D70089000E67415123BF1902D
:1048B60000E7123B5D70089000E77416123BF1901A
:1048C60000E8123B5D70089000E87417123BF19007
:1048D60000E9123B5D70089000E97418123BF190F4
:1048E60000EA123B5D70069000EA123BF1900071FF
:1048F600123B5D7006900071123BF19000C5123BB1
:104906005D70089000C57419123BF190004E123B81
:104916005D700890004E741A123BF19000CC123B69
:104926005D70089000CC741B123BF19000B7123BEF
:104936005D70089000B7741C123BF190009B123B0F
:104946005D700890009B741D123BF19000BE123BF7
:104956005D70089000BE741E123BF1900102123B7E
:104966005D70089001027420123BF19000DF123B4B
:104976005D70069000DF123BF1123B44D394024077
:1049860004E4123BDF900000E0FBA3E0FAA3E0F9A9
:10499600900001123B5DD3940A4007900001E41297
:0349A6003BF122C0
:102BBA00900247EBF0A3EAF0A3E9F0A3ECF0A3ED4F
:012BCA00F01A
:102BCB00E4900291F0125AD690028FEEF0A3EFF040
:102BDB00125563900292EEF0A3EFF0900247E0FBE8
:102BEB00A3E0FAA3E0F9C003C002C001123B44FE0C
:102BFB00C0061267CCD0E04FD001D002D003123BFD
:102C0B00DF900247E0FBA3E0FAA3E0F9C003C002A8
:102C1B00C001123B44FFC007126844EF25E0FED011
:102C2B00E04ED001D002D003123BDF900247E0FB15
:102C3B00A3E0FAA3E0F9C003C002C001123B44FFBA
:102C4B00C0071267A4EF25E025E0FED0E04ED001CF
:102C5B00D002D003123BDF900247E0FBA3E0FAA3C4
:102C6B00E0F9C003C002C001123B44FFC00712676A
:102C7B0090EF33333354F8FED0E04ED001D002D076
:102C8B0003123BDF900247E0FBA3E0FAA3E0F9C09D
:102C9B0003C002C001123B44FFC0071264CDEFC456
:102CAB0054F0FED0E04ED001D002D003123BDF90A7
:102CBB000247E0FBA3E0FAA3E0F9C003C002C001A6
:102CCB00123B44FFC007126492EFC43354E0FED0B2
:102CDB00E04ED001D002D003123BDF900247E0FB65
:102CEB00A3E0FAA3E0F9C003C002C001123B44FF0A
:102CFB00C00712672CEFC4333354C0FED0E04ED064
:102D0B0001D002D003123BDF900247E0FBA3E0FAB5
:102D1B00A3E0F9C003C002C001123B44FFC007127D
:102D2B00681CEFC43333335480FED0E04ED001D057
:102D3B0002D003123BDF900247E0FBA3E0FAA3E0D3
:102D4B002401F9E43AFAC003C002C001123B44FE6D
:102D5B00C006126768D0E04FD001D002D003123BFF
:102D6B00DF900247E0FBA3E0FAA3E02401F9E43A89
:102D7B00FAC003C002C001123B44FFC007126754E4
:102D8B00EF25E025E0FED0E04ED001D002D00312BB
:102D9B003BDF900247E0FBA3E0FAA3E02401F9E458
:102DAB003AFAC003C002C001123B44FFC0071267CE
:102DBB00B8EF33333354F8FED0E04ED001D002D00D
:102DCB0003123BDF900247E0FBA3E0FAA3E02401F0
:102DDB00F9E43AFAC003C002C001123B44FFC0073A
:102DEB00125CA8EFC454F0FED0E04ED001D002D05C
:102DFB0003123BDF900247E0FBA3E0FAA3E02401C0
:102E0B00F9E43AFAC003C002C001123B44FFC00709
:102E1B00126740EFC43354E0FED0E04ED001D00235
:102E2B00D003123BDF900247E0FBA3E0FAA3E024C0
:102E3B0001F9E43AFAC003C002C001123B44FFC0DF
:102E4B0007125F53EFC4333354C0FED0E04ED001B2
:102E5B00D002D003123BDF900247E0FBA3E0FAA3C2
:102E6B00E02401F9E43AFAC003C002C001123B446A
:102E7B00FFC007124DBDEFC43333335480FED0E097
:102E8B004ED001D002D003123BDF900247E0FBA3F0
:102E9B00E0FAA3E02402F9E43AFAC003C002C0014D
:102EAB00123B44FEC006120003D0E04FD001D0020B
:102EBB00D003123BDF900247E0FBA3E0FAA3E02430
:102ECB0002F9E43AFAC003C002C001123B44FEC04F
:102EDB000612357FD0E04FD001D002D003123BDF7A
:102EEB00900247E0FBA3E0FAA3E0F9900003E412A1
:102EFB003BF1E92404F9E43AFA123B44FF90028FC8
:102F0B00A3E04F123BDF900247E0FBA3E0FAA3E004
:102F1B002405F9E43AFA123B44FD90028FE04D127E
:102F2B003BDF900247E0FBA3E0FAA3E02406F9E4C1
:102F3B003AFAC003C002C001123B44FEC00612683D
:102F4B00F8D0E04FD001D002D003123BDF90024704
:102F5B00E0FBA3E0FAA3E02406F9E43AFAC003C0CD
:102F6B0002C001123B44FFC007126830EF3333330A
:102F7B0054F8FED0E04ED001D002D003123BDF90CC
:102F8B000247E0FBA3E0FAA3E02407F9E43AFAC016
:102F9B0003C002C001123B44FEC0061267E0D0E042
:102FAB004FD001D002D003123BDF900247E0FBA3CE
:102FBB00E0FAA3E02407F9E43AFAC003C002C00127
:102FCB00123B44FFC00712677CEF25E0FED0E04EBA
:102FDB00D001D002D003123BDF900247E0FBA3E00D
:102FEB00FAA3E02407F9E43AFAC003C002C00112C5
:102FFB003B44FFC007126808EF25E025E0FED0E058
:10300B004ED001D002D003123BDF900247E0FBA36E
:10301B00E0FAA3E02407F9E43AFAC003C002C001C6
:10302B00123B44FFC0071267F4EF33333354F8FEFF
:10303B00D0E04ED001D002D003123BDF900247E02C
:10304B00FBA3E0FAA3E02407F9E43AFAC003C002B9
:10305B00C001123B44FFC0071267A4EFC454F0FE3B
:10306B00D0E04ED001D002D003123BDF900247E0FC
:10307B00FBA3E0FAA3E02407F9E43AFAC003C00289
:10308B00C001123B44FFC007126790EFC454F0FE1F
:10309B00D0E04ED001D002D003123BDF900247E0CC
:1030AB00FBA3E0FAA3E02407F9E43AFAC003C00259
:1030BB00C001123B44FFC00712686CEFC43354E0ED
:1030CB00FED0E04ED001D002D003123BDF9002477E
:1030DB00E0FBA3E0FAA3E02407F9E43AFAC003C04B
:1030EB0002C001123B44FFC007125F53EFC43333DE
:1030FB0054C0FED0E04ED001D002D003123BDF9083
:10310B000247E0FBA3E0FAA3E02409F9E43AFAC092
:10311B0003C002C001123B44FFC0071268A8EFC4F2
:10312B003333335480FED0E04ED001D002D00312A3
:10313B003BDF900000E0FBA3E0FAA3E0F99001096C
:10314B00123B5D702F1265A1900247E0FBA3E0FAE2
:10315B00A3E0F990000AEF123BF11265C29002470F
:10316B00E0FBA3E0FAA3E0F990000BEF123BF112A6
:10317B0065A18042900000E0FBA3E0FAA3E0F99088
:10318B000109123B5D640670541265C2900247E060
:10319B00FBA3E0FAA3E0F990000AEF123BF11265F2
:1031AB00A1900247E0FBA3E0FAA3E0F990000BEF3C
:1031BB00123BF11265C2900247E0FBA3E0FAA3E0D9
:1031CB00F990000CEF123BF11265E3900247E0FB24
:1031DB00A3E0FAA3E0F990000DEF123BF190000091
:1031EB00E0FBA3E0FAA3E0F99000EF123B5DB4FF24
:1031FB002D900247E0FBA3E0FAA3E0F990000A74DC
:10320B00FF123BF190000B74FF123BF190000C741A
:10321B00FF123BF1900291E090000D123BF19002F6
:10322B0092E0FCA3E0FDECFF900247E0FBA3E0FA89
:10323B00A3E0F990000EEF123BF190000FED123B63
:10324B00F1900000E0FBA3E0FAA3E0F99001351246
:10325B003B5DFF900247E0FBA3E0FAA3E0F990008F
:10326B0011EF123BF1900000E0FBA3E0FAA3E0F9B1
:10327B00900134123B5DFF900247E0FBA3E0FAA301
:10328B00E0F9900012EF123BF1900017E4123BF1C2
:10329B00900018E4123BF1900019E4123BF19000FE
:1032AB001AE4123BF1900000E0FBA3E0FAA3E0F973
:1032BB009000EF123B5DFF64086004EFB4091790B8
:1032CB000291E0FF900247E0FBA3E0FAA3E0F99044
:1032DB00001AEF123BF1900247E0FBA3E0FAA3E0E8
:1032EB00F990001BE4123BF190001CE4123BF190AF
:1032FB00001DE4123BF190001EE4123BF1E9241F88
:10330B00F9E43AFAC003C002C001123B44FEC00606
:10331B00126858D0E04FD001D002D003123BDF909F
:10332B000247E0FBA3E0FAA3E0241FF9E43AFAC05A
:10333B0003C002C001123B44FFC007126880EF2597
:10334B00E0FED0E04ED001D002D003123BDF900262
:10335B0047E0FBA3E0FAA3E0F99000207422123BB4
:10336B00F190002174FF123BF1E92422F9E43AFABF
:10337B00C003C002C001123B44FFC007126664EFDA
:10338B00C43333335480FED0E04ED001D002D0038F
:10339B00123BDF900247E0FBA3E0FAA3E02422F903
:1033AB00E43AFAC003C002C001123B44FFC007124B
:1033BB00667BEFC4333354C0FED0E04ED001D00255
:1033CB00D003123BDF900247E0FBA3E0FAA3E0241B
:1033DB0022F9E43AFAC003C002C001123B44FFC019
:1033EB0007126692EFC43354E0FED0E04ED001D00A
:1033FB0002D003123BDF900247E0FBA3E0FAA3E00D
:10340B002422F9E43AFAC003C002C001123B44FF84
:10341B00C0071266A9EFC454F0FED0E04ED001D025
:10342B0002D003123BDF900247E0FBA3E0FAA3E0DC
:10343B002422F9E43AFAC003C002C001123B44FF54
:10344B00C0071266C0EF33333354F8FED0E04ED0D2
:10345B0001D002D003123BDF900247E0FBA3E0FA5E
:10346B00A3E02422F9E43AFAC003C002C001123BE4
:10347B0044FFC0071266D7EF25E025E0FED0E04EF3
:10348B00D001D002D003123BDF900000E0FBA3E0A1
:10349B00FAA3E0F9900136123B5DB4011890024794
:1034AB00E0FBA3E0FAA3E0242FF9E43AFA123B4441
