:10877100EFD3940540037F0122124D8DFED3940364
:1087810040037F0222EF7041EE700B900001124D09
:10879100A6F452935294124D8DB4010B9000011224
:1087A1004DA64293F45294124D8DFEB4020A9000EC
:1087B10001124DA642934294EEB4030D90000112B2
:1087C1004DA6FEF45293EE4294EF64017043124DB4
:1087D1008DFE700B900001124DA6F452915292EE53
:1087E100B4010B900001124DA64291F45292124D28
:1087F1008DB4020A900001124DA642914292124D8F
:108801008DB4030D900001124DA6FEF45291EE427B
:1088110092EF64027043124D8DFE700B90000112B5
:108821004DA6F452955296EEB4010B900001124DF3
:10883100A64295F45296124D8DB4020A900001128F
:108841004DA642954296124D8DB4030D9000011232
:108851004DA6FEF45295EE4296EF64037043124D1D
:108861008DFE700B900001124DA6F452B152B2EE82
:10887100B4010B900001124DA642B1F452B2124D57
:108881008DB4020A900001124DA642B142B2124DBE
:108891008DB4030D900001124DA6FEF452B1EE42CB
:1088A100B2EF64047043124D8DFE700B9000011203
:1088B1004DA6F452B352B4EEB4010B900001124D27
:1088C100A642B3F452B4124D8DB4020A90000112C3
:1088D1004DA642B342B4124D8DB4030D9000011266
:1088E1004DA6FEF452B3EE42B4EF64057043124D4F
:1088F1008DFF700B900001124DA6F452C952CAEFC0
:10890100B4010B900001124DA642C9F452CA124D96
:108911008DB4020A900001124DA642C942CA124DFD
:108921008DB4030D900001124DA6FFF452C9EF4220
:04893100CA7F0022D7
:0DB0BE00E4F5C7F5C5F5C675C380F5C422DD
:10ADA40075C78275C5018FC4EEF5C375C65A75C6DD
:07ADB400A500AFC212B0BE02
:01ADBB002275
:10AD8B0075C78275C5028FC4EEF5C3AF058FC2754B
:09AD9B00C65A75C6A50002B0BE3F
:10AE750075C78275C5038FC4EEF5C375C65A75C609
:05AE8500A50002B0BEB3
:1057F800900C83EBF0A3EAF0A3E9F0900C82EFF0B1
:10580800E4900C86F0EF64016003025985900C82E5
:10581800E0FF75F00DA424FBF582E43403F58374EE
:1058280001F0A37404F0A3743CF0EF75F00DA42408
:10583800FEF582E43403F5837401F0A37406F0A343
:10584800742FF0EF75F00DA424FBF582E43403F512
:1058580083E0FBA3E0FAA3E0F9EF75F00DA42401BF
:10586800F582E43404F583EBF0A3EAF0A3E9F0EF62
:1058780075F00DA424FBF582E43403F583E0FBA363
:10588800E0FAA3E0F9EF75F00DA42404F582E434FE
:1058980004F583EBF0A3EAF0A3E9F0EF75F00DA4AB
:1058A8002407F582E43404F583E4F07E017FF4FDF7
:1058B8007B017A04793C125122900C83E0FBA3E02F
:1058C800FAA3E0F9900001124DA6640170305387E5
:1058D8007F759850438E40538EFE53890F4389201D
:1058E80090000212506F7F007E8C7D0A7C00124F60
:1058F80085EFF404F58BF58DC2ABD28E806A900CDF
:1059080083E0FBA3E0FAA3E0F9900001124DA6643E
:1059180002706A759850438E01438E0490000212FB
:10592800506F7F007E607D547C00124F85C374FFEA
:105938009FF5D7900C83E0FBA3E0FAA3E0F9900071
:105948000212506F7F007E607D547C00124F85C329
:1059580074FF9FFF74FF9EFEE49DFDE49CFC7808A5
:1059680012504C8FD6438E10900C83E0FBA3E0FAC4
:10597800A3E0F9900008124DA624FF92AC900C8287
:10598800E064026003025AA8E0FF75F00DA424FB4E
:10599800F582E43403F5837401F0A37406F0A3746C
:1059A80030F0EF75F00DA424FEF582E43403F5839E
:1059B8007401F0A37406F0A374C5F0EF75F00DA49C
:1059C80024FBF582E43403F583E0FBA3E0FAA3E0CB
:1059D800F9EF75F00DA42401F582E43404F583EBA6
:1059E800F0A3EAF0A3E9F0EF75F00DA424FBF5822B
:1059F800E43403F583E0FBA3E0FAA3E0F9EF75F0E4
:105A08000DA42404F582E43404F583EBF0A3EAF052
:105A1800A3E9F0EF75F00DA42407F582E43404F54A
:105A280083E4F0FE7F96FD7B017A067930125122DD
:105A3800759A50438E04900C83E0FBA3E0FAA3E030
:105A4800F990000212506F7F007E607D547C001236
:105A58004F85C374FF9FF5D7900C83E0FBA3E0FA52
:105A6800A3E0F990000212506F7F007E607D547CA5
:105A780000124F85C374FF9FFF74FF9EFEE49DFDD7
:105A8800E49CFC780812504C8FD6438E10900C83FF
:105A9800E0FBA3E0FAA3E0F9900008124DA642AF9C
:105AA800900C82E0FF64036003025C49EF75F00D1F
:105AB800A424FBF582E43403F5837401F0A374068F
:105AC800F0A374C6F0EF75F00DA424FEF582E4345B
:105AD80003F5837401F0A37407F0A3745BF0EF750A
:105AE800F00DA424FBF582E43403F583E0FBA3E086
:105AF800FAA3E0F9EF75F00DA42401F582E434046B
:105B0800F583EBF0A3EAF0A3E9F0EF75F00DA42418
:105B1800FBF582E43403F583E0FBA3E0FAA3E0F9A4
:105B2800EF75F00DA42404F582E43404F583EBF05A
:105B3800A3EAF0A3E9F0EF75F00DA42407F582E4D9
:105B48003404F583E4F0FE7F96FD7B017A0679C67E
:105B5800125122900C83E0FBA3E0FAA3E0F9900035
:105B680001124DA66402705775AC1053ACBF438E3A
:105B78000490000212506F7F007E607D547C0012FA
:105B88004F85C374FF9FF5D7900C83E0FBA3E0FA21
:105B9800A3E0F990000212506F7F007E607D547C74
:105BA80000124F85C374FF9FFF74FF9EFEE49DFDA6
:105BB800E49CFC780812504C8FD6438E10806A9073
:105BC8000C83E0FBA3E0FAA3E0F9900001124DA6D4
:105BD8006403706D75AC1043AC4043D10290000271
:105BE80012506F7F007E607D547C00124F85C37415
:105BF800FF9FF5D5900C83E0FBA3E0FAA3E0F990B2
:105C0800000212506F7F007E607D547C00124F8529
:105C1800C374FF9FFF74FF9EFEE49DFDE49CFC7827
:105C28000812504C8FD443D108900C83E0FBA3E0BA
:105C3800FAA3E0F9900008124DA633333354F84222
:105C4800AF900C82E0FF64046003025DE8EF75F03A
:105C58000DA424FBF582E43403F5837401F0A374E6
:105C680007F0A3745CF0EF75F00DA424FEF582E450
:105C78003403F5837401F0A37407F0A374F1F0EF13
:105C880075F00DA424FBF582E43403F583E0FBA34F
:105C9800E0FAA3E0F9EF75F00DA42401F582E434ED
:105CA80004F583EBF0A3EAF0A3E9F0EF75F00DA497
:105CB80024FBF582E43403F583E0FBA3E0FAA3E0D8
:105CC800F9EF75F00DA42404F582E43404F583EBB0
:105CD800F0A3EAF0A3E9F0EF75F00DA42407F5822C
:105CE800E43404F583E4F0FE7F96FD7B017A0779BE
:105CF8005C125122900C83E0FBA3E0FAA3E0F99038
:105D08000001124DA6640270577584105384BF4376
:105D18008E0490000212506F7F007E607D547C00DC
:105D2800124F85C374FF9FF5D7900C83E0FBA3E067
:105D3800FAA3E0F990000212506F7F007E607D5454
:105D48007C00124F85C374FF9FFF74FF9EFEE49D85
:105D5800FDE49CFC780812504C8FD6438E10806A64
:105D6800900C83E0FBA3E0FAA3E0F9900001124D48
:105D7800A66404706B75841043844043D12090005E
:105D88000212506F7F007E607D547C00124F85C3E5
:105D980074FF9FF5D3900C83E0FBA3E0FAA3E0F92E
:105DA80090000212506F7F007E607D547C00124F7D
:105DB80085C374FF9FFF74FF9EFEE49DFDE49CFC79
:105DC800780812504C8FD243D180900C83E0FBA30B
:105DD800E0FAA3E0F9900008124DA6C454F042AFCF
:015DE8002298
:03002300029CA993
:109CA900C0E0C0F0C083C082C0D075D000C000C081
:109CB90001C002C003209803029D93C29890040E2C
:109CC900E0FBA3E0FAA3E0F9C003C002C0019004DD
:109CD90011A3E0FAA3E0F9C3D082D083D0E0E995DB
:109CE90082EA95834036900414E0B4012F90040869
:109CF900E0F9A3E0FAA3E0900411C9F0A3EAF0A304
:109D0900E9F0900408E0F9A3E0FAA3E090040EC991
:109D1900F0A3EAF0A3E9F0900414E4F090040BE056
:109D2900FBA3E0FAA3E0F9C003C002C0019004114B
:109D3900E0FBA3E0FAA3E0F9D082D083D0E06B7016
:109D490008E965827003EA6583900411702AE0FBD3
:109D5900A3E0FAA3E0F9E599124E28900408E0F986
:109D6900A3E0FAA3E0900411C9F0A3EAF0A3E9F093
:109D79009004147401F08012E0FBA3E475F0011261
:109D89004E84A9F0FAE599124E28D003D002D001E9
:0D9D9900D000D0D0D082D083D0F0D0E03206
:0300430002999788
:10999700C0E0C0F0C083C082C0D075D000C000C096
:1099A70001C002C003E59A20E003029A8A539AFE97
:1099B70090041BE0FBA3E0FAA3E0F9C003C002C0D8
:1099C7000190041EE0FBA3E0FAA3E0F9D082D08364
:1099D700D0E06B7008E965827003EA6583703690A2
:1099E7000421E0B4012F900415E0F9A3E0FAA3E005
:1099F70090041EC9F0A3EAF0A3E9F0900415E0F97A
:109A0700A3E0FAA3E090041BC9F0A3EAF0A3E9F0EE
:109A1700900421E4F0900418E0FBA3E0FAA3E0F936
:109A2700C003C002C00190041EE0FBA3E0FAA3E05C
:109A3700F9D082D083D0E06B7008E965827003EAC1
:109A4700658390041E702AE0FBA3E0FAA3E0F9E522
:109A57009B124E28900415E0F9A3E0FAA3E09004C6
:109A67001EC9F0A3EAF0A3E9F09004217401F08085
:109A770012E0FBA3E475F001124E84A9F0FAE59B0E
:109A8700124E28D003D002D001D000D0D0D082D03F
:069A970083D0F0D0E032A4
:03008B00029A9D39
:109A9D00C0E0C0F0C083C082C0D075D000C000C08F
:109AAD0001C002C003E5AC20E003029B9053ACFE65
:109ABD00900428E0FBA3E0FAA3E0F9C003C002C0C4
:109ACD000190042BE0FBA3E0FAA3E0F9D082D08350
:109ADD00D0E06B7008E965827003EA65837036909B
:109AED00042EE0B4012F900422E0F9A3E0FAA3E0E4
:109AFD0090042BC9F0A3EAF0A3E9F0900422E0F959
:109B0D00A3E0FAA3E0900428C9F0A3EAF0A3E9F0DA
:109B1D0090042EE4F0900425E0FBA3E0FAA3E0F915
:109B2D00C003C002C00190042BE0FBA3E0FAA3E048
:109B3D00F9D082D083D0E06B7008E965827003EABA
:109B4D00658390042B702AE0FBA3E0FAA3E0F9E50E
:109B5D00AD124E28900422E0F9A3E0FAA3E09004A0
:109B6D002BC9F0A3EAF0A3E9F090042E7401F08064
:109B7D0012E0FBA3E475F001124E84A9F0FAE5ADF5
:109B8D00124E28D003D002D001D000D0D0D082D038
:069B9D0083D0F0D0E0329D
:03009300029BA32A
:109BA300C0E0C0F0C083C082C0D075D000C000C088
:109BB30001C002C003E58420E003029C965384FEA7
:109BC300900435E0FBA3E0FAA3E0F9C003C002C0B0
:109BD30001900438E0FBA3E0FAA3E0F9D082D0833C
:109BE300D0E06B7008E965827003EA658370369094
:109BF300043BE0B4012F90042FE0F9A3E0FAA3E0C3
:109C0300900438C9F0A3EAF0A3E9F090042FE0F937
:109C1300A3E0FAA3E0900435C9F0A3EAF0A3E9F0C6
:109C230090043BE4F0900432E0FBA3E0FAA3E0F9F4
:109C3300C003C002C001900438E0FBA3E0FAA3E034
:109C4300F9D082D083D0E06B7008E965827003EAB3
:109C53006583900438702AE0FBA3E0FAA3E0F9E5FA
:109C630085124E2890042FE0F9A3E0FAA3E09004B4
:109C730038C9F0A3EAF0A3E9F090043B7401F08043
:109C830012E0FBA3E475F001124E84A9F0FAE58516
:109C9300124E28D003D002D001D000D0D0D082D031
:069CA30083D0F0D0E03296
:108FE400900CB0EBF0A3EAF0A3E9F0900CAFEFF033
:108FF40075F00DA42404F582E43404F583E0F9A3A8
:10900400E0FAA3E0900CB5C9F0A3EAF0A3E9F0EF0D
:1090140075F00DA42401F582E43404F583E0F9A38A
:10902400E0FAA3E0900CB8C9F0A3EAF0A3E9F0E4F5
:10903400FFFE900CB0E0F9A3E0FAA3E0900CBBC9EA
:10904400F0A3EAF0A3E9F0900CB5E0FBA3E0FAA3E7
:10905400E0F9C003C002C001A3E0FBA3E0FAA3E06F
:10906400F9D082D083D0E06B7008E965827003EA9E
:109074006583700302914F0FBF00010ED3900CB4AF
:10908400E09F900CB3E09E500302914F900CAFE030
:1090940075F00DA424FEF582E43403F583E0FBA30C
:1090A400E0FAA3E0F9C003C002C001900CB8E0FBF1
:1090B400A3E0FAA3E0F9D082D083D0E06B7008E992
:1090C40065827003EA6583900CB87057E0FBA3E0F7
:1090D400FAA3E0F9124D8DFD900CB0E0FBA3E4750A
:1090E400F001124E84A9F0FAED124E28900CAFE074
:1090F400FD75F00DA424FBF582E43403F583E0F957
:10910400A3E0FAA3E0900CB8C9F0A3EAF0A3E9F055
:10911400ED75F00DA42407F582E43404F583E4F03E
:1091240002904BE0FBA3E475F001124E84A9F0FA1F
:10913400124D8DFD900CB0E0FBA3E475F001124ECE
:1091440084A9F0FAED124E2802904B900CB5E0FB86
:10915400A3E0FAA3E0F9900CAFE075F00DA42401AC
:0F916400F582E43404F583EBF0A3EAF0A3E9F01D
:0191730022D9
:10000300EF24FE600D14600E14600F2403700EC203
:0E001300AC2253AFFE2253AFF72253AFEF22C1
:10AD3700EF24FE600D14600E14600F2403700ED212
:0EAD4700AC2243AF012243AF082243AF1022DB
:05A08800900C73EFF0E5
:10A08D00E4FDFCEF700302A163E0FF120003E07535
:10A09D00F00DA424FBF582E43403F583A3E0FAA3C9
:10A0AD00E0AE02FF900C73E075F00DA424FEF58276
:10A0BD00E43403F583A3E0FAA3E0C39FFFEA9ECF48
:10A0CD002401FDE43FFCFEAF057D00900C73E075AF
:10A0DD00F00DA424FBF582E43403F583E0FBA3E04B
:10A0ED00FAA3E0F9125122900C73E0FF75F00DA464
:10A0FD0024FBF582E43403F583E0FBA3E0FAA3E04F
:10A10D00F9EF75F00DA42404F582E43404F583EB26
:10A11D00F0A3EAF0A3E9F0EF75F00DA424FBF582AE
:10A12D00E43403F583E0FBA3E0FAA3E0F9EF75F067
:10A13D000DA42401F582E43404F583EBF0A3EAF0D9
:10A14D00A3E9F0EF75F00DA42407F582E43404F5CE
:06A15D0083E4F012AD37AF
:01A1630022D9
:10AD5500000000000001C2000000960000004B004A
:0CAD650000002580000012C00000096002
:10A3C20012AB6812B0D712A9C8900C741250AB002D
:10A3D20001C2007F01127DC9900C741250AB0001C2
:10A3E200C2007F01127DC9900C741250AB0001C2F1
:10A3F200007F02127DC9900AB5E0FBA3E0FAA3E058
:10A40200F9124D8D6073900001124DA6C39407504E
:10A412004B124D8DFFC007900001124DA625E0257D
:10A42200E02455F582E434ADF58312505F900C744C
:10A4320012509FD007127DC9900AB5E0FBA3E0FA43
:10A44200A3E0F9124D8DFF12A088900AB5E0FBA39C
:10A45200E0FAA3E0F9124D8DFF12AD37900AB5E094
:10A46200FBA3E0FAA3E0F9900137124DA6B401096B
:0CA4720012673B9008707401F0D2AF221A
:10673B00126BAD900AB5E0FBA3E0FAA3E0F9124DA2
:10674B008D6056900001124DA6C39407504B124D0D
:10675B008DFFC007900001124DA625E025E02455C2
:10676B00F582E434ADF58312505F900C7412509F98
:10677B00D007127DC9900AB5E0FBA3E0FAA3E0F9BC
:10678B00124D8DFF12A088900AB5E0FBA3E0FAA38F
:10679B00E0F9124D8DFF12AD37900AB5E0FBA3E087
:1067AB00FAA3E0F9900003124DA6FF606E124D8D17
:1067BB006F6068900004124DA6C39407505D900063
:1067CB0003124DA6FFC007900004124DA625E0252D
:1067DB00E02455F582E434ADF58312505F900C74D0
:1067EB0012509FD007127DC9900AB5E0FBA3E0FAC7
:1067FB00A3E0F9900003124DA6FF12AD37900AB536
:10680B00E0FBA3E0FAA3E0F9900005124DA6D394A8
:10681B00004008E5A2543F4480F5A2900AB5E0FB86
:10682B00A3E0FAA3E0F9900006124DA6FF60501208
:10683B004D8D6F604A900007124DA6C39407503FD1
:10684B00900006124DA6FFC007900007124DA6251B
:10685B00E025E02455F582E434ADF58312505F90CA
:10686B000C7412509FD007127DC9900AB5E0FBA3A0
:10687B00E0FAA3E0F9900006124DA6FF12AD379097
:10688B000AB5E0FBA3E0FAA3E0F9900009124DA6CC
:10689B00FF6050124D8D6F604A90000A124DA6C3D7
:1068AB009407503F900009124DA6FFC00790000AB5
:1068BB00124DA625E025E02455F582E434ADF58391
:1068CB0012505F900C7412509FD007127DC9900A22
:1068DB00B5E0FBA3E0FAA3E0F990000A124DA6FF86
:1068EB0012AD37900AB5E0FBA3E0FAA3E0F99000F4
:1068FB000C124DA6FF6050124D8D6F604A90000D2B
:10690B00124DA6C39407503F90000C124DA6FFC02A
:10691B000790000D124DA625E025E02455F582E4E5
:10692B0034ADF58312505F900C7412509FD0071248
:10693B007DC9900AB5E0FBA3E0FAA3E0F990000C47
:10694B00124DA6FF12AD37900AB5E0FBA3E0FAA3F8
:10695B00E0F990000F124DA6FF6050124D8D6F6045
:10696B004A900010124DA6C39407503F90000F128F
:10697B004DA6FFC007900010124DA625E025E02480
:10698B0055F582E434ADF58312505F900C741250C0
:10699B009FD007127DC9900AB5E0FBA3E0FAA3E0F4
:1069AB00F990000F124DA6FF12AD37900AB5E0FB20
:1069BB00A3E0FAA3E0F9900012124DA6FF6050126B
:1069CB004D8D6F604A900013124DA6C39407503F34
:1069DB00900012124DA6FFC007900013124DA62572
:1069EB00E025E02455F582E434ADF58312505F9039
:1069FB000C7412509FD007127DC9900AB5E0FBA30F
:106A0B00E0FAA3E0F9900012124DA6FF12AD3790F9
:106A1B000AB5E0FBA3E0FAA3E0F9900015124DA62E
:106A2B00FF6050124D8D6F604A900016124DA6C339
:106A3B009407503F900015124DA6FFC0079000160B
:106A4B00124DA625E025E02455F582E434ADF583FF
:106A5B0012505F900C7412509FD007127DC9900A90
:106A6B00B5E0FBA3E0FAA3E0F9900015124DA6FFE9
:106A7B0012AD37900AB5E0FBA3E0FAA3E0F9900062
:106A8B0018124DA6FF6050124D8D6F604A90001981
:106A9B00124DA6C39407503F900018124DA6FFC08D
:106AAB0007900019124DA625E025E02455F582E448
:106ABB0034ADF58312505F900C7412509FD00712B7
:106ACB007DC9900AB5E0FBA3E0FAA3E0F9900018AA
:106ADB00124DA6FF12AD37900AB5E0FBA3E0FAA367
:106AEB00E0F990001E124DA6FF6050124D8D6F60A5
:106AFB004A90001F124DA6C39407503F90001E12E0
:106B0B004DA6FFC00790001F124DA625E025E024DF
:106B1B0055F582E434ADF58312505F900C7412502E
:106B2B009FD007127DC9900AB5E0FBA3E0FAA3E062
:106B3B00F990001E124DA6FF12AD37900AB5E0FB7F
:106B4B00A3E0FAA3E0F9900021124DA6FF605012CA
:106B5B004D8D6F604A900022124DA6C39407503F93
:106B6B00900021124DA6FFC007900022124DA625C2
:106B7B00E025E02455F582E434ADF58312505F90A7
:106B8B000C7412509FD007127DC9900AB5E0FBA37D
:106B9B00E0FAA3E0F9900021124DA6FF12AD3702E7
:026BAB00AA7FBF
:10A16400900AB5E0FBA3E0FAA3E0F9900003124DD6
:10A17400A6600353A23F900006124DA6FF6003128F
:10A184000003900AB5E0FBA3E0FAA3E0F99000090C
:10A19400124DA6FF6003120003900AB5E0FBA3E092
:10A1A400FAA3E0F990000C124DA6FF60031200031D
:10A1B400900AB5E0FBA3E0FAA3E0F990000F124D7A
:10A1C400A6FF6003120003900AB5E0FBA3E0FAA324
:10A1D400E0F9900012124DA6FF6003120003900AEA
:10A1E400B5E0FBA3E0FAA3E0F9900015124DA6FF39
:10A1F4006003120003900AB5E0FBA3E0FAA3E0F9C0
:10A20400900018124DA6FF6003120003900AB5E0F7
:10A21400FBA3E0FAA3E0F9900021124DA6FF60032E
:10A22400120003900AB5E0FBA3E0FAA3E0F9900062
:0BA234001E124DA6FF60031200032263
:10AB6800900C6374FFF0E4900C62F07B017A0C792E
:10AB780062FF1287717B017A0C79627F01128771FB
:10AB88007B017A0C79627F021287717B017A0C79DA
:10AB9800627F031287717B017A0C79627F040287D6
:01ABA800713B
:0BB0D700438905E4F58CF58AD28C2239
:10A9C800900AB5E0FBA3E0FAA3E0F99000D1124D9C
:10A9D800A624FE6018146020146029146032240430
:10A9E8007039438905E4F58CF58AD28C2243895065
:10A9F800E4F58DF58BD28E22438E08E4F5D6F5D793
:10AA0800438E102243D104E4F5D4F5D5438E0822B1
:0CAA180043D140E4F5D2F5D3438E8022F8
:109F9300EF14B42000400302A085909FAB75F0033B
:109FA300A4C58325F0C5837302A00B02A00F02A0F2
:109FB3001302A01702A01B02A01F02A02302A027C6
:109FC30002A02B02A02F02A03302A03702A03B0263
:109FD300A03F02A04302A04702A04B02A04F02A051
:109FE3005302A05702A05B02A05F02A06302A06716
:109FF30002A06B02A06F02A07302A07702A07B02F3
:10A00300A07F02A07F02A07FA2C58072A2A7806E5C
:10A01300A282806AA2A68066A2838062A2A5805ED5
:10A02300A284805AA2A48056A2858052A2A3804E05
:10A03300A286804AA2A28046A2878042A2A1803E35
:10A04300A2A0803AA2C48036A2928032A2C2802EFD
:10A05300A293802AA2C18026A2948022A2B7801E46
:10A06300A295801AA2B68016A2B58012A2B4800E61
:10A07300A2B3800AA2B28006A2CC8002A2CDE433AE
:05A08300FF227F012215
:10A51B00E4FE124D8DFF129F93124D8DC39440405C
:10A52B00037F0022900003124DA6B4FF0790000397
:10A53B00E4124E3A900006124DA6703290000112B2
:10A54B004DA6B507059000058058900002124DA648
:10A55B00FD900005124DA6C39D500C900005740193
:10A56B00124DF57E0180419000067401800D900024
:10A57B0001124DA66F600B900005E4124E3AE4FEFB
:10A58B008026900003124DA6FF900005124DA6C326
:10A59B009F500C9000057401124DF5E4FE8009905C
:0AA5AB000006E4124E3A7E01AF06EE
:01A5B5002283
:0E917400900C7EEBF0A3EAF0A3E9F0A3EDF07F
:10918200900C7EE0FBA3E0FAA3E0F9EDFF7E00E99C
:109192002FF9EE3AFA90FFFF124DA6FEE4900C82F0
:1091A200F0AF06129F93AD07E4900C83F0AF06EF89
:1091B200C3944040037F0022900C7EE0FBA3E0FAC0
:1091C200A3E0F9900012124DA6FF900C81E0FE146C
:1091D200FCEFA804088002C313D8FC5401900C834E
:1091E200F0EE2409F582E433F583124DA6900011C6
:1091F200124E3A900008124DA6B4FF12900C7EE077
:10920200FBA3E0FAA3E0F9900008E4124E3A900CB6
:1092120083E07051900C7EE0FBA3E0FAA3E0F990AA
:109222000006124DA6B50509900011E4124E3A80CF
:1092320024900007124DA6FF900011124DA6C39F65
:10924200501B900C7EE0FBA3E0FAA3E0F990001122
:109252007401124DF5900C827401F0805A900C83C7
:109262007401F08041900C7EE0FBA3E0FAA3E0F9E8
:10927200900006124DA66D6009900011E4124E3A5C
:109282008024900008124DA6FF900011124DA6C333
:109292009F501A900C7EE0FBA3E0FAA3E0F9900045
:1092A200117401124DF5E4900C82F0800AE4900CE6
:1092B20083F0900C8204F0900C7EE0FBA3E0FAA312
:1092C200E0F9900011124DA6FF900C81E0FE2409F6
:1092D200F582E433F583EF124E3AE92412F9E43AC7
:1092E200FA124D8DFFEE14FE900C83E0FDA80608E5
:0F92F2008002C333D8FC4F124E28900C82E0FF4D
:019301002249
:05930200900C7FEDF06E
:10930700E4900C82F0900C80E0900C83F0E4900CD9
:109317007FE075F012A42446F582E4340DF583E06E
:10932700FEA3E0FF900C81E0FDEFA805088005CEC5
:10933700C313CE13D8F95401FF900C7FE075F012D8
:10934700A42436F582E4340DF583E5822DF582E415
:109357003583F583E0900005124E3A900003124DD5
:10936700A6B4FF07900003E4124E3AEF7035900C55
:1093770083E0B40109900005E4124E3A8019900089
:1093870002124DA6FE900005124DA6C39E501090E6
:1093970000057401124DF5900C827401F0803C7F3A
:1093A70001802A900C83E064016009900005E412B3
:1093B7004E3A8019900003124DA6FE900005124DFB
:1093C700A6C39E500F9000057401124DF5E4900C52
:1093D70082F08007E4FF900C8204F0900005124DA4
:1093E700A6FE900C81E0FD900C7FE0FC75F012A4C6
:1093F7002436F582E4340DF583E5822DF582E435D4
:1094070083F583EEF0EF7031EC75F012A42446F586
:1094170082E4340DF583C083C082E0FAA3E0FB74D5
:10942700017E00A805088005C333CE33CED8F9F4F2
:10943700FFEEF45AFEEB5F8035900C7FE075F0127B
:10944700A42446F582E4340DF583C083C082E0FC92
:10945700A3E0FD900C81E0FF74017E00A80708805F
:1094670005C333CE33CED8F9FFEC4EFEED4FFFD018
:0D94770082D083EEF0A3EFF0900C82E0FFB6
:0194840022C5
:10A87F004253505F476574557361727452784275D5
:10A88F00666665723A496E646578206F76657266A2
:10A89F006C6F772121212020555341525478203D50
:10A8AF002025623032640D0A0052786C656E746830
:10A8BF003A496E646578206F766572666C6F7721A2
:10A8CF0021212020555341525478203D20256230BC
:10A8DF0032640D0A002562303258002A000D0A003A
:03A8EF0000000066
:10B0AD00900CDFEFF0FD7F0212AC88900CDFE0FF1B
:01B0BD002270
:057DC900900C73EFF0C7
:107DCE0064016003027E5AE0FF75F00AA424D6F522
:107DDE0082E43403F5837401F0A37400F0A37400FD
:107DEE00F0EF75F00AA424D9F582E43403F5837418
:107DFE0001F0A37401F0A374FFF0EF75F00AA42450
:107E0E00D6F582E43403F583E0FBA3E0FAA3E0F9B0
:107E1E00EF75F00AA424DCF582E43403F583EBF06D
:107E2E00A3EAF0A3E9F0EF75F00AA424DFF582E4EB
:107E3E003403F583E4F07E02FFFD7B017A007900C6
:107E4E00125122900C797401F0028007900C73E0AD
:107E5E00FF64026003027EEAEF75F00AA424D6F5F1
:107E6E0082E43403F5837401F0A37402F0A374006A
:107E7E00F0EF75F00AA424D9F582E43403F5837487
:107E8E0001F0A37402F0A3749FF0EF75F00AA4241E
:107E9E00D6F582E43403F583E0FBA3E0FAA3E0F920
:107EAE00EF75F00AA424DCF582E43403F583EBF0DD
:107EBE00A3EAF0A3E9F0EF75F00AA424DFF582E45B
:107ECE003403F583E4F0FE7FA0FD7B017A02790096
:107EDE00125122900C797402F0028007900C73E01C
:107EEE00FF64036003027F7AEF75F00AA424D6F5CF
:107EFE0082E43403F5837401F0A37402F0A374A03A
:107F0E00F0EF75F00AA424D9F582E43403F58374F6
:107F1E0001F0A37403F0A3743FF0EF75F00AA424EC
:107F2E00D6F582E43403F583E0FBA3E0FAA3E0F98F
:107F3E00EF75F00AA424DCF582E43403F583EBF04C
:107F4E00A3EAF0A3E9F0EF75F00AA424DFF582E4CA
:107F5E003403F583E4F0FE7FA0FD7B017A0279A065
:107F6E00125122900C797403F0028007900C73E08A
:107F7E00FF64046003028048EF75F00AA424D6F56E
:107F8E0082E43403F5837401F0A37403F0A3744008
:107F9E00F0EF75F00AA424D9F582E43403F5837466
:107FAE0001F0A37403F0A374DFF0EF75F00AA424BC
:107FBE00D6F582E43403F583E0FBA3E0FAA3E0F9FF
:107FCE00EF75F00AA424DCF582E43403F583EBF0BC
:107FDE00A3EAF0A3E9F0EF75F00AA424DFF582E43A
:107FEE003403F583E4F0FE7FA0FD7B017A03794034
:107FFE00125122900C797404F0E4FFFEFDFC900CFB
:10800E0074E0F8A3E0F9A3E0FAA3E0FBC312503B3F
:10801E006028900C74E0FCA3E0FDA3E0FEA3E0FF5B
:10802E00900C7A12509F900C807401F0900C73E0BB
:0A803E00FF7B017A0C79781257F8E5
:018048002215
:10804900900CA6EBF0A3EAF0A3E9F0900CA5EFF0F1
:10805900E4900CABF0A3F0A3F0A3F0EF600A900C4E
:10806900A5E0FBC394054004E4FEFF22EB75F00A8A
:10807900A424DCF582E43403F583A3E0FAA3E0AE9B
:1080890002FF900CA5E075F00AA424D9F582E43426
:1080990003F583A3E0FAA3E0C39FFFEA9EFEEF2462
:1080A90001FDE43EFC900CA5E0FF75F00AA424DC78
:1080B900F582E43403F583E0FBA3E0FAA3E0F99049
:1080C9000CB3ECF0A3EDF0128FE4900CABEEF0A33F
:1080D900EFF0900CA5E0FF75F00AA424DCF582E42A
:1080E9003403F583E0FBA3E0FAA3E0F9900CABE0DD
:1080F900FCA3E0FDE92DF9EA3CFAEF75F00AA424A6
:10810900DCF582E43403F583EBF0A3EAF0A3E9F0AC
:10811900900CA5E0FF75F00AA424D6F582E4340397
:10812900F583A3E0FAA3E0AC02FDEF75F00AA424FD
:10813900DCF582E43403F583A3E0FAA3E0C39DFEF2
:10814900EA9C900CABF0A3CEF0900CA5E0FF75F083
:108159000AA424D9F582E43403F583E0FBA3E0FA09
:10816900A3E0F9C003C002C001EF75F00AA424DC42
:10817900F582E43403F583A3E0FAA3E0F9C3D082DE
:10818900D083D0E0E99582EA9583401B12A47E7BD7
:10819900FF7AA8797F900CA5E0900CB2F0126323C6
:1081A900E4900CABF0A3F0900CA9E0FEA3E0FFC3B0
:1081B900900CACE09F900CABE09E500302824AEE1B
:1081C900F0A3EFF07BFF7AA879B8900CA5E0900CAA
:1081D900B2F0126323E4900CADF0A3F0900CA9E087
:1081E900FEA3E0FF900CADE0FCA3E0FDC39FEC9E75
:1081F9005045900CA5E075F00AA424D6F582E43424
:1082090003F583E0FBA3E0FAA3E0F98D828C8312E6
:108219004DA6FF900CA6E0FBA3E475F001124E8475
:10822900A9F0FAEF124E28900CAEE004F070069017
:108239000CADE004F080A5900CA5E0FF12A47E80AF
:1082490060E4900CADF0A3F0900CABE0FEA3E0FF6E
:10825900A3E0FCA3E0FDC39FEC9E5045900CA5E074
:1082690075F00AA424D6F582E43403F583E0FBA370
:10827900E0FAA3E0F98D828C83124DA6FF900CA63B
:10828900E0FBA3E475F001124E84A9F0FAEF124E57
:1082990028900CAEE004F07006900CADE004F0807C
:1082A900A7900CA6E0FBA3E0FAA3E0F9E4124E289C
:0882B900900CABE0FEA3E0FF16
:0182C100229A
:10851D00900C90EBF0A3EAF0A3E9F0900C8FEFF044
:10852D00E4900C99F0A3F0F9A3C9F0A3F0A3E9F03E
:10853D00A3E4F0A3F0A3F0F9A3C9F0A3F0A3E9F02D
:10854D00E4A3F0EF600A900C8FE0FDC394054004A6
:10855D00E4FEFF22AF05900C90E0FBA3E0FAA3E050
:10856D00F9A3E0FDA3E0900CA9CDF0A3EDF01280EE
:10857D0049900C99EEF0FCA3EFF0FD900C95E0F90D
:10858D00A3E0FAA3E0900CAAC9F0A3EAF0A3E9F0E6
:10859D00900C98E0FF900CADE4F0A3EFF0900C90F0
:1085AD00E0FBA3E0FAA3E0F9129485900CA1EBF0A7
:1085BD00A3EAF0A3E9F0900CA1E0FBA3E0FAA3E09D
:1085CD004A4B7022900C93E0FEA3E0FF7D00900CCF
:1085DD0090E0FBA3E0FAA3E0F9125122E4900C998C
:1085ED00F0A3F0FFFE22900C95E0FBA3E0FAA3E0D0
:1085FD00F9A3E0FF7E00E92FF9EE3AFA90FFFF12A2
:10860D004DA6B40A1B900CA1E0FBA3E0FAA3E02455
:10861D0001F9E43AFA900CA1EBF0A3EAF0A3E9F02A
:10862D00900C90A3E0FAA3E0AE02FF900CA1E0FB4A
:10863D00A3E0FAA3E0F9C39FFFEA9E900C99F0A383
:10864D00EFF0900C99E0FEA3E0FFC3900C94E09F37
:10865D00FF900C93E09EFE7D00125122900C8FE056
:10866D0075F00AA424D6F582E43403F583E0F9A36A
:10867D00E0FAA3E0900C9EC9F0A3EAF0A3E9F09014
:10868D000C9EE0FBA3E0FAA3E0F9900C99E0FEA3A9
:10869D00E0FFE92FF9EA3EFAA3EBF0A3EAF0A3E934
:1086AD00F0900C8FE0FF75F00AA424DCF582E43421
:1086BD0003F583E0FBA3E0FAA3E0F9C003C002C019
:1086CD0001900C9BA3E0FAA3E0F9C3D082D083D034
:1086DD00E0E99582EA9583502A900C9BE0FBA3E498
:1086ED0075F001124E84A9F0FA124D8DFE900C9E7C
:1086FD00E0FBA3E475F001124E84A9F0FAEE124EE0
:10870D0028809EEF75F00AA424D9F582E43403F590
:10871D0083A3E0FAA3E0AE02FF900C9EE0FBA3E082
:10872D00FAA3E0F9FDC3EF9DFFEE9ACF2401CF34FC
:10873D0000FE7D00125122900C9EE0FBA3E0FAA3F7
:10874D00E0F9900C8FE075F00AA424DCF582E43496
:10875D0003F583EBF0A3EAF0A3E9F0900C99E0FEAA
:03876D00A3E0FF87
:0187700022E6
:05A47E00900CAFEFF0AF
:10A48300EF700302A51AE0FFC39405400302A51A67
:10A49300EF75F00AA424D6F582E43403F583A3E030
:10A4A300FAA3E0AE02FF900CAFE075F00AA424D942
:10A4B300F582E43403F583A3E0FAA3E0C39FFFEA44
:10A4C3009ECF2401CF3400FCFE7D00900CAFE075DD
:10A4D300F00AA424D6F582E43403F583E0FBA3E079
:10A4E300FAA3E0F9125122900CAFE0FF75F00AA431
:10A4F30024D6F582E43403F583E0FBA3E0FAA3E07A
:10A50300F9EF75F00AA424DCF582E43403F583EB58
:07A51300F0A3EAF0A3E9F058
:01A51A00221E
:10004600EFB401063099FDC29922EFB40209E59A90
:1000560030E1FB539AFD22EFB40312E5AC30E10424
:100066007E0180027E00EE60F253ACFD22EFB40406
:1000760011E58430E1047F0180027F00EF60F253D6
:0300860084FD22D4
:10AC8800EF6027C394055022EF24FE600E14600F76
:10AC9800146010240370108D99800C8D9B80088D92
:0BACA800AD8004AE058E851200462230
:0EAA2400900C73EFF0A3EBF0A3EAF0A3E9F0BF
:10AA3200E4900C79F0A3F0900C79F0A3F0900C77ED
:10AA4200E0FEA3E0FFC3900C7AE09F900C79E09EB9
:10AA5200502A900C73E0FFA3E0FBA3E475F001120F
:10AA62004E84A9F0FA124D8DFD12AC88900C7AE05A
:0CAA720004F070C9900C79E004F080C181
:01AA7E0022B5
:0B974800900C70EBF0A3EAF0A3E9F036
:10975300E4900C78F0A3F0787A7C0C7D017BFF7A9F
:10976300A879EFFE7F03124D67900C7D742DF0E412
:10977300900C78F0A3F0900C77E024FFFF900C7628
:10978300E034FFFEC3900C79E09F900C78E09E508C
:1097930078900CB274FFF0A374A8F0A374E4F09073
:1097A3000C70E0FBA3E475F001124E84A9F0FA12E9
:1097B3004D8D900CB5F07B017A0C797A12631D9074
:1097C3000C817401F0A3740CF0A3747AF0900C7301
:1097D300E0FBA3E0FAA3E0F912A95D900C7DE0FFA2
:1097E300900C7AE0FEEF6EFF900C7DF0900C7BE026
:1097F3006F900C7DF0900C79E004F0600302977990
:10980300900C78E004F0029779900C8174FFF0A338
:1098130074A8F0A374EAF0900C73E0FBA3E0FAA33E
:10982300E0F912A95D900CB274FFF0A374A8F0A341
:1098330074E4F0900C7DE0900CB5F07B017A0C7928
:109843007A12631D900C817401F0A3740CF0A3745D
:109853007AF0900C73E0FBA3E0FAA3E0F912A95DA0
:10986300900C8174FFF0A374A8F0A374ECF0900C37
:0C98730073E0FBA3E0FAA3E0F902A95D9A
:1082C20061AA0AB8000000000000000000000000DF
:1082D200000000000000000000000000000000009C
:1082E200000000000000000000000000000000008C
:1082F200000000000000000000000000000000007C
:10830200000000000000000000000000000000006B
:10831200000000000000000000000000000000005B
:10832200000000000000000000000000000000004B
:10833200000000000000000000000000000000003B
:10834200000000000000000000000000000000002B
:10835200000000000000000000000000000000001B
:10836200000000000000000000000000000000000B
:1083720000000000000000000000000000000000FB
:1083820000000000000000000000000000000000EB
:1083920000000000000000000000000000000000DB
:1083A20000000000000000000000000000000000CB
:1083B20000000000000000000000000000000000BB
:1083C20000000000000000000000000000000000AB
:1083D200000000000000000000000000000000009B
:1083E200000000000000000000000000000000008B
:1083F200000000000000000000000000000000007B
:10840200000000000000000000000000000000006A
:10841200000000000000000000000000000000005A
:10842200000000000000000000000000000000004A
:10843200000000000000000000000000000000003A
:10844200000000000000000000000000000000002A
:10845200000000000000000000000000000000001A
:108462000000000000000000000000000000430ABD
:04847200B5010AB88E
:1020A8007F017E0012ADA4900AB5E0FBA3E0FAA37D
:1020B800E0F9EF124E287F027E0012ADA4900AB517
:1020C800E0FBA3E0FAA3E0F9900001EF124E3A7F9B
:1020D800037E0012ADA4900AB5E0FBA3E0FAA3E0EA
:1020E800F9900003EF124E3A7F047E0012ADA490DF
:1020F8000AB5E0FBA3E0FAA3E0F9900004EF124E62
:102108003A7F147E0012ADA4900AB5E0FBA3E0FA72
:10211800A3E0F9900005EF124E3A7F057E0012AD5C
:10212800A4900AB5E0FBA3E0FAA3E0F9900006EF5B
:10213800124E3A7F067E0012ADA4900AB5E0FBA3CA
:10214800E0FAA3E0F9900007EF124E3A7F077E000D
:1021580012ADA4900AB5E0FBA3E0FAA3E0F9900061
:1021680009EF124E3A7F087E0012ADA4900AB5E03E
:10217800FBA3E0FAA3E0F990000AEF124E3A7F09B8
:102188007E0012ADA4900AB5E0FBA3E0FAA3E0F943
:1021980090000CEF124E3A7F0E7E0012ADA4900A0A
:1021A800B5E0FBA3E0FAA3E0F990000DEF124E3A78
:1021B8007F0A7E0012ADA4900AB5E0FBA3E0FAA363
:1021C800E0F990000FEF124E3A7F0E7E0012ADA498
:1021D800900AB5E0FBA3E0FAA3E0F9900010EF1233
:1021E8004E3A7F0B7E0012ADA4900AB5E0FBA3E047
:1021F800FAA3E0F9900012EF124E3A7F0E7E001219
:10220800ADA4900AB5E0FBA3E0FAA3E0F9900013AF
:10221800EF124E3A7F0C7E0012ADA4900AB5E0FB97
:10222800A3E0FAA3E0F9900015EF124E3A7F0E7E74
:102238000012ADA4900AB5E0FBA3E0FAA3E0F99080
:102248000016EF124E3A7F0D7E0012ADA4900AB52B
:10225800E0FBA3E0FAA3E0F9900018EF124E3A7FF2
:102268000E7E0012ADA4900AB5E0FBA3E0FAA3E04D
:10227800F9900019EF124E3A7F0F7E0012ADA4902C
:102288000AB5E0FBA3E0FAA3E0F990001BEF124EB9
:102298003A7F107E0012ADA4900AB5E0FBA3E0FAE5
:1022A800A3E0F990001EEF124E3A7F117E0012ADA6
:1022B800A4900AB5E0FBA3E0FAA3E0F990001FEFB1
:1022C800124E3A7F127E0012ADA4900AB5E0FBA32D
:1022D800E0FAA3E0F9900021EF124E3A7F137E0056
:1022E80012ADA4900AB5E0FBA3E0FAA3E0F99000D0
:1022F80022EF124E3A7F207E0012ADA4900AB5E07C
:10230800FBA3E0FAA3E0F9900024EF124E3A7F21F4
:102318007E0012ADA4900AB5E0FBA3E0FAA3E0F9B1
:10232800900025EF124E3A7F227E0012ADA4900A4B
:10233800B5E0FBA3E0FAA3E0F9900026EF124E3ACD
:102348007F237E0012ADA4900AB5E0FBA3E0FAA3B8
:10235800E0F9900027EF124E3A7F247E0012ADA4D8
:10236800900AB5E0FBA3E0FAA3E0F9900028EF1289
:102378004E3A7F287E0012ADA4900AB5E0FBA3E098
:10238800FAA3E0F990002BEF124E3A7F297E001253
:10239800ADA4900AB5E0FBA3E0FAA3E0F990002C05
:1023A800EF124E3A7F2A7E0012ADA4900AB5E0FBE8
:1023B800A3E0FAA3E0F990002DEF124E3A7F2B7EAE
:1023C8000012ADA4900AB5E0FBA3E0FAA3E0F990EF
:1023D800002EEF124E3A7F2C7E0012ADA4900AB563
:1023E800E0FBA3E0FAA3E0F990002FEF124E3A7F4A
:1023F800307E0012ADA4900AB5E0FBA3E0FAA3E09A
:10240800F9900032EF124E3A7F317E0012ADA4905F
:102418000AB5E0FBA3E0FAA3E0F9900033EF124E0F
:102428003A7F327E0012ADA4900AB5E0FBA3E0FA31
:10243800A3E0F9900034EF124E3A7F337E0012ADDC
:10244800A4900AB5E0FBA3E0FAA3E0F9900035EF09
:10245800124E3A7F347E0012ADA4900AB5E0FBA379
:10246800E0FAA3E0F9900036EF124E3A7F387E008A
:1024780012ADA4900AB5E0FBA3E0FAA3E0F990003E
:1024880039EF124E3A7F397E0012ADA4900AB5E0BA
:10249800FBA3E0FAA3E0F990003AEF124E3A7F3A34
:1024A8007E0012ADA4900AB5E0FBA3E0FAA3E0F920
:1024B80090003BEF124E3A7F3B7E0012ADA4900A8B
:1024C800B5E0FBA3E0FAA3E0F990003CEF124E3A26
:1024D8007F3C7E0012ADA4900AB5E0FBA3E0FAA30E
:1024E800E0F990003DEF124E3A7F407E0012ADA415
:1024F800900AB5E0FBA3E0FAA3E0F9900040EF12E0
:102508004E3A7F417E0012ADA4900AB5E0FBA3E0ED
:10251800FAA3E0F9900041EF124E3A7F427E001292
:10252800ADA4900AB5E0FBA3E0FAA3E0F99000425D
:10253800EF124E3A7F437E0012ADA4900AB5E0FB3D
:10254800A3E0FAA3E0F9900043EF124E3A7F447EED
:102558000012ADA4900AB5E0FBA3E0FAA3E0F9905D
:102568000044EF124E3A7F487E0012ADA4900AB59F
:10257800E0FBA3E0FAA3E0F9900047EF124E3A7FA0
:10258800497E0012ADA4900AB5E0FBA3E0FAA3E0EF
:10259800F9900048EF124E3A7F4A7E0012ADA4909F
:1025A8000AB5E0FBA3E0FAA3E0F9900049EF124E68
:1025B8003A7F4B7E0012ADA4900AB5E0FBA3E0FA87
:1025C800A3E0F990004AEF124E3A7F4C7E0012AD1C
:1025D800A4900AB5E0FBA3E0FAA3E0F990004BEF62
:1025E800124E3A7F507E0012ADA4900AB5E0FBA3CC
:1025F800E0FAA3E0F990004EEF124E3A7F517E00C8
:1026080012ADA4900AB5E0FBA3E0FAA3E0F99000AC
:102618004FEF124E3A7F527E0012ADA4900AB5E0F9
:10262800FBA3E0FAA3E0F9900050EF124E3A7F5373
:102638007E0012ADA4900AB5E0FBA3E0FAA3E0F98E
:10264800900051EF124E3A7F547E0012ADA4900ACA
:10265800B5E0FBA3E0FAA3E0F9900052EF124E3A7E
:102668007F587E0012ADA4900AB5E0FBA3E0FAA360
:10267800E0F9900055EF124E3A7F597E0012ADA452
:10268800900AB5E0FBA3E0FAA3E0F9900056EF1238
:102698004E3A7F5A7E0012ADA4900AB5E0FBA3E043
:1026A800FAA3E0F9900057EF124E3A7F5B7E0012D2
:1026B800ADA4900AB5E0FBA3E0FAA3E0F9900058B6
:1026C800EF124E3A7F5C7E0012ADA4900AB5E0FB93
:1026D800A3E0FAA3E0F9900059EF124E3A7F607E2A
:1026E8000012ADA4900AB5E0FBA3E0FAA3E0F990CC
:1026F800005CEF124E3A7F617E0012ADA4900AB5DD
:10270800E0FBA3E0FAA3E0F990005DEF124E3A7FF8
:10271800627E0012ADA4900AB5E0FBA3E0FAA3E044
:10272800F990005EEF124E3A7F637E0012ADA490DE
:102738000AB5E0FBA3E0FAA3E0F990005FEF124EC0
:102748003A7F647E0012ADA4900AB5E0FBA3E0FADC
:10275800A3E0F9900060EF124E3A7F687E0012AD58
:10276800A4900AB5E0FBA3E0FAA3E0F9900063EFB8
:10277800124E3A7F697E0012ADA4900AB5E0FBA321
:10278800E0FAA3E0F9900064EF124E3A7F6A7E0007
:1027980012ADA4900AB5E0FBA3E0FAA3E0F990001B
:1027A80065EF124E3A7F6B7E0012ADA4900AB5E039
:1027B800FBA3E0FAA3E0F9900066EF124E3A7F6CB3
:1027C8007E0012ADA4900AB5E0FBA3E0FAA3E0F9FD
:1027D800900067EF124E3A7F707E0012ADA4900A07
:1027E800B5E0FBA3E0FAA3E0F990006AEF124E3AD5
:1027F8007F717E0012ADA4900AB5E0FBA3E0FAA3B6
:10280800E0F990006BEF124E3A7F727E0012ADA491
:10281800900AB5E0FBA3E0FAA3E0F990006CEF1290
:102828004E3A7F737E0012ADA4900AB5E0FBA3E098
:10283800FAA3E0F990006DEF124E3A7F747E001211
:10284800ADA4900AB5E0FBA3E0FAA3E0F990006E0E
:10285800EF124E3A7F787E0012ADA4900AB5E0FBE5
:10286800A3E0FAA3E0F9900071EF124E3A7F797E67
:102878000012ADA4900AB5E0FBA3E0FAA3E0F9903A
:102888000072EF124E3A7F7A7E0012ADA4900AB51C
:10289800E0FBA3E0FAA3E0F9900073EF124E3A7F51
:1028A8007B7E0012ADA4900AB5E0FBA3E0FAA3E09A
:1028B800F9900074EF124E3A7F7C7E0012ADA4901E
:1028C8000AB5E0FBA3E0FAA3E0F9900075EF124E19
:1028D8003A7F807E0012ADA4900AB5E0FBA3E0FA2F
:1028E800A3E0F9900078EF124E3A7F817E0012AD96
:1028F800A4900AB5E0FBA3E0FAA3E0F9900079EF11
:10290800124E3A7F827E0012ADA4900AB5E0FBA376
:10291800E0FAA3E0F990007AEF124E3A7F837E0046
:1029280012ADA4900AB5E0FBA3E0FAA3E0F9900089
:102938007BEF124E3A7F847E0012ADA4900AB5E078
:10294800FBA3E0FAA3E0F990007CEF124E3A7F88EF
:102958007E0012ADA4900AB5E0FBA3E0FAA3E0F96B
:1029680090007FEF124E3A7F897E0012ADA4900A44
:10297800B5E0FBA3E0FAA3E0F9900080EF124E3A2D
:102988007F8A7E0012ADA4900AB5E0FBA3E0FAA30B
:10299800E0F9900081EF124E3A7F8B7E0012ADA4D1
:1029A800900AB5E0FBA3E0FAA3E0F9900082EF12E9
:1029B8004E3A7F8C7E0012ADA4900AB5E0FBA3E0EE
:1029C800FAA3E0F9900083EF124E3A7F907E00124E
:1029D800ADA4900AB5E0FBA3E0FAA3E0F990008665
:1029E800EF124E3A7F917E0012ADA4900AB5E0FB3B
:1029F800A3E0FAA3E0F9900087EF124E3A7F927EA7
:102A08000012ADA4900AB5E0FBA3E0FAA3E0F990A8
:102A18000088EF124E3A7F937E0012ADA4900AB55B
:102A2800E0FBA3E0FAA3E0F9900089EF124E3A7FA9
:102A3800947E0012ADA4900AB5E0FBA3E0FAA3E0EF
:102A4800F990008AEF124E3A7F987E0012ADA4905A
:102A58000AB5E0FBA3E0FAA3E0F99000E6EF124E16
:102A68003A7FA07E0012ADA4900AB5E0FBA3E0FA7D
:102A7800A3E0F99000E7EF124E3A7FA87E0012AD6E
:102A8800A4900AB5E0FBA3E0FAA3E0F99000E8EF10
:102A9800124E3A7FB07E0012ADA4900AB5E0FBA3B7
:102AA800E0FAA3E0F99000E9EF124E3A7FB57E0014
:102AB80012ADA4900AB5E0FBA3E0FAA3E0F99000F8
:102AC800EAEF124E3A7F997E0012ADA4900AB5E063
:102AD800FBA3E0FAA3E0F99000ECEF124E3A7F9ADC
:102AE8007E0012ADA4900AB5E0FBA3E0FAA3E0F9DA
:102AF8009000EDEF124E3A7F9B7E0012ADA4900A33
:102B0800B5E0FBA3E0FAA3E0F99000EEEF124E3A2D
:102B18007F9D7E0012ADA4900AB5E0FBA3E0FAA366
:102B2800E0F99000F9EF124E3A7FA47E0012ADA4AE
:102B3800900AB5E0FBA3E0FAA3E0F99000FAEF12DF
:102B48004E3A7FAC7E0012ADA4900AB5E0FBA3E03C
:102B5800FAA3E0F99000FBEF124E3A7FB47E001220
:102B6800ADA4900AB5E0FBA3E0FAA3E0F99000FC5D
:102B7800EF124E3A7FB67E0012ADA4900AB5E0FB84
:102B8800A3E0FAA3E0F99000FDEF124E3A7FB77E7A
:102B98000012ADA4900AB5E0FBA3E0FAA3E0F99017
:102BA80000FEEF124E3A7FB37E0012ADA4900AB534
:102BB800E0FBA3E0FAA3E0F99000FFEF124E3A7FA2
:102BC8009C7E0012ADA4900AB5E0FBA3E0FAA3E056
:102BD800F99000EFEF124E3A7FB87E0012ADA49044
:102BE8000AB5E0FBA3E0FAA3E0F990008DEF124EDE
:102BF8003A7FB97E0012ADA4900AB5E0FBA3E0FAD3
:102C0800A3E0F990008EEF124E3A7FBA7E0012AD23
:102C1800A4900AB5E0FBA3E0FAA3E0F990008FEFD7
:102C2800124E3A7FBB7E0012ADA4900AB5E0FBA31A
:102C3800E0FAA3E0F9900090EF124E3A7FBC7E00D4
:102C480012ADA4900AB5E0FBA3E0FAA3E0F9900066
:102C580091EF124E3A7FC07E0012ADA4900AB5E003
:102C6800FBA3E0FAA3E0F9900094EF124E3A7FC17B
:102C78007E0012ADA4900AB5E0FBA3E0FAA3E0F948
:102C8800900095EF124E3A7FC27E0012ADA4900AD2
:102C9800B5E0FBA3E0FAA3E0F9900096EF124E3AF4
:102CA8007FC37E0012ADA4900AB5E0FBA3E0FAA3AF
:102CB800E0F9900097EF124E3A7FC47E0012ADA45F
:102CC800900AB5E0FBA3E0FAA3E0F9900098EF12B0
:102CD8004E3A7FC87E0012ADA4900AB5E0FBA3E08F
:102CE800FAA3E0F990009BEF124E3A7FC97E0012DA
:102CF800ADA4900AB5E0FBA3E0FAA3E0F990009C2C
:102D0800EF124E3A7FCA7E0012ADA4900AB5E0FBDE
:102D1800A3E0FAA3E0F990009DEF124E3A7FCB7E34
:102D28000012ADA4900AB5E0FBA3E0FAA3E0F99085
:102D3800009EEF124E3A7FCC7E0012ADA4900AB5E9
:102D4800E0FBA3E0FAA3E0F990009FEF124E3A7F70
:102D5800D07E0012ADA4900AB5E0FBA3E0FAA3E090
:102D6800F99000A2EF124E3A7FD17E0012ADA490E6
:102D78000AB5E0FBA3E0FAA3E0F99000A3EF124E36
:102D88003A7FD27E0012ADA4900AB5E0FBA3E0FA28
:102D9800A3E0F99000A4EF124E3A7FD37E0012AD63
:102DA800A4900AB5E0FBA3E0FAA3E0F99000A5EF30
:102DB800124E3A7FD47E0012ADA4900AB5E0FBA370
:102DC800E0FAA3E0F99000A6EF124E3A7FD87E0011
:102DD80012ADA4900AB5E0FBA3E0FAA3E0F99000D5
:102DE800A9EF124E3A7FD97E0012ADA4900AB5E041
:102DF800FBA3E0FAA3E0F99000AAEF124E3A7FDABB
:102E08007E0012ADA4900AB5E0FBA3E0FAA3E0F9B6
:102E18009000ABEF124E3A7FDB7E0012ADA4900A11
:102E2800B5E0FBA3E0FAA3E0F99000ACEF124E3A4C
:102E38007FDC7E0012ADA4900AB5E0FBA3E0FAA304
:102E4800E0F99000ADEF124E3A7FE07E0012ADA49B
:102E5800900AB5E0FBA3E0FAA3E0F99000B0EF1206
:102E68004E3A7FE17E0012ADA4900AB5E0FBA3E0E4
:102E7800FAA3E0F99000B1EF124E3A7FE27E001219
:102E8800ADA4900AB5E0FBA3E0FAA3E0F99000B284
:102E9800EF124E3A7FE37E0012ADA4900AB5E0FB34
:102EA800A3E0FAA3E0F99000B3EF124E3A7FE47E74
:102EB8000012ADA4900AB5E0FBA3E0FAA3E0F990F4
:102EC80000B4EF124E3A7FE87E0012ADA4900AB526
:102ED800E0FBA3E0FAA3E0F99000B7EF124E3A7FC7
:102EE800E97E0012ADA4900AB5E0FBA3E0FAA3E0E6
:102EF800F99000B8EF124E3A7FEA7E0012ADA49026
:102F08000AB5E0FBA3E0FAA3E0F99000B9EF124E8E
:102F18003A7FEB7E0012ADA4900AB5E0FBA3E0FA7D
:102F2800A3E0F99000BAEF124E3A7FEC7E0012ADA2
:102F3800A4900AB5E0FBA3E0FAA3E0F99000BBEF88
:102F4800124E3A7FF07E0012ADA4900AB5E0FBA3C2
:102F5800E0FAA3E0F9900100EF124E3A7FF87E0004
:102F680012ADA4900AB5E0FBA3E0FAA3E0F9900142
:102F780001EF124E3A7F007E0112ADA4900AB5E02F
:102F8800FBA3E0FAA3E0F9900102EF124E3A7FF1B9
:102F98007E0012ADA4900AB5E0FBA3E0FAA3E0F925
:102FA800900106EF124E3A7FF27E0012ADA4900A0D
:102FB800B5E0FBA3E0FAA3E0F9900107EF124E3A5F
:102FC8007FF37E0012ADA4900AB5E0FBA3E0FAA35C
:102FD800E0F9900108EF124E3A7FF47E0012ADA49A
:102FE800900AB5E0FBA3E0FAA3E0F9900109EF121B
:102FF8004E3A7F087E0112ADA4900AB5E0FBA3E02B
:10300800FAA3E0F99000BEEF124E3A7F097E011252
:10301800ADA4900AB5E0FBA3E0FAA3E0F99000BFE5
:10302800EF124E3A7F0A7E0112ADA4900AB5E0FB7A
:10303800A3E0FAA3E0F99000C0EF124E3A7F0B7EAE
:103048000112ADA4900AB5E0FBA3E0FAA3E0F99061
:1030580000C1EF124E3A7F0C7E0112ADA4900AB562
:10306800E0FBA3E0FAA3E0F99000C2EF124E3A7F2A
:10307800107E0112ADA4900AB5E0FBA3E0FAA3E02C
:10308800F99000C5EF124E3A7F117E0112ADA4905F
:103098000AB5E0FBA3E0FAA3E0F99000C6EF124EF0
:1030A8003A7F127E0112ADA4900AB5E0FBA3E0FAC4
:1030B800A3E0F99000C7EF124E3A7F137E0112ADDC
:1030C800A4900AB5E0FBA3E0FAA3E0F99000C8EFEA
:1030D800124E3A7F147E0112ADA4900AB5E0FBA30C
:1030E800E0FAA3E0F99000C9EF124E3A7F207E0182
:1030F80012ADA4900AB5E0FBA3E0FAA3E0F99000B2
:10310800D1EF124E3A7F217E0112ADA4900AB5E0AC
:10311800FBA3E0FAA3E0F99000D2EF124E3A7F2227
:103128007E0112ADA4900AB5E0FBA3E0FAA3E0F992
:103138009000D3EF124E3A7F237E0112ADA4900A7D
:10314800B5E0FBA3E0FAA3E0F99000D4EF124E3A01
:103158007F247E0112ADA4900AB5E0FBA3E0FAA398
:10316800E0F99000D5EF124E3A7F407E0112ADA4EF
:10317800900AB5E0FBA3E0FAA3E0F99000D8EF12BB
:103188004E3A7F417E0112ADA4900AB5E0FBA3E060
:10319800FAA3E0F99000D9EF124E3A7F427E01126D
:1031A800ADA4900AB5E0FBA3E0FAA3E0F99000DA39
:1031B800EF124E3A7F437E0112ADA4900AB5E0FBB0
:1031C800A3E0FAA3E0F99000DBEF124E3A7F447EC9
:1031D8000112ADA4900AB5E0FBA3E0FAA3E0F990D0
:1031E80000DCEF124E3A7FA87E0112ADA4900AB51A
:1031F800E0FBA3E0FAA3E0F99000DFEF124E3A7F7C
:10320800A97E0112ADA4900AB5E0FBA3E0FAA3E001
:10321800F99000E0EF124E3A7FAA7E0112ADA49019
:103228000AB5E0FBA3E0FAA3E0F99000E1EF124E43
:103238003A7FAB7E0112ADA4900AB5E0FBA3E0FA99
:10324800A3E0F99000E2EF124E3A7FAC7E0112AD96
:10325800A4900AB5E0FBA3E0FAA3E0F99000E3EF3D
:10326800124E3A7FD47E0112ADA4900AB5E0FBA3BA
:10327800E0FAA3E0F99000CCEF124E3A7FD07E013D
:1032880012ADA4900AB5E0FBA3E0FAA3E0F9900020
:10329800CDEF124E3A7FD17E0112ADA4900AB5E06F
:1032A800FBA3E0FAA3E0F99000CEEF124E3A7FD2EA
:1032B8007E0112ADA4900AB5E0FBA3E0FAA3E0F901
:1032C8009000CFEF124E3A7FD37E0112ADA4900A40
:1032D800B5E0FBA3E0FAA3E0F99000D0EF124E3A74
:1032E8007F387E0112ADA4900AB5E0FBA3E0FAA3F3
:1032F800E0F990011AEF124E3A7F397E0112ADA41F
:10330800900AB5E0FBA3E0FAA3E0F990011BEF12E5
:103318004E3A7F3A7E0112ADA4900AB5E0FBA3E0D5
:10332800FAA3E0F990011CEF124E3A7F3B7E01129E
:10333800ADA4900AB5E0FBA3E0FAA3E0F990011D63
:10334800EF124E3A7F3C7E0112ADA4900AB5E0FB25
:10335800A3E0FAA3E0F990011EEF124E3A7F3D7EFA
:103368000112ADA4900AB5E0FBA3E0FAA3E0F9903E
:10337800011FEF124E3A7F3E7E0112ADA4900AB5AE
:10338800E0FBA3E0FAA3E0F9900120EF124E3A7FA8
:103398003F7E0112ADA4900AB5E0FBA3E0FAA3E0DA
:1033A800F9900121EF124E3A7F367E0112ADA490BA
:1033B8000AB5E0FBA3E0FAA3E0F9900122EF124E70
:1033C8003A7F377E0112ADA4900AB5E0FBA3E0FA7C
:1033D800A3E0F9900123EF124E3A7FFB7E0112AD74
:1033E800A4900AB5E0FBA3E0FAA3E0F9900137EF57
:1033F800124E3A7FFC7E0112ADA4900AB5E0FBA301
:10340800E0FAA3E0F9900136EF124E3A7FFD7E0113
:1034180012ADA4900AB5E0FBA3E0FAA3E0F990018D
:1034280034EF124E3A7FFE7E0112ADA4900AB5E049
:10343800FBA3E0FAA3E0F9900135EF124E3A7F487A
:103448007E0112ADA4900AB5E0FBA3E0FAA3E0F96F
:10345800900138EF124E3A7F497E0112ADA4900ACE
:10346800B5E0FBA3E0FAA3E0F9900139EF124E3A78
:103478007F4A7E0112ADA4900AB5E0FBA3E0FAA34F
:10348800E0F990013AEF124E3A7F4B7E0112ADA45B
:10349800900AB5E0FBA3E0FAA3E0F990013BEF1234
:1034A8004E3A7F4C7E0112ADA4900AB5E0FBA3E032
:1034B800FAA3E0F990013CEF124E3A7F507E0112D8
:1034C800ADA4900AB5E0FBA3E0FAA3E0F990013FB0
:1034D800EF124E3A7F517E0112ADA4900AB5E0FB7F
:1034E800A3E0FAA3E0F9900140EF124E3A7F527E32
:1034F8000112ADA4900AB5E0FBA3E0FAA3E0F990AD
:103508000141EF124E3A7F537E0112ADA4900AB5E5
:10351800E0FBA3E0FAA3E0F9900142EF124E3A7FF4
:10352800547E0112ADA4900AB5E0FBA3E0FAA3E033
:10353800F9900143EF124E3A7F587E0112ADA490E4
:103548000AB5E0FBA3E0FAA3E0F9900146EF124EBA
:103558003A7F597E0112ADA4900AB5E0FBA3E0FAC8
:10356800A3E0F9900147EF124E3A7F5A7E0112AD5F
:10357800A4900AB5E0FBA3E0FAA3E0F9900148EFB4
:10358800124E3A7F5B7E0112ADA4900AB5E0FBA310
:10359800E0FAA3E0F9900149EF124E3A7F5C7E0110
:1035A80012ADA4900AB5E0FBA3E0FAA3E0F99001FC
:1035B8004AEF124E3A7F607E0112ADA4900AB5E040
:1035C800FBA3E0FAA3E0F990014DEF124E3A7F61B8
:1035D8007E0112ADA4900AB5E0FBA3E0FAA3E0F9DE
:1035E80090014EEF124E3A7F627E0112ADA4900A0E
:1035F800B5E0FBA3E0FAA3E0F990014FEF124E3AD1
:103608007F637E0112ADA4900AB5E0FBA3E0FAA3A4
:10361800E0F9900150EF124E3A7F647E0112ADA49A
:10362800900AB5E0FBA3E0FAA3E0F9900151EF128C
:103638004E3A7F687E0112ADA4900AB5E0FBA3E084
:10364800FAA3E0F9900154EF124E3A7F697E011215
:10365800ADA4900AB5E0FBA3E0FAA3E0F990015508
:10366800EF124E3A7F6A7E0112ADA4900AB5E0FBD4
:10367800A3E0FAA3E0F9900156EF124E3A7F6B7E71
:103688000112ADA4900AB5E0FBA3E0FAA3E0F9901B
:103698000157EF124E3A7F6C7E0112ADA4900AB525
:1036A800E0FBA3E0FAA3E0F9900158EF124E3A7F4D
:1036B800707E0112ADA4900AB5E0FBA3E0FAA3E086
:1036C800F990015BEF124E3A7F717E0112ADA49022
:1036D8000AB5E0FBA3E0FAA3E0F990015CEF124E13
:1036E8003A7F727E0112ADA4900AB5E0FBA3E0FA1E
:1036F800A3E0F990015DEF124E3A7F737E0112AD9F
:10370800A4900AB5E0FBA3E0FAA3E0F990015EEF0C
:10371800124E3A7F747E0112ADA4900AB5E0FBA365
:10372800E0FAA3E0F990015FEF124E3A7F807E0144
:1037380012ADA4900AB5E0FBA3E0FAA3E0F990016A
:1037480069EF124E3A7F817E0112ADA4900AB5E06E
:10375800FBA3E0FAA3E0F990016AEF124E3A7F82E8
:103768007E0112ADA4900AB5E0FBA3E0FAA3E0F94C
:1037780090016BEF124E3A7F837E0112ADA4900A3E
:10378800B5E0FBA3E0FAA3E0F990016CEF124E3A22
:103798007F847E0112ADA4900AB5E0FBA3E0FAA3F2
:1037A800E0F9900171EF124E3A7F857E0112ADA4C7
:1037B800900AB5E0FBA3E0FAA3E0F9900172EF12DA
:1037C8004E3A7F867E0112ADA4900AB5E0FBA3E0D5
:1037D800FAA3E0F9900173EF124E3A7F877E011247
:1037E800ADA4900AB5E0FBA3E0FAA3E0F990017458
:1037F800EF124E3A7F887E0112ADA4900AB5E0FB25
:10380800A3E0FAA3E0F9900179EF124E3A7F897E9E
:103818000112ADA4900AB5E0FBA3E0FAA3E0F99089
:10382800017AEF124E3A7F8A7E0112ADA4900AB552
:10383800E0FBA3E0FAA3E0F990017BEF124E3A7F98
:103848008B7E0112ADA4900AB5E0FBA3E0FAA3E0D9
:10385800F990017CEF124E3A7F8C7E0112ADA49054
:103868000AB5E0FBA3E0FAA3E0F9900181EF124E5C
:103878003A7F8D7E0112ADA4900AB5E0FBA3E0FA71
:10388800A3E0F9900182EF124E3A7F8E7E0112ADCD
:10389800A4900AB5E0FBA3E0FAA3E0F9900183EF56
:1038A800124E3A7F8F7E0112ADA4900AB5E0FBA3B9
:1038B800E0FAA3E0F9900184EF124E3A7F907E017E
:1038C80012ADA4900AB5E0FBA3E0FAA3E0F99001D9
:1038D80062EF124E3A7F917E0112ADA4900AB5E0D4
:1038E800FBA3E0FAA3E0F9900163EF124E3A7F924E
:1038F8007E0112ADA4900AB5E0FBA3E0FAA3E0F9BB
:10390800900164EF124E3A7F937E0112ADA4900AA3
:10391800B5E0FBA3E0FAA3E0F9900165EF124E3A97
:103928007F947E0112ADA4900AB5E0FBA3E0FAA350
:10393800E0F9900166EF124E3A7F987E0112ADA42D
:10394800900AB5E0FBA3E0FAA3E0F9900189EF1231
:103958004E3A7F997E0112ADA4900AB5E0FBA3E030
:10396800FAA3E0F990018AEF124E3A7F9A7E01128B
:10397800ADA4900AB5E0FBA3E0FAA3E0F990018BAF
:10398800EF124E3A7F9B7E0112ADA4900AB5E0FB80
:10399800A3E0FAA3E0F990018CEF124E3A7F9C7EE7
:1039A8000112ADA4900AB5E0FBA3E0FAA3E0F990F8
:1039B8000191EF124E3A7F9D7E0112ADA4900AB597
:1039C800E0FBA3E0FAA3E0F9900192EF124E3A7FF0
:1039D8009E7E0112ADA4900AB5E0FBA3E0FAA3E035
:1039E800F9900193EF124E3A7F9F7E0112ADA49099
:1039F8000AB5E0FBA3E0FAA3E0F9900194EF124EB8
:103A08003A7FA07E0112ADA4900AB5E0FBA3E0FACC
:103A1800A3E0F9900199EF124E3A7FA17E0112AD11
:103A2800A4900AB5E0FBA3E0FAA3E0F990019AEFAD
:103A3800124E3A7FA27E0112ADA4900AB5E0FBA314
:103A4800E0FAA3E0F990019BEF124E3A7FA37E01C2
:103A580012ADA4900AB5E0FBA3E0FAA3E0F9900147
:103A68009CEF124E3A7FA47E0112ADA4900AB5E0F5
:103A7800FBA3E0FAA3E0F99001A1EF124E3A7FA56B
:103A88007E0112ADA4900AB5E0FBA3E0FAA3E0F929
:103A98009001A2EF124E3A7FA67E0112ADA4900AC1
:103AA800B5E0FBA3E0FAA3E0F99001A3EF124E3AC8
:103AB8007FA77E0112ADA4900AB5E0FBA3E0FAA3AC
:103AC800E0F99001A4EF124E3A7FD87E0112ADA41E
:103AD800900AB5E0FBA3E0FAA3E0F99001A9EF0290
:023AE8004E3A54
:10009600900C73EEF0A3EFF0A3EDF01220A8900CF5
:1000A60073E0FEA3E0FF12AE75900C73E0FEA3E0D2
:1000B600FF64014E7005A3E0FD8009900AB8E0FDDB
:1000C6007F017E0012AD8B900C73E0FEA3E0FF640F
:1000D600024E7005A3E0FD8009900AB9E0FD7F029B
:1000E6007E0012AD8B900C73E0FEA3E0FF64034E1E
:1000F6007005A3E0FD8009900ABBE0FD7F037E004A
:1001060012AD8B900C73E0FEA3E0FF64044E700505
:10011600A3E0FD8009900ABCE0FD7F047E0012ADDD
:100126008B900C73E0FEA3E0FF64144E7005A3E011
:10013600FD8009900ABDE0FD7F147E0012AD8B9014
:100146000C73E0FEA3E0FF64054E7005A3E0FD809E
:1001560009900ABEE0FD7F057E0012AD8B900C7300
:10016600E0FEA3E0FF64064E7005A3E0FD80099063
:100176000ABFE0FD7F067E0012AD8B900C73E0FE99
:10018600A3E0FF64074E7005A3E0FD8009900AC155
:10019600E0FD7F077E0012AD8B900C73E0FEA3E0BE
:1001A600FF64084E7005A3E0FD8009900AC2E0FDD9
:1001B6007F087E0012AD8B900C73E0FEA3E0FF6417
:1001C600094E7005A3E0FD8009900AC4E0FD7F0991
:1001D6007E0012AD8B900C73E0FEA3E0FF640E4E22
:1001E6007005A3E0FD8009900AC5E0FD7F0E7E0044
:1001F60012AD8B900C73E0FEA3E0FF640A4E70050F
:10020600A3E0FD8009900AC7E0FD7F0A7E0012ADDB
:100216008B900C73E0FEA3E0FF640E4E7005A3E026
:10022600FD8009900AC8E0FD7F0E7E0012AD8B901E
:100236000C73E0FEA3E0FF640B4E7005A3E0FD80A7
:1002460009900ACAE0FD7F0B7E0012AD8B900C73FD
:10025600E0FEA3E0FF640E4E7005A3E0FD8009906A
:100266000ACBE0FD7F0E7E0012AD8B900C73E0FE94
:10027600A3E0FF640C4E7005A3E0FD8009900ACD53
:10028600E0FD7F0C7E0012AD8B900C73E0FEA3E0C8
:10029600FF640E4E7005A3E0FD8009900ACEE0FDD6
:1002A6007F0E7E0012AD8B900C73E0FEA3E0FF6420
:1002B6000D4E7005A3E0FD8009900AD0E0FD7F0D8C
:1002C6007E0012AD8B900C73E0FEA3E0FF640E4E31
:1002D6007005A3E0FD8009900AD1E0FD7F0E7E0047
:1002E60012AD8B900C73E0FEA3E0FF640F4E700519
:1002F600A3E0FD8009900AD3E0FD7F0F7E0012ADDA
:100306008B900C73E0FEA3E0FF64104E7005A3E033
:10031600FD8009900AD6E0FD7F107E0012AD8B901D
:100326000C73E0FEA3E0FF64114E7005A3E0FD80B0
:1003360009900AD7E0FD7F117E0012AD8B900C73F9
:10034600E0FEA3E0FF64124E7005A3E0FD80099075
:100356000AD9E0FD7F127E0012AD8B900C73E0FE91
:10036600A3E0FF64134E7005A3E0FD8009900ADA4E
:10037600E0FD7F137E0012AD8B900C73E0FEA3E0D0
:10038600FF64204E7005A3E0FD8009900ADCE0FDC5
:100396007F207E0012AD8B900C73E0FEA3E0FF641D
:1003A600214E7005A3E0FD8009900ADDE0FD7F2166
:1003B6007E0012AD8B900C73E0FEA3E0FF64224E2C
:1003C6007005A3E0FD8009900ADEE0FD7F227E0035
:1003D60012AD8B900C73E0FEA3E0FF64234E700514
:1003E600A3E0FD8009900ADFE0FD7F237E0012ADC9
:1003F6008B900C73E0FEA3E0FF64244E7005A3E02F
:10040600FD8009900AE0E0FD7F247E0012AD8B900E
:100416000C73E0FEA3E0FF64284E7005A3E0FD80A8
:1004260009900AE3E0FD7F287E0012AD8B900C73E5
:10043600E0FEA3E0FF64294E7005A3E0FD8009906D
:100446000AE4E0FD7F297E0012AD8B900C73E0FE7E
:10045600A3E0FF642A4E7005A3E0FD8009900AE53B
:10046600E0FD7F2A7E0012AD8B900C73E0FEA3E0C8
:10047600FF642B4E7005A3E0FD8009900AE6E0FDBF
:100486007F2B7E0012AD8B900C73E0FEA3E0FF6421
:100496002C4E7005A3E0FD8009900AE7E0FD7F2C55
:1004A6007E0012AD8B900C73E0FEA3E0FF64304E2D
:1004B6007005A3E0FD8009900AEAE0FD7F307E002A
:1004C60012AD8B900C73E0FEA3E0FF64314E700515
:1004D600A3E0FD8009900AEBE0FD7F317E0012ADBE
:1004E6008B900C73E0FEA3E0FF64324E7005A3E030
:1004F600FD8009900AECE0FD7F327E0012AD8B9004
:100506000C73E0FEA3E0FF64334E7005A3E0FD80AC
:1005160009900AEDE0FD7F337E0012AD8B900C73DF
:10052600E0FEA3E0FF64344E7005A3E0FD80099071
:100536000AEEE0FD7F347E0012AD8B900C73E0FE78
:10054600A3E0FF64384E7005A3E0FD8009900AF130
:10055600E0FD7F387E0012AD8B900C73E0FEA3E0C9
:10056600FF64394E7005A3E0FD8009900AF2E0FDB4
:100576007F397E0012AD8B900C73E0FEA3E0FF6422
:100586003A4E7005A3E0FD8009900AF3E0FD7F3A3C
:100596007E0012AD8B900C73E0FEA3E0FF643B4E31
:1005A6007005A3E0FD8009900AF4E0FD7F3B7E0024
:1005B60012AD8B900C73E0FEA3E0FF643C4E700519
:1005C600A3E0FD8009900AF5E0FD7F3C7E0012ADB8
:1005D6008B900C73E0FEA3E0FF64404E7005A3E031
:1005E600FD8009900AF8E0FD7F407E0012AD8B90F9
:1005F6000C73E0FEA3E0FF64414E7005A3E0FD80AE
:1006060009900AF9E0FD7F417E0012AD8B900C73D4
:10061600E0FEA3E0FF64424E7005A3E0FD80099072
:100626000AFAE0FD7F427E0012AD8B900C73E0FE6D
:10063600A3E0FF64434E7005A3E0FD8009900AFB2A
:10064600E0FD7F437E0012AD8B900C73E0FEA3E0CD
:10065600FF64444E7005A3E0FD8009900AFCE0FDAE
:100666007F447E0012AD8B900C73E0FEA3E0FF6426
:10067600484E7005A3E0FD8009900AFFE0FD7F4823
:100686007E0012AD8B900C73E0FEA3E0FF64494E32
:100696007005A3E0FD8009900B00E0FD7F497E0018
:1006A60012AD8B900C73E0FEA3E0FF644A4E70051A
:1006B600A3E0FD8009900B01E0FD7F4A7E0012ADAC
:1006C6008B900C73E0FEA3E0FF644B4E7005A3E035
:1006D600FD8009900B02E0FD7F4B7E0012AD8B90F2
:1006E6000C73E0FEA3E0FF644C4E7005A3E0FD80B2
:1006F60009900B03E0FD7F4C7E0012AD8B900C73CE
:10070600E0FEA3E0FF64504E7005A3E0FD80099073
:100716000B06E0FD7F507E0012AD8B900C73E0FE61
:10072600A3E0FF64514E7005A3E0FD8009900B071E
:10073600E0FD7F517E0012AD8B900C73E0FEA3E0CE
:10074600FF64524E7005A3E0FD8009900B08E0FDA2
:100756007F527E0012AD8B900C73E0FEA3E0FF6427
:10076600534E7005A3E0FD8009900B09E0FD7F5311
:100776007E0012AD8B900C73E0FEA3E0FF64544E36
:100786007005A3E0FD8009900B0AE0FD7F547E0012
:1007960012AD8B900C73E0FEA3E0FF64584E70051B
:1007A600A3E0FD8009900B0DE0FD7F587E0012ADA1
:1007B6008B900C73E0FEA3E0FF64594E7005A3E036
:1007C600FD8009900B0EE0FD7F597E0012AD8B90E7
:1007D6000C73E0FEA3E0FF645A4E7005A3E0FD80B3
:1007E60009900B0FE0FD7F5A7E0012AD8B900C73C3
:1007F600E0FEA3E0FF645B4E7005A3E0FD80099078
:100806000B10E0FD7F5B7E0012AD8B900C73E0FE5B
:10081600A3E0FF645C4E7005A3E0FD8009900B1118
:10082600E0FD7F5C7E0012AD8B900C73E0FEA3E0D2
:10083600FF64604E7005A3E0FD8009900B14E0FD97
:100846007F607E0012AD8B900C73E0FEA3E0FF6428
:10085600614E7005A3E0FD8009900B15E0FD7F61F8
:100866007E0012AD8B900C73E0FEA3E0FF64624E37
:100876007005A3E0FD8009900B16E0FD7F627E0007
:1008860012AD8B900C73E0FEA3E0FF64634E70051F
:10089600A3E0FD8009900B17E0FD7F637E0012AD9B
:1008A6008B900C73E0FEA3E0FF64644E7005A3E03A
:1008B600FD8009900B18E0FD7F647E0012AD8B90E1
:1008C6000C73E0FEA3E0FF64684E7005A3E0FD80B4
:1008D60009900B1BE0FD7F687E0012AD8B900C73B8
:1008E600E0FEA3E0FF64694E7005A3E0FD80099079
:1008F6000B1CE0FD7F697E0012AD8B900C73E0FE51
:10090600A3E0FF646A4E7005A3E0FD8009900B1D0D
:10091600E0FD7F6A7E0012AD8B900C73E0FEA3E0D3
:10092600FF646B4E7005A3E0FD8009900B1EE0FD91
:100936007F6B7E0012AD8B900C73E0FEA3E0FF642C
:100946006C4E7005A3E0FD8009900B1FE0FD7F6CE7
:100956007E0012AD8B900C73E0FEA3E0FF64704E38
:100966007005A3E0FD8009900B22E0FD7F707E00FC
:1009760012AD8B900C73E0FEA3E0FF64714E700520
:10098600A3E0FD8009900B23E0FD7F717E0012AD90
:100996008B900C73E0FEA3E0FF64724E7005A3E03B
:1009A600FD8009900B24E0FD7F727E0012AD8B90D6
:1009B6000C73E0FEA3E0FF64734E7005A3E0FD80B8
:1009C60009900B25E0FD7F737E0012AD8B900C73B2
:1009D600E0FEA3E0FF64744E7005A3E0FD8009907D
:1009E6000B26E0FD7F747E0012AD8B900C73E0FE4B
:1009F600A3E0FF64784E7005A3E0FD8009900B2903
:100A0600E0FD7F787E0012AD8B900C73E0FEA3E0D4
:100A1600FF64794E7005A3E0FD8009900B2AE0FD86
:100A26007F797E0012AD8B900C73E0FEA3E0FF642D
:100A36007A4E7005A3E0FD8009900B2BE0FD7F7ACE
:100A46007E0012AD8B900C73E0FEA3E0FF647B4E3C
:100A56007005A3E0FD8009900B2CE0FD7F7B7E00F6
:100A660012AD8B900C73E0FEA3E0FF647C4E700524
:100A7600A3E0FD8009900B2DE0FD7F7C7E0012AD8A
:100A86008B900C73E0FEA3E0FF64804E7005A3E03C
:100A9600FD8009900B30E0FD7F807E0012AD8B90CB
:100AA6000C73E0FEA3E0FF64814E7005A3E0FD80B9
:100AB60009900B31E0FD7F817E0012AD8B900C73A7
:100AC600E0FEA3E0FF64824E7005A3E0FD8009907E
:100AD6000B32E0FD7F827E0012AD8B900C73E0FE40
:100AE600A3E0FF64834E7005A3E0FD8009900B33FD
:100AF600E0FD7F837E0012AD8B900C73E0FEA3E0D9
:100B0600FF64844E7005A3E0FD8009900B34E0FD80
:100B16007F847E0012AD8B900C73E0FEA3E0FF6431
:100B2600884E7005A3E0FD8009900B37E0FD7F88B5
:100B36007E0012AD8B900C73E0FEA3E0FF64894E3D
:100B46007005A3E0FD8009900B38E0FD7F897E00EB
:100B560012AD8B900C73E0FEA3E0FF648A4E700525
:100B6600A3E0FD8009900B39E0FD7F8A7E0012AD7F
:100B76008B900C73E0FEA3E0FF648B4E7005A3E040
:100B8600FD8009900B3AE0FD7F8B7E0012AD8B90C5
:100B96000C73E0FEA3E0FF648C4E7005A3E0FD80BD
:100BA60009900B3BE0FD7F8C7E0012AD8B900C73A1
:100BB600E0FEA3E0FF64904E7005A3E0FD8009907F
:100BC6000B3EE0FD7F907E0012AD8B900C73E0FE35
:100BD600A3E0FF64914E7005A3E0FD8009900B3FF2
:100BE600E0FD7F917E0012AD8B900C73E0FEA3E0DA
:100BF600FF64924E7005A3E0FD8009900B40E0FD76
:100C06007F927E0012AD8B900C73E0FEA3E0FF6432
:100C1600934E7005A3E0FD8009900B41E0FD7F93A4
:100C26007E0012AD8B900C73E0FEA3E0FF64944E41
:100C36007005A3E0FD8009900B42E0FD7F947E00E5
:100C460012AD8B900C73E0FEA3E0FF64984E700526
:100C5600A3E0FD8009900B9EE0FD7F987E0012AD1B
:100C66008B900C73E0FEA3E0FF64A04E7005A3E03A
:100C7600FD8009900B9FE0FD7FA07E0012AD8B905A
:100C86000C73E0FEA3E0FF64A84E7005A3E0FD80B0
:100C960009900BA0E0FD7FA87E0012AD8B900C732F
:100CA600E0FEA3E0FF64B04E7005A3E0FD8009906E
:100CB6000BA1E0FD7FB07E0012AD8B900C73E0FEC1
:100CC600A3E0FF64B54E7005A3E0FD8009900BA27A
:100CD600E0FD7FB57E0012AD8B900C73E0FEA3E0C5
:100CE600FF64994E7005A3E0FD8009900BA4E0FD1A
:100CF6007F997E0012AD8B900C73E0FEA3E0FF643B
:100D06009A4E7005A3E0FD8009900BA5E0FD7F9A41
:100D16007E0012AD8B900C73E0FEA3E0FF649B4E49
:100D26007005A3E0FD8009900BA6E0FD7F9B7E0089
:100D360012AD8B900C73E0FEA3E0FF649C4E700531
:100D4600A3E0FD8009900BA7E0FD7F9C7E0012AD1D
:100D56008B900C73E0FEA3E0FF649D4E7005A3E04C
:100D6600FD8009900BB1E0FD7F9D7E0012AD8B905A
:100D76000C73E0FEA3E0FF64A44E7005A3E0FD80C3
:100D860009900BB2E0FD7FA47E0012AD8B900C7330
:100D9600E0FEA3E0FF64AC4E7005A3E0FD80099081
:100DA6000BB3E0FD7FAC7E0012AD8B900C73E0FEC2
:100DB600A3E0FF64B44E7005A3E0FD8009900BB478
:100DC600E0FD7FB47E0012AD8B900C73E0FEA3E0D5
:100DD600FF64B64E7005A3E0FD8009900BB5E0FDFB
:100DE6007FB67E0012AD8B900C73E0FEA3E0FF642D
:100DF600B74E7005A3E0FD8009900BB6E0FD7FB706
:100E06007E0012AD8B900C73E0FEA3E0FF64B34E40
:100E16007005A3E0FD8009900BB7E0FD7FB37E006F
:100E260012AD8B900C73E0FEA3E0FF64B84E700524
:100E3600A3E0FD8009900B45E0FD7FB87E0012AD72
:100E46008B900C73E0FEA3E0FF64B94E7005A3E03F
:100E5600FD8009900B46E0FD7FB97E0012AD8B90B8
:100E66000C73E0FEA3E0FF64BA4E7005A3E0FD80BC
:100E760009900B47E0FD7FBA7E0012AD8B900C7394
:100E8600E0FEA3E0FF64BB4E7005A3E0FD80099081
:100E96000B48E0FD7FBB7E0012AD8B900C73E0FE2D
:100EA600A3E0FF64BC4E7005A3E0FD8009900B49EA
:100EB600E0FD7FBC7E0012AD8B900C73E0FEA3E0DC
:100EC600FF64C04E7005A3E0FD8009900B4CE0FD69
:100ED6007FC07E0012AD8B900C73E0FEA3E0FF6432
:100EE600C14E7005A3E0FD8009900B4DE0FD7FC16A
:100EF6007E0012AD8B900C73E0FEA3E0FF64C24E41
:100F06007005A3E0FD8009900B4EE0FD7FC27E00D8
:100F160012AD8B900C73E0FEA3E0FF64C34E700528
:100F2600A3E0FD8009900B4FE0FD7FC37E0012AD6C
:100F36008B900C73E0FEA3E0FF64C44E7005A3E043
:100F4600FD8009900B50E0FD7FC47E0012AD8B90B2
:100F56000C73E0FEA3E0FF64C84E7005A3E0FD80BD
:100F660009900B53E0FD7FC87E0012AD8B900C7389
:100F7600E0FEA3E0FF64C94E7005A3E0FD80099082
:100F86000B54E0FD7FC97E0012AD8B900C73E0FE22
:100F9600A3E0FF64CA4E7005A3E0FD8009900B55DF
:100FA600E0FD7FCA7E0012AD8B900C73E0FEA3E0DD
:100FB600FF64CB4E7005A3E0FD8009900B56E0FD63
:100FC6007FCB7E0012AD8B900C73E0FEA3E0FF6436
:100FD600CC4E7005A3E0FD8009900B57E0FD7FCC59
:100FE6007E0012AD8B900C73E0FEA3E0FF64D04E42
:100FF6007005A3E0FD8009900B5AE0FD7FD07E00CE
:1010060012AD8B900C73E0FEA3E0FF64D14E700529
:10101600A3E0FD8009900B5BE0FD7FD17E0012AD61
:101026008B900C73E0FEA3E0FF64D24E7005A3E044
:10103600FD8009900B5CE0FD7FD27E0012AD8B90A7
:101046000C73E0FEA3E0FF64D34E7005A3E0FD80C1
:1010560009900B5DE0FD7FD37E0012AD8B900C7383
:10106600E0FEA3E0FF64D44E7005A3E0FD80099086
:101076000B5EE0FD7FD47E0012AD8B900C73E0FE1C
:10108600A3E0FF64D84E7005A3E0FD8009900B61D4
:10109600E0FD7FD87E0012AD8B900C73E0FEA3E0DE
:1010A600FF64D94E7005A3E0FD8009900B62E0FD58
:1010B6007FD97E0012AD8B900C73E0FEA3E0FF6437
:1010C600DA4E7005A3E0FD8009900B63E0FD7FDA40
:1010D6007E0012AD8B900C73E0FEA3E0FF64DB4E46
:1010E6007005A3E0FD8009900B64E0FD7FDB7E00C8
:1010F60012AD8B900C73E0FEA3E0FF64DC4E70052E
:10110600A3E0FD8009900B65E0FD7FDC7E0012AD5B
:101116008B900C73E0FEA3E0FF64E04E7005A3E045
:10112600FD8009900B68E0FD7FE07E0012AD8B909C
:101136000C73E0FEA3E0FF64E14E7005A3E0FD80C2
:1011460009900B69E0FD7FE17E0012AD8B900C7378
:10115600E0FEA3E0FF64E24E7005A3E0FD80099087
:101166000B6AE0FD7FE27E0012AD8B900C73E0FE11
:10117600A3E0FF64E34E7005A3E0FD8009900B6BCE
:10118600E0FD7FE37E0012AD8B900C73E0FEA3E0E2
:10119600FF64E44E7005A3E0FD8009900B6CE0FD52
:1011A6007FE47E0012AD8B900C73E0FEA3E0FF643B
:1011B600E84E7005A3E0FD8009900B6FE0FD7FE827
:1011C6007E0012AD8B900C73E0FEA3E0FF64E94E47
:1011D6007005A3E0FD8009900B70E0FD7FE97E00BD
:1011E60012AD8B900C73E0FEA3E0FF64EA4E70052F
:1011F600A3E0FD8009900B71E0FD7FEA7E0012AD51
:101206008B900C73E0FEA3E0FF64EB4E7005A3E049
:10121600FD8009900B72E0FD7FEB7E0012AD8B9096
:101226000C73E0FEA3E0FF64EC4E7005A3E0FD80C6
:1012360009900B73E0FD7FEC7E0012AD8B900C7372
:10124600E0FEA3E0FF64F04E7005A3E0FD80099088
:101256000BB8E0FD7FF07E0012AD8B900C73E0FEC4
:10126600A3E0FF64F84E7005A3E0FD8009900BB97A
:10127600E0FD7FF87E0012AD8B900C73E0FEA3E0DC
:10128600FFB40009EEB40105A3E0FD8009900BBA96
:10129600E0FD7F007E0112AD8B900C73E0FEA3E0B3
:1012A600FF64F14E7005A3E0FD8009900BBEE0FDE2
:1012B6007FF17E0012AD8B900C73E0FEA3E0FF641D
:1012C600F24E7005A3E0FD8009900BBFE0FD7FF2B2
:1012D6007E0012AD8B900C73E0FEA3E0FF64F34E2C
:1012E6007005A3E0FD8009900BC0E0FD7FF37E0052
:1012F60012AD8B900C73E0FEA3E0FF64F44E700514
:10130600A3E0FD8009900BC1E0FD7FF47E0012ADE5
:101316008B900C73E0FEA3E0FFBE0108BF0805A397
:10132600E0FD8009900B76E0FD7F087E0112AD8B13
:10133600900C73E0FEA3E0FFBE0108BF0905A3E021
:10134600FD8009900B77E0FD7F097E0112AD8B9041
:101356000C73E0FEA3E0FFBE0108BF0A05A3E0FD93
:101366008009900B78E0FD7F0A7E0112AD8B900C10
:1013760073E0FEA3E0FFBE0108BF0B05A3E0FD80FE
:1013860009900B79E0FD7F0B7E0112AD8B900C73FB
:10139600E0FEA3E0FFBE0108BF0C05A3E0FD800947
:1013A600900B7AE0FD7F0C7E0112AD8B900C73E002
:1013B600FEA3E0FFBE0108BF1005A3E0FD80099073
:1013C6000B7DE0FD7F107E0112AD8B900C73E0FE6D
:1013D600A3E0FFBE0108BF1105A3E0FD8009900B45
:1013E6007EE0FD7F117E0112AD8B900C73E0FEA3B3
:1013F600E0FFBE0108BF1205A3E0FD8009900B7F48
:10140600E0FD7F127E0112AD8B900C73E0FEA3E02F
:10141600FFBE0108BF1305A3E0FD8009900B80E025
:10142600FD7F137E0112AD8B900C73E0FEA3E0FFEF
:10143600BE0108BF1405A3E0FD8009900B81E0FD05
:101446007F147E0112AD8B900C73E0FEA3E0FFBE0D
:101456000108BF2005A3E0FD8009900B89E0FD7F10
:10146600207E0112AD8B900C73E0FEA3E0FFBE015F
:1014760008BF2105A3E0FD8009900B8AE0FD7F21CE
:101486007E0112AD8B900C73E0FEA3E0FFBE010857
:10149600BF2205A3E0FD8009900B8BE0FD7F227E35
:1014A6000112AD8B900C73E0FEA3E0FFBE0108BFF6
:1014B6002305A3E0FD8009900B8CE0FD7F237E01D0
:1014C60012AD8B900C73E0FEA3E0FFBE0108BF24B3
:1014D60005A3E0FD8009900B8DE0FD7F247E0112BF
:1014E600AD8B900C73E0FEA3E0FFBE0108BF400584
:1014F600A3E0FD8009900B90E0FD7F407E0112ADD8
:101506008B900C73E0FEA3E0FFBE0108BF4105A36C
:10151600E0FD8009900B91E0FD7F417E0112AD8BCD
:10152600900C73E0FEA3E0FFBE0108BF4205A3E0F6
:10153600FD8009900B92E0FD7F427E0112AD8B90FB
:101546000C73E0FEA3E0FFBE0108BF4305A3E0FD68
:101556008009900B93E0FD7F437E0112AD8B900CCA
:1015660073E0FEA3E0FFBE0108BF4405A3E0FD80D3
:1015760009900B94E0FD7F447E0112AD8B900C73B5
:10158600E0FEA3E0FFBE0108BFA805A3E0FD8009B9
:10159600900B97E0FD7FA87E0112AD8B900C73E057
:1015A600FEA3E0FFBE0108BFA905A3E0FD800990E8
:1015B6000B98E0FD7FA97E0112AD8B900C73E0FEC7
:1015C600A3E0FFBE0108BFAA05A3E0FD8009900BBA
:1015D60099E0FD7FAA7E0112AD8B900C73E0FEA30D
:1015E600E0FFBE0108BFAB05A3E0FD8009900B9AA2
:1015F600E0FD7FAB7E0112AD8B900C73E0FEA3E0A5
:10160600FFBE0108BFAC05A3E0FD8009900B9BE07F
:10161600FD7FAC7E0112AD8B900C73E0FEA3E0FF64
:10162600BE0108BFD405A3E0FD8009900B84E0FD50
:101636007FD47E0112AD8B900C73E0FEA3E0FFBE5B
:101646000108BFD005A3E0FD8009900B85E0FD7F72
:10165600D07E0112AD8B900C73E0FEA3E0FFBE01BD
:1016660008BFD105A3E0FD8009900B86E0FD7FD180
:101676007E0112AD8B900C73E0FEA3E0FFBE010865
:10168600BFD205A3E0FD8009900B87E0FD7FD27EE7
:101696000112AD8B900C73E0FEA3E0FFBE0108BF04
:1016A600D305A3E0FD8009900B88E0FD7FD37E0182
:1016B60012AD8B900C73E0FEA3E0FFBE0108BF38AD
:1016C60005A3E0FD8009900BD2E0FD7F387E011274
:1016D600AD8B900C73E0FEA3E0FFBE0108BF390599
:1016E600A3E0FD8009900BD3E0FD7F397E0112ADAA
:1016F6008B900C73E0FEA3E0FFBE0108BF3A05A382
:10170600E0FD8009900BD4E0FD7F3A7E0112AD8B9F
:10171600900C73E0FEA3E0FFBE0108BF3B05A3E00B
:10172600FD8009900BD5E0FD7F3B7E0112AD8B90CD
:101736000C73E0FEA3E0FFBE0108BF3C05A3E0FD7D
:101746008009900BD6E0FD7F3C7E0112AD8B900C9C
:1017560073E0FEA3E0FFBE0108BF3D05A3E0FD80E8
:1017660009900BD7E0FD7F3D7E0112AD8B900C7387
:10177600E0FEA3E0FFBE0108BF3E05A3E0FD800931
:10178600900BD8E0FD7F3E7E0112AD8B900C73E08E
:10179600FEA3E0FFBE0108BF3F05A3E0FD80099060
:1017A6000BD9E0FD7F3F7E0112AD8B900C73E0FEFE
:1017B600A3E0FFBE0108BF3605A3E0FD8009900B3C
:1017C600DAE0FD7F367E0112AD8B900C73E0FEA34E
:1017D600E0FFBE0108BF3705A3E0FD8009900BDBE3
:1017E600E0FD7F377E0112AD8B900C73E0FEA3E027
:1017F600FFBE0108BFFB05A3E0FD8009900BEFE0EB
:10180600FD7FFB7E0112AD8B900C73E0FEA3E0FF23
:10181600BE0108BFFC05A3E0FD8009900BEEE0FDCC
:101826007FFC7E0112AD8B900C73E0FEA3E0FFBE41
:101836000108BFFD05A3E0FD8009900BECE0FD7FEC
:10184600FD7E0112AD8B900C73E0FEA3E0FFBE019E
:1018560008BFFE05A3E0FD8009900BEDE0FD7FFECD
:101866007E0112AD8B900C73E0FEA3E0FFBE010873
:10187600BF4805A3E0FD8009900BF0E0FD7F487EA0
:101886000112AD8B900C73E0FEA3E0FFBE0108BF12
:101896004905A3E0FD8009900BF1E0FD7F497E013B
:1018A60012AD8B900C73E0FEA3E0FFBE0108BF4AA9
:1018B60005A3E0FD8009900BF2E0FD7F4A7E011250
:1018C600AD8B900C73E0FEA3E0FFBE0108BF4B0595
:1018D600A3E0FD8009900BF3E0FD7F4B7E0112AD86
:1018E6008B900C73E0FEA3E0FFBE0108BF4C05A37E
:1018F600E0FD8009900BF4E0FD7F4C7E0112AD8B7C
:10190600900C73E0FEA3E0FFBE0108BF5005A3E004
:10191600FD8009900BF7E0FD7F507E0112AD8B90A4
:101926000C73E0FEA3E0FFBE0108BF5105A3E0FD76
:101936008009900BF8E0FD7F517E0112AD8B900C73
:1019460073E0FEA3E0FFBE0108BF5205A3E0FD80E1
:1019560009900BF9E0FD7F527E0112AD8B900C735E
:10196600E0FEA3E0FFBE0108BF5305A3E0FD80092A
:10197600900BFAE0FD7F537E0112AD8B900C73E065
:10198600FEA3E0FFBE0108BF5405A3E0FD80099059
:101996000BFBE0FD7F547E0112AD8B900C73E0FED5
:1019A600A3E0FFBE0108BF5805A3E0FD8009900B28
:1019B600FEE0FD7F587E0112AD8B900C73E0FEA316
:1019C600E0FFBE0108BF5905A3E0FD8009900BFFAB
:1019D600E0FD7F597E0112AD8B900C73E0FEA3E013
:1019E600FFBE0108BF5A05A3E0FD8009900C00E088
:1019F600FD7F5A7E0112AD8B900C73E0FEA3E0FFD3
:101A0600BE0108BF5B05A3E0FD8009900C01E0FD67
:101A16007F5B7E0112AD8B900C73E0FEA3E0FFBEF0
:101A26000108BF5C05A3E0FD8009900C02E0FD7F84
:101A36005C7E0112AD8B900C73E0FEA3E0FFBE014D
