:104C5C00EFD394057480948040037F0122123B9F14
:104C6C00FED394037480948040037F0222EF70443F
:104C7C00EE700B900001123BB8F452935294123B1D
:104C8C009F6401700B900001123BB84293F4529454
:104C9C00123B9FFE6402700A900001123BB84293D3
:104CAC004294EE6403700D900001123BB8FEF45276
:104CBC0093EE4294EF64017046123B9FFE700B9092
:104CCC000001123BB8F452915292EE6401700B90B9
:104CDC000001123BB84291F45292123B9F64027055
:104CEC000A900001123BB842914292123B9F64031E
:104CFC00700D900001123BB8FEF45291EE4292EF0F
:104D0C0064027046123B9FFE700B900001123BB880
:104D1C00F452955296EE6401700B900001123BB860
:104D2C004295F45296123B9F6402700A9000011255
:104D3C003BB842954296123B9F6403700D90000164
:104D4C00123BB8FEF45295EE4296EF640370461295
:104D5C003B9FFE700B900001123BB8F452B152B263
:104D6C00EE6401700B900001123BB842B1F452B2E8
:104D7C00123B9F6402700A900001123BB842B14290
:104D8C00B2123B9F6403700D900001123BB8FEF40D
:104D9C0052B1EE42B2EF64047046123B9FFE700BB0
:104DAC00900001123BB8F452B352B4EE6401700B94
:104DBC00900001123BB842B3F452B4123B9F640210
:104DCC00700A900001123BB842B342B4123B9F648C
:104DDC0003700D900001123BB8FEF452B3EE42B4D6
:104DEC00EF64057049123B9FFF7E00700B90000131
:104DFC00123BB8F452C952CAEF64014E700B9000CA
:104E0C0001123BB842C9F452CA123B9F6402700AA9
:104E1C00900001123BB842C942CA123B9F64037016
:104E2C000D900001123BB8FFF452C9EF42CA7F004B
:014E3C002253
:0D69E300E4F5C7F5C5F5C675C380F5C422FF
:10675F0075C78275C5018FC4EEF5C375C65A75C668
:07676F00A500AFC20269E3BF
:10672E0075C78275C5028FC4EEF5C3AF058FC275EE
:09673E00C65A75C6A5000269E304
:1067FA0075C78275C5038FC4EEF5C375C65A75C6CB
:05680A00A5000269E396
:104A0C00900266EBF0A3EAF0A3E9F0900265EFF0F8
:104A1C00E4900269F0EF64016003024B6890026558
:104A2C00E0FF75F00DA4248CF582E43401F5837459
:104A3C0001F0A37401F0A374B3F0EF75F00DA4248E
:104A4C008FF582E43401F5837401F0A37401F0A3B3
:104A5C0074D2F0EF75F00DA4248CF582E43401F5DA
:104A6C0083E0FBA3E0FAA3E0F9EF75F00DA4249228
:104A7C00F582E43401F583EBF0A3EAF0A3E9F0EF5F
:104A8C0075F00DA4248CF582E43401F583E0FBA3CE
:104A9C00E0FAA3E0F9EF75F00DA42495F582E43467
:104AAC0001F583EBF0A3EAF0A3E9F0EF75F00DA4A8
:104ABC002498F582E43401F583E4F0FE7F20FD7B3D
:104ACC00017A0179B3123E1E900266E0FBA3E0FA74
:104ADC00A3E0F9900001123BB86401703053877F5A
:104AEC00759850438E40538EFE53890F4389209006
:104AFC000002123DB17F007E467D057C00123CE831
:104B0C00EFF404F58BF58DC2ABD28E803A90026631
:104B1C00E0FBA3E0FAA3E0F9900001123BB86402B9
:104B2C00703A53877F759850438E04900002123D63
:104B3C00B17F007E467D057C00123CE8EFF404F565
:104B4C009C438E01438E10900266E0FBA3E0FAA317
:104B5C00E0F9900008123BB824FF92AC900265E09B
:104B6C0064026003024C5BE0FF75F00DA4248CF52D
:104B7C0082E43401F5837401F0A37401F0A374D3BF
:104B8C00F0EF75F00DA4248FF582E43401F58374F5
:104B9C0001F0A37401F0A374F2F0EF75F00DA424EE
:104BAC008CF582E43401F583E0FBA3E0FAA3E0F991
:104BBC00EF75F00DA42492F582E43401F583EBF04B
:104BCC00A3EAF0A3E9F0EF75F00DA4248CF582E4D0
:104BDC003401F583E0FBA3E0FAA3E0F9EF75F00DE7
:104BEC00A42495F582E43401F583EBF0A3EAF0A359
:104BFC00E9F0EF75F00DA42498F582E43401F58307
:104C0C00E4F0FE7F20FD7B017A0179D3123E1E5326
:104C1C008EF7759A50438E04900266E0FBA3E0FA7F
:104C2C00A3E0F9900002123DB17F007E467D057C29
:104C3C0000123CE8EFF404F59C438E10900266E001
:0F4C4C00FBA3E0FAA3E0F9900008123BB842AFD7
:014C5B002236
:03002300025BB6C7
:105BB600C0E0C0F0C083C082C0D075D000C000C0B5
:105BC60001C002C003209803025C9BC29890019F0B
:105BD600E0FBA3E0FAA3E0F9C003C002C001A3A35F
:105BE600E0FAA3E0F9C3D082D083D0E0E99582EA57
:105BF600958340359001A5E06401702D900199E0F0
:105C0600F9A3E0FAA3E09001A2C9F0A3EAF0A3E9A0
:105C1600F0900199E0F9A3A3E090019FC9F0A3EAEF
:105C2600F0A3E9F09001A5E4F090019CE0FBA3E06D
:105C3600FAA3E0F9C003C002C0019001A2E0FBA3F1
:105C4600E0FAA3E0F9D082D083D0E06B7008E96572
:105C5600827003EA65839001A27028E0FBA3E0FA54
:105C6600A3E0F9E599123C3A900199E0F9A3E0FA2C
:105C7600A3E09001A2C9F0A3EAF0A3E9F0A374019E
:105C8600F08012E0FBA3E475F001123C96A9F0FA4D
:105C9600E599123C3AD003D002D001D000D0D0D042
:085CA60082D083D0F0D0E0327F
:030043000259BCA3
:1059BC00C0E0C0F0C083C082C0D075D000C000C0B1
:1059CC0001C002C003E59A20E003025AAA539AFED2
:1059DC009001ACE0FBA3E0FAA3E0F9C003C002C065
:1059EC0001A3E0FBA3E0FAA3E0F9D082D083D0E0DE
:1059FC006B7008E965827003EA658370359001B2BB
:105A0C00E06401702D9001A6E0F9A3E0FAA3E09008
:105A1C0001AFC9F0A3EAF0A3E9F09001A6E0F9A365
:105A2C00A3E09001ACC9F0A3EAF0A3E9F09001B2B5
:105A3C00E4F09001A9E0FBA3E0FAA3E0F9C003C0F5
:105A4C0002C0019001AFE0FBA3E0FAA3E0F9D08221
:105A5C00D083D0E06B7008E965827003EA658390AF
:105A6C0001AF7028E0FBA3E0FAA3E0F9E59B123C40
:105A7C003A9001A6E0F9A3E0FAA3E09001AFC9F0D7
:105A8C00A3EAF0A3E9F0A37401F08012E0FBA3E415
:105A9C0075F001123C96A9F0FAE59B123C3AD00342
:105AAC00D002D001D000D0D0D082D083D0F0D0E0C2
:015ABC0032B7
:1051A200900253EBF0A3EAF0A3E9F0900252EFF081
:1051B20075F00DA42495F582E43401F583E0F9A39A
:1051C200E0FAA3E0900258C9F0A3EAF0A3E9F0EFF5
:1051D20075F00DA42492F582E43401F583E0F9A37D
:1051E200E0FAA3E090025BC9F0A3EAF0A3E9F0E4DD
:1051F200FFFE900253E0F9A3E0FAA3E090025EC939
:10520200F0A3EAF0A3E9F0900258E0FBA3E0FAA3CE
:10521200E0F9C003C002C001A3E0FBA3E0FAA3E0EF
:10522200F9D082D083D0E06B7008E965827003EA1E
:105232006583700302530D0FBF00010ED390025716
:10524200E09F900256E09E500302530D900252E0FE
:1052520075F00DA4248FF582E43401F583E0FBA3FD
:10526200E0FAA3E0F9C003C002C00190025BE0FBD8
:10527200A3E0FAA3E0F9D082D083D0E06B7008E912
:1052820065827003EA658390025B7057E0FBA3E0DE
:10529200FAA3E0F9123B9FFD900253E0FBA3E475F1
:1052A200F001123C96A9F0FAED123C3A900252E05B
:1052B200FD75F00DA4248CF582E43401F583E0F948
:1052C200A3E0FAA3E090025BC9F0A3EAF0A3E9F03D
:1052D200ED75F00DA42498F582E43401F583E4F031
:1052E200025209E0FBA3E475F001123C96A9F0FA20
:1052F200123B9FFD900253E0FBA3E475F001123CC8
:1053020096A9F0FAED123C3A025209900258E0FBDB
:10531200A3E0FAA3E0F9900252E075F00DA4249202
:0F532200F582E43401F583EBF0A3EAF0A3E9F0A0
:015331002259
:0F69C500EF24FE6006047006C2AC2253AFFE2220
:0F69D400EF24FE6006047006D2AC2243AF01220E
:055CAE00900256EFF02A
:105CB300E4FDFCEF7003025D89E0FF1269C5E07546
:105CC300F00DA4248CF582E43401F583A3E0FAA358
:105CD300E0AE02FF900256E075F00DA4248FF5822A
:105CE300E43401F583A3E0FAA3E0C39FFFEA9ECF68
:105CF3002401FDE43FFCFEAF057D00900256E075F4
:105D0300F00DA4248CF582E43401F583E0FBA3E0D9
:105D1300FAA3E0F9123E1E900256E0FF75F00DA4BF
:105D2300248CF582E43401F583E0FBA3E0FAA3E0DD
:105D3300F9EF75F00DA42495F582E43401F583EBB6
:105D4300F0A3EAF0A3E9F0EF75F00DA4248CF5823B
:105D5300E43401F583E0FBA3E0FAA3E0F9EF75F087
:105D63000DA42492F582E43401F583EBF0A3EAF069
:105D7300A3E9F0EF75F00DA42498F582E43401F55E
:065D830083E4F01269D474
:015D890022F7
:10002600000000000001C2000000960000004B0026
:0C00360000002580000012C000000960DE
:105E54001265131269FC12667F900257123DED0021
:105E640001C2007F01125635C2B7900257123DEDB0
:105E74000001C2007F01125635900000E0FBA3E050
:105E8400FAA3E0F9123B9F6078900001123BB8C37B
:105E9400940774809480504B123B9FFFC00790007E
:105EA40001123BB825E025E02426F582E43400F510
:105EB40083123DA1900257123DE1D007125635904E
:105EC4000000E0FBA3E0FAA3E0F9123B9FFF125CA1
:105ED400AE900000E0FBA3E0FAA3E0F9123B9FFFC1
:105EE4001269D4900000E0FBA3E0FAA3E0F990016A
:105EF40038123BB8640170091261FA90013C7401D4
:045F0400F0D2AF2206
:1061FA001247B3900000E0FBA3E0FAA3E0F9123BD8
:10620A009F605A900001123BB8C39407748094802F
:10621A00504B123B9FFFC007900001123BB825E08C
:10622A0025E02426F582E43400F583123DA190028C
:10623A0057123DE1D007125635900000E0FBA3E06B
:10624A00FAA3E0F9123B9FFF125CAE900000E0FB5C
:0E625A00A3E0FAA3E0F9123B9FFF1269D422E1
:0100210022BC
:1065130090024874FFF0E4900247F07B017A02791D
:1065230047FF124C5C7B017A0279477F01124C5C76
:106533007B017A0279477F02124C5C7B017A0279F4
:10654300477F03124C5C7B017A0279477F04024C3C
:016553005CEB
:0B69FC00438905E4F58CF58AD28C225B
:10667F00900000E0FBA3E0FAA3E0F99000D2123BF8
:10668F00B824FE600E047015438905E4F58CF58A75
:0E669F00D28C22438950E4F58DF58BD28E22E9
:1058AD00EF14B4230040030259B99058C575F003A5
:1058BD00A4C58325F0C5837302592E0259330259AD
:1058CD003702593B02593F02594302594702594B7E
:1058DD0002594F02595302595702595B02595F023F
:1058ED00596302596702596B02596F025973025974
:1058FD007702597B02597F02598302598702598BCE
:10590D0002598F02599302599702599B02599F02CE
:10591D0059A30259A70259AB0259AF0259B3025903
:10592D00B3A2800259B5A281807EA282807AA28321
:10593D008076A2848072A285806EA286806AA287FC
:10594D008066A2A78062A2A6805EA2A5805AA2A4AC
:10595D008056A2A38052A2A2804EA2A1804AA2A0EC
:10596D008046A2908042A291803EA292803AA2935C
:10597D008036A2948032A295802EA296802AA2977C
:10598D008026A2B28022A2B3801EA2B4801AA2B534
:10599D008016A2B68012A2B7800EA2C7800AA2C638
:0F59AD008006A2C58002A2C4E433FF227F01223C
:105FA700E4FE123B9FFF1258AD123B9FC39440740F
:105FB70080948040037F0022900003123BB8F47066
:105FC70006900003123C4C900006123BB8703290CA
:105FD7000001123BB8B507059000058058900002F4
:105FE700123BB8FD900005123BB8C39D500C9000C2
:105FF700057401123C077E01804190000674018000
:106007000D900001123BB86F600B900005E4123C45
:106017004CE4FE8026900003123BB8FF9000051267
:106027003BB8C39F500C9000057401123C07E4FE77
:0D6037008009900006E4123C4C7E01AF068B
:016044002239
:0E501100900256EBF0A3EAF0A3E9F0A3EDF055
:10501F00900256E0FBA3E0FAA3E0F9EDFF7E00E972
:10502F002FF9EE3AFA90FFFF123BB8FEE490025AC6
:10503F00F0AF061258ADAD07E490025BF0AF06C3B8
:10504F00EF94407480948040037F0022900256E0DA
:10505F00FBA3E0FAA3E0F9900012123BB8FF900215
:10506F0059E0FE14FCF8EF088002C313D8FC54017A
:10507F0090025BF0EE2409F582E433F583123BB81E
:10508F00900011123C4C900008123BB8F470129033
:10509F000256E0FBA3E0FAA3E0F9900008E4123C0B
:1050AF004C90025BE07051900256E0FBA3E0FAA334
:1050BF00E0F9900006123BB8B50509900011E41213
:1050CF003C4C8024900007123BB8FF900011123B1C
:1050DF00B8C39F501B900256E0FBA3E0FAA3E0F980
:1050EF009000117401123C0790025A7401F0805A1B
:1050FF0090025B7401F08041900256E0FBA3E0FA4E
:10510F00A3E0F9900006123BB86D6009900011E41E
:10511F00123C4C8024900008123BB8FF90001112F3
:10512F003BB8C39F501A900256E0FBA3E0FAA3E0EE
:10513F00F99000117401123C07E490025AF0800AB2
:10514F00E490025BF090025A04F0900256E0FBA349
:10515F00E0FAA3E0F9900011123BB8FF900259E07A
:10516F00FE2409F582E433F583EF123C4CE9241257
:10517F00F9E43AFA123B9FFFEE14FE90025BE0FD5A
:10518F00A806088002C333D8FC4F123C3A90025A4B
:02519F00E0FF2F
:0151A10022EB
:10633E004253505F4765745573617274527842755B
:10634E00666665723A496E646578206F7665726628
:10635E006C6F772121212020555341525478203DD6
:10636E002025623032640D0A0052786C656E7468B6
:10637E003A496E646578206F766572666C6F772128
:10638E0021212020555341525478203D2025623042
:05639E0032640D0A004D
:1069B400900282EFF0FD7F01126554900282E0FFA5
:0169C40022B0
:05563500900256EFF0A9
:10563A00640160030256C6E0FF75F00AA42429F546
:10564A0082E43402F5837401F0A37401F0A374F3C5
:10565A00F0EF75F00AA4242CF582E43402F5837481
:10566A0001F0A37402F0A37412F0EF75F00AA424F7
:10567A0029F582E43402F583E0FBA3E0FAA3E0F91A
:10568A00EF75F00AA4242FF582E43402F583EBF0D7
:10569A00A3EAF0A3E9F0EF75F00AA42432F582E454
:1056AA003402F583E4F0FE7F20FD7B017A0179F371
:1056BA00123E1E90025C7401F0025753900256E0AB
:1056CA0064026003025794E0FF75F00AA42429F5E6
:1056DA0082E43402F5837401F0A37402F0A3741314
:1056EA00F0EF75F00AA4242CF582E43402F58374F1
:1056FA0001F0A37402F0A37432F0EF75F00AA42447
:10570A0029F582E43402F583E0FBA3E0FAA3E0F989
:10571A00EF75F00AA4242FF582E43402F583EBF046
:10572A00A3EAF0A3E9F0EF75F00AA42432F582E4C3
:10573A003402F583E4F0FE7F20FD7B017A027913BF
:10574A00123E1E90025C7402F0E4FFFEFDFC900221
:10575A0057E0F8A3E0F9A3E0FAA3E0FBC3123D90F7
:10576A006028900257E0FCA3E0FDA3E0FEA3E0FF5F
:10577A0090025D123DE19002637401F0900256E0DE
:0A578A00FF7B017A02795B124A0CE2
:0157940022F2
:10453800900249EBF0A3EAF0A3E9F0900248EFF00B
:10454800E490024EF0A3F0A3F0A3F0EF6009C39447
:1045580003748094804004E4FEFF22900248E075D2
:10456800F00AA4242FF582E43402F583A3E0FAA329
:10457800E0AE02FF900248E075F00AA4242CF58210
:10458800E43402F583A3E0FAA3E0C39FFFEA9EFEAA
:10459800EF2401FDE43EFC900248E0FF75F00AA418
:1045A800242FF582E43402F583E0FBA3E0FAA3E0CC
:1045B800F9900256ECF0A3EDF01251A290024EEEE3
:1045C800F0A3EFF0900248E0FF75F00AA4242FF55D
:1045D80082E43402F583E0FBA3E0FAA3E0F9900259
:1045E8004EE0FCA3E0FDE92DF9EA3CFAEF75F00A8C
:1045F800A4242FF582E43402F583EBF0A3EAF0A3B8
:10460800E9F0900248E0FF75F00AA42429F582E455
:104618003402F583A3E0FAA3E0AC02FDEF75F00ADB
:10462800A4242FF582E43402F583A3E0FAA3E0C3BF
:104638009DFEEA9C90024EF0A3CEF0900248E0FF67
:1046480075F00AA4242CF582E43402F583E0FBA378
:10465800E0FAA3E0F9C003C002C001EF75F00AA4B4
:10466800242FF582E43402F583A3E0FAA3E0F9C32A
:10467800D082D083D0E0E99582EA9583401B125F0F
:10468800087BFF7A63793E900248E090025DF01261
:104698003F31E490024EF0A3F090024CE0FEA3E01C
:1046A800FFC390024FE09F90024EE09E50030247E6
:1046B8003BEEF0A3EFF07BFF7A637977900248E056
:1046C80090025DF0123F31E4900250F0A3F09002A6
:1046D8004CE0FEA3E0FF900250E0FCA3E0FDC39F86
:1046E800EC9E5045900248E075F00AA42429F58212
:1046F800E43402F583E0FBA3E0FAA3E0F98D828CB1
:1047080083123BB8FF900249E0FBA3E475F0011265
:104718003C96A9F0FAEF123C3A900251E004F0708E
:1047280006900250E004F080A5900248E0FF125F76
:10473800088060E4900250F0A3F090024EE0FEA3DF
:10474800E0FFA3E0FCA3E0FDC39FEC9E5045900270
:1047580048E075F00AA42429F582E43402F583E0E0
:10476800FBA3E0FAA3E0F98D828C83123BB8FF909B
:104778000249E0FBA3E475F001123C96A9F0FAEFB8
:10478800123C3A900251E004F07006900250E004A6
:10479800F080A7900249E0FBA3E0FAA3E0F9E41255
:0A47A8003C3A90024EE0FEA3E0FF51
:0147B20022E4
:055F0800900252EFF0D1
:105F0D00EF7003025FA6C394037480948040030274
:105F1D005FA6E075F00AA42429F582E43402F58326
:105F2D00A3E0FAA3E0AE02FF900252E075F00AA4DE
:105F3D00242CF582E43402F583A3E0FAA3E0C39F99
:105F4D00FFEA9ECF2401CF3400FCFE7D009002526B
:105F5D00E075F00AA42429F582E43402F583E0FB10
:105F6D00A3E0FAA3E0F9123E1E900252E0FF75F095
:105F7D000AA42429F582E43402F583E0FBA3E0FAB8
:105F8D00A3E0F9EF75F00AA4242FF582E43402F5AD
:095F9D0083EBF0A3EAF0A3E9F0A4
:015FA60022D8
:10000300EFFD7C00640170063099FDC29922ED6416
:0E001300024C7009E59A540260FA539AFD22DD
:10655400900283EFF0A3EDF0D2B7126A1190028398
:10656400E0602CC39403748094805023E024FE6084
:106574000B04700E900284E0F5998006900284E08A
:10658400F59B900283E0FF120003C2B7126A112246
:0E646200900256EFF0A3EBF0A3EAF0A3E9F0EE
:10647000E490025CF0A3F090025CF0A3F090025A6A
:10648000E0FEA3E0FFC390025DE09F90025CE09E0F
:10649000502A900256E0FFA3E0FBA3E475F001123E
:1064A0003C96A9F0FA123B9FFD12655490025DE004
:0C64B00004F070C990025CE004F080C1B0
:0164BC0022BD
:1053320061390003000000000000000000000000CE
:10534200000000000000000000000000000000005B
:10535200000000000000000000000000000000004B
:10536200000000000000000000000000000000003B
:10537200000000000000000000000000000000002B
:10538200000000000000000000000000000000001B
:10539200000000000000000000000000000000000B
:1053A20000000000000000000000000000000000FB
:1053B20000000000000000000000000000000000EB
:1053C20000000000000000000000000000000000DB
:1053D20000000000000000000000000000000000CB
:1053E20000000000000000000000000000000000BB
:1053F20000000000000000000000000000000000AB
:10540200000000000000000000000000000000009A
:10541200000000000000000000000000000000008A
:10542200000000000000000000000000000000007A
:10543200000000000000000000000000000000006A
:10544200000000000000000000000000000000005A
:10545200000000000000000000000000000000004A
:1054620000000000000000000000000000430000F7
:0354720001000333
:10183B007F017E0012675F900000E0FBA3E0FAA33C
:10184B00E0F9EF123C3A7F027E0012675F900000D6
:10185B00E0FBA3E0FAA3E0F9900001EF123C4C7F10
:10186B00037E0012675F900000E0FBA3E0FAA3E0A9
:10187B00F9900003EF123C4C7F047E0012675F90DF
:10188B000000E0FBA3E0FAA3E0F9900004EF123CA8
:10189B004C7F147E0012675F900000E0FBA3E0FA20
:1018AB00A3E0F9900005EF123C4C7F057E00126718
:1018BB005F900000E0FBA3E0FAA3E0F9900006EFD5
:1018CB00123C4C7F067E0012675F900000E0FBA38A
:1018DB00E0FAA3E0F9900007EF123C4C7F077E0083
:1018EB0012675F900000E0FBA3E0FAA3E0F9900021
:1018FB0009EF123C4C7F087E0012675F900000E0FE
:10190B00FBA3E0FAA3E0F990000AEF123C4C7F092D
:10191B007E0012675F900000E0FBA3E0FAA3E0F902
:10192B0090000CEF123C4C7F0E7E0012675F900014
:10193B0000E0FBA3E0FAA3E0F990000DEF123C4CA2
:10194B007F0A7E0012675F900000E0FBA3E0FAA322
:10195B00E0F990000FEF123C4C7F0E7E0012675F98
:10196B00900000E0FBA3E0FAA3E0F9900010EF1267
:10197B003C4C7F0B7E0012675F900000E0FBA3E006
:10198B00FAA3E0F9900012EF123C4C7F0E7E00128E
:10199B00675F900000E0FBA3E0FAA3E0F99000136F
:1019AB00EF123C4C7F0C7E0012675F900000E0FB57
:1019BB00A3E0FAA3E0F9900015EF123C4C7F0E7EEA
:1019CB000012675F900000E0FBA3E0FAA3E0F99040
:1019DB000016EF123C4C7F0D7E0012675F900000EB
:1019EB00E0FBA3E0FAA3E0F9900018EF123C4C7F68
:1019FB000E7E0012675F900000E0FBA3E0FAA3E00D
:101A0B00F9900019EF123C4C7F0F7E0012675F902C
:101A1B000000E0FBA3E0FAA3E0F990001BEF123CFF
:101A2B004C7F107E0012675F900000E0FBA3E0FA92
:101A3B00A3E0F990001EEF123C4C7F117E00126761
:101A4B005F900000E0FBA3E0FAA3E0F990001FEF2A
:101A5B00123C4C7F127E0012675F900000E0FBA3EC
:101A6B00E0FAA3E0F9900021EF123C4C7F137E00CB
:101A7B0012675F900000E0FBA3E0FAA3E0F990008F
:101A8B0022EF123C4C7F207E0012675F900000E03B
:101A9B00FBA3E0FAA3E0F9900024EF123C4C7F216A
:101AAB007E0012675F900000E0FBA3E0FAA3E0F971
:101ABB00900025EF123C4C7F227E0012675F900056
:101ACB0000E0FBA3E0FAA3E0F9900026EF123C4CF8
:101ADB007F237E0012675F900000E0FBA3E0FAA378
:101AEB00E0F9900027EF123C4C7F247E0012675FD9
:101AFB00900000E0FBA3E0FAA3E0F9900028EF12BE
:101B0B003C4C7F287E0012675F900000E0FBA3E057
:101B1B00FAA3E0F990002BEF123C4C7F297E0012C8
:101B2B00675F900000E0FBA3E0FAA3E0F990002CC4
:101B3B00EF123C4C7F2A7E0012675F900000E0FBA7
:101B4B00A3E0FAA3E0F990002DEF123C4C7F2B7E23
:101B5B000012675F900000E0FBA3E0FAA3E0F990AE
:101B6B00002EEF123C4C7F2C7E0012675F90000022
:101B7B00E0FBA3E0FAA3E0F990002FEF123C4C7FBF
:101B8B00307E0012675F900000E0FBA3E0FAA3E059
:101B9B00F9900032EF123C4C7F317E0012675F9060
:101BAB000000E0FBA3E0FAA3E0F9900033EF123C56
:101BBB004C7F327E0012675F900000E0FBA3E0FADF
:101BCB00A3E0F9900034EF123C4C7F337E00126798
:101BDB005F900000E0FBA3E0FAA3E0F9900035EF83
:101BEB00123C4C7F347E0012675F900000E0FBA339
:101BFB00E0FAA3E0F9900036EF123C4C7F387E0000
:101C0B0012675F900000E0FBA3E0FAA3E0F99000FD
:101C1B0039EF123C4C7F397E0012675F900000E079
:101C2B00FBA3E0FAA3E0F990003AEF123C4C7F3AA9
:101C3B007E0012675F900000E0FBA3E0FAA3E0F9DF
:101C4B0090003BEF123C4C7F3B7E0012675F900095
:101C5B0000E0FBA3E0FAA3E0F990003CEF123C4C50
:101C6B007F3C7E0012675F900000E0FBA3E0FAA3CD
:101C7B00E0F990003DEF123C4C7F407E0012675F15
:101C8B00900000E0FBA3E0FAA3E0F9900040EF1214
:101C9B003C4C7F417E0012675F900000E0FBA3E0AD
:101CAB00FAA3E0F9900041EF123C4C7F427E001208
:101CBB00675F900000E0FBA3E0FAA3E0F99000421D
:101CCB00EF123C4C7F437E0012675F900000E0FBFD
:101CDB00A3E0FAA3E0F9900043EF123C4C7F447E63
:101CEB000012675F900000E0FBA3E0FAA3E0F9901D
:101CFB000044EF123C4C7F487E0012675F9000005F
:101D0B00E0FBA3E0FAA3E0F9900047EF123C4C7F15
:101D1B00497E0012675F900000E0FBA3E0FAA3E0AE
:101D2B00F9900048EF123C4C7F4A7E0012675F909F
:101D3B000000E0FBA3E0FAA3E0F9900049EF123CAE
:101D4B004C7F4B7E0012675F900000E0FBA3E0FA34
:101D5B00A3E0F990004AEF123C4C7F4C7E001267D7
:101D6B005F900000E0FBA3E0FAA3E0F990004BEFDB
:101D7B00123C4C7F507E0012675F900000E0FBA38B
:101D8B00E0FAA3E0F990004EEF123C4C7F517E003D
:101D9B0012675F900000E0FBA3E0FAA3E0F990006C
:101DAB004FEF123C4C7F527E0012675F900000E0B9
:101DBB00FBA3E0FAA3E0F9900050EF123C4C7F53E9
:101DCB007E0012675F900000E0FBA3E0FAA3E0F94E
:101DDB00900051EF123C4C7F547E0012675F9000D5
:101DEB0000E0FBA3E0FAA3E0F9900052EF123C4CA9
:101DFB007F587E0012675F900000E0FBA3E0FAA320
:101E0B00E0F9900055EF123C4C7F597E0012675F52
:101E1B00900000E0FBA3E0FAA3E0F9900056EF126C
:101E2B003C4C7F5A7E0012675F900000E0FBA3E002
:101E3B00FAA3E0F9900057EF123C4C7F5B7E001247
:101E4B00675F900000E0FBA3E0FAA3E0F990005875
:101E5B00EF123C4C7F5C7E0012675F900000E0FB52
:101E6B00A3E0FAA3E0F9900059EF123C4C7F607E9F
:101E7B000012675F900000E0FBA3E0FAA3E0F9908B
:101E8B00005CEF123C4C7F617E0012675F9000009C
:101E9B00E0FBA3E0FAA3E0F990005DEF123C4C7F6E
:101EAB00627E0012675F900000E0FBA3E0FAA3E004
:101EBB00F990005EEF123C4C7F637E0012675F90DF
:101ECB000000E0FBA3E0FAA3E0F990005FEF123C07
:101EDB004C7F647E0012675F900000E0FBA3E0FA8A
:101EEB00A3E0F9900060EF123C4C7F687E00126714
:101EFB005F900000E0FBA3E0FAA3E0F9900063EF32
:101F0B00123C4C7F697E0012675F900000E0FBA3E0
:101F1B00E0FAA3E0F9900064EF123C4C7F6A7E007C
:101F2B0012675F900000E0FBA3E0FAA3E0F99000DA
:101F3B0065EF123C4C7F6B7E0012675F900000E0F8
:101F4B00FBA3E0FAA3E0F9900066EF123C4C7F6C28
:101F5B007E0012675F900000E0FBA3E0FAA3E0F9BC
:101F6B00900067EF123C4C7F707E0012675F900011
:101F7B0000E0FBA3E0FAA3E0F990006AEF123C4CFF
:101F8B007F717E0012675F900000E0FBA3E0FAA375
:101F9B00E0F990006BEF123C4C7F727E0012675F92
:101FAB00900000E0FBA3E0FAA3E0F990006CEF12C5
:101FBB003C4C7F737E0012675F900000E0FBA3E058
:101FCB00FAA3E0F990006DEF123C4C7F747E001287
:101FDB00675F900000E0FBA3E0FAA3E0F990006ECE
:101FEB00EF123C4C7F787E0012675F900000E0FBA5
:101FFB00A3E0FAA3E0F9900071EF123C4C7F797EDD
:10200B000012675F900000E0FBA3E0FAA3E0F990F9
:10201B000072EF123C4C7F7A7E0012675F900000DB
:10202B00E0FBA3E0FAA3E0F9900073EF123C4C7FC6
:10203B007B7E0012675F900000E0FBA3E0FAA3E059
:10204B00F9900074EF123C4C7F7C7E0012675F901E
:10205B000000E0FBA3E0FAA3E0F9900075EF123C5F
:10206B004C7F807E0012675F900000E0FBA3E0FADC
:10207B00A3E0F9900078EF123C4C7F817E00126751
:10208B005F900000E0FBA3E0FAA3E0F9900079EF8A
:10209B00123C4C7F827E0012675F900000E0FBA336
:1020AB00E0FAA3E0F990007AEF123C4C7F837E00BC
:1020BB0012675F900000E0FBA3E0FAA3E0F9900049
:1020CB007BEF123C4C7F847E0012675F900000E038
:1020DB00FBA3E0FAA3E0F990007CEF123C4C7F8865
:1020EB007E0012675F900000E0FBA3E0FAA3E0F92B
:1020FB0090007FEF123C4C7F897E0012675F90004F
:10210B0000E0FBA3E0FAA3E0F9900080EF123C4C57
:10211B007F8A7E0012675F900000E0FBA3E0FAA3CA
:10212B00E0F9900081EF123C4C7F8B7E0012675FD1
:10213B00900000E0FBA3E0FAA3E0F9900082EF121D
:10214B003C4C7F8C7E0012675F900000E0FBA3E0AD
:10215B00FAA3E0F9900083EF123C4C7F907E0012C3
:10216B00675F900000E0FBA3E0FAA3E0F990008624
:10217B00EF123C4C7F917E0012675F900000E0FBFA
:10218B00A3E0FAA3E0F9900087EF123C4C7F927E1C
:10219B000012675F900000E0FBA3E0FAA3E0F99068
:1021AB000088EF123C4C7F937E0012675F9000001B
:1021BB00E0FBA3E0FAA3E0F9900089EF123C4C7F1F
:1021CB00947E0012675F900000E0FBA3E0FAA3E0AF
:1021DB00F990008AEF123C4C7F987E0012675F905B
:1021EB000000E0FBA3E0FAA3E0F99000E7EF123C5C
:1021FB004C7FA07E0012675F900000E0FBA3E0FA2B
:10220B00A3E0F99000E8EF123C4C7FA87E00126728
:10221B005F900000E0FBA3E0FAA3E0F99000E9EF88
:10222B00123C4C7FB07E0012675F900000E0FBA376
:10223B00E0FAA3E0F99000EAEF123C4C7FB57E0088
:10224B0012675F900000E0FBA3E0FAA3E0F99000B7
:10225B00EBEF123C4C7F997E0012675F900000E021
:10226B00FBA3E0FAA3E0F99000EDEF123C4C7F9A50
:10227B007E0012675F900000E0FBA3E0FAA3E0F999
:10228B009000EEEF123C4C7F9B7E0012675F90003C
:10229B0000E0FBA3E0FAA3E0F99000EFEF123C4C57
:1022AB007F9D7E0012675F900000E0FBA3E0FAA326
:1022BB00E0F99000FAEF123C4C7FA47E0012675FAE
:1022CB00900000E0FBA3E0FAA3E0F99000FBEF1213
:1022DB003C4C7FAC7E0012675F900000E0FBA3E0FC
:1022EB00FAA3E0F99000FCEF123C4C7FB47E001295
:1022FB00675F900000E0FBA3E0FAA3E0F99000FD1C
:10230B00EF123C4C7FB67E0012675F900000E0FB43
:10231B00A3E0FAA3E0F99000FEEF123C4C7FB77EEE
:10232B000012675F900000E0FBA3E0FAA3E0F990D6
:10233B0000FFEF123C4C7FB37E0012675F900000F2
:10234B00E0FBA3E0FAA3E0F9900100EF123C4C7F15
:10235B009C7E0012675F900000E0FBA3E0FAA3E015
:10236B00F99000F0EF123C4C7FB87E0012675F9043
:10237B000000E0FBA3E0FAA3E0F990008DEF123C24
:10238B004C7FB97E0012675F900000E0FBA3E0FA80
:10239B00A3E0F990008EEF123C4C7FBA7E001267DF
:1023AB005F900000E0FBA3E0FAA3E0F990008FEF51
:1023BB00123C4C7FBB7E0012675F900000E0FBA3DA
:1023CB00E0FAA3E0F9900090EF123C4C7FBC7E004A
:1023DB0012675F900000E0FBA3E0FAA3E0F9900026
:1023EB0091EF123C4C7FC07E0012675F900000E0C3
:1023FB00FBA3E0FAA3E0F9900094EF123C4C7FC1F1
:10240B007E0012675F900000E0FBA3E0FAA3E0F907
:10241B00900095EF123C4C7FC27E0012675F9000DC
:10242B0000E0FBA3E0FAA3E0F9900096EF123C4C1E
:10243B007FC37E0012675F900000E0FBA3E0FAA36E
:10244B00E0F9900097EF123C4C7FC47E0012675F5F
:10245B00900000E0FBA3E0FAA3E0F9900098EF12E4
:10246B003C4C7FC87E0012675F900000E0FBA3E04E
:10247B00FAA3E0F990009BEF123C4C7FC97E00124F
:10248B00675F900000E0FBA3E0FAA3E0F990009CEB
:10249B00EF123C4C7FCA7E0012675F900000E0FB9E
:1024AB00A3E0FAA3E0F990009DEF123C4C7FCB7EAA
:1024BB000012675F900000E0FBA3E0FAA3E0F99045
:1024CB00009EEF123C4C7FCC7E0012675F900000A9
:1024DB00E0FBA3E0FAA3E0F990009FEF123C4C7FE6
:1024EB00D07E0012675F900000E0FBA3E0FAA3E050
:1024FB00F99000A2EF123C4C7FD17E0012675F90E7
:10250B000000E0FBA3E0FAA3E0F99000A3EF123C7C
:10251B004C7FD27E0012675F900000E0FBA3E0FAD5
:10252B00A3E0F99000A4EF123C4C7FD37E0012671E
:10253B005F900000E0FBA3E0FAA3E0F99000A5EFA9
:10254B00123C4C7FD47E0012675F900000E0FBA32F
:10255B00E0FAA3E0F99000A6EF123C4C7FD87E0086
:10256B0012675F900000E0FBA3E0FAA3E0F9900094
:10257B00A9EF123C4C7FD97E0012675F900000E000
:10258B00FBA3E0FAA3E0F99000AAEF123C4C7FDA30
:10259B007E0012675F900000E0FBA3E0FAA3E0F976
:1025AB009000ABEF123C4C7FDB7E0012675F90001C
:1025BB0000E0FBA3E0FAA3E0F99000ACEF123C4C77
:1025CB007FDC7E0012675F900000E0FBA3E0FAA3C4
:1025DB00E0F99000ADEF123C4C7FE07E0012675F9C
:1025EB00900000E0FBA3E0FAA3E0F99000B0EF123B
:1025FB003C4C7FE17E0012675F900000E0FBA3E0A4
:10260B00FAA3E0F99000B1EF123C4C7FE27E00128E
:10261B00675F900000E0FBA3E0FAA3E0F99000B243
:10262B00EF123C4C7FE37E0012675F900000E0FBF3
:10263B00A3E0FAA3E0F99000B3EF123C4C7FE47EE9
:10264B000012675F900000E0FBA3E0FAA3E0F990B3
:10265B0000B4EF123C4C7FE87E0012675F900000E5
:10266B00E0FBA3E0FAA3E0F99000B7EF123C4C7F3C
:10267B00E97E0012675F900000E0FBA3E0FAA3E0A5
:10268B00F99000B8EF123C4C7FEA7E0012675F9026
:10269B000000E0FBA3E0FAA3E0F99000B9EF123CD5
:1026AB004C7FEB7E0012675F900000E0FBA3E0FA2B
:1026BB00A3E0F99000BAEF123C4C7FEC7E0012675E
:1026CB005F900000E0FBA3E0FAA3E0F99000BBEF02
:1026DB00123C4C7FF07E0012675F900000E0FBA382
:1026EB00E0FAA3E0F9900101EF123C4C7FF87E0079
:1026FB0012675F900000E0FBA3E0FAA3E0F9900102
:10270B0002EF123C4C7F007E0112675F900000E0ED
:10271B00FBA3E0FAA3E0F9900103EF123C4C7FF12D
:10272B007E0012675F900000E0FBA3E0FAA3E0F9E4
:10273B00900107EF123C4C7FF27E0012675F900016
:10274B0000E0FBA3E0FAA3E0F9900108EF123C4C88
:10275B007FF37E0012675F900000E0FBA3E0FAA31B
:10276B00E0F9900109EF123C4C7FF47E0012675F99
:10277B00900000E0FBA3E0FAA3E0F990010AEF124E
:10278B003C4C7F087E0112675F900000E0FBA3E0EA
:10279B00FAA3E0F99000BEEF123C4C7F097E0112C8
:1027AB00675F900000E0FBA3E0FAA3E0F99000BFA5
:1027BB00EF123C4C7F0A7E0112675F900000E0FB3A
:1027CB00A3E0FAA3E0F99000C0EF123C4C7F0B7E24
:1027DB000112675F900000E0FBA3E0FAA3E0F99021
:1027EB0000C1EF123C4C7F0C7E0112675F90000022
:1027FB00E0FBA3E0FAA3E0F99000C2EF123C4C7FA0
:10280B00107E0112675F900000E0FBA3E0FAA3E0EB
:10281B00F99000C5EF123C4C7F117E0112675F905F
:10282B000000E0FBA3E0FAA3E0F99000C6EF123C36
:10283B004C7F127E0112675F900000E0FBA3E0FA71
:10284B00A3E0F99000C7EF123C4C7F137E01126797
:10285B005F900000E0FBA3E0FAA3E0F99000C8EF63
:10286B00123C4C7F147E0112675F900000E0FBA3CB
:10287B00E0FAA3E0F99000C9EF123C4C7F207E01F7
:10288B0012675F900000E0FBA3E0FAA3E0F9900071
:10289B00D2EF123C4C7F217E0112675F900000E06B
:1028AB00FBA3E0FAA3E0F99000D3EF123C4C7F229C
:1028BB007E0112675F900000E0FBA3E0FAA3E0F952
:1028CB009000D4EF123C4C7F237E0112675F900087
:1028DB0000E0FBA3E0FAA3E0F99000D5EF123C4C2B
:1028EB007F247E0112675F900000E0FBA3E0FAA358
:1028FB00E0F99000D6EF123C4C7F407E0112675FEF
:10290B00900000E0FBA3E0FAA3E0F99000D9EF12EE
:10291B003C4C7F417E0112675F900000E0FBA3E01F
:10292B00FAA3E0F99000DAEF123C4C7F427E0112E1
:10293B00675F900000E0FBA3E0FAA3E0F99000DBF7
:10294B00EF123C4C7F437E0112675F900000E0FB6F
:10295B00A3E0FAA3E0F99000DCEF123C4C7F447E3D
:10296B000112675F900000E0FBA3E0FAA3E0F9908F
:10297B0000DDEF123C4C7FA87E0112675F900000D8
:10298B00E0FBA3E0FAA3E0F99000E0EF123C4C7FF0
:10299B00A97E0112675F900000E0FBA3E0FAA3E0C1
:1029AB00F99000E1EF123C4C7FAA7E0112675F9019
:1029BB000000E0FBA3E0FAA3E0F99000E2EF123C89
:1029CB004C7FAB7E0112675F900000E0FBA3E0FA47
:1029DB00A3E0F99000E3EF123C4C7FAC7E01126751
:1029EB005F900000E0FBA3E0FAA3E0F99000E4EFB6
:1029FB00123C4C7FD47E0112675F900000E0FBA37A
:102A0B00E0FAA3E0F99000CCEF123C4C7FD07E01B2
:102A1B0012675F900000E0FBA3E0FAA3E0F99000DF
:102A2B00CDEF123C4C7FD57E0112675F900000E02A
:102A3B00FBA3E0FAA3E0F99000CEEF123C4C7FD160
:102A4B007E0112675F900000E0FBA3E0FAA3E0F9C0
:102A5B009000CFEF123C4C7FD27E0112675F90004B
:102A6B0000E0FBA3E0FAA3E0F99000D0EF123C4C9E
:102A7B007FD37E0112675F900000E0FBA3E0FAA317
:102A8B00E0F99000D1EF123C4C7F387E0112675F6A
:102A9B00900000E0FBA3E0FAA3E0F990011BEF121A
:102AAB003C4C7F397E0112675F900000E0FBA3E096
:102ABB00FAA3E0F990011CEF123C4C7F3A7E011215
:102ACB00675F900000E0FBA3E0FAA3E0F990011D23
:102ADB00EF123C4C7F3B7E0112675F900000E0FBE6
:102AEB00A3E0FAA3E0F990011EEF123C4C7F3C7E71
:102AFB000112675F900000E0FBA3E0FAA3E0F990FE
:102B0B00011FEF123C4C7F3D7E0112675F9000006E
:102B1B00E0FBA3E0FAA3E0F9900120EF123C4C7F1D
:102B2B003E7E0112675F900000E0FBA3E0FAA3E09A
:102B3B00F9900121EF123C4C7F3F7E0112675F90B1
:102B4B000000E0FBA3E0FAA3E0F9900122EF123CB6
:102B5B004C7F367E0112675F900000E0FBA3E0FA2A
:102B6B00A3E0F9900123EF123C4C7F377E011267F3
:102B7B005F900000E0FBA3E0FAA3E0F9900124EFE3
:102B8B00123C4C7FFB7E0112675F900000E0FBA3C1
:102B9B00E0FAA3E0F9900138EF123C4C7FFC7E0188
:102BAB0012675F900000E0FBA3E0FAA3E0F990014D
:102BBB0037EF123C4C7FFD7E0112675F900000E007
:102BCB00FBA3E0FAA3E0F9900135EF123C4C7FFE3A
:102BDB007E0112675F900000E0FBA3E0FAA3E0F92F
:072BEB00900136EF023C4CA3
:10004600900256EEF0A3EFF0A3EDF012183B9002EB
:1000560056E0FEA3E0FF1267FA900256E0FEA3E028
:10006600FF64014E7005A3E0FD8009900003E0FDEA
:100076007F017E0012672E900256E0FEA3E0FF6429
:10008600024E7005A3E0FD8009900004E0FD7F02AA
:100096007E0012672E900256E0FEA3E0FF64034E38
:1000A6007005A3E0FD8009900006E0FD7F037E0059
:1000B60012672E900256E0FEA3E0FF64044E700520
:1000C600A3E0FD8009900007E0FD7F047E00126733
:1000D6002E900256E0FEA3E0FF64144E7005A3E0E6
:1000E600FD8009900008E0FD7F147E0012672E90C7
:1000F6000256E0FEA3E0FF64054E7005A3E0FD8016
:1001060009900009E0FD7F057E0012672E900256D9
:10011600E0FEA3E0FF64064E7005A3E0FD800990B3
:10012600000AE0FD7F067E0012672E900256E0FE72
:10013600A3E0FF64074E7005A3E0FD800990000C64
:10014600E0FD7F077E0012672E900256E0FEA3E0D8
:10015600FF64084E7005A3E0FD800990000DE0FDE8
:100166007F087E0012672E900256E0FEA3E0FF6431
:10017600094E7005A3E0FD800990000FE0FD7F09A0
:100186007E0012672E900256E0FEA3E0FF640E4E3C
:100196007005A3E0FD8009900010E0FD7F0E7E0053
:1001A60012672E900256E0FEA3E0FF640A4E700529
:1001B600A3E0FD8009900012E0FD7F0A7E00126731
:1001C6002E900256E0FEA3E0FF640E4E7005A3E0FB
:1001D600FD8009900013E0FD7F0E7E0012672E90D1
:1001E6000256E0FEA3E0FF640B4E7005A3E0FD801F
:1001F60009900015E0FD7F0B7E0012672E900256D7
:10020600E0FEA3E0FF640E4E7005A3E0FD800990BA
:100216000016E0FD7F0E7E0012672E900256E0FE6D
:10022600A3E0FF640C4E7005A3E0FD800990001862
:10023600E0FD7F0C7E0012672E900256E0FEA3E0E2
:10024600FF640E4E7005A3E0FD8009900019E0FDE5
:100256007F0E7E0012672E900256E0FEA3E0FF643A
:100266000D4E7005A3E0FD800990001BE0FD7F0D9B
:100276007E0012672E900256E0FEA3E0FF640E4E4B
:100286007005A3E0FD800990001CE0FD7F0E7E0056
:1002960012672E900256E0FEA3E0FF640F4E700533
:1002A600A3E0FD800990001EE0FD7F0F7E0012672F
:1002B6002E900256E0FEA3E0FF64104E7005A3E008
:1002C600FD8009900021E0FD7F107E0012672E90D0
:1002D6000256E0FEA3E0FF64114E7005A3E0FD8028
:1002E60009900022E0FD7F117E0012672E900256D3
:1002F600E0FEA3E0FF64124E7005A3E0FD800990C6
:100306000024E0FD7F127E0012672E900256E0FE6A
:10031600A3E0FF64134E7005A3E0FD80099000255D
:10032600E0FD7F137E0012672E900256E0FEA3E0EA
:10033600FF64204E7005A3E0FD8009900027E0FDD4
:100346007F207E0012672E900256E0FEA3E0FF6437
:10035600214E7005A3E0FD8009900028E0FD7F2175
:100366007E0012672E900256E0FEA3E0FF64224E46
:100376007005A3E0FD8009900029E0FD7F227E0044
:1003860012672E900256E0FEA3E0FF64234E70052E
:10039600A3E0FD800990002AE0FD7F237E0012671E
:1003A6002E900256E0FEA3E0FF64244E7005A3E003
:1003B600FD800990002BE0FD7F247E0012672E90C1
:1003C6000256E0FEA3E0FF64284E7005A3E0FD8020
:1003D6000990002EE0FD7F287E0012672E900256BF
:1003E600E0FEA3E0FF64294E7005A3E0FD800990BE
:1003F600002FE0FD7F297E0012672E900256E0FE58
:10040600A3E0FF642A4E7005A3E0FD80099000304A
:10041600E0FD7F2A7E0012672E900256E0FEA3E0E2
:10042600FF642B4E7005A3E0FD8009900031E0FDCE
:100436007F2B7E0012672E900256E0FEA3E0FF643B
:100446002C4E7005A3E0FD8009900032E0FD7F2C64
:100456007E0012672E900256E0FEA3E0FF64304E47
:100466007005A3E0FD8009900035E0FD7F307E0039
:1004760012672E900256E0FEA3E0FF64314E70052F
:10048600A3E0FD8009900036E0FD7F317E00126713
:100496002E900256E0FEA3E0FF64324E7005A3E004
:1004A600FD8009900037E0FD7F327E0012672E90B6
:1004B6000256E0FEA3E0FF64334E7005A3E0FD8024
:1004C60009900038E0FD7F337E0012672E900256B9
:1004D600E0FEA3E0FF64344E7005A3E0FD800990C2
:1004E6000039E0FD7F347E0012672E900256E0FE52
:1004F600A3E0FF64384E7005A3E0FD800990003C40
:10050600E0FD7F387E0012672E900256E0FEA3E0E3
:10051600FF64394E7005A3E0FD800990003DE0FDC3
:100526007F397E0012672E900256E0FEA3E0FF643C
:100536003A4E7005A3E0FD800990003EE0FD7F3A4B
:100546007E0012672E900256E0FEA3E0FF643B4E4B
:100556007005A3E0FD800990003FE0FD7F3B7E0033
:1005660012672E900256E0FEA3E0FF643C4E700533
:10057600A3E0FD8009900040E0FD7F3C7E0012670D
:100586002E900256E0FEA3E0FF64404E7005A3E005
:10059600FD8009900043E0FD7F407E0012672E90AB
:1005A6000256E0FEA3E0FF64414E7005A3E0FD8025
:1005B60009900044E0FD7F417E0012672E900256AE
:1005C600E0FEA3E0FF64424E7005A3E0FD800990C3
:1005D6000045E0FD7F427E0012672E900256E0FE47
:1005E600A3E0FF64434E7005A3E0FD80099000463A
:1005F600E0FD7F437E0012672E900256E0FEA3E0E8
:10060600FF64444E7005A3E0FD8009900047E0FDBD
:100616007F447E0012672E900256E0FEA3E0FF6440
:10062600484E7005A3E0FD800990004AE0FD7F4832
:100636007E0012672E900256E0FEA3E0FF64494E4C
:100646007005A3E0FD800990004BE0FD7F497E0028
:1006560012672E900256E0FEA3E0FF644A4E700534
:10066600A3E0FD800990004CE0FD7F4A7E00126702
:100676002E900256E0FEA3E0FF644B4E7005A3E009
:10068600FD800990004DE0FD7F4B7E0012672E90A5
:100696000256E0FEA3E0FF644C4E7005A3E0FD8029
:1006A6000990004EE0FD7F4C7E0012672E900256A8
:1006B600E0FEA3E0FF64504E7005A3E0FD800990C4
:1006C6000051E0FD7F507E0012672E900256E0FE3C
:1006D600A3E0FF64514E7005A3E0FD80099000522F
:1006E600E0FD7F517E0012672E900256E0FEA3E0E9
:1006F600FF64524E7005A3E0FD8009900053E0FDB3
:100706007F527E0012672E900256E0FEA3E0FF6441
:10071600534E7005A3E0FD8009900054E0FD7F5321
:100726007E0012672E900256E0FEA3E0FF64544E50
:100736007005A3E0FD8009900055E0FD7F547E0022
:1007460012672E900256E0FEA3E0FF64584E700535
:10075600A3E0FD8009900058E0FD7F587E001267F7
:100766002E900256E0FEA3E0FF64594E7005A3E00A
:10077600FD8009900059E0FD7F597E0012672E909A
:100786000256E0FEA3E0FF645A4E7005A3E0FD802A
:100796000990005AE0FD7F5A7E0012672E9002569D
:1007A600E0FEA3E0FF645B4E7005A3E0FD800990C8
:1007B600005BE0FD7F5B7E0012672E900256E0FE36
:1007C600A3E0FF645C4E7005A3E0FD800990005C29
:1007D600E0FD7F5C7E0012672E900256E0FEA3E0ED
:1007E600FF64604E7005A3E0FD800990005FE0FDA8
:1007F6007F607E0012672E900256E0FEA3E0FF6443
:10080600614E7005A3E0FD8009900060E0FD7F6108
:100816007E0012672E900256E0FEA3E0FF64624E51
:100826007005A3E0FD8009900061E0FD7F627E0017
:1008360012672E900256E0FEA3E0FF64634E700539
:10084600A3E0FD8009900062E0FD7F637E001267F1
:100856002E900256E0FEA3E0FF64644E7005A3E00E
:10086600FD8009900063E0FD7F647E0012672E9094
:100876000256E0FEA3E0FF64684E7005A3E0FD802B
:1008860009900066E0FD7F687E0012672E90025692
:10089600E0FEA3E0FF64694E7005A3E0FD800990C9
:1008A6000067E0FD7F697E0012672E900256E0FE2B
:1008B600A3E0FF646A4E7005A3E0FD80099000681E
:1008C600E0FD7F6A7E0012672E900256E0FEA3E0EE
:1008D600FF646B4E7005A3E0FD8009900069E0FDA2
:1008E6007F6B7E0012672E900256E0FEA3E0FF6447
:1008F6006C4E7005A3E0FD800990006AE0FD7F6CF8
:100906007E0012672E900256E0FEA3E0FF64704E52
:100916007005A3E0FD800990006DE0FD7F707E000C
:1009260012672E900256E0FEA3E0FF64714E70053A
:10093600A3E0FD800990006EE0FD7F717E001267E6
:100946002E900256E0FEA3E0FF64724E7005A3E00F
:10095600FD800990006FE0FD7F727E0012672E9089
:100966000256E0FEA3E0FF64734E7005A3E0FD802F
:1009760009900070E0FD7F737E0012672E9002568C
:10098600E0FEA3E0FF64744E7005A3E0FD800990CD
:100996000071E0FD7F747E0012672E900256E0FE25
:1009A600A3E0FF64784E7005A3E0FD800990007413
:1009B600E0FD7F787E0012672E900256E0FEA3E0EF
:1009C600FF64794E7005A3E0FD8009900075E0FD97
:1009D6007F797E0012672E900256E0FEA3E0FF6448
:1009E6007A4E7005A3E0FD8009900076E0FD7F7ADF
:1009F6007E0012672E900256E0FEA3E0FF647B4E57
:100A06007005A3E0FD8009900077E0FD7F7B7E0006
:100A160012672E900256E0FEA3E0FF647C4E70053E
:100A2600A3E0FD8009900078E0FD7F7C7E001267E0
:100A36002E900256E0FEA3E0FF64804E7005A3E010
:100A4600FD800990007BE0FD7F807E0012672E907E
:100A56000256E0FEA3E0FF64814E7005A3E0FD8030
:100A66000990007CE0FD7F817E0012672E90025681
:100A7600E0FEA3E0FF64824E7005A3E0FD800990CE
:100A8600007DE0FD7F827E0012672E900256E0FE1A
:100A9600A3E0FF64834E7005A3E0FD800990007E0D
:100AA600E0FD7F837E0012672E900256E0FEA3E0F3
:100AB600FF64844E7005A3E0FD800990007FE0FD91
:100AC6007F847E0012672E900256E0FEA3E0FF644C
:100AD600884E7005A3E0FD8009900082E0FD7F88C6
:100AE6007E0012672E900256E0FEA3E0FF64894E58
:100AF6007005A3E0FD8009900083E0FD7F897E00FC
:100B060012672E900256E0FEA3E0FF648A4E70053F
:100B1600A3E0FD8009900084E0FD7F8A7E001267D5
:100B26002E900256E0FEA3E0FF648B4E7005A3E014
:100B3600FD8009900085E0FD7F8B7E0012672E9078
:100B46000256E0FEA3E0FF648C4E7005A3E0FD8034
:100B560009900086E0FD7F8C7E0012672E9002567B
:100B6600E0FEA3E0FF64904E7005A3E0FD800990CF
:100B76000089E0FD7F907E0012672E900256E0FE0F
:100B8600A3E0FF64914E7005A3E0FD800990008A02
:100B9600E0FD7F917E0012672E900256E0FEA3E0F4
:100BA600FF64924E7005A3E0FD800990008BE0FD86
:100BB6007F927E0012672E900256E0FEA3E0FF644D
:100BC600934E7005A3E0FD800990008CE0FD7F93B5
:100BD6007E0012672E900256E0FEA3E0FF64944E5C
:100BE6007005A3E0FD800990008DE0FD7F947E00F6
:100BF60012672E900256E0FEA3E0FF64984E700541
:100C0600A3E0FD80099000EAE0FD7F987E00126770
:100C16002E900256E0FEA3E0FF64A04E7005A3E00E
:100C2600FD80099000EBE0FD7FA07E0012672E900C
:100C36000256E0FEA3E0FF64A84E7005A3E0FD8027
:100C4600099000ECE0FD7FA87E0012672E90025608
:100C5600E0FEA3E0FF64B04E7005A3E0FD800990BE
:100C660000EDE0FD7FB07E0012672E900256E0FE9A
:100C7600A3E0FF64B54E7005A3E0FD80099000EE89
:100C8600E0FD7FB57E0012672E900256E0FEA3E0DF
:100C9600FF64994E7005A3E0FD80099000F0E0FD29
:100CA6007F997E0012672E900256E0FEA3E0FF6455
:100CB6009A4E7005A3E0FD80099000F1E0FD7F9A51
:100CC6007E0012672E900256E0FEA3E0FF649B4E64
:100CD6007005A3E0FD80099000F2E0FD7F9B7E0099
:100CE60012672E900256E0FEA3E0FF649C4E70054C
:100CF600A3E0FD80099000F3E0FD7F9C7E00126773
:100D06002E900256E0FEA3E0FF649D4E7005A3E020
:100D1600FD80099000FDE0FD7F9D7E0012672E900C
:100D26000256E0FEA3E0FF64A44E7005A3E0FD803A
:100D3600099000FEE0FD7FA47E0012672E90025609
:100D4600E0FEA3E0FF64AC4E7005A3E0FD800990D1
:100D560000FFE0FD7FAC7E0012672E900256E0FE9B
:100D6600A3E0FF64B44E7005A3E0FD800990010086
:100D7600E0FD7FB47E0012672E900256E0FEA3E0EF
:100D8600FF64B64E7005A3E0FD8009900101E0FD09
:100D96007FB67E0012672E900256E0FEA3E0FF6447
:100DA600B74E7005A3E0FD8009900102E0FD7FB714
:100DB6007E0012672E900256E0FEA3E0FF64B34E5B
:100DC6007005A3E0FD8009900103E0FD7FB37E007E
:100DD60012672E900256E0FEA3E0FF64B84E70053F
:100DE600A3E0FD8009900090E0FD7FB87E001267C9
:100DF6002E900256E0FEA3E0FF64B94E7005A3E014
:100E0600FD8009900091E0FD7FB97E0012672E906B
:100E16000256E0FEA3E0FF64BA4E7005A3E0FD8033
:100E260009900092E0FD7FBA7E0012672E9002566E
:100E3600E0FEA3E0FF64BB4E7005A3E0FD800990D1
:100E46000093E0FD7FBB7E0012672E900256E0FE07
:100E5600A3E0FF64BC4E7005A3E0FD8009900094FA
:100E6600E0FD7FBC7E0012672E900256E0FEA3E0F6
:100E7600FF64C04E7005A3E0FD8009900097E0FD79
:100E86007FC07E0012672E900256E0FEA3E0FF644C
:100E9600C14E7005A3E0FD8009900098E0FD7FC17A
:100EA6007E0012672E900256E0FEA3E0FF64C24E5B
:100EB6007005A3E0FD8009900099E0FD7FC27E00E9
:100EC60012672E900256E0FEA3E0FF64C34E700543
:100ED600A3E0FD800990009AE0FD7FC37E001267C3
:100EE6002E900256E0FEA3E0FF64C44E7005A3E018
:100EF600FD800990009BE0FD7FC47E0012672E9066
:100F06000256E0FEA3E0FF64C84E7005A3E0FD8034
:100F16000990009EE0FD7FC87E0012672E90025663
:100F2600E0FEA3E0FF64C94E7005A3E0FD800990D2
:100F3600009FE0FD7FC97E0012672E900256E0FEFC
:100F4600A3E0FF64CA4E7005A3E0FD80099000A0EF
:100F5600E0FD7FCA7E0012672E900256E0FEA3E0F7
:100F6600FF64CB4E7005A3E0FD80099000A1E0FD73
:100F76007FCB7E0012672E900256E0FEA3E0FF6450
:100F8600CC4E7005A3E0FD80099000A2E0FD7FCC69
:100F96007E0012672E900256E0FEA3E0FF64D04E5C
:100FA6007005A3E0FD80099000A5E0FD7FD07E00DE
:100FB60012672E900256E0FEA3E0FF64D14E700544
:100FC600A3E0FD80099000A6E0FD7FD17E001267B8
:100FD6002E900256E0FEA3E0FF64D24E7005A3E019
:100FE600FD80099000A7E0FD7FD27E0012672E905B
:100FF6000256E0FEA3E0FF64D34E7005A3E0FD8039
:10100600099000A8E0FD7FD37E0012672E9002565D
:10101600E0FEA3E0FF64D44E7005A3E0FD800990D6
:1010260000A9E0FD7FD47E0012672E900256E0FEF6
:10103600A3E0FF64D84E7005A3E0FD80099000ACE4
:10104600E0FD7FD87E0012672E900256E0FEA3E0F8
:10105600FF64D94E7005A3E0FD80099000ADE0FD68
:101066007FD97E0012672E900256E0FEA3E0FF6451
:10107600DA4E7005A3E0FD80099000AEE0FD7FDA50
:101086007E0012672E900256E0FEA3E0FF64DB4E60
:101096007005A3E0FD80099000AFE0FD7FDB7E00D8
:1010A60012672E900256E0FEA3E0FF64DC4E700548
:1010B600A3E0FD80099000B0E0FD7FDC7E001267B2
:1010C6002E900256E0FEA3E0FF64E04E7005A3E01A
:1010D600FD80099000B3E0FD7FE07E0012672E9050
:1010E6000256E0FEA3E0FF64E14E7005A3E0FD803A
:1010F600099000B4E0FD7FE17E0012672E90025653
:10110600E0FEA3E0FF64E24E7005A3E0FD800990D7
:1011160000B5E0FD7FE27E0012672E900256E0FEEB
:10112600A3E0FF64E34E7005A3E0FD80099000B6DE
:10113600E0FD7FE37E0012672E900256E0FEA3E0FC
:10114600FF64E44E7005A3E0FD80099000B7E0FD62
:101156007FE47E0012672E900256E0FEA3E0FF6455
:10116600E84E7005A3E0FD80099000BAE0FD7FE837
:101176007E0012672E900256E0FEA3E0FF64E94E61
:101186007005A3E0FD80099000BBE0FD7FE97E00CD
:1011960012672E900256E0FEA3E0FF64EA4E700549
:1011A600A3E0FD80099000BCE0FD7FEA7E001267A7
:1011B6002E900256E0FEA3E0FF64EB4E7005A3E01E
:1011C600FD80099000BDE0FD7FEB7E0012672E904A
:1011D6000256E0FEA3E0FF64EC4E7005A3E0FD803E
:1011E600099000BEE0FD7FEC7E0012672E9002564D
:1011F600E0FEA3E0FF64F04E7005A3E0FD800990D9
:101206000104E0FD7FF07E0012672E900256E0FE9C
:10121600A3E0FF64F84E7005A3E0FD800990010588
:10122600E0FD7FF87E0012672E900256E0FEA3E0F6
:10123600FFB40009EEB40105A3E0FD8009900106A4
:10124600E0FD7F007E0112672E900256E0FEA3E0CD
:10125600FF64F14E7005A3E0FD800990010AE0FDF0
:101266007FF17E0012672E900256E0FEA3E0FF6437
:10127600F24E7005A3E0FD800990010BE0FD7FF2C0
:101286007E0012672E900256E0FEA3E0FF64F34E46
:101296007005A3E0FD800990010CE0FD7FF37E0060
:1012A60012672E900256E0FEA3E0FF64F44E70052E
:1012B600A3E0FD800990010DE0FD7FF47E0012673A
:1012C6002E900256E0FEA3E0FFBE0108BF0805A36C
:1012D600E0FD80099000C1E0FD7F087E0112672EC7
:1012E600900256E0FEA3E0FFBE0108BF0905A3E099
:1012F600FD80099000C2E0FD7F097E0112672E90F5
:101306000256E0FEA3E0FFBE0108BF0A05A3E0FD0A
:1013160080099000C3E0FD7F0A7E0112672E9002CD
:1013260056E0FEA3E0FFBE0108BF0B05A3E0FD806B
:10133600099000C4E0FD7F0B7E0112672E900256D5
:10134600E0FEA3E0FFBE0108BF0C05A3E0FD800997
:101356009000C5E0FD7F0C7E0112672E900256E0DC
:10136600FEA3E0FFBE0108BF1005A3E0FD800990C3
:1013760000C8E0FD7F107E0112672E900256E0FE47
:10138600A3E0FFBE0108BF1105A3E0FD80099000A0
:10139600C9E0FD7F117E0112672E900256E0FEA382
:1013A600E0FFBE0108BF1205A3E0FD80099000CA58
:1013B600E0FD7F127E0112672E900256E0FEA3E04A
:1013C600FFBE0108BF1305A3E0FD80099000CBE036
:1013D600FD7F137E0112672E900256E0FEA3E0FF0A
:1013E600BE0108BF1405A3E0FD80099000CCE0FD16
:1013F6007F147E0112672E900256E0FEA3E0FFBE28
:101406000108BF2005A3E0FD80099000D5E0FD7F1F
:10141600207E0112672E900256E0FEA3E0FFBE0179
:1014260008BF2105A3E0FD80099000D6E0FD7F21DD
:101436007E0112672E900256E0FEA3E0FFBE010871
:10144600BF2205A3E0FD80099000D7E0FD7F227E44
:101456000112672E900256E0FEA3E0FFBE0108BF10
:101466002305A3E0FD80099000D8E0FD7F237E01DF
:1014760012672E900256E0FEA3E0FFBE0108BF24CD
:1014860005A3E0FD80099000D9E0FD7F247E0112CE
:10149600672E900256E0FEA3E0FFBE0108BF40059E
:1014A600A3E0FD80099000DCE0FD7F407E0112672D
:1014B6002E900256E0FEA3E0FFBE0108BF4105A341
:1014C600E0FD80099000DDE0FD7F417E0112672E80
:1014D600900256E0FEA3E0FFBE0108BF4205A3E06E
:1014E600FD80099000DEE0FD7F427E0112672E90AE
:1014F6000256E0FEA3E0FFBE0108BF4305A3E0FDE0
:1015060080099000DFE0FD7F437E0112672E900286
:1015160056E0FEA3E0FFBE0108BF4405A3E0FD8040
:10152600099000E0E0FD7F447E0112672E9002568E
:10153600E0FEA3E0FFBE0108BFA805A3E0FD800909
:101546009000E3E0FD7FA87E0112672E900256E030
:10155600FEA3E0FFBE0108BFA905A3E0FD80099038
:1015660000E4E0FD7FA97E0112672E900256E0FEA0
:10157600A3E0FFBE0108BFAA05A3E0FD8009900015
:10158600E5E0FD7FAA7E0112672E900256E0FEA3DB
:10159600E0FFBE0108BFAB05A3E0FD80099000E6B1
:1015A600E0FD7FAB7E0112672E900256E0FEA3E0BF
:1015B600FFBE0108BFAC05A3E0FD80099000E7E08F
:1015C600FD7FAC7E0112672E900256E0FEA3E0FF7F
:1015D600BE0108BFD405A3E0FD80099000CFE0FD61
:1015E6007FD47E0112672E900256E0FEA3E0FFBE76
:1015F6000108BFD005A3E0FD80099000D0E0FD7F83
:10160600D07E0112672E900256E0FEA3E0FFBE01D7
:1016160008BFD505A3E0FD80099000D1E0FD7FD588
:101626007E0112672E900256E0FEA3E0FFBE01087F
:10163600BFD105A3E0FD80099000D2E0FD7FD17EF9
:101646000112672E900256E0FEA3E0FFBE0108BF1E
:10165600D205A3E0FD80099000D3E0FD7FD27E0194
:1016660012672E900256E0FEA3E0FFBE0108BFD32C
:1016760005A3E0FD80099000D4E0FD7FD37E011232
:10168600672E900256E0FEA3E0FFBE0108BF3805B4
:10169600A3E0FD800990011EE0FD7F387E01126700
:1016A6002E900256E0FEA3E0FFBE0108BF3905A357
:1016B600E0FD800990011FE0FD7F397E0112672E53
:1016C600900256E0FEA3E0FFBE0108BF3A05A3E084
:1016D600FD8009900120E0FD7F3A7E0112672E9081
:1016E6000256E0FEA3E0FFBE0108BF3B05A3E0FDF6
:1016F6008009900121E0FD7F3B7E0112672E90025A
:1017060056E0FEA3E0FFBE0108BF3C05A3E0FD8056
:1017160009900122E0FD7F3C7E0112672E90025661
:10172600E0FEA3E0FFBE0108BF3D05A3E0FD800982
:10173600900123E0FD7F3D7E0112672E900256E068
:10174600FEA3E0FFBE0108BF3E05A3E0FD800990B1
:101756000124E0FD7F3E7E0112672E900256E0FED8
:10176600A3E0FFBE0108BF3F05A3E0FD800990018D
:1017760025E0FD7F3F7E0112672E900256E0FEA314
:10178600E0FFBE0108BF3605A3E0FD8009900126F3
:10179600E0FD7F367E0112672E900256E0FEA3E042
:1017A600FFBE0108BF3705A3E0FD8009900127E0D1
:1017B600FD7F377E0112672E900256E0FEA3E0FF02
:1017C600BE0108BFFB05A3E0FD800990013BE0FDDB
:1017D6007FFB7E0112672E900256E0FEA3E0FFBE5D
:1017E6000108BFFC05A3E0FD800990013AE0FD7FFA
:1017F600FC7E0112672E900256E0FEA3E0FFBE01BA
:1018060008BFFD05A3E0FD8009900138E0FD7FFDDE
:101816007E0112672E900256E0FEA3E0FFBE01088D
:10182600BFFE05A3E0FD8009900139E0FD7FFE7E45
:051836000112672E22E3
:0B66470090025AEBF0A3EAF0A3E9F088
:10665200E4FF7EF1EFC3940774809480501EAD0670
:106662000EA805E6FD90025AE0FBA3E475F00112C4
:0C6672003C96A9F0FAED123C3A0F80D8DB
:01667E0022F9
:096A0700007F0B7EBEDEFEDFFC09
:016A10002263
:10682400AD07AC06ED1DAE0470011C4E6005126A86
:046834000780F122C6
:076A110000750D87D50DFD96
:016A1800225B
:105475004202910000420294000042028F00004166
:1054850002930041028500410286004102870041E6
:105495000288004102890041028A0041028B0042D4
:0854A500028C000041028E00A0
:10659400900000E0FBA3E0FAA3E02432F9E43AFA25
:1065A400125FA790024DEFF0900000E0FBA3E0FA29
:1065B400A3E02439F9E43AFA125FA790024DE064AB
:0B65C400017006EF70037F01227F00D2
:0165CF0022A9
:1065D000900000E0FBA3E0FAA3E02432F9E43AFAE9
:1065E000125FA790024DEFF0900000E0FBA3E0FAED
:1065F000A3E02439F9E43AFA125FA790024DE07063
:0B66000008EF640170037F01227F009F
:01660B00226C
:104E3D00900000E0FBA3E0FAA3E02463F9E43AFA62
:104E4D00125FA790024DEFF0900000E0FBA3E0FA97
:104E5D00A3E0245CF9E43AFA125FA790024EEFF05A
:104E6D00900000E0FBA3E0FAA3E0F9900060123B94
:104E7D00B8FF90024DE06401700590028504F0EFDB
:104E8D00B40700400302500E904E9CF82828730280
:104E9D004EB1024ED8024F1A024F48024F76024FC2
:104EAD007C024FBF90024EE0FD7C006401700B90C0
:104EBD000285E064017003024FF0ED64014C704A0D
:104ECD00900286E0640170427F0122900000E0FBB9
:104EDD00A3E0FAA3E0F99000CD123BB8FD7C009061
:104EED00028FE0FAA3E0FBD39DEA9C400B90028574
:104EFD00E064017003024FF0D3EB9DEA9C400B90F0
:104F0D000286E0640170037F012202500790024E79
:104F1D00E064017023900000E0FBA3E0FAA3E0F948
:104F2D009000CD123BB8FFD3900290E09F90028F7E
:104F3D00E0940040037F01227F002290024EE06446
:104F4D00016020900000E0FBA3E0FAA3E0F99000DF
:104F5D00CD123BB8FFD3900290E09F90028FE0946A
:104F6D000040037F01227F002290024EE0FF22903D
:104F7D000000E0FBA3E0FAA3E0F99000CD123BB8EE
:104F8D00FF90028FE0FCA3E0FDC39FEC940040086E
:104F9D009002877401F080149000CE123BB8FFD3BD
:104FAD00ED9FEC94005005E4900287F0900287E0AD
:104FBD00FF22900000E0FBA3E0FAA3E0F99000CD02
:104FCD00123BB8FFD3900290E09F90028FE09400C7
:104FDD004028900285E06401701290024DE0700946
:104FED00900285F0A304F0FF227F0022900286E05C
:104FFD00640170037F01227F0022E4900286F0FF9E
:03500D00227F00FF
:01501000227D
:10683800900000E0FBA3E0FAA3E0242BF9E43AFA85
:03684800025FA745
:10684B00900000E0FBA3E0FAA3E0246AF9E43AFA33
:03685B00025FA732
:10671000900000E0FBA3E0FAA3E02486F9E43AFA53
:0D672000125FA7EF640170037FF0227F007D
:01672D002249
:10685E00900000E0FBA3E0FAA3E024B0F9E43AFADA
:03686E00025FA71F
:10687100900000E0FBA3E0FAA3E0247FF9E43AFAF8
:03688100025FA70C
:1066AD00900000E0FBA3E0FAA3E02401F9EA340135
:1066BD00FA7D01125011EF640170037F46227F14A1
:0166CD0022AA
:1066CE00900000E0FBA3E0FAA3E02401F9EA340114
:1066DE00FA7D02125011EF640170037F46227F147F
:0166EE002289
:10688400900000E0FBA3E0FAA3E024A2F9E43AFAC2
:03689400025FA7F9
:10689700900000E0FBA3E0FAA3E02440F9E43AFA11
:0368A700025FA7E6
:1068AA00900000E0FBA3E0FAA3E02447F9E43AFAF7
:0368BA00025FA7D3
:1068BD00900000E0FBA3E0FAA3E02478F9E43AFAB3
:0368CD00025FA7C0
:1068D000900000E0FBA3E0FAA3E02455F9E43AFAC3
:0368E000025FA7AD
:1068E300900000E0FBA3E0FAA3E024A9F9E43AFA5C
:0368F300025FA79A
:1068F600900000E0FBA3E0FAA3E0248DF9E43AFA65
:03690600025FA786
:10604500900000E0FBA3E0FAA3E0245CF9E43AFA4F
:10605500125FA790024DEFF0900000E0FBA3E0FA7D
:10606500A3E02463F9E43AFA125FA790024EEFF039
:10607500900000E0FBA3E0FAA3E024B7F9E43AFAC4
:10608500125FA7900000E0FBA3E0FAA3E0F99000FF
:1060950067123BB8604024FE602604703690024DBE
:1060A500E0FE64017011900288E0700B04F090002E
:1060B50068E4123C4C801FEE701C900288F080163C
:1060C50090024EE064017008EF640170037F0122C5
:0B60D5007F00227F002290024EE0FFBF
:0160E000229D
:10690900900000E0FBA3E0FAA3E02494F9E43AFA4A
:03691900025FA773
:10691C00900000E0FBA3E0FAA3E02424F9E43AFAA7
:03692C00025FA760
:1035B900E490024DF0900000E0FBA3E0FAA3E024C0
:1035C900E7F9E43AFA7D0112501190024EEFF090BA
:1035D9000000E0FBA3E0FAA3E024E7F9E43AFA7D6E
:1035E9000212501190024FEFF0900000E0FBA3E0AF
:1035F900FAA3E024E7F9E43AFA7D031250119002A4
:1036090050EFF0900000E0FBA3E0FAA3E024E7F913
:10361900E43AFA7D04125011900251EFF090000043
:10362900E0FBA3E0FAA3E024E7F9E43AFA7D051206
:103639005011900252EFF0900000E0FBA3E0FAA3D2
:10364900E0F99000F0123BB8900253F0E92463F9D5
:10365900E43AFA125FA7900254EFF0900000E0FB01
:10366900A3E0FAA3E024B7F9E43AFA125FA79002BB
:1036790055EFF0900000E0FBA3E0FAA3E024B0F9D5
:10368900E43AFA125FA7EF64017009900254E070FE
:10369900037F0822900253E00470030239E714B44F
:1036A9000A004003023A9E9036B7F828287302367A
:1036B900D502372F023A9E0237830237C9023811E1
:1036C90002384D023A9E02389D02393690024FE087
:1036D90025E0FF90024EE04FFF900250E025E025E3
:1036E900E04FFFA3E033333354F84FFF90024DF01E
:1036F9007E0064017003023877EF64024E700302A2
:103709003A44EF64044E7003023A55EF64084E7070
:1037190003023A6CEF64054E7003023A7DEF640FC1
:103729004E7054023A9390024FE025E0FF90024E0A
:10373900E04FFF900250E025E025E04FFF90024D59
:10374900F07E0064067003023877EF64054E70035B
:10375900023A44EF64044E7003023A55EF64034E93
:103769007003023A6CEF64024E7003023A7DEF6413
:10377900014E7003023A93023A9B900254E06401AD
:103789007003023AA390024FE025E0FF90024EE059
:103799004FFF90024DF07E00700790028904F0807F
:1037A90013EF64034E70089002897402F08005E4F7
:1037B900900289F0900255E06003023AA3023A9F11
:1037C900900254E064017003023AA390024FE0258D
:1037D900E0FF90024EE04FFF90024DF07E00640240
:1037E900700790028904F08013EF64014E7008900D
:1037F90002897402F08005E4900289F0900255E094
:103809006003023AA3023A9F90024FE025E0FF903D
:10381900024EE04FFF900250E025E025E04FFF9077
:10382900024DF0900293F07E0064017002803FEF38
:1038390064024E7003023A44EF64044E7003023A84
:1038490055023A9B90024FE025E0FF90024EE04F6F
:10385900FF900250E025E025E04FFFA3E03333332A
:1038690054F84FFF90024DF07E00640770089002F3
:103879008904F0023AA3EF64024E7003023A44EF5E
:1038890064044E7003023A55EF64084E7003023A1D
:103899006C023A9B90024FE025E0FF90024EE04F08
:1038A900FF900250E025E025E04FFFA3E0333333DA
:1038B90054F84FFFA3E0C454F04F90024DF0E0FFDD
:1038C900900293F0900000E0FBA3E0FAA3E0F990E6
:1038D90000FA123BB8FEEFB50603023A2D9000FB41
:1038E900123BB8FF90024DE0FEB50703023A44903F
:1038F90000FC123BB8B50603023A559000FD123B95
:10390900B8FF90024DE0FEB50703023A6C9000FE45
:10391900123BB8B50603023A7D9000FF123BB8FF8F
:1039290090024DE0B50703023A93023A9B90024F89
:10393900E025E0FF90024EE04FFF900250E025E0C5
:1039490025E04FFFA3E033333354F84FFFA3E0C41E
:1039590054F04F90024DF0E0FF900293F090000078
:10396900E0FBA3E0FAA3E0F99000FA123BB8FEEFFE
:10397900B50603023A2D9000FB123BB8FF90024DA9
:10398900E0FEB50703023A449000FC123BB8B506C5
:1039990003023A559000FD123BB8FF90024DE0FE3C
:1039A900B50703023A6C9000FE123BB8B506030254
:1039B9003A7D9000FF123BB8FF90024DE0FEB5073B
:1039C90003023A93900000E0FBA3E0FAA3E0F99028
:1039D9000100123BB86E6003023AA3023A9F9002BB
:1039E9004FE025E0FF90024EE04FFF900250E025A6
:1039F900E025E04FFFA3E033333354F84FFFA3E052
:103A0900C454F04F90024DF0E0FF900293F0900003
:103A190000E0FBA3E0FAA3E0F99000FA123BB8FE3C
:103A2900EFB506089002897401F0806E9000FB12D0
:103A39003BB8FF90024DE0FEB50708900289740279
:103A4900F080579000FC123BB8B5060890028974C3
:103A590003F080469000FD123BB8FF90024DE0FE56
:103A6900B507089002897404F0802F9000FE123B7C
:103A7900B8B506089002897405F0801E9000FF12FF
:103A89003BB8FF90024DE0B507089002897408F031
:0F3A99008008E48001E4900289F0900289E0FF48
:013AA80022FB
:10692F00900000E0FBA3E0FAA3E024C5F9E43AFAF3
:03693F00025FA74D
:10694200900000E0FBA3E0FAA3E0244EF9E43AFA57
:03695200025FA73A
:10695500900000E0FBA3E0FAA3E024B7F9E43AFADB
:03696500025FA727
:10696800900000E0FBA3E0FAA3E0249BF9E43AFAE4
:03697800025FA714
:10697B00900000E0FBA3E0FAA3E024BEF9E43AFAAE
:03698B00025FA701
:1066EF00900000E0FBA3E0FAA3E02401F9EA3401F3
:1066FF00FA7D03125011EF640170037F46227F145D
:01670F002267
:105D8A00900000E0FBA3E0FAA3E02432F9E43AFA37
:105D9A00125FA790024DEFF0900000E0FBA3E0FA3B
:105DAA00A3E02439F9E43AFA125FA790024EEFF021
:105DBA00900000E0FBA3E0FAA3E02471F9E43AFAC8
:105DCA00125FA790024FEFF0900000E0FBA3E0FA09
:105DDA00A3E0F9900032123BB8FF1258AD9002507E
:105DEA00EFF0900000E0FBA3E0FAA3E0F99000399D
:105DFA00123BB8FF1258AD900000E0FBA3E0FAA3F3
:105E0A00E0F9900075123BB86401700690024FE009
:105E1A00FF22900250E064017010EF6401700B9051
:105E2A00028AE0700504F07F002290024DE06401CE
:105E3A007011A3E06401700B90028AE064017003A0
:095E4A007F0122E490028AF0FFBE
:015E5300222C
:0C69F0001235B9EF60037F01227F002206
:10698E00900000E0FBA3E0FAA3E024D9F9E43AFA80
:03699E00025FA7EE
:1069A100900000E0FBA3E0FAA3E024E0F9E43AFA66
:0369B100025FA7DB
:10677600900000E0FBA3E0FAA3E0241BF9EA340151
:06678600FA7D0102501132
:10678C00900000E0FBA3E0FAA3E0241BF9EA34013B
:06679C00FA7D020250111B
:1067A200900000E0FBA3E0FAA3E0241BF9EA340125
:0667B200FA7D0302501104
:1067B800900000E0FBA3E0FAA3E0241BF9EA34010F
:0667C800FA7D04025011ED
:1067CE00900000E0FBA3E0FAA3E0241BF9EA3401F9
:0667DE00FA7D05025011D6
:1067E400900000E0FBA3E0FAA3E0241BF9EA3401E3
:0667F400FA7D06025011BF
:105ABD00900000E0FBA3E0FAA3E0F99000D0123BC8
:105ACD00B8FD7003FEFF2290028BE06D6003025B58
:105ADD00A7F0AF8CA3F0A3EFF0E0F8E4F0E89002AC
:105AED008CF0AF8AA3E02FF090028CE03400F0E050
:105AFD00FFA3E090028FCFF0A3EFF09000CF123B09
:105B0D00B870082401FFE433FE8014900000E0FB20
:105B1D00A3E0FAA3E0F99000CF123BB8FF7E00900E
:105B2D00028CE0FCA3E0FD123C6E90028CEEF0A323
:105B3D00EFF0C390028DE0948890028CE0941340B6
:105B4D00077403F0A37420F0E4F58CF58A90028CB1
:105B5D00E07002A3E07049900000E0FBA3E0FAA31F
:105B6D00E0F99000D1123BB8D3940074809480403A
:105B7D002F124E3DEF64017027900000E0FBA3E073
:105B8D00FAA3E0F99000D1123BB875F00AA4FF908A
:105B9D00028CE5F0F0A3EFF0800690028BE004F0AC
:085BAD0090028CE0FEA3E0FF72
:015BB50022CD
:1054BC00E490024DF0A3F0A3F0A3F0900000E0FB09
:1054CC00A3E0FAA3E0F99000D2123BB824FE600FDF
:1054DC0004701890024FE58CF0A3E58AF0800F90D1
:1054EC00024FE58DF0A3E58BF0800302562390026A
:1054FC004FE0FF90024DE4F0A3EFF0E0F8E4F0E8A9
:10550C0090024DF0900250E0FF90024EE02FF09090
:10551C00024DE03400F0900000E0FBA3E0FAA3E0C1
:10552C00F99000D5123BB8FF700302562C900294F0
:10553C00E0FCA3E0FDC390024EE09D90024DE09C88
:10554C004020EFFD900294E0FAA3E0FB90024DE0C6
:10555C00FEA3E0FF9BFBEE9AFAD3EB9DEA9400507E
:10556C005222900294E0FEA3E0FBE4C39BFBE49E7A
:10557C00FA74019400F9E49400F890024DE0FEA353
:10558C00E0FFE4FCFDEB2FFFEA3EFEED39FDEC38CD
:10559C00FCC007900000E0FBA3E0FAA3E0F9900048
:1055AC00D5123BB8FBE4FAF9F8D007C3123D7A40A8
:1055BC0002806D900295E004F07006900294E00475
:1055CC00F0900295E004F07006900294E004F090E4
:1055DC000294E0FCA3E0FDEC90024FF0EDA3F09000
:1055EC000000E0FBA3E0FAA3E0F99000D2123BB874
:1055FC0024FE6013047020C28C90024FE0F58CA343
:10560C00E0F58AD28C8014C28E90024FE0F58DA307
:10561C00E0F58BD28E8004E4FEFF2290029480038E
:08562C0090024DE0FEA3E0FF37
:015634002253
:1047B30012183B900000E0FBA3E0FAA3E0F990009D
:1047C30032123BB8700790003204123C4C9000390F
:1047D300123BB870089000397402123C4C90005C94
:1047E300123BB8700890005C7403123C4C90002B91
:1047F300123BB8700890002B7404123C4C90006A72
:10480300123BB8700890006A7405123C4C90008605
:10481300123BB870089000867406123C4C9000B0AE
:10482300123BB870089000B07407123C4C90007FA4
:10483300123BB8700890007F7408123C4C90010141
:10484300123BB870089001017409123C4C900102AC
:10485300123BB87008900102740A123C4C9000A2FB
:10486300123BB870089000A2740B123C4C900040AD
:10487300123BB87008900040740C123C4C900047F7
:10488300123BB87008900047740D123C4C900078AE
:10489300123BB87008900078740E123C4C9000558F
:1048A300123BB87008900055740F123C4C9000A94D
:1048B300123BB870089000A97410123C4C90008D04
:1048C300123BB8700890008D7411123C4C90006339
:1048D300123BB870089000637412123C4C90009421
:1048E300123BB870089000947413123C4C9000244F
:1048F300123BB870089000247414123C4C9000E7EB
:10490300123BB870089000E77415123C4C9000E815
:10491300123BB870089000E87416123C4C9000E902
:10492300123BB870089000E97417123C4C9000EAEF
:10493300123BB870089000EA7418123C4C9000EBDC
:10494300123BB870069000EB123C4C900071123B86
:10495300B87006900071123C4C9000C5123BB870C1
:10496300089000C57419123C4C90004E123BB8706D
:104973000890004E741A123C4C9000CC123BB87055
:10498300089000CC741B123C4C9000B7123BB870DB
:10499300089000B7741C123C4C90009B123BB870FB
:1049A3000890009B741D123C4C9000BE123BB870E3
:1049B300089000BE741E123C4C900103123BB87069
:1049C300089001037420123C4C9000E0123BB87035
:1049D300069000E0123C4C123B9FD39402748094E7
:1049E300804004E4123C3A900000E0FBA3E0FAA309
:1049F300E0F9900001123BB8D3940A74809480408C
:094A030007900001E4123C4C2272
:102BF200900248EBF0A3EAF0A3E9F0A3ECF0A3ED16
:012C0200F0E1
:102C0300E4900293F0125ABD900291EEF0A3EFF01C
:102C13001254BC900294EEF0A3EFF0900248E0FB54
:102C2300A3E0FAA3E0F9C003C002C001123B9FFE78
:102C3300C0061268D0D0E04FD001D002D003123CBE
:102C43003A900248E0FBA3E0FAA3E0F9C003C00214
:102C5300C001123B9FFFC007126942EF25E0FED07F
:102C6300E04ED001D002D003123C3A900248E0FB80
:102C7300A3E0FAA3E0F9C003C002C001123B9FFF27
:102C8300C0071268AAEF25E025E0FED0E04ED00190
:102C9300D002D003123C3A900248E0FBA3E0FAA32F
:102CA300E0F9C003C002C001123B9FFFC0071268D6
:102CB30097EF33333354F8FED0E04ED001D002D037
:102CC30003123C3A900248E0FBA3E0FAA3E0F9C008
:102CD30003C002C001123B9FFFC0071265D0EFC4BF
:102CE30054F0FED0E04ED001D002D003123C3A9013
:102CF3000248E0FBA3E0FAA3E0F9C003C002C0016D
:102D0300123B9FFFC007126594EFC43354E0FED01B
:102D1300E04ED001D002D003123C3A900248E0FBCF
:102D2300A3E0FAA3E0F9C003C002C001123B9FFF76
:102D3300C007126838EFC4333354C0FED0E04ED01E
:102D430001D002D003123C3A900248E0FBA3E0FA20
:102D5300A3E0F9C003C002C001123B9FFFC00712EA
:102D6300691CEFC43333335480FED0E04ED001D01E
:102D730002D003123C3A900248E0FBA3E0FAA3E03E
:102D83002401F9E43AFAC003C002C001123B9FFEDA
:102D9300C006126871D0E04FD001D002D003123CBC
:102DA3003A900248E0FBA3E0FAA3E02401F9E43AF5
:102DB300FAC003C002C001123B9FFFC00712685E46
:102DC300EF25E025E0FED0E04ED001D002D0031283
:102DD3003C3A900248E0FBA3E0FAA3E02401F9E4C3
:102DE3003AFAC003C002C001123B9FFFC00712683A
:102DF300BDEF33333354F8FED0E04ED001D002D0D0
:102E030003123C3A900248E0FBA3E0FAA3E024015A
:102E1300F9E43AFAC003C002C001123B9FFFC007A6
:102E2300125D8AEFC454F0FED0E04ED001D002D040
:102E330003123C3A900248E0FBA3E0FAA3E024012A
:102E4300F9E43AFAC003C002C001123B9FFFC00776
:102E530012684BEFC43354E0FED0E04ED001D002F1
:102E6300D003123C3A900248E0FBA3E0FAA3E0242B
:102E730001F9E43AFAC003C002C001123B9FFFC04C
:102E830007126045EFC4333354C0FED0E04ED00187
:102E9300D002D003123C3A900248E0FBA3E0FAA32D
:102EA300E02401F9E43AFAC003C002C001123B9FD7
:102EB300FFC007124E3DEFC43333335480FED0E0DE
:102EC3004ED001D002D003123C3A900248E0FBA35B
:102ED300E0FAA3E02402F9E43AFAC003C002C00115
:102EE300123B9FFEC006126710D0E04FD001D00204
:102EF300D003123C3A900248E0FBA3E0FAA3E0249B
:102F030002F9E43AFAC003C002C001123B9FFEC0BB
:102F1300061235B9D0E04FD001D002D003123C3AAB
:102F2300900248E0FBA3E0FAA3E0F9900003E41267
:102F33003C4CE92404F9E43AFA123B9FFF900291D6
:102F4300A3E04F123C3A900248E0FBA3E0FAA3E06F
:102F53002405F9E43AFA123B9FFD900291E04D12E9
:102F63003C3A900248E0FBA3E0FAA3E02406F9E42C
:102F73003AFAC003C002C001123B9FFEC0061269A9
:102F8300F0D0E04FD001D002D003123C3A90024877
:102F9300E0FBA3E0FAA3E02406F9E43AFAC003C095
:102FA30002C001123B9FFFC00712692FEF33333377
:102FB30054F8FED0E04ED001D002D003123C3A9038
:102FC3000248E0FBA3E0FAA3E02407F9E43AFAC0DD
:102FD30003C002C001123B9FFEC0061268E3D0E0AB
:102FE3004FD001D002D003123C3A900248E0FBA339
:102FF300E0FAA3E02407F9E43AFAC003C002C001EF
:10300300123B9FFFC007126884EF25E0FED0E04E1D
:10301300D001D002D003123C3A900248E0FBA3E077
:10302300FAA3E02407F9E43AFAC003C002C001128C
:103033003B9FFFC007126909EF25E025E0FED0E0C2
:103043004ED001D002D003123C3A900248E0FBA3D9
:10305300E0FAA3E02407F9E43AFAC003C002C0018E
:10306300123B9FFFC0071268F6EF33333354F8FE69
:10307300D0E04ED001D002D003123C3A900248E097
:10308300FBA3E0FAA3E02407F9E43AFAC003C00281
:10309300C001123B9FFFC0071268AAEFC454F0FEA1
:1030A300D0E04ED001D002D003123C3A900248E067
:1030B300FBA3E0FAA3E02407F9E43AFAC003C00251
:1030C300C001123B9FFFC007126897EFC454F0FE84
:1030D300D0E04ED001D002D003123C3A900248E037
:1030E300FBA3E0FAA3E02407F9E43AFAC003C00221
:1030F300C001123B9FFFC007126968EFC43354E05D
:10310300FED0E04ED001D002D003123C3A900248E8
:10311300E0FBA3E0FAA3E02407F9E43AFAC003C012
:1031230002C001123B9FFFC007126045EFC4333357
:1031330054C0FED0E04ED001D002D003123C3A90EE
:103143000248E0FBA3E0FAA3E02409F9E43AFAC059
:1031530003C002C001123B9FFFC0071269A1EFC465
:103163003333335480FED0E04ED001D002D003126B
:103173003C3A900000E0FBA3E0FAA3E0F990010AD7
:10318300123BB8702F1266AD900248E0FBA3E0FA41
:10319300A3E0F990000AEF123C4C1266CE9002486D
:1031A300E0FBA3E0FAA3E0F990000BEF123C4C1212
:1031B30066AD8042900000E0FBA3E0FAA3E0F99043
:1031C300010A123BB8640670541266CE900248E0BE
:1031D300FBA3E0FAA3E0F990000AEF123C4C12665D
:1031E300AD900248E0FBA3E0FAA3E0F990000BEFF7
:1031F300123C4C1266CE900248E0FBA3E0FAA3E037
:10320300F990000CEF123C4C1266EF900248E0FB81
:10321300A3E0FAA3E0F990000DEF123C4C900000FC
:10322300E0FBA3E0FAA3E0F99000F0123BB8F470DE
:103233002D900248E0FBA3E0FAA3E0F990000A74A2
:10324300FF123C4C90000B74FF123C4C90000C742A
:10325300FF123C4C900293E090000D123C4C900204
:1032630094E0FCA3E0FDECFF900248E0FBA3E0FA4E
:10327300A3E0F990000EEF123C4C90000FED123CCE
:103283004C900000E0FBA3E0FAA3E0F990013612B2
:103293003BB8FF900248E0FBA3E0FAA3E0F99000FB
:1032A30011EF123C4C900000E0FBA3E0FAA3E0F91D
:1032B300900135123BB8FF900248E0FBA3E0FAA36C
:1032C300E0F9900012EF123C4C900017E4123C4CD2
:1032D300900018E4123C4C900019E4123C4C90000E
:1032E3001AE4123C4C900000E0FBA3E0FAA3E0F9DF
:1032F3009000F0123BB8FF64086005EF6409701793
:10330300900293E0FF900248E0FBA3E0FAA3E0F908
:1033130090001AEF123C4C900248E0FBA3E0FAA3A2
:10332300E0F990001BE4123C4C90001CE4123C4C6E
:1033330090001DE4123C4C90001EE4123C4CE92426
:103343001FF9E43AFAC003C002C001123B9FFEC05A
:1033530006126955D0E04FD001D002D003123C3A97
:10336300900248E0FBA3E0FAA3E0241FF9E43AFA51
:10337300C003C002C001123B9FFFC00712697BEF6D
:1033830025E0FED0E04ED001D002D003123C3A90AB
:103393000248E0FBA3E0FAA3E0F9900020742212B4
:1033A3003C4C90002174FF123C4CE92422F9E43A8E
:1033B300FAC003C002C001123B9FFFC00712677629
:1033C300EFC43333335480FED0E04ED001D002D06B
:1033D30003123C3A900248E0FBA3E0FAA3E0242264
:1033E300F9E43AFAC003C002C001123B9FFFC007D1
:1033F30012678CEFC4333354C0FED0E04ED001D0FB
:1034030002D003123C3A900248E0FBA3E0FAA3E0A7
:103413002422F9E43AFAC003C002C001123B9FFF21
:10342300C0071267A2EFC43354E0FED0E04ED001D0
:10343300D002D003123C3A900248E0FBA3E0FAA387
:10344300E02422F9E43AFAC003C002C001123B9F10
:10345300FFC0071267B8EFC454F0FED0E04ED001AE
:10346300D002D003123C3A900248E0FBA3E0FAA357
