:1087AD00EFD3940540037F0122124DC5FED39403F0
:1087BD0040037F0222EF7041EE700B900001124DCD
:1087CD00DEF452935294124DC5B4010B9000011278
:1087DD004DDE4293F45294124DC5FEB4020A900040
:1087ED0001124DDE42934294EEB4030D900001123E
:1087FD004DDEFEF45293EE4294EF64017043124D40
:10880D00C5FE700B900001124DDEF452915292EEA6
:10881D00B4010B900001124DDE4291F45292124DB3
:10882D00C5B4020A900001124DDE42914292124DE2
:10883D00C5B4030D900001124DDEFEF45291EE42CF
:10884D0092EF64027043124DC5FE700B9000011241
:10885D004DDEF452955296EEB4010B900001124D7F
:10886D00DE4295F45296124DC5B4020A90000112E3
:10887D004DDE42954296124DC5B4030D9000011286
:10888D004DDEFEF45295EE4296EF64037043124DA9
:10889D00C5FE700B900001124DDEF452B152B2EED6
:1088AD00B4010B900001124DDE42B1F452B2124DE3
:1088BD00C5B4020A900001124DDE42B142B2124D12
:1088CD00C5B4030D900001124DDEFEF452B1EE421F
:1088DD00B2EF64047043124DC5FE700B900001128F
:1088ED004DDEF452B352B4EEB4010B900001124DB3
:1088FD00DE42B3F452B4124DC5B4020A9000011217
:10890D004DDE42B342B4124DC5B4030D90000112B9
:10891D004DDEFEF452B3EE42B4EF64057043124DDA
:10892D00C5FF700B900001124DDEF452C952CAEF13
:10893D00B4010B900001124DDE42C9F452CA124D22
:10894D00C5B4020A900001124DDE42C942CA124D51
:10895D00C5B4030D900001124DDEFFF452C9EF4274
:04896D00CA7F00229B
:0DB11A00E4F5C7F5C5F5C675C380F5C42280
:10AE000075C78275C5018FC4EEF5C375C65A75C680
:07AE1000A500AFC212B11A48
:01AE17002218
:10ADE70075C78275C5028FC4EEF5C3AF058FC275EF
:09ADF700C65A75C6A50002B11A86
:10AED10075C78275C5038FC4EEF5C375C65A75C6AD
:05AEE100A50002B11AFA
:10583000900C84EBF0A3EAF0A3E9F0900C83EFF076
:10584000E4900C87F0EF640160030259BD900C8373
:10585000E0FF75F00DA424FBF582E43403F58374B6
:1058600001F0A37404F0A3743CF0EF75F00DA424D0
:10587000FEF582E43403F5837401F0A37406F0A30B
:10588000742FF0EF75F00DA424FBF582E43403F5DA
:1058900083E0FBA3E0FAA3E0F9EF75F00DA4240187
:1058A000F582E43404F583EBF0A3EAF0A3E9F0EF2A
:1058B00075F00DA424FBF582E43403F583E0FBA32B
:1058C000E0FAA3E0F9EF75F00DA42404F582E434C6
:1058D00004F583EBF0A3EAF0A3E9F0EF75F00DA473
:1058E0002407F582E43404F583E4F07E017FF4FDBF
:1058F0007B017A04793C12515A900C84E0FBA3E0BE
:10590000FAA3E0F9900001124DDE64017030538774
:105910007F759850438E40538EFE53890F438920E4
:105920009000021250A77F007E8C7D0A7C00124FEF
:10593000BDEFF404F58BF58DC2ABD28E806A900C6E
:1059400084E0FBA3E0FAA3E0F9900001124DDE64CD
:1059500002706A759850438E01438E0490000212C3
:1059600050A77F007E607D547C00124FBDC374FF42
:105970009FF5D7900C84E0FBA3E0FAA3E0F9900038
:10598000021250A77F007E607D547C00124FBDC381
:1059900074FF9FFF74FF9EFEE49DFDE49CFC78086D
:1059A0001250848FD6438E10900C84E0FBA3E0FA53
:1059B000A3E0F9900008124DDE24FF92AC900C8316
:1059C000E064026003025AE0E0FF75F00DA424FBDE
:1059D000F582E43403F5837401F0A37406F0A37434
:1059E00030F0EF75F00DA424FEF582E43403F58366
:1059F0007401F0A37406F0A374C5F0EF75F00DA464
:105A000024FBF582E43403F583E0FBA3E0FAA3E092
:105A1000F9EF75F00DA42401F582E43404F583EB6D
:105A2000F0A3EAF0A3E9F0EF75F00DA424FBF582F2
:105A3000E43403F583E0FBA3E0FAA3E0F9EF75F0AB
:105A40000DA42404F582E43404F583EBF0A3EAF01A
:105A5000A3E9F0EF75F00DA42407F582E43404F512
:105A600083E4F0FE7F96FD7B017A06793012515A6D
:105A7000759A50438E04900C84E0FBA3E0FAA3E0F7
:105A8000F99000021250A77F007E607D547C0012C6
:105A90004FBDC374FF9FF5D7900C84E0FBA3E0FAE1
:105AA000A3E0F99000021250A77F007E607D547C35
:105AB00000124FBDC374FF9FFF74FF9EFEE49DFD67
:105AC000E49CFC78081250848FD6438E10900C848E
:105AD000E0FBA3E0FAA3E0F9900008124DDE42AF2C
:105AE000900C83E0FF64036003025C81EF75F00DAE
:105AF000A424FBF582E43403F5837401F0A3740657
:105B0000F0A374C6F0EF75F00DA424FEF582E43422
:105B100003F5837401F0A37407F0A3745BF0EF75D1
:105B2000F00DA424FBF582E43403F583E0FBA3E04D
:105B3000FAA3E0F9EF75F00DA42401F582E4340432
:105B4000F583EBF0A3EAF0A3E9F0EF75F00DA424E0
:105B5000FBF582E43403F583E0FBA3E0FAA3E0F96C
:105B6000EF75F00DA42404F582E43404F583EBF022
:105B7000A3EAF0A3E9F0EF75F00DA42407F582E4A1
:105B80003404F583E4F0FE7F96FD7B017A0679C646
:105B900012515A900C84E0FBA3E0FAA3E0F99000C4
:105BA00001124DDE6402705775AC1053ACBF438ECA
:105BB000049000021250A77F007E607D547C00128A
:105BC0004FBDC374FF9FF5D7900C84E0FBA3E0FAB0
:105BD000A3E0F99000021250A77F007E607D547C04
:105BE00000124FBDC374FF9FFF74FF9EFEE49DFD36
:105BF000E49CFC78081250848FD6438E10806A9003
:105C00000C84E0FBA3E0FAA3E0F9900001124DDE62
:105C10006403706D75AC1043AC4043D10290000238
:105C20001250A77F007E607D547C00124FBDC3746C
:105C3000FF9FF5D5900C84E0FBA3E0FAA3E0F99078
:105C400000021250A77F007E607D547C00124FBD81
:105C5000C374FF9FFF74FF9EFEE49DFDE49CFC78EF
:105C6000081250848FD443D108900C84E0FBA3E049
:105C7000FAA3E0F9900008124DDE33333354F842B2
:105C8000AF900C83E0FF64046003025E20EF75F0C8
:105C90000DA424FBF582E43403F5837401F0A374AE
:105CA00007F0A3745CF0EF75F00DA424FEF582E418
:105CB0003403F5837401F0A37407F0A374F1F0EFDB
:105CC00075F00DA424FBF582E43403F583E0FBA317
:105CD000E0FAA3E0F9EF75F00DA42401F582E434B5
:105CE00004F583EBF0A3EAF0A3E9F0EF75F00DA45F
:105CF00024FBF582E43403F583E0FBA3E0FAA3E0A0
:105D0000F9EF75F00DA42404F582E43404F583EB77
:105D1000F0A3EAF0A3E9F0EF75F00DA42407F582F3
:105D2000E43404F583E4F0FE7F96FD7B017A077985
:105D30005C12515A900C84E0FBA3E0FAA3E0F990C6
:105D40000001124DDE640270577584105384BF4306
:105D50008E049000021250A77F007E607D547C006C
:105D6000124FBDC374FF9FF5D7900C84E0FBA3E0F6
:105D7000FAA3E0F99000021250A77F007E607D54E4
:105D80007C00124FBDC374FF9FFF74FF9EFEE49D15
:105D9000FDE49CFC78081250848FD6438E10806AF4
:105DA000900C84E0FBA3E0FAA3E0F9900001124D0F
:105DB000DE6404706B75841043844043D1209000EE
:105DC000021250A77F007E607D547C00124FBDC33D
:105DD00074FF9FF5D3900C84E0FBA3E0FAA3E0F9F5
:105DE0009000021250A77F007E607D547C00124F0D
:105DF000BDC374FF9FFF74FF9EFEE49DFDE49CFC09
:105E000078081250848FD243D180900C84E0FBA399
:105E1000E0FAA3E0F9900008124DDEC454F042AF5E
:015E2000225F
:03002300029D0536
:109D0500C0E0C0F0C083C082C0D075D000C000C024
:109D150001C002C003209803029DEFC29890040E73
:109D2500E0FBA3E0FAA3E0F9C003C002C001900480
:109D350011A3E0FAA3E0F9C3D082D083D0E0E9957E
:109D450082EA95834036900414E0B4012F9004080C
:109D5500E0F9A3E0FAA3E0900411C9F0A3EAF0A3A7
:109D6500E9F0900408E0F9A3E0FAA3E090040EC935
:109D7500F0A3EAF0A3E9F0900414E4F090040BE0FA
:109D8500FBA3E0FAA3E0F9C003C002C001900411EF
:109D9500E0FBA3E0FAA3E0F9D082D083D0E06B70BA
:109DA50008E965827003EA6583900411702AE0FB77
:109DB500A3E0FAA3E0F9E599124E60900408E0F9F2
:109DC500A3E0FAA3E0900411C9F0A3EAF0A3E9F037
:109DD5009004147401F08012E0FBA3E475F0011205
:109DE5004EBCA9F0FAE599124E60D003D002D0011D
:0D9DF500D000D0D0D082D083D0F0D0E032AA
:030043000299F32C
:1099F300C0E0C0F0C083C082C0D075D000C000C03A
:109A030001C002C003E59A20E003029AE6539AFEDE
:109A130090041BE0FBA3E0FAA3E0F9C003C002C07B
:109A23000190041EE0FBA3E0FAA3E0F9D082D08307
:109A3300D0E06B7008E965827003EA658370369045
:109A43000421E0B4012F900415E0F9A3E0FAA3E0A8
:109A530090041EC9F0A3EAF0A3E9F0900415E0F91D
:109A6300A3E0FAA3E090041BC9F0A3EAF0A3E9F092
:109A7300900421E4F0900418E0FBA3E0FAA3E0F9DA
:109A8300C003C002C00190041EE0FBA3E0FAA3E000
:109A9300F9D082D083D0E06B7008E965827003EA65
:109AA300658390041E702AE0FBA3E0FAA3E0F9E5C6
:109AB3009B124E60900415E0F9A3E0FAA3E0900432
:109AC3001EC9F0A3EAF0A3E9F09004217401F08029
:109AD30012E0FBA3E475F001124EBCA9F0FAE59B7A
:109AE300124E60D003D002D001D000D0D0D082D0AB
:069AF30083D0F0D0E03248
:03008B00029AF9DD
:109AF900C0E0C0F0C083C082C0D075D000C000C033
:109B090001C002C003E5AC20E003029BEC53ACFEAC
:109B1900900428E0FBA3E0FAA3E0F9C003C002C067
:109B29000190042BE0FBA3E0FAA3E0F9D082D083F3
:109B3900D0E06B7008E965827003EA65837036903E
:109B4900042EE0B4012F900422E0F9A3E0FAA3E087
:109B590090042BC9F0A3EAF0A3E9F0900422E0F9FC
:109B6900A3E0FAA3E0900428C9F0A3EAF0A3E9F07E
:109B790090042EE4F0900425E0FBA3E0FAA3E0F9B9
:109B8900C003C002C00190042BE0FBA3E0FAA3E0EC
:109B9900F9D082D083D0E06B7008E965827003EA5E
:109BA900658390042B702AE0FBA3E0FAA3E0F9E5B2
:109BB900AD124E60900422E0F9A3E0FAA3E090040C
:109BC9002BC9F0A3EAF0A3E9F090042E7401F08008
:109BD90012E0FBA3E475F001124EBCA9F0FAE5AD61
:109BE900124E60D003D002D001D000D0D0D082D0A4
:069BF90083D0F0D0E03241
:03009300029BFFCE
:109BFF00C0E0C0F0C083C082C0D075D000C000C02C
:109C0F0001C002C003E58420E003029CF25384FEEE
:109C1F00900435E0FBA3E0FAA3E0F9C003C002C053
:109C2F0001900438E0FBA3E0FAA3E0F9D082D083DF
:109C3F00D0E06B7008E965827003EA658370369037
:109C4F00043BE0B4012F90042FE0F9A3E0FAA3E066
:109C5F00900438C9F0A3EAF0A3E9F090042FE0F9DB
:109C6F00A3E0FAA3E0900435C9F0A3EAF0A3E9F06A
:109C7F0090043BE4F0900432E0FBA3E0FAA3E0F998
:109C8F00C003C002C001900438E0FBA3E0FAA3E0D8
:109C9F00F9D082D083D0E06B7008E965827003EA57
:109CAF006583900438702AE0FBA3E0FAA3E0F9E59E
:109CBF0085124E6090042FE0F9A3E0FAA3E0900420
:109CCF0038C9F0A3EAF0A3E9F090043B7401F080E7
:109CDF0012E0FBA3E475F001124EBCA9F0FAE58582
:109CEF00124E60D003D002D001D000D0D0D082D09D
:069CFF0083D0F0D0E0323A
:10904000900CB1EBF0A3EAF0A3E9F0900CB0EFF0D4
:1090500075F00DA42404F582E43404F583E0F9A34B
:10906000E0FAA3E0900CB6C9F0A3EAF0A3E9F0EFB0
:1090700075F00DA42401F582E43404F583E0F9A32E
:10908000E0FAA3E0900CB9C9F0A3EAF0A3E9F0E498
:10909000FFFE900CB1E0F9A3E0FAA3E0900CBCC98C
:1090A000F0A3EAF0A3E9F0900CB6E0FBA3E0FAA38A
:1090B000E0F9C003C002C001A3E0FBA3E0FAA3E013
:1090C000F9D082D083D0E06B7008E965827003EA42
:1090D000658370030291AB0FBF00010ED3900CB5F6
:1090E000E09F900CB4E09E50030291AB900CB0E076
:1090F00075F00DA424FEF582E43403F583E0FBA3B0
:10910000E0FAA3E0F9C003C002C001900CB9E0FB93
:10911000A3E0FAA3E0F9D082D083D0E06B7008E935
:1091200065827003EA6583900CB97057E0FBA3E099
:10913000FAA3E0F9124DC5FD900CB1E0FBA3E47574
:10914000F001124EBCA9F0FAED124E60900CB0E0A6
:10915000FD75F00DA424FBF582E43403F583E0F9FA
:10916000A3E0FAA3E0900CB9C9F0A3EAF0A3E9F0F8
:10917000ED75F00DA42407F582E43404F583E4F0E2
:109180000290A7E0FBA3E475F001124EBCA9F0FA2F
:10919000124DC5FD900CB1E0FBA3E475F001124E39
:1091A000BCA9F0FAED124E600290A7900CB6E0FB5D
:1091B000A3E0FAA3E0F9900CB0E075F00DA424014F
:0F91C000F582E43404F583EBF0A3EAF0A3E9F0C1
:0191CF00227D
:10000300EF24FE600D14600E14600F2403700EC203
:0E001300AC2253AFFE2253AFF72253AFEF22C1
:10AD9300EF24FE600D14600E14600F2403700ED2B6
:0EADA300AC2243AF012243AF082243AF10227F
:05A0E400900C74EFF088
:10A0E900E4FDFCEF700302A1BFE0FF120003E0757D
:10A0F900F00DA424FBF582E43403F583A3E0FAA36D
:10A10900E0AE02FF900C74E075F00DA424FEF58218
:10A11900E43403F583A3E0FAA3E0C39FFFEA9ECFEB
:10A129002401FDE43FFCFEAF057D00900C74E07551
:10A13900F00DA424FBF582E43403F583E0FBA3E0EE
:10A14900FAA3E0F912515A900C74E0FF75F00DA4CE
:10A1590024FBF582E43403F583E0FBA3E0FAA3E0F2
:10A16900F9EF75F00DA42404F582E43404F583EBCA
:10A17900F0A3EAF0A3E9F0EF75F00DA424FBF58252
:10A18900E43403F583E0FBA3E0FAA3E0F9EF75F00B
:10A199000DA42401F582E43404F583EBF0A3EAF07D
:10A1A900A3E9F0EF75F00DA42407F582E43404F572
:06A1B90083E4F012AD93F7
:01A1BF00227D
:10ADB100000000000001C2000000960000004B00EE
:0CADC10000002580000012C000000960A6
:10A41E0012ABC412B13312AA24900C751250E30081
:10A42E0001C2007F01127E00900C751250E30001F4
:10A43E00C2007F01127E00900C751250E30001C223
:10A44E00007F02127E00900AB5E0FBA3E0FAA3E0C3
:10A45E00F9124DC56073900001124DDEC394075082
:10A46E004B124DC5FFC007900001124DDE25E025B1
:10A47E00E024B1F582E434ADF583125097900C755B
:10A48E001250D7D007127E00900AB5E0FBA3E0FA77
:10A49E00A3E0F9124DC5FF12A0E4900AB5E0FBA3AC
:10A4AE00E0FAA3E0F9124DC5FF12AD93900AB5E0A4
:10A4BE00FBA3E0FAA3E0F9900138124DDEB40109D6
:0CA4CE001267739008707401F0D2AF2286
:10677300126BE5900AB5E0FBA3E0FAA3E0F9124D32
:10678300C56056900001124DDEC39407504B124D65
:10679300C5FFC007900001124DDE25E025E024B1BE
:1067A300F582E434ADF583125097900C751250D7EF
:1067B300D007127E00900AB5E0FBA3E0FAA3E0F94C
:1067C300124DC5FF12A0E4900AB5E0FBA3E0FAA3C3
:1067D300E0F9124DC5FF12AD93900AB5E0FBA3E0BB
:1067E300FAA3E0F9900003124DDEFF606E124DC56F
:1067F3006F6068900004124DDEC39407505D9000F3
:1068030003124DDEFFC007900004124DDE25E02584
:10681300E024B1F582E434ADF583125097900C7502
:106823001250D7D007127E00900AB5E0FBA3E0FA1E
:10683300A3E0F9900003124DDEFF12AD93900AB569
:10684300E0FBA3E0FAA3E0F9900005124DDED39438
:10685300004008E5A2543F4480F5A2900AB5E0FB4E
:10686300A3E0FAA3E0F9900006124DDEFF60501298
:106873004DC56F604A900007124DDEC39407503F29
:10688300900006124DDEFFC007900007124DDE2573
:10689300E025E024B1F582E434ADF58312509790FE
:1068A3000C751250D7D007127E00900AB5E0FBA3F7
:1068B300E0FAA3E0F9900006124DDEFF12AD9390CB
:1068C3000AB5E0FBA3E0FAA3E0F9900009124DDE5C
:1068D300FF6050124DC56F604A90000A124DDEC32F
:1068E3009407503F900009124DDEFFC00790000A45
:1068F300124DDE25E025E024B1F582E434ADF583C5
:10690300125097900C751250D7D007127E00900A40
:10691300B5E0FBA3E0FAA3E0F990000A124DDEFF15
:1069230012AD93900AB5E0FBA3E0FAA3E0F990005F
:106933000C124DDEFF6050124DC56F604A90000D82
:10694300124DDEC39407503F90000C124DDEFFC082
:106953000790000D124DDE25E025E024B1F582E419
:1069630034ADF583125097900C751250D7D007129F
:106973007E00900AB5E0FBA3E0FAA3E0F990000CD7
:10698300124DDEFF12AD93900AB5E0FBA3E0FAA32C
:10699300E0F990000F124DDEFF6050124DC56F609D
:1069A3004A900010124DDEC39407503F90000F121F
:1069B3004DDEFFC007900010124DDE25E025E024D8
:1069C300B1F582E434ADF583125097900C751250F3
:1069D300D7D007127E00900AB5E0FBA3E0FAA3E04C
:1069E300F990000F124DDEFF12AD93900AB5E0FB54
:1069F300A3E0FAA3E0F9900012124DDEFF605012FB
:106A03004DC56F604A900013124DDEC39407503F8B
:106A1300900012124DDEFFC007900013124DDE25C9
:106A2300E025E024B1F582E434ADF583125097906C
:106A33000C751250D7D007127E00900AB5E0FBA365
:106A4300E0FAA3E0F9900012124DDEFF12AD93902D
:106A53000AB5E0FBA3E0FAA3E0F9900015124DDEBE
:106A6300FF6050124DC56F604A900016124DDEC391
:106A73009407503F900015124DDEFFC0079000169B
:106A8300124DDE25E025E024B1F582E434ADF58333
:106A9300125097900C751250D7D007127E00900AAF
:106AA300B5E0FBA3E0FAA3E0F9900015124DDEFF79
:106AB30012AD93900AB5E0FBA3E0FAA3E0F99000CE
:106AC30018124DDEFF6050124DC56F604A900019D9
:106AD300124DDEC39407503F900018124DDEFFC0E5
:106AE30007900019124DDE25E025E024B1F582E47C
:106AF30034ADF583125097900C751250D7D007120E
:106B03007E00900AB5E0FBA3E0FAA3E0F990001839
:106B1300124DDEFF12AD93900AB5E0FBA3E0FAA39A
:106B2300E0F990001E124DDEFF6050124DC56F60FC
:106B33004A90001F124DDEC39407503F90001E126F
:106B43004DDEFFC00790001F124DDE25E025E02437
:106B5300B1F582E434ADF583125097900C75125061
:106B6300D7D007127E00900AB5E0FBA3E0FAA3E0BA
:106B7300F990001E124DDEFF12AD93900AB5E0FBB3
:106B8300A3E0FAA3E0F9900021124DDEFF6050125A
:106B93004DC56F604A900022124DDEC39407503FEB
:106BA300900021124DDEFFC007900022124DDE251A
:106BB300E025E024B1F582E434ADF58312509790DB
:106BC3000C751250D7D007127E00900AB5E0FBA3D4
:106BD300E0FAA3E0F9900021124DDEFF12AD93021B
:026BE300AADB2B
:10A1C000900AB5E0FBA3E0FAA3E0F9900003124D7A
:10A1D000DE600353A23F900006124DDEFF600312C3
:10A1E0000003900AB5E0FBA3E0FAA3E0F9900009B0
:10A1F000124DDEFF6003120003900AB5E0FBA3E0FE
:10A20000FAA3E0F990000C124DDEFF600312000388
:10A21000900AB5E0FBA3E0FAA3E0F990000F124D1D
:10A22000DEFF6003120003900AB5E0FBA3E0FAA38F
:10A23000E0F9900012124DDEFF6003120003900A55
:10A24000B5E0FBA3E0FAA3E0F9900015124DDEFFA4
:10A250006003120003900AB5E0FBA3E0FAA3E0F963
:10A26000900018124DDEFF6003120003900AB5E063
:10A27000FBA3E0FAA3E0F9900021124DDEFF60039A
:10A28000120003900AB5E0FBA3E0FAA3E0F9900006
:0BA290001E124DDEFF600312000322CF
:10ABC400900C6474FFF0E4900C63F07B017A0C79D0
:10ABD40063FF1287AD7B017A0C79637F011287AD25
:10ABE4007B017A0C79637F021287AD7B017A0C7941
:10ABF400637F031287AD7B017A0C79637F0402873C
:01AC0400ADA2
:0BB13300438905E4F58CF58AD28C22DC
:10AA2400900AB5E0FBA3E0FAA3E0F99000D2124D3E
:10AA3400DE24FE601814602014602914603224049B
:10AA44007039438905E4F58CF58AD28C2243895008
:10AA5400E4F58DF58BD28E22438E08E4F5D6F5D736
:10AA6400438E102243D104E4F5D4F5D5438E082255
:0CAA740043D140E4F5D2F5D3438E80229C
:109FEF00EF14B42000400302A0E190A00775F00326
:109FFF00A4C58325F0C5837302A06702A06B02A0DE
:10A00F006F02A07302A07702A07B02A07F02A08341
:10A01F0002A08702A08B02A08F02A09302A097023A
:10A02F00A09B02A09F02A0A302A0A702A0AB02A028
:10A03F00AF02A0B302A0B702A0BB02A0BF02A0C391
:10A04F0002A0C702A0CB02A0CF02A0D302A0D702CA
:10A05F00A0DB02A0DB02A0DBA2C58072A2A7806EEC
:10A06F00A282806AA2A68066A2838062A2A5805E79
:10A07F00A284805AA2A48056A2858052A2A3804EA9
:10A08F00A286804AA2A28046A2878042A2A1803ED9
:10A09F00A2A0803AA2C48036A2928032A2C2802EA1
:10A0AF00A293802AA2C18026A2948022A2B7801EEA
:10A0BF00A295801AA2B68016A2B58012A2B4800E05
:10A0CF00A2B3800AA2B28006A2CC8002A2CDE43352
:05A0DF00FF227F0122B9
:10A57700E4FE124DC5FF129FEF124DC5C394404034
:10A58700037F0022900003124DDEB4FF0790000303
:10A59700E4124E72900006124DDE703290000112E6
:10A5A7004DDEB507059000058058900002124DDE7C
:10A5B700FD900005124DDEC39D500C9000057401FF
:10A5C700124E2D7E0180419000067401800D90008F
:10A5D70001124DDE6F600B900005E4124E72E4FE2F
:10A5E7008026900003124DDEFF900005124DDEC35A
:10A5F7009F500C9000057401124E2DE4FE800990C7
:0AA607000006E4124E727E01AF0659
:01A611002226
:0E91D000900C7FEBF0A3EAF0A3E9F0A3EDF022
:1091DE00900C7FE0FBA3E0FAA3E0F9EDFF7E00E93F
:1091EE002FF9EE3AFA90FFFF124DDEFEE4900C835B
:1091FE00F0AF06129FEFAD07E4900C84F0AF06EFD0
:10920E00C3944040037F0022900C7FE0FBA3E0FA62
:10921E00A3E0F9900012124DDEFF900C82E0FE14D6
:10922E00FCEFA804088002C313D8FC5401900C84F0
:10923E00F0EE2409F582E433F583124DDE90001131
:10924E00124E72900008124DDEB4FF12900C7FE0A9
:10925E00FBA3E0FAA3E0F9900008E4124E72900C22
:10926E0084E07051900C7FE0FBA3E0FAA3E0F9904C
:10927E000006124DDEB50509900011E4124E728003
:10928E0024900007124DDEFF900011124DDEC39F99
:10929E00501B900C7FE0FBA3E0FAA3E0F9900011C5
:1092AE007401124E2D900C837401F0805A900C8430
:1092BE007401F08041900C7FE0FBA3E0FAA3E0F98B
:1092CE00900006124DDE6D6009900011E4124E7290
:1092DE008024900008124DDEFF900011124DDEC367
:1092EE009F501A900C7FE0FBA3E0FAA3E0F99000E8
:1092FE00117401124E2DE4900C83F0800AE4900C50
:10930E0084F0900C8304F0900C7FE0FBA3E0FAA3B2
:10931E00E0F9900011124DDEFF900C82E0FE240960
:10932E00F582E433F583EF124E72E92412F9E43A32
:10933E00FA124DC5FFEE14FE900C84E0FDA806084F
:0F934E008002C333D8FC4F124E60900C83E0FFB7
:01935D0022ED
:05935E00900C80EDF011
:10936300E4900C83F0900C81E0900C84F0E4900C7A
:1093730080E075F012A42448F582E4340DF583E00F
:10938300FEA3E0FF900C82E0FDEFA805088005CE68
:10939300C313CE13D8F95401FF900C80E075F0127B
:1093A300A42438F582E4340DF583E5822DF582E4B7
:1093B3003583F583E0900005124E72900003124D41
:1093C300DEB4FF07900003E4124E72EF7035900C89
:1093D30084E0B40109900005E4124E7280199000F4
:1093E30002124DDEFE900005124DDEC39E5010901A
:1093F30000057401124E2D900C837401F0803C7FA4
:1094030001802A900C84E064016009900005E41255
:109413004E728019900003124DDEFE900005124D2E
:10942300DEC39E500F9000057401124E2DE4900C84
:1094330083F08007E4FF900C8304F0900005124D45
:10944300DEFE900C82E0FD900C80E0FC75F012A42F
:109453002438F582E4340DF583E5822DF582E43575
:1094630083F583EEF0EF7031EC75F012A42448F528
:1094730082E4340DF583C083C082E0FAA3E0FB7479
:10948300017E00A805088005C333CE33CED8F9F496
:10949300FFEEF45AFEEB5F8035900C80E075F0121E
:1094A300A42448F582E4340DF583C083C082E0FC34
:1094B300A3E0FD900C82E0FF74017E00A807088002
:1094C30005C333CE33CED8F9FFEC4EFEED4FFFD0BC
:0D94D30082D083EEF0A3EFF0900C83E0FF59
:0194E0002269
:10A8DB004253505F47657455736172745278427579
:10A8EB00666665723A496E646578206F7665726646
:10A8FB006C6F772121212020555341525478203DF4
:10A90B002025623032640D0A0052786C656E7468D3
:10A91B003A496E646578206F766572666C6F772145
:10A92B0021212020555341525478203D202562305F
:10A93B0032640D0A002562303258002A000D0A00DD
:03A94B0000000009
:10B10900900CE0EFF0FD7F0212ACE4900CE0E0FF60
:01B119002213
:057E0000900C74EFF08E
:107E050064016003027E91E0FF75F00AA424D6F5B3
:107E150082E43403F5837401F0A37400F0A37400C5
:107E2500F0EF75F00AA424D9F582E43403F58374E0
:107E350001F0A37401F0A374FFF0EF75F00AA42418
:107E4500D6F582E43403F583E0FBA3E0FAA3E0F979
:107E5500EF75F00AA424DCF582E43403F583EBF036
:107E6500A3EAF0A3E9F0EF75F00AA424DFF582E4B4
:107E75003403F583E4F07E02FFFD7B017A0079008F
:107E850012515A900C7A7401F002803E900C74E005
:107E9500FF64026003027F21EF75F00AA424D6F582
:107EA50082E43403F5837401F0A37402F0A3740033
:107EB500F0EF75F00AA424D9F582E43403F5837450
:107EC50001F0A37402F0A3749FF0EF75F00AA424E7
:107ED500D6F582E43403F583E0FBA3E0FAA3E0F9E9
:107EE500EF75F00AA424DCF582E43403F583EBF0A6
:107EF500A3EAF0A3E9F0EF75F00AA424DFF582E424
:107F05003403F583E4F0FE7FA0FD7B017A0279005E
:107F150012515A900C7A7402F002803E900C74E073
:107F2500FF64036003027FB1EF75F00AA424D6F560
:107F350082E43403F5837401F0A37402F0A374A002
:107F4500F0EF75F00AA424D9F582E43403F58374BF
:107F550001F0A37403F0A3743FF0EF75F00AA424B5
:107F6500D6F582E43403F583E0FBA3E0FAA3E0F958
:107F7500EF75F00AA424DCF582E43403F583EBF015
:107F8500A3EAF0A3E9F0EF75F00AA424DFF582E493
:107F95003403F583E4F0FE7FA0FD7B017A0279A02E
:107FA50012515A900C7A7403F002803E900C74E0E2
:107FB500FF6404600302807FEF75F00AA424D6F500
:107FC50082E43403F5837401F0A37403F0A37440D1
:107FD500F0EF75F00AA424D9F582E43403F583742F
:107FE50001F0A37403F0A374DFF0EF75F00AA42485
:107FF500D6F582E43403F583E0FBA3E0FAA3E0F9C8
:10800500EF75F00AA424DCF582E43403F583EBF084
:10801500A3EAF0A3E9F0EF75F00AA424DFF582E402
:108025003403F583E4F0FE7FA0FD7B017A037940FC
:1080350012515A900C7A7404F0E4FFFEFDFC900C8A
:1080450075E0F8A3E0F9A3E0FAA3E0FBC3125073CF
:108055006028900C75E0FCA3E0FDA3E0FEA3E0FF23
:10806500900C7B1250D7900C817401F0900C74E049
:0A807500FF7B017A0C797912583074
:01807F0022DE
:10808000900CA7EBF0A3EAF0A3E9F0900CA6EFF0B8
:10809000E4900CACF0A3F0A3F0A3F0EF600A900C16
:1080A000A6E0FBC394054004E4FEFF22EB75F00A52
:1080B000A424DCF582E43403F583A3E0FAA3E0AE64
:1080C00002FF900CA6E075F00AA424D9F582E434EE
:1080D00003F583A3E0FAA3E0C39FFFEA9EFEEF242B
:1080E00001FDE43EFC900CA6E0FF75F00AA424DC40
:1080F000F582E43403F583E0FBA3E0FAA3E0F99012
:108100000CB4ECF0A3EDF0129040900CACEEF0A3A8
:10811000EFF0900CA6E0FF75F00AA424DCF582E4F1
:108120003403F583E0FBA3E0FAA3E0F9900CACE0A4
:10813000FCA3E0FDE92DF9EA3CFAEF75F00AA4246E
:10814000DCF582E43403F583EBF0A3EAF0A3E9F075
:10815000900CA6E0FF75F00AA424D6F582E434035F
:10816000F583A3E0FAA3E0AC02FDEF75F00AA424C6
:10817000DCF582E43403F583A3E0FAA3E0C39DFEBB
:10818000EA9C900CACF0A3CEF0900CA6E0FF75F04A
:108190000AA424D9F582E43403F583E0FBA3E0FAD2
:1081A000A3E0F9C003C002C001EF75F00AA424DC0B
:1081B000F582E43403F583A3E0FAA3E0F9C3D082A7
:1081C000D083D0E0E99582EA9583401B12A4DA7B44
:1081D000FF7AA879DB900CA6E0900CB3F012635BF9
:1081E000E4900CACF0A3F0900CAAE0FEA3E0FFC377
:1081F000900CADE09F900CACE09E5003028281EEAB
:10820000F0A3EFF07BFF7AA97914900CA6E0900C14
:10821000B3F012635BE4900CAEF0A3F0900CAAE014
:10822000FEA3E0FF900CAEE0FCA3E0FDC39FEC9E3C
:108230005045900CA6E075F00AA424D6F582E434EB
:1082400003F583E0FBA3E0FAA3E0F98D828C8312AF
:108250004DDEFF900CA7E0FBA3E475F001124EBCCD
:10826000A9F0FAEF124E60900CAFE004F0700690A7
:108270000CAEE004F080A5900CA6E0FF12A4DA801A
:1082800060E4900CAEF0A3F0900CACE0FEA3E0FF35
:10829000A3E0FCA3E0FDC39FEC9E5045900CA6E03C
:1082A00075F00AA424D6F582E43403F583E0FBA339
:1082B000E0FAA3E0F98D828C83124DDEFF900CA7CB
:1082C000E0FBA3E475F001124EBCA9F0FAEF124EE8
:1082D00060900CAFE004F07006900CAEE004F0800B
:1082E000A7900CA7E0FBA3E0FAA3E0F9E4124E602C
:0882F000900CACE0FEA3E0FFDE
:0182F8002263
:10855900900C91EBF0A3EAF0A3E9F0900C90EFF006
:10856900E4900C9AF0A3F0F9A3C9F0A3F0A3E9F001
:10857900A3E4F0A3F0A3F0F9A3C9F0A3F0A3E9F0F1
:10858900E4A3F0EF600A900C90E0FDC39405400469
:10859900E4FEFF22AF05900C91E0FBA3E0FAA3E013
:1085A900F9A3E0FDA3E0900CAACDF0A3EDF01280B1
:1085B90080900C9AEEF0FCA3EFF0FD900C96E0F998
:1085C900A3E0FAA3E0900CABC9F0A3EAF0A3E9F0A9
:1085D900900C99E0FF900CAEE4F0A3EFF0900C91B1
:1085E900E0FBA3E0FAA3E0F91294E1900CA2EBF00E
:1085F900A3EAF0A3E9F0900CA2E0FBA3E0FAA3E060
:108609004A4B7022900C94E0FEA3E0FF7D00900C91
:1086190091E0FBA3E0FAA3E0F912515AE4900C9A15
:10862900F0A3F0FFFE22900C96E0FBA3E0FAA3E092
:10863900F9A3E0FF7E00E92FF9EE3AFA90FFFF1265
:108649004DDEB40A1B900CA2E0FBA3E0FAA3E024E0
:1086590001F9E43AFA900CA2EBF0A3EAF0A3E9F0ED
:10866900900C91A3E0FAA3E0AE02FF900CA2E0FB0C
:10867900A3E0FAA3E0F9C39FFFEA9E900C9AF0A346
:10868900EFF0900C9AE0FEA3E0FFC3900C95E09FF9
:10869900FF900C94E09EFE7D0012515A900C90E0E0
:1086A90075F00AA424D6F582E43403F583E0F9A32E
:1086B900E0FAA3E0900C9FC9F0A3EAF0A3E9F090D7
:1086C9000C9FE0FBA3E0FAA3E0F9900C9AE0FEA36B
:1086D900E0FFE92FF9EA3EFAA3EBF0A3EAF0A3E9F8
:1086E900F0900C90E0FF75F00AA424DCF582E434E4
:1086F90003F583E0FBA3E0FAA3E0F9C003C002C0DD
:1087090001900C9CA3E0FAA3E0F9C3D082D083D0F6
:10871900E0E99582EA9583502A900C9CE0FBA3E45A
:1087290075F001124EBCA9F0FA124DC5FE900C9FCE
:10873900E0FBA3E475F001124EBCA9F0FAEE124E6B
:1087490060809EEF75F00AA424D9F582E43403F51C
:1087590083A3E0FAA3E0AE02FF900C9FE0FBA3E045
:10876900FAA3E0F9FDC3EF9DFFEE9ACF2401CF34C0
:1087790000FE7D0012515A900C9FE0FBA3E0FAA382
:10878900E0F9900C90E075F00AA424DCF582E43459
:1087990003F583EBF0A3EAF0A3E9F0900C9AE0FE6D
:0387A900A3E0FF4B
:0187AC0022AA
:05A4DA00900CB0EFF052
:10A4DF00EF700302A576E0FFC39405400302A57653
:10A4EF00EF75F00AA424D6F582E43403F583A3E0D4
:10A4FF00FAA3E0AE02FF900CB0E075F00AA424D9E5
:10A50F00F582E43403F583A3E0FAA3E0C39FFFEAE7
:10A51F009ECF2401CF3400FCFE7D00900CB0E0757F
:10A52F00F00AA424D6F582E43403F583E0FBA3E01C
:10A53F00FAA3E0F912515A900CB0E0FF75F00AA49B
:10A54F0024D6F582E43403F583E0FBA3E0FAA3E01D
:10A55F00F9EF75F00AA424DCF582E43403F583EBFC
:07A56F00F0A3EAF0A3E9F0FC
:01A5760022C2
:10004600EFB401063099FDC29922EFB40209E59A90
:1000560030E1FB539AFD22EFB40312E5AC30E10424
:100066007E0180027E00EE60F253ACFD22EFB40406
:1000760011E58430E1047F0180027F00EF60F253D6
:0300860084FD22D4
:10ACE400EF6027C394055022EF24FE600E14600F1A
:10ACF400146010240370108D99800C8D9B80088D36
:0BAD0400AD8004AE058E8512004622D3
:0EAA8000900C74EFF0A3EBF0A3EAF0A3E9F062
:10AA8E00E4900C7AF0A3F0900C7AF0A3F0900C788E
:10AA9E00E0FEA3E0FFC3900C7BE09F900C7AE09E5B
:10AAAE00502A900C74E0FFA3E0FBA3E475F00112B2
:10AABE004EBCA9F0FA124DC5FD12ACE4900C7BE031
:0CAACE0004F070C9900C7AE004F080C124
:01AADA002259
:0B97A400900C71EBF0A3EAF0A3E9F0D9
:1097AF00E4900C79F0A3F0787B7C0C7D017BFF7A41
:1097BF00A9794BFE7F03124D9F900C7E742DF0E420
:1097CF00900C79F0A3F0900C78E024FFFF900C77C9
:1097DF00E034FFFEC3900C7AE09F900C79E09E502E
:1097EF0078900CB374FFF0A374A9F0A37440F090B9
:1097FF000C71E0FBA3E475F001124EBCA9F0FA1254
:10980F004DC5900CB6F07B017A0C797B12635590A5
:10981F000C827401F0A3740CF0A3747BF0900C74A1
:10982F00E0FBA3E0FAA3E0F912A9B9900C7EE0FFE8
:10983F00900C7BE0FEEF6EFF900C7EF0900C7CE0C6
:10984F006F900C7EF0900C7AE004F060030297D5D5
:10985F00900C79E004F00297D5900C8274FFF0A37E
:10986F0074A9F0A37446F0900C74E0FBA3E0FAA384
:10987F00E0F912A9B9900CB374FFF0A374A9F0A387
:10988F007440F0900C7EE0900CB6F07B017A0C796E
:10989F007B126355900C827401F0A3740CF0A374C7
:1098AF007BF0900C74E0FBA3E0FAA3E0F912A9B9E6
:1098BF00900C8274FFF0A374A9F0A37448F0900C7D
:0C98CF0074E0FBA3E0FAA3E0F902A9B9E1
:1082F90061AB0AB8000000000000000000000000A7
:108309000000000000000000000000000000000064
:108319000000000000000000000000000000000054
:108329000000000000000000000000000000000044
:108339000000000000000000000000000000000034
:108349000000000000000000000000000000000024
:108359000000000000000000000000000000000014
:108369000000000000000000000000000000000004
:1083790000000000000000000000000000000000F4
:1083890000000000000000000000000000000000E4
:1083990000000000000000000000000000000000D4
:1083A90000000000000000000000000000000000C4
:1083B90000000000000000000000000000000000B4
:1083C90000000000000000000000000000000000A4
:1083D9000000000000000000000000000000000094
:1083E9000000000000000000000000000000000084
:1083F9000000000000000000000000000000000074
:108409000000000000000000000000000000000063
:108419000000000000000000000000000000000053
:108429000000000000000000000000000000000043
:108439000000000000000000000000000000000033
:108449000000000000000000000000000000000023
:108459000000000000000000000000000000000013
:108469000000000000000000000000000000000003
:1084790000000000000000000000000000000000F3
:1084890000000000000000000000000000000000E3
:108499000000000000000000000000000000004390
:0584A9000AB5010AB84C
:1020C7007F017E0012AE00900AB5E0FBA3E0FAA301
:1020D700E0F9EF124E607F027E0012AE00900AB563
:1020E700E0FBA3E0FAA3E0F9900001EF124E727F44
:1020F700037E0012AE00900AB5E0FBA3E0FAA3E06E
:10210700F9900003EF124E727F047E0012AE00902A
:102117000AB5E0FBA3E0FAA3E0F9900004EF124E42
:10212700727F147E0012AE00900AB5E0FBA3E0FABE
:10213700A3E0F9900005EF124E727F057E0012AE04
:1021470000900AB5E0FBA3E0FAA3E0F9900006EFE0
:10215700124E727F067E0012AE00900AB5E0FBA316
:10216700E0FAA3E0F9900007EF124E727F077E00B6
:1021770012AE00900AB5E0FBA3E0FAA3E0F99000E5
:1021870009EF124E727F087E0012AE00900AB5E08A
:10219700FBA3E0FAA3E0F990000AEF124E727F0961
:1021A7007E0012AE00900AB5E0FBA3E0FAA3E0F9C7
:1021B70090000CEF124E727F0E7E0012AE00900A56
:1021C700B5E0FBA3E0FAA3E0F990000DEF124E7221
:1021D7007F0A7E0012AE00900AB5E0FBA3E0FAA3E7
:1021E700E0F990000FEF124E727F0E7E0012AE00E4
:1021F700900AB5E0FBA3E0FAA3E0F9900010EF1214
:102207004E727F0B7E0012AE00900AB5E0FBA3E092
:10221700FAA3E0F9900012EF124E727F0E7E0012C1
:10222700AE00900AB5E0FBA3E0FAA3E0F990001333
:10223700EF124E727F0C7E0012AE00900AB5E0FBE3
:10224700A3E0FAA3E0F9900015EF124E727F0E7E1D
:102257000012AE00900AB5E0FBA3E0FAA3E0F99004
:102267000016EF124E727F0D7E0012AE00900AB577
:10227700E0FBA3E0FAA3E0F9900018EF124E727F9B
:102287000E7E0012AE00900AB5E0FBA3E0FAA3E0D1
:10229700F9900019EF124E727F0F7E0012AE009078
:1022A7000AB5E0FBA3E0FAA3E0F990001BEF124E9A
:1022B700727F107E0012AE00900AB5E0FBA3E0FA31
:1022C700A3E0F990001EEF124E727F117E0012AE4E
:1022D70000900AB5E0FBA3E0FAA3E0F990001FEF36
:1022E700124E727F127E0012AE00900AB5E0FBA379
:1022F700E0FAA3E0F9900021EF124E727F137E00FF
:1023070012AE00900AB5E0FBA3E0FAA3E0F9900053
:1023170022EF124E727F207E0012AE00900AB5E0C7
:10232700FBA3E0FAA3E0F9900024EF124E727F219D
:102337007E0012AE00900AB5E0FBA3E0FAA3E0F935
:10234700900025EF124E727F227E0012AE00900A97
:10235700B5E0FBA3E0FAA3E0F9900026EF124E7276
:102367007F237E0012AE00900AB5E0FBA3E0FAA33C
:10237700E0F9900027EF124E727F247E0012AE0024
:10238700900AB5E0FBA3E0FAA3E0F9900028EF126A
:102397004E727F287E0012AE00900AB5E0FBA3E0E4
:1023A700FAA3E0F990002BEF124E727F297E0012FC
:1023B700AE00900AB5E0FBA3E0FAA3E0F990002C89
:1023C700EF124E727F2A7E0012AE00900AB5E0FB34
:1023D700A3E0FAA3E0F990002DEF124E727F2B7E57
:1023E7000012AE00900AB5E0FBA3E0FAA3E0F99073
:1023F700002EEF124E727F2C7E0012AE00900AB5AF
:10240700E0FBA3E0FAA3E0F990002FEF124E727FF2
:10241700307E0012AE00900AB5E0FBA3E0FAA3E01D
:10242700F9900032EF124E727F317E0012AE0090AB
:102437000AB5E0FBA3E0FAA3E0F9900033EF124EF0
:10244700727F327E0012AE00900AB5E0FBA3E0FA7D
:10245700A3E0F9900034EF124E727F337E0012AE84
:1024670000900AB5E0FBA3E0FAA3E0F9900035EF8E
:10247700124E727F347E0012AE00900AB5E0FBA3C5
:10248700E0FAA3E0F9900036EF124E727F387E0033
:1024970012AE00900AB5E0FBA3E0FAA3E0F99000C2
:1024A70039EF124E727F397E0012AE00900AB5E006
:1024B700FBA3E0FAA3E0F990003AEF124E727F3ADD
:1024C7007E0012AE00900AB5E0FBA3E0FAA3E0F9A4
:1024D70090003BEF124E727F3B7E0012AE00900AD7
:1024E700B5E0FBA3E0FAA3E0F990003CEF124E72CF
:1024F7007F3C7E0012AE00900AB5E0FBA3E0FAA392
:10250700E0F990003DEF124E727F407E0012AE0060
:10251700900AB5E0FBA3E0FAA3E0F9900040EF12C0
:102527004E727F417E0012AE00900AB5E0FBA3E039
:10253700FAA3E0F9900041EF124E727F427E00123B
:10254700AE00900AB5E0FBA3E0FAA3E0F9900042E1
:10255700EF124E727F437E0012AE00900AB5E0FB89
:10256700A3E0FAA3E0F9900043EF124E727F447E96
:102577000012AE00900AB5E0FBA3E0FAA3E0F990E1
:102587000044EF124E727F487E0012AE00900AB5EB
:10259700E0FBA3E0FAA3E0F9900047EF124E727F49
:1025A700497E0012AE00900AB5E0FBA3E0FAA3E073
:1025B700F9900048EF124E727F4A7E0012AE0090EB
:1025C7000AB5E0FBA3E0FAA3E0F9900049EF124E49
:1025D700727F4B7E0012AE00900AB5E0FBA3E0FAD3
:1025E700A3E0F990004AEF124E727F4C7E0012AEC4
:1025F70000900AB5E0FBA3E0FAA3E0F990004BEFE7
:10260700124E727F507E0012AE00900AB5E0FBA317
:10261700E0FAA3E0F990004EEF124E727F517E0070
:1026270012AE00900AB5E0FBA3E0FAA3E0F9900030
:102637004FEF124E727F527E0012AE00900AB5E045
:10264700FBA3E0FAA3E0F9900050EF124E727F531C
:102657007E0012AE00900AB5E0FBA3E0FAA3E0F912
:10266700900051EF124E727F547E0012AE00900A16
:10267700B5E0FBA3E0FAA3E0F9900052EF124E7227
:102687007F587E0012AE00900AB5E0FBA3E0FAA3E4
:10269700E0F9900055EF124E727F597E0012AE009E
:1026A700900AB5E0FBA3E0FAA3E0F9900056EF1219
:1026B7004E727F5A7E0012AE00900AB5E0FBA3E08F
:1026C700FAA3E0F9900057EF124E727F5B7E00127B
:1026D700AE00900AB5E0FBA3E0FAA3E0F99000583A
:1026E700EF124E727F5C7E0012AE00900AB5E0FBDF
:1026F700A3E0FAA3E0F9900059EF124E727F607ED3
:102707000012AE00900AB5E0FBA3E0FAA3E0F9904F
:10271700005CEF124E727F617E0012AE00900AB528
:10272700E0FBA3E0FAA3E0F990005DEF124E727FA1
:10273700627E0012AE00900AB5E0FBA3E0FAA3E0C8
:10274700F990005EEF124E727F637E0012AE00902A
:102757000AB5E0FBA3E0FAA3E0F990005FEF124EA1
:10276700727F647E0012AE00900AB5E0FBA3E0FA28
:10277700A3E0F9900060EF124E727F687E0012AE00
:1027870000900AB5E0FBA3E0FAA3E0F9900063EF3D
:10279700124E727F697E0012AE00900AB5E0FBA36D
:1027A700E0FAA3E0F9900064EF124E727F6A7E00B0
:1027B70012AE00900AB5E0FBA3E0FAA3E0F990009F
:1027C70065EF124E727F6B7E0012AE00900AB5E085
:1027D700FBA3E0FAA3E0F9900066EF124E727F6C5C
:1027E7007E0012AE00900AB5E0FBA3E0FAA3E0F981
:1027F700900067EF124E727F707E0012AE00900A53
:10280700B5E0FBA3E0FAA3E0F990006AEF124E727D
:102817007F717E0012AE00900AB5E0FBA3E0FAA339
:10282700E0F990006BEF124E727F727E0012AE00DD
:10283700900AB5E0FBA3E0FAA3E0F990006CEF1271
:102847004E727F737E0012AE00900AB5E0FBA3E0E4
:10285700FAA3E0F990006DEF124E727F747E0012BA
:10286700AE00900AB5E0FBA3E0FAA3E0F990006E92
:10287700EF124E727F787E0012AE00900AB5E0FB31
:10288700A3E0FAA3E0F9900071EF124E727F797E10
:102897000012AE00900AB5E0FBA3E0FAA3E0F990BE
:1028A7000072EF124E727F7A7E0012AE00900AB568
:1028B700E0FBA3E0FAA3E0F9900073EF124E727FFA
:1028C7007B7E0012AE00900AB5E0FBA3E0FAA3E01E
:1028D700F9900074EF124E727F7C7E0012AE00906A
:1028E7000AB5E0FBA3E0FAA3E0F9900075EF124EFA
:1028F700727F807E0012AE00900AB5E0FBA3E0FA7B
:10290700A3E0F9900078EF124E727F817E0012AE3D
:1029170000900AB5E0FBA3E0FAA3E0F9900079EF95
:10292700124E727F827E0012AE00900AB5E0FBA3C2
:10293700E0FAA3E0F990007AEF124E727F837E00EF
:1029470012AE00900AB5E0FBA3E0FAA3E0F990000D
:102957007BEF124E727F847E0012AE00900AB5E0C4
:10296700FBA3E0FAA3E0F990007CEF124E727F8898
:102977007E0012AE00900AB5E0FBA3E0FAA3E0F9EF
:1029870090007FEF124E727F897E0012AE00900A90
:10299700B5E0FBA3E0FAA3E0F9900080EF124E72D6
:1029A7007F8A7E0012AE00900AB5E0FBA3E0FAA38F
:1029B700E0F9900081EF124E727F8B7E0012AE001D
:1029C700900AB5E0FBA3E0FAA3E0F9900082EF12CA
:1029D7004E727F8C7E0012AE00900AB5E0FBA3E03A
:1029E700FAA3E0F9900083EF124E727F907E0012F7
:1029F700AE00900AB5E0FBA3E0FAA3E0F9900086E9
:102A0700EF124E727F917E0012AE00900AB5E0FB86
:102A1700A3E0FAA3E0F9900087EF124E727F927E4F
:102A27000012AE00900AB5E0FBA3E0FAA3E0F9902C
:102A37000088EF124E727F937E0012AE00900AB5A7
:102A4700E0FBA3E0FAA3E0F9900089EF124E727F52
:102A5700947E0012AE00900AB5E0FBA3E0FAA3E073
:102A6700F990008AEF124E727F987E0012AE0090A6
:102A77000AB5E0FBA3E0FAA3E0F99000E7EF124EF6
:102A8700727FA07E0012AE00900AB5E0FBA3E0FAC9
:102A9700A3E0F99000E8EF124E727FA87E0012AE15
:102AA70000900AB5E0FBA3E0FAA3E0F99000E9EF94
:102AB700124E727FB07E0012AE00900AB5E0FBA303
:102AC700E0FAA3E0F99000EAEF124E727FB57E00BC
:102AD70012AE00900AB5E0FBA3E0FAA3E0F990007C
:102AE700EBEF124E727F997E0012AE00900AB5E0AE
:102AF700FBA3E0FAA3E0F99000EDEF124E727F9A84
:102B07007E0012AE00900AB5E0FBA3E0FAA3E0F95D
:102B17009000EEEF124E727F9B7E0012AE00900A7D
:102B2700B5E0FBA3E0FAA3E0F99000EFEF124E72D5
:102B37007F9D7E0012AE00900AB5E0FBA3E0FAA3EA
:102B4700E0F99000FAEF124E727FA47E0012AE00F9
:102B5700900AB5E0FBA3E0FAA3E0F99000FBEF12BF
:102B67004E727FAC7E0012AE00900AB5E0FBA3E088
:102B7700FAA3E0F99000FCEF124E727FB47E0012C8
:102B8700AE00900AB5E0FBA3E0FAA3E0F99000FDE0
:102B9700EF124E727FB67E0012AE00900AB5E0FBD0
:102BA700A3E0FAA3E0F99000FEEF124E727FB77E22
:102BB7000012AE00900AB5E0FBA3E0FAA3E0F9909B
:102BC70000FFEF124E727FB37E0012AE00900AB57F
:102BD700E0FBA3E0FAA3E0F9900100EF124E727F49
:102BE7009C7E0012AE00900AB5E0FBA3E0FAA3E0DA
:102BF700F99000F0EF124E727FB87E0012AE00908F
:102C07000AB5E0FBA3E0FAA3E0F990008DEF124EBE
:102C1700727FB97E0012AE00900AB5E0FBA3E0FA1E
:102C2700A3E0F990008EEF124E727FBA7E0012AECB
:102C370000900AB5E0FBA3E0FAA3E0F990008FEF5C
:102C4700124E727FBB7E0012AE00900AB5E0FBA366
:102C5700E0FAA3E0F9900090EF124E727FBC7E007D
:102C670012AE00900AB5E0FBA3E0FAA3E0F99000EA
:102C770091EF124E727FC07E0012AE00900AB5E04F
:102C8700FBA3E0FAA3E0F9900094EF124E727FC124
:102C97007E0012AE00900AB5E0FBA3E0FAA3E0F9CC
:102CA700900095EF124E727FC27E0012AE00900A1E
:102CB700B5E0FBA3E0FAA3E0F9900096EF124E729D
:102CC7007FC37E0012AE00900AB5E0FBA3E0FAA333
:102CD700E0F9900097EF124E727FC47E0012AE00AB
:102CE700900AB5E0FBA3E0FAA3E0F9900098EF1291
:102CF7004E727FC87E0012AE00900AB5E0FBA3E0DB
:102D0700FAA3E0F990009BEF124E727FC97E001282
:102D1700AE00900AB5E0FBA3E0FAA3E0F990009CAF
:102D2700EF124E727FCA7E0012AE00900AB5E0FB2A
:102D3700A3E0FAA3E0F990009DEF124E727FCB7EDD
:102D47000012AE00900AB5E0FBA3E0FAA3E0F99009
:102D5700009EEF124E727FCC7E0012AE00900AB535
:102D6700E0FBA3E0FAA3E0F990009FEF124E727F19
:102D7700D07E0012AE00900AB5E0FBA3E0FAA3E014
:102D8700F99000A2EF124E727FD17E0012AE009032
:102D97000AB5E0FBA3E0FAA3E0F99000A3EF124E17
:102DA700727FD27E0012AE00900AB5E0FBA3E0FA74
:102DB700A3E0F99000A4EF124E727FD37E0012AE0B
:102DC70000900AB5E0FBA3E0FAA3E0F99000A5EFB5
:102DD700124E727FD47E0012AE00900AB5E0FBA3BC
:102DE700E0FAA3E0F99000A6EF124E727FD87E00BA
:102DF70012AE00900AB5E0FBA3E0FAA3E0F9900059
:102E0700A9EF124E727FD97E0012AE00900AB5E08C
:102E1700FBA3E0FAA3E0F99000AAEF124E727FDA63
:102E27007E0012AE00900AB5E0FBA3E0FAA3E0F93A
:102E37009000ABEF124E727FDB7E0012AE00900A5D
:102E4700B5E0FBA3E0FAA3E0F99000ACEF124E72F5
:102E57007FDC7E0012AE00900AB5E0FBA3E0FAA388
:102E6700E0F99000ADEF124E727FE07E0012AE00E7
:102E7700900AB5E0FBA3E0FAA3E0F99000B0EF12E7
:102E87004E727FE17E0012AE00900AB5E0FBA3E030
:102E9700FAA3E0F99000B1EF124E727FE27E0012C2
:102EA700AE00900AB5E0FBA3E0FAA3E0F99000B208
:102EB700EF124E727FE37E0012AE00900AB5E0FB80
:102EC700A3E0FAA3E0F99000B3EF124E727FE47E1D
:102ED7000012AE00900AB5E0FBA3E0FAA3E0F99078
:102EE70000B4EF124E727FE87E0012AE00900AB572
:102EF700E0FBA3E0FAA3E0F99000B7EF124E727F70
:102F0700E97E0012AE00900AB5E0FBA3E0FAA3E069
:102F1700F99000B8EF124E727FEA7E0012AE009071
:102F27000AB5E0FBA3E0FAA3E0F99000B9EF124E6F
:102F3700727FEB7E0012AE00900AB5E0FBA3E0FAC9
:102F4700A3E0F99000BAEF124E727FEC7E0012AE4A
:102F570000900AB5E0FBA3E0FAA3E0F99000BBEF0D
:102F6700124E727FF07E0012AE00900AB5E0FBA30E
:102F7700E0FAA3E0F9900101EF124E727FF87E00AC
:102F870012AE00900AB5E0FBA3E0FAA3E0F99001C6
:102F970002EF124E727F007E0112AE00900AB5E07A
:102FA700FBA3E0FAA3E0F9900103EF124E727FF161
:102FB7007E0012AE00900AB5E0FBA3E0FAA3E0F9A9
:102FC700900107EF124E727FF27E0012AE00900A58
:102FD700B5E0FBA3E0FAA3E0F9900108EF124E7207
:102FE7007FF37E0012AE00900AB5E0FBA3E0FAA3E0
:102FF700E0F9900109EF124E727FF47E0012AE00E5
:10300700900AB5E0FBA3E0FAA3E0F990010AEF12FA
:103017004E727F087E0112AE00900AB5E0FBA3E076
:10302700FAA3E0F99000BEEF124E727F097E0112FB
:10303700AE00900AB5E0FBA3E0FAA3E0F99000BF69
:10304700EF124E727F0A7E0112AE00900AB5E0FBC6
:10305700A3E0FAA3E0F99000C0EF124E727F0B7E57
:103067000112AE00900AB5E0FBA3E0FAA3E0F990E5
:1030770000C1EF124E727F0C7E0112AE00900AB5AE
:10308700E0FBA3E0FAA3E0F99000C2EF124E727FD3
:10309700107E0112AE00900AB5E0FBA3E0FAA3E0B0
:1030A700F99000C5EF124E727F117E0112AE0090AB
:1030B7000AB5E0FBA3E0FAA3E0F99000C6EF124ED1
:1030C700727F127E0112AE00900AB5E0FBA3E0FA10
:1030D700A3E0F99000C7EF124E727F137E0112AE84
:1030E70000900AB5E0FBA3E0FAA3E0F99000C8EF6F
:1030F700124E727F147E0112AE00900AB5E0FBA358
:10310700E0FAA3E0F99000C9EF124E727F207E012A
:1031170012AE00900AB5E0FBA3E0FAA3E0F9900035
:10312700D2EF124E727F217E0112AE00900AB5E0F7
:10313700FBA3E0FAA3E0F99000D3EF124E727F22CF
:103147007E0112AE00900AB5E0FBA3E0FAA3E0F916
:103157009000D4EF124E727F237E0112AE00900AC8
:10316700B5E0FBA3E0FAA3E0F99000D5EF124E72A9
:103177007F247E0112AE00900AB5E0FBA3E0FAA31C
:10318700E0F99000D6EF124E727F407E0112AE003A
:10319700900AB5E0FBA3E0FAA3E0F99000D9EF129B
:1031A7004E727F417E0112AE00900AB5E0FBA3E0AC
:1031B700FAA3E0F99000DAEF124E727F427E011215
:1031C700AE00900AB5E0FBA3E0FAA3E0F99000DBBC
:1031D700EF124E727F437E0112AE00900AB5E0FBFC
:1031E700A3E0FAA3E0F99000DCEF124E727F447E71
:1031F7000112AE00900AB5E0FBA3E0FAA3E0F99054
:1032070000DDEF124E727FA87E0112AE00900AB564
:10321700E0FBA3E0FAA3E0F99000E0EF124E727F23
:10322700A97E0112AE00900AB5E0FBA3E0FAA3E085
:10323700F99000E1EF124E727FAA7E0112AE009064
:103247000AB5E0FBA3E0FAA3E0F99000E2EF124E23
:10325700727FAB7E0112AE00900AB5E0FBA3E0FAE5
:10326700A3E0F99000E3EF124E727FAC7E0112AE3D
:1032770000900AB5E0FBA3E0FAA3E0F99000E4EFC1
:10328700124E727FD47E0112AE00900AB5E0FBA306
:10329700E0FAA3E0F99000CCEF124E727FD07E01E6
:1032A70012AE00900AB5E0FBA3E0FAA3E0F99000A4
:1032B700CDEF124E727FD57E0112AE00900AB5E0B7
:1032C700FBA3E0FAA3E0F99000CEEF124E727FD194
:1032D7007E0112AE00900AB5E0FBA3E0FAA3E0F985
:1032E7009000CFEF124E727FD27E0112AE00900A8D
:1032F700B5E0FBA3E0FAA3E0F99000D0EF124E721D
:103307007FD37E0112AE00900AB5E0FBA3E0FAA3DB
:10331700E0F99000D1EF124E727F387E0112AE00B5
:10332700900AB5E0FBA3E0FAA3E0F990011BEF12C6
:103337004E727F397E0112AE00900AB5E0FBA3E022
:10334700FAA3E0F990011CEF124E727F3A7E011248
:10335700AE00900AB5E0FBA3E0FAA3E0F990011DE7
:10336700EF124E727F3B7E0112AE00900AB5E0FB72
:10337700A3E0FAA3E0F990011EEF124E727F3C7EA4
:103387000112AE00900AB5E0FBA3E0FAA3E0F990C2
:10339700011FEF124E727F3D7E0112AE00900AB5FB
:1033A700E0FBA3E0FAA3E0F9900120EF124E727F51
:1033B7003E7E0112AE00900AB5E0FBA3E0FAA3E05F
:1033C700F9900121EF124E727F3F7E0112AE0090FD
:1033D7000AB5E0FBA3E0FAA3E0F9900122EF124E51
:1033E700727F367E0112AE00900AB5E0FBA3E0FAC9
:1033F700A3E0F9900123EF124E727F377E0112AEE0
:1034070000900AB5E0FBA3E0FAA3E0F9900124EFEE
:10341700124E727FFB7E0112AE00900AB5E0FBA34D
:10342700E0FAA3E0F9900138EF124E727FFC7E01BB
:1034370012AE00900AB5E0FBA3E0FAA3E0F9900111
:1034470037EF124E727FFD7E0112AE00900AB5E093
:10345700FBA3E0FAA3E0F9900135EF124E727FFE6D
:103467007E0112AE00900AB5E0FBA3E0FAA3E0F9F3
:10347700900136EF124E727F487E0112AE00900A1D
:10348700B5E0FBA3E0FAA3E0F9900139EF124E7221
:103497007F497E0112AE00900AB5E0FBA3E0FAA3D4
:1034A700E0F990013AEF124E727F4A7E0112AE00A8
:1034B700900AB5E0FBA3E0FAA3E0F990013BEF1215
:1034C7004E727F4B7E0112AE00900AB5E0FBA3E07F
:1034D700FAA3E0F990013CEF124E727F4C7E011285
:1034E700AE00900AB5E0FBA3E0FAA3E0F990013D36
:1034F700EF124E727F507E0112AE00900AB5E0FBCC
:10350700A3E0FAA3E0F9900140EF124E727F517EDB
:103517000112AE00900AB5E0FBA3E0FAA3E0F99030
:103527000141EF124E727F527E0112AE00900AB532
:10353700E0FBA3E0FAA3E0F9900142EF124E727F9D
:10354700537E0112AE00900AB5E0FBA3E0FAA3E0B8
:10355700F9900143EF124E727F547E0112AE009034
:103567000AB5E0FBA3E0FAA3E0F9900144EF124E9D
:10357700727F587E0112AE00900AB5E0FBA3E0FA15
:10358700A3E0F9900147EF124E727F597E0112AE08
:1035970000900AB5E0FBA3E0FAA3E0F9900148EF39
:1035A700124E727F5A7E0112AE00900AB5E0FBA35D
:1035B700E0FAA3E0F9900149EF124E727F5B7E01BA
:1035C70012AE00900AB5E0FBA3E0FAA3E0F9900180
:1035D7004AEF124E727F5C7E0112AE00900AB5E090
:1035E700FBA3E0FAA3E0F990014BEF124E727F6064
:1035F7007E0112AE00900AB5E0FBA3E0FAA3E0F962
:1036070090014EEF124E727F617E0112AE00900A5A
:10361700B5E0FBA3E0FAA3E0F990014FEF124E7279
:103627007F627E0112AE00900AB5E0FBA3E0FAA329
:10363700E0F9900150EF124E727F637E0112AE00E7
:10364700900AB5E0FBA3E0FAA3E0F9900151EF126D
:103657004E727F647E0112AE00900AB5E0FBA3E0D4
:10366700FAA3E0F9900152EF124E727F687E0112C1
:10367700AE00900AB5E0FBA3E0FAA3E0F99001558C
:10368700EF124E727F697E0112AE00900AB5E0FB21
:10369700A3E0FAA3E0F9900156EF124E727F6A7E1B
:1036A7000112AE00900AB5E0FBA3E0FAA3E0F9909F
:1036B7000157EF124E727F6B7E0112AE00900AB572
:1036C700E0FBA3E0FAA3E0F9900158EF124E727FF6
:1036D7006C7E0112AE00900AB5E0FBA3E0FAA3E00E
:1036E700F9900159EF124E727F707E0112AE009071
:1036F7000AB5E0FBA3E0FAA3E0F990015CEF124EF4
:10370700727F717E0112AE00900AB5E0FBA3E0FA6A
:10371700A3E0F990015DEF124E727F727E0112AE47
:1037270000900AB5E0FBA3E0FAA3E0F990015EEF91
:10373700124E727F737E0112AE00900AB5E0FBA3B2
:10374700E0FAA3E0F990015FEF124E727F747E01F9
:1037570012AE00900AB5E0FBA3E0FAA3E0F99001EE
:1037670060EF124E727F807E0112AE00900AB5E0C4
:10377700FBA3E0FAA3E0F990016AEF124E727F8192
:103787007E0112AE00900AB5E0FBA3E0FAA3E0F9D0
:1037970090016BEF124E727F827E0112AE00900A8B
:1037A700B5E0FBA3E0FAA3E0F990016CEF124E72CB
:1037B7007F837E0112AE00900AB5E0FBA3E0FAA377
:1037C700E0F990016DEF124E727F847E0112AE0018
:1037D700900AB5E0FBA3E0FAA3E0F9900172EF12BB
:1037E7004E727F857E0112AE00900AB5E0FBA3E022
:1037F700FAA3E0F9900173EF124E727F867E0112F1
:10380700AE00900AB5E0FBA3E0FAA3E0F9900174DB
:10381700EF124E727F877E0112AE00900AB5E0FB71
:10382700A3E0FAA3E0F9900175EF124E727F887E4C
:103837000112AE00900AB5E0FBA3E0FAA3E0F9900D
:10384700017AEF124E727F897E0112AE00900AB59F
:10385700E0FBA3E0FAA3E0F990017BEF124E727F41
:103867008A7E0112AE00900AB5E0FBA3E0FAA3E05E
:10387700F990017CEF124E727F8B7E0112AE0090A1
:103887000AB5E0FBA3E0FAA3E0F990017DEF124E41
:10389700727F8C7E0112AE00900AB5E0FBA3E0FABE
:1038A700A3E0F9900182EF124E727F8D7E0112AE76
:1038B70000900AB5E0FBA3E0FAA3E0F9900183EFDB
:1038C700124E727F8E7E0112AE00900AB5E0FBA306
:1038D700E0FAA3E0F9900184EF124E727F8F7E0128
:1038E70012AE00900AB5E0FBA3E0FAA3E0F990015D
:1038F70085EF124E727F907E0112AE00900AB5E0FE
:10390700FBA3E0FAA3E0F9900163EF124E727F91F7
:103917007E0112AE00900AB5E0FBA3E0FAA3E0F93E
:10392700900164EF124E727F927E0112AE00900AF0
:10393700B5E0FBA3E0FAA3E0F9900165EF124E7240
:103947007F937E0112AE00900AB5E0FBA3E0FAA3D5
:10395700E0F9900166EF124E727F947E0112AE007D
:10396700900AB5E0FBA3E0FAA3E0F9900167EF1234
:103977004E727F987E0112AE00900AB5E0FBA3E07D
:10398700FAA3E0F990018AEF124E727F997E011235
:10399700AE00900AB5E0FBA3E0FAA3E0F990018B33
:1039A700EF124E727F9A7E0112AE00900AB5E0FBCD
:1039B700A3E0FAA3E0F990018CEF124E727F9B7E91
:1039C7000112AE00900AB5E0FBA3E0FAA3E0F9907C
:1039D700018DEF124E727F9C7E0112AE00900AB5E8
:1039E700E0FBA3E0FAA3E0F9900192EF124E727F99
:1039F7009D7E0112AE00900AB5E0FBA3E0FAA3E0BA
:103A0700F9900193EF124E727F9E7E0112AE0090E5
:103A17000AB5E0FBA3E0FAA3E0F9900194EF124E98
:103A2700727F9F7E0112AE00900AB5E0FBA3E0FA19
:103A3700A3E0F9900195EF124E727FA07E0112AEBE
:103A470000900AB5E0FBA3E0FAA3E0F990019AEF32
:103A5700124E727FA17E0112AE00900AB5E0FBA361
:103A6700E0FAA3E0F990019BEF124E727FA27E016C
:103A770012AE00900AB5E0FBA3E0FAA3E0F99001CB
:103A87009CEF124E727FA37E0112AE00900AB5E042
:103A9700FBA3E0FAA3E0F990019DEF124E727FA419
:103AA7007E0112AE00900AB5E0FBA3E0FAA3E0F9AD
:103AB7009001A2EF124E727FA57E0112AE00900A0E
:103AC700B5E0FBA3E0FAA3E0F99001A3EF124E7271
:103AD7007FA67E0112AE00900AB5E0FBA3E0FAA331
:103AE700E0F99001A4EF124E727FA77E0112AE009B
:103AF700900AB5E0FBA3E0FAA3E0F99001A5EF1265
:103B07004E727FD87E0112AE00900AB5E0FBA3E0AB
:0B3B1700FAA3E0F99001AAEF024E7241
:10009600900C74EEF0A3EFF0A3EDF01220C7900CD5
:1000A60074E0FEA3E0FF12AED1900C74E0FEA3E074
:1000B600FF64014E7005A3E0FD8009900AB8E0FDDB
:1000C6007F017E0012ADE7900C74E0FEA3E0FF64B2
:1000D600024E7005A3E0FD8009900AB9E0FD7F029B
:1000E6007E0012ADE7900C74E0FEA3E0FF64034EC1
:1000F6007005A3E0FD8009900ABBE0FD7F037E004A
:1001060012ADE7900C74E0FEA3E0FF64044E7005A8
:10011600A3E0FD8009900ABCE0FD7F047E0012ADDD
:10012600E7900C74E0FEA3E0FF64144E7005A3E0B4
:10013600FD8009900ABDE0FD7F147E0012ADE790B8
:100146000C74E0FEA3E0FF64054E7005A3E0FD809D
:1001560009900ABEE0FD7F057E0012ADE7900C74A3
:10016600E0FEA3E0FF64064E7005A3E0FD80099063
:100176000ABFE0FD7F067E0012ADE7900C74E0FE3C
:10018600A3E0FF64074E7005A3E0FD8009900AC155
:10019600E0FD7F077E0012ADE7900C74E0FEA3E061
:1001A600FF64084E7005A3E0FD8009900AC2E0FDD9
:1001B6007F087E0012ADE7900C74E0FEA3E0FF64BA
:1001C600094E7005A3E0FD8009900AC4E0FD7F0991
:1001D6007E0012ADE7900C74E0FEA3E0FF640E4EC5
:1001E6007005A3E0FD8009900AC5E0FD7F0E7E0044
:1001F60012ADE7900C74E0FEA3E0FF640A4E7005B2
:10020600A3E0FD8009900AC7E0FD7F0A7E0012ADDB
:10021600E7900C74E0FEA3E0FF640E4E7005A3E0C9
:10022600FD8009900AC8E0FD7F0E7E0012ADE790C2
:100236000C74E0FEA3E0FF640B4E7005A3E0FD80A6
:1002460009900ACAE0FD7F0B7E0012ADE7900C74A0
:10025600E0FEA3E0FF640E4E7005A3E0FD8009906A
:100266000ACBE0FD7F0E7E0012ADE7900C74E0FE37
:10027600A3E0FF640C4E7005A3E0FD8009900ACD53
:10028600E0FD7F0C7E0012ADE7900C74E0FEA3E06B
:10029600FF640E4E7005A3E0FD8009900ACEE0FDD6
:1002A6007F0E7E0012ADE7900C74E0FEA3E0FF64C3
:1002B6000D4E7005A3E0FD8009900AD0E0FD7F0D8C
:1002C6007E0012ADE7900C74E0FEA3E0FF640E4ED4
:1002D6007005A3E0FD8009900AD1E0FD7F0E7E0047
:1002E60012ADE7900C74E0FEA3E0FF640F4E7005BC
:1002F600A3E0FD8009900AD3E0FD7F0F7E0012ADDA
:10030600E7900C74E0FEA3E0FF64104E7005A3E0D6
:10031600FD8009900AD6E0FD7F107E0012ADE790C1
:100326000C74E0FEA3E0FF64114E7005A3E0FD80AF
:1003360009900AD7E0FD7F117E0012ADE7900C749C
:10034600E0FEA3E0FF64124E7005A3E0FD80099075
:100356000AD9E0FD7F127E0012ADE7900C74E0FE34
:10036600A3E0FF64134E7005A3E0FD8009900ADA4E
:10037600E0FD7F137E0012ADE7900C74E0FEA3E073
:10038600FF64204E7005A3E0FD8009900ADCE0FDC5
:100396007F207E0012ADE7900C74E0FEA3E0FF64C0
:1003A600214E7005A3E0FD8009900ADDE0FD7F2166
:1003B6007E0012ADE7900C74E0FEA3E0FF64224ECF
:1003C6007005A3E0FD8009900ADEE0FD7F227E0035
:1003D60012ADE7900C74E0FEA3E0FF64234E7005B7
:1003E600A3E0FD8009900ADFE0FD7F237E0012ADC9
:1003F600E7900C74E0FEA3E0FF64244E7005A3E0D2
:10040600FD8009900AE0E0FD7F247E0012ADE790B2
:100416000C74E0FEA3E0FF64284E7005A3E0FD80A7
:1004260009900AE3E0FD7F287E0012ADE7900C7488
:10043600E0FEA3E0FF64294E7005A3E0FD8009906D
:100446000AE4E0FD7F297E0012ADE7900C74E0FE21
:10045600A3E0FF642A4E7005A3E0FD8009900AE53B
:10046600E0FD7F2A7E0012ADE7900C74E0FEA3E06B
:10047600FF642B4E7005A3E0FD8009900AE6E0FDBF
:100486007F2B7E0012ADE7900C74E0FEA3E0FF64C4
:100496002C4E7005A3E0FD8009900AE7E0FD7F2C55
:1004A6007E0012ADE7900C74E0FEA3E0FF64304ED0
:1004B6007005A3E0FD8009900AEAE0FD7F307E002A
:1004C60012ADE7900C74E0FEA3E0FF64314E7005B8
:1004D600A3E0FD8009900AEBE0FD7F317E0012ADBE
:1004E600E7900C74E0FEA3E0FF64324E7005A3E0D3
:1004F600FD8009900AECE0FD7F327E0012ADE790A8
:100506000C74E0FEA3E0FF64334E7005A3E0FD80AB
:1005160009900AEDE0FD7F337E0012ADE7900C7482
:10052600E0FEA3E0FF64344E7005A3E0FD80099071
:100536000AEEE0FD7F347E0012ADE7900C74E0FE1B
:10054600A3E0FF64384E7005A3E0FD8009900AF130
:10055600E0FD7F387E0012ADE7900C74E0FEA3E06C
:10056600FF64394E7005A3E0FD8009900AF2E0FDB4
:100576007F397E0012ADE7900C74E0FEA3E0FF64C5
:100586003A4E7005A3E0FD8009900AF3E0FD7F3A3C
:100596007E0012ADE7900C74E0FEA3E0FF643B4ED4
:1005A6007005A3E0FD8009900AF4E0FD7F3B7E0024
:1005B60012ADE7900C74E0FEA3E0FF643C4E7005BC
:1005C600A3E0FD8009900AF5E0FD7F3C7E0012ADB8
:1005D600E7900C74E0FEA3E0FF64404E7005A3E0D4
:1005E600FD8009900AF8E0FD7F407E0012ADE7909D
:1005F6000C74E0FEA3E0FF64414E7005A3E0FD80AD
:1006060009900AF9E0FD7F417E0012ADE7900C7477
:10061600E0FEA3E0FF64424E7005A3E0FD80099072
:100626000AFAE0FD7F427E0012ADE7900C74E0FE10
:10063600A3E0FF64434E7005A3E0FD8009900AFB2A
:10064600E0FD7F437E0012ADE7900C74E0FEA3E070
:10065600FF64444E7005A3E0FD8009900AFCE0FDAE
:100666007F447E0012ADE7900C74E0FEA3E0FF64C9
:10067600484E7005A3E0FD8009900AFFE0FD7F4823
:100686007E0012ADE7900C74E0FEA3E0FF64494ED5
:100696007005A3E0FD8009900B00E0FD7F497E0018
:1006A60012ADE7900C74E0FEA3E0FF644A4E7005BD
:1006B600A3E0FD8009900B01E0FD7F4A7E0012ADAC
:1006C600E7900C74E0FEA3E0FF644B4E7005A3E0D8
:1006D600FD8009900B02E0FD7F4B7E0012ADE79096
:1006E6000C74E0FEA3E0FF644C4E7005A3E0FD80B1
:1006F60009900B03E0FD7F4C7E0012ADE7900C7471
:10070600E0FEA3E0FF64504E7005A3E0FD80099073
:100716000B06E0FD7F507E0012ADE7900C74E0FE04
:10072600A3E0FF64514E7005A3E0FD8009900B071E
:10073600E0FD7F517E0012ADE7900C74E0FEA3E071
:10074600FF64524E7005A3E0FD8009900B08E0FDA2
:100756007F527E0012ADE7900C74E0FEA3E0FF64CA
:10076600534E7005A3E0FD8009900B09E0FD7F5311
:100776007E0012ADE7900C74E0FEA3E0FF64544ED9
:100786007005A3E0FD8009900B0AE0FD7F547E0012
:1007960012ADE7900C74E0FEA3E0FF64584E7005BE
:1007A600A3E0FD8009900B0DE0FD7F587E0012ADA1
:1007B600E7900C74E0FEA3E0FF64594E7005A3E0D9
:1007C600FD8009900B0EE0FD7F597E0012ADE7908B
:1007D6000C74E0FEA3E0FF645A4E7005A3E0FD80B2
:1007E60009900B0FE0FD7F5A7E0012ADE7900C7466
:1007F600E0FEA3E0FF645B4E7005A3E0FD80099078
:100806000B10E0FD7F5B7E0012ADE7900C74E0FEFE
:10081600A3E0FF645C4E7005A3E0FD8009900B1118
:10082600E0FD7F5C7E0012ADE7900C74E0FEA3E075
:10083600FF64604E7005A3E0FD8009900B14E0FD97
:100846007F607E0012ADE7900C74E0FEA3E0FF64CB
:10085600614E7005A3E0FD8009900B15E0FD7F61F8
:100866007E0012ADE7900C74E0FEA3E0FF64624EDA
:100876007005A3E0FD8009900B16E0FD7F627E0007
:1008860012ADE7900C74E0FEA3E0FF64634E7005C2
:10089600A3E0FD8009900B17E0FD7F637E0012AD9B
:1008A600E7900C74E0FEA3E0FF64644E7005A3E0DD
:1008B600FD8009900B18E0FD7F647E0012ADE79085
:1008C6000C74E0FEA3E0FF64684E7005A3E0FD80B3
:1008D60009900B1BE0FD7F687E0012ADE7900C745B
:1008E600E0FEA3E0FF64694E7005A3E0FD80099079
:1008F6000B1CE0FD7F697E0012ADE7900C74E0FEF4
:10090600A3E0FF646A4E7005A3E0FD8009900B1D0D
:10091600E0FD7F6A7E0012ADE7900C74E0FEA3E076
:10092600FF646B4E7005A3E0FD8009900B1EE0FD91
:100936007F6B7E0012ADE7900C74E0FEA3E0FF64CF
:100946006C4E7005A3E0FD8009900B1FE0FD7F6CE7
:100956007E0012ADE7900C74E0FEA3E0FF64704EDB
:100966007005A3E0FD8009900B22E0FD7F707E00FC
:1009760012ADE7900C74E0FEA3E0FF64714E7005C3
:10098600A3E0FD8009900B23E0FD7F717E0012AD90
:10099600E7900C74E0FEA3E0FF64724E7005A3E0DE
:1009A600FD8009900B24E0FD7F727E0012ADE7907A
:1009B6000C74E0FEA3E0FF64734E7005A3E0FD80B7
:1009C60009900B25E0FD7F737E0012ADE7900C7455
:1009D600E0FEA3E0FF64744E7005A3E0FD8009907D
:1009E6000B26E0FD7F747E0012ADE7900C74E0FEEE
:1009F600A3E0FF64784E7005A3E0FD8009900B2903
:100A0600E0FD7F787E0012ADE7900C74E0FEA3E077
:100A1600FF64794E7005A3E0FD8009900B2AE0FD86
:100A26007F797E0012ADE7900C74E0FEA3E0FF64D0
:100A36007A4E7005A3E0FD8009900B2BE0FD7F7ACE
:100A46007E0012ADE7900C74E0FEA3E0FF647B4EDF
:100A56007005A3E0FD8009900B2CE0FD7F7B7E00F6
:100A660012ADE7900C74E0FEA3E0FF647C4E7005C7
:100A7600A3E0FD8009900B2DE0FD7F7C7E0012AD8A
:100A8600E7900C74E0FEA3E0FF64804E7005A3E0DF
:100A9600FD8009900B30E0FD7F807E0012ADE7906F
:100AA6000C74E0FEA3E0FF64814E7005A3E0FD80B8
:100AB60009900B31E0FD7F817E0012ADE7900C744A
:100AC600E0FEA3E0FF64824E7005A3E0FD8009907E
:100AD6000B32E0FD7F827E0012ADE7900C74E0FEE3
:100AE600A3E0FF64834E7005A3E0FD8009900B33FD
:100AF600E0FD7F837E0012ADE7900C74E0FEA3E07C
:100B0600FF64844E7005A3E0FD8009900B34E0FD80
:100B16007F847E0012ADE7900C74E0FEA3E0FF64D4
:100B2600884E7005A3E0FD8009900B37E0FD7F88B5
:100B36007E0012ADE7900C74E0FEA3E0FF64894EE0
:100B46007005A3E0FD8009900B38E0FD7F897E00EB
:100B560012ADE7900C74E0FEA3E0FF648A4E7005C8
:100B6600A3E0FD8009900B39E0FD7F8A7E0012AD7F
:100B7600E7900C74E0FEA3E0FF648B4E7005A3E0E3
:100B8600FD8009900B3AE0FD7F8B7E0012ADE79069
:100B96000C74E0FEA3E0FF648C4E7005A3E0FD80BC
:100BA60009900B3BE0FD7F8C7E0012ADE7900C7444
:100BB600E0FEA3E0FF64904E7005A3E0FD8009907F
:100BC6000B3EE0FD7F907E0012ADE7900C74E0FED8
:100BD600A3E0FF64914E7005A3E0FD8009900B3FF2
:100BE600E0FD7F917E0012ADE7900C74E0FEA3E07D
:100BF600FF64924E7005A3E0FD8009900B40E0FD76
:100C06007F927E0012ADE7900C74E0FEA3E0FF64D5
:100C1600934E7005A3E0FD8009900B41E0FD7F93A4
:100C26007E0012ADE7900C74E0FEA3E0FF64944EE4
:100C36007005A3E0FD8009900B42E0FD7F947E00E5
:100C460012ADE7900C74E0FEA3E0FF64984E7005C9
:100C5600A3E0FD8009900B9FE0FD7F987E0012AD1A
:100C6600E7900C74E0FEA3E0FF64A04E7005A3E0DD
:100C7600FD8009900BA0E0FD7FA07E0012ADE790FD
:100C86000C74E0FEA3E0FF64A84E7005A3E0FD80AF
:100C960009900BA1E0FD7FA87E0012ADE7900C74D1
:100CA600E0FEA3E0FF64B04E7005A3E0FD8009906E
:100CB6000BA2E0FD7FB07E0012ADE7900C74E0FE63
:100CC600A3E0FF64B54E7005A3E0FD8009900BA379
:100CD600E0FD7FB57E0012ADE7900C74E0FEA3E068
:100CE600FF64994E7005A3E0FD8009900BA5E0FD19
:100CF6007F997E0012ADE7900C74E0FEA3E0FF64DE
:100D06009A4E7005A3E0FD8009900BA6E0FD7F9A40
:100D16007E0012ADE7900C74E0FEA3E0FF649B4EEC
:100D26007005A3E0FD8009900BA7E0FD7F9B7E0088
:100D360012ADE7900C74E0FEA3E0FF649C4E7005D4
:100D4600A3E0FD8009900BA8E0FD7F9C7E0012AD1C
:100D5600E7900C74E0FEA3E0FF649D4E7005A3E0EF
:100D6600FD8009900BB2E0FD7F9D7E0012ADE790FD
:100D76000C74E0FEA3E0FF64A44E7005A3E0FD80C2
:100D860009900BB3E0FD7FA47E0012ADE7900C74D2
:100D9600E0FEA3E0FF64AC4E7005A3E0FD80099081
:100DA6000BB4E0FD7FAC7E0012ADE7900C74E0FE64
:100DB600A3E0FF64B44E7005A3E0FD8009900BB577
:100DC600E0FD7FB47E0012ADE7900C74E0FEA3E078
:100DD600FF64B64E7005A3E0FD8009900BB6E0FDFA
:100DE6007FB67E0012ADE7900C74E0FEA3E0FF64D0
:100DF600B74E7005A3E0FD8009900BB7E0FD7FB705
:100E06007E0012ADE7900C74E0FEA3E0FF64B34EE3
:100E16007005A3E0FD8009900BB8E0FD7FB37E006E
:100E260012ADE7900C74E0FEA3E0FF64B84E7005C7
:100E3600A3E0FD8009900B45E0FD7FB87E0012AD72
:100E4600E7900C74E0FEA3E0FF64B94E7005A3E0E2
:100E5600FD8009900B46E0FD7FB97E0012ADE7905C
:100E66000C74E0FEA3E0FF64BA4E7005A3E0FD80BB
:100E760009900B47E0FD7FBA7E0012ADE7900C7437
:100E8600E0FEA3E0FF64BB4E7005A3E0FD80099081
:100E96000B48E0FD7FBB7E0012ADE7900C74E0FED0
:100EA600A3E0FF64BC4E7005A3E0FD8009900B49EA
:100EB600E0FD7FBC7E0012ADE7900C74E0FEA3E07F
:100EC600FF64C04E7005A3E0FD8009900B4CE0FD69
:100ED6007FC07E0012ADE7900C74E0FEA3E0FF64D5
:100EE600C14E7005A3E0FD8009900B4DE0FD7FC16A
:100EF6007E0012ADE7900C74E0FEA3E0FF64C24EE4
:100F06007005A3E0FD8009900B4EE0FD7FC27E00D8
:100F160012ADE7900C74E0FEA3E0FF64C34E7005CB
:100F2600A3E0FD8009900B4FE0FD7FC37E0012AD6C
:100F3600E7900C74E0FEA3E0FF64C44E7005A3E0E6
:100F4600FD8009900B50E0FD7FC47E0012ADE79056
:100F56000C74E0FEA3E0FF64C84E7005A3E0FD80BC
:100F660009900B53E0FD7FC87E0012ADE7900C742C
:100F7600E0FEA3E0FF64C94E7005A3E0FD80099082
:100F86000B54E0FD7FC97E0012ADE7900C74E0FEC5
:100F9600A3E0FF64CA4E7005A3E0FD8009900B55DF
:100FA600E0FD7FCA7E0012ADE7900C74E0FEA3E080
:100FB600FF64CB4E7005A3E0FD8009900B56E0FD63
:100FC6007FCB7E0012ADE7900C74E0FEA3E0FF64D9
:100FD600CC4E7005A3E0FD8009900B57E0FD7FCC59
:100FE6007E0012ADE7900C74E0FEA3E0FF64D04EE5
:100FF6007005A3E0FD8009900B5AE0FD7FD07E00CE
:1010060012ADE7900C74E0FEA3E0FF64D14E7005CC
:10101600A3E0FD8009900B5BE0FD7FD17E0012AD61
:10102600E7900C74E0FEA3E0FF64D24E7005A3E0E7
:10103600FD8009900B5CE0FD7FD27E0012ADE7904B
:101046000C74E0FEA3E0FF64D34E7005A3E0FD80C0
:1010560009900B5DE0FD7FD37E0012ADE7900C7426
:10106600E0FEA3E0FF64D44E7005A3E0FD80099086
:101076000B5EE0FD7FD47E0012ADE7900C74E0FEBF
:10108600A3E0FF64D84E7005A3E0FD8009900B61D4
:10109600E0FD7FD87E0012ADE7900C74E0FEA3E081
:1010A600FF64D94E7005A3E0FD8009900B62E0FD58
:1010B6007FD97E0012ADE7900C74E0FEA3E0FF64DA
:1010C600DA4E7005A3E0FD8009900B63E0FD7FDA40
:1010D6007E0012ADE7900C74E0FEA3E0FF64DB4EE9
:1010E6007005A3E0FD8009900B64E0FD7FDB7E00C8
:1010F60012ADE7900C74E0FEA3E0FF64DC4E7005D1
:10110600A3E0FD8009900B65E0FD7FDC7E0012AD5B
:10111600E7900C74E0FEA3E0FF64E04E7005A3E0E8
:10112600FD8009900B68E0FD7FE07E0012ADE79040
:101136000C74E0FEA3E0FF64E14E7005A3E0FD80C1
:1011460009900B69E0FD7FE17E0012ADE7900C741B
:10115600E0FEA3E0FF64E24E7005A3E0FD80099087
:101166000B6AE0FD7FE27E0012ADE7900C74E0FEB4
:10117600A3E0FF64E34E7005A3E0FD8009900B6BCE
:10118600E0FD7FE37E0012ADE7900C74E0FEA3E085
:10119600FF64E44E7005A3E0FD8009900B6CE0FD52
:1011A6007FE47E0012ADE7900C74E0FEA3E0FF64DE
:1011B600E84E7005A3E0FD8009900B6FE0FD7FE827
:1011C6007E0012ADE7900C74E0FEA3E0FF64E94EEA
:1011D6007005A3E0FD8009900B70E0FD7FE97E00BD
:1011E60012ADE7900C74E0FEA3E0FF64EA4E7005D2
:1011F600A3E0FD8009900B71E0FD7FEA7E0012AD51
:10120600E7900C74E0FEA3E0FF64EB4E7005A3E0EC
:10121600FD8009900B72E0FD7FEB7E0012ADE7903A
:101226000C74E0FEA3E0FF64EC4E7005A3E0FD80C5
:1012360009900B73E0FD7FEC7E0012ADE7900C7415
:10124600E0FEA3E0FF64F04E7005A3E0FD80099088
:101256000BB9E0FD7FF07E0012ADE7900C74E0FE66
:10126600A3E0FF64F84E7005A3E0FD8009900BBA79
:10127600E0FD7FF87E0012ADE7900C74E0FEA3E07F
:10128600FFB40009EEB40105A3E0FD8009900BBB95
:10129600E0FD7F007E0112ADE7900C74E0FEA3E056
:1012A600FF64F14E7005A3E0FD8009900BBFE0FDE1
:1012B6007FF17E0012ADE7900C74E0FEA3E0FF64C0
:1012C600F24E7005A3E0FD8009900BC0E0FD7FF2B1
:1012D6007E0012ADE7900C74E0FEA3E0FF64F34ECF
:1012E6007005A3E0FD8009900BC1E0FD7FF37E0051
:1012F60012ADE7900C74E0FEA3E0FF64F44E7005B7
:10130600A3E0FD8009900BC2E0FD7FF47E0012ADE4
:10131600E7900C74E0FEA3E0FFBE0108BF0805A33A
:10132600E0FD8009900B76E0FD7F087E0112ADE7B7
:10133600900C74E0FEA3E0FFBE0108BF0905A3E020
:10134600FD8009900B77E0FD7F097E0112ADE790E5
:101356000C74E0FEA3E0FFBE0108BF0A05A3E0FD92
:101366008009900B78E0FD7F0A7E0112ADE7900CB4
:1013760074E0FEA3E0FFBE0108BF0B05A3E0FD80FD
:1013860009900B79E0FD7F0B7E0112ADE7900C749E
:10139600E0FEA3E0FFBE0108BF0C05A3E0FD800947
:1013A600900B7AE0FD7F0C7E0112ADE7900C74E0A5
:1013B600FEA3E0FFBE0108BF1005A3E0FD80099073
:1013C6000B7DE0FD7F107E0112ADE7900C74E0FE10
:1013D600A3E0FFBE0108BF1105A3E0FD8009900B45
:1013E6007EE0FD7F117E0112ADE7900C74E0FEA356
:1013F600E0FFBE0108BF1205A3E0FD8009900B7F48
:10140600E0FD7F127E0112ADE7900C74E0FEA3E0D2
:10141600FFBE0108BF1305A3E0FD8009900B80E025
:10142600FD7F137E0112ADE7900C74E0FEA3E0FF92
:10143600BE0108BF1405A3E0FD8009900B81E0FD05
:101446007F147E0112ADE7900C74E0FEA3E0FFBEB0
:101456000108BF2005A3E0FD8009900B8AE0FD7F0F
:10146600207E0112ADE7900C74E0FEA3E0FFBE0102
:1014760008BF2105A3E0FD8009900B8BE0FD7F21CD
:101486007E0112ADE7900C74E0FEA3E0FFBE0108FA
:10149600BF2205A3E0FD8009900B8CE0FD7F227E34
:1014A6000112ADE7900C74E0FEA3E0FFBE0108BF99
:1014B6002305A3E0FD8009900B8DE0FD7F237E01CF
:1014C60012ADE7900C74E0FEA3E0FFBE0108BF2456
:1014D60005A3E0FD8009900B8EE0FD7F247E0112BE
:1014E600ADE7900C74E0FEA3E0FFBE0108BF400527
:1014F600A3E0FD8009900B91E0FD7F407E0112ADD7
:10150600E7900C74E0FEA3E0FFBE0108BF4105A30F
:10151600E0FD8009900B92E0FD7F417E0112ADE770
:10152600900C74E0FEA3E0FFBE0108BF4205A3E0F5
:10153600FD8009900B93E0FD7F427E0112ADE7909E
:101546000C74E0FEA3E0FFBE0108BF4305A3E0FD67
:101556008009900B94E0FD7F437E0112ADE7900C6D
:1015660074E0FEA3E0FFBE0108BF4405A3E0FD80D2
:1015760009900B95E0FD7F447E0112ADE7900C7457
:10158600E0FEA3E0FFBE0108BFA805A3E0FD8009B9
:10159600900B98E0FD7FA87E0112ADE7900C74E0F9
:1015A600FEA3E0FFBE0108BFA905A3E0FD800990E8
:1015B6000B99E0FD7FA97E0112ADE7900C74E0FE69
:1015C600A3E0FFBE0108BFAA05A3E0FD8009900BBA
:1015D6009AE0FD7FAA7E0112ADE7900C74E0FEA3AF
:1015E600E0FFBE0108BFAB05A3E0FD8009900B9BA1
:1015F600E0FD7FAB7E0112ADE7900C74E0FEA3E048
:10160600FFBE0108BFAC05A3E0FD8009900B9CE07E
:10161600FD7FAC7E0112ADE7900C74E0FEA3E0FF07
:10162600BE0108BFD405A3E0FD8009900B84E0FD50
:101636007FD47E0112ADE7900C74E0FEA3E0FFBEFE
:101646000108BFD005A3E0FD8009900B85E0FD7F72
:10165600D07E0112ADE7900C74E0FEA3E0FFBE0160
:1016660008BFD505A3E0FD8009900B86E0FD7FD578
:101676007E0112ADE7900C74E0FEA3E0FFBE010808
:10168600BFD105A3E0FD8009900B87E0FD7FD17EE9
:101696000112ADE7900C74E0FEA3E0FFBE0108BFA7
:1016A600D205A3E0FD8009900B88E0FD7FD27E0184
:1016B60012ADE7900C74E0FEA3E0FFBE0108BFD3B5
:1016C60005A3E0FD8009900B89E0FD7FD37E011222
:1016D600ADE7900C74E0FEA3E0FFBE0108BF38053D
:1016E600A3E0FD8009900BD3E0FD7F387E0112ADAB
:1016F600E7900C74E0FEA3E0FFBE0108BF3905A326
:10170600E0FD8009900BD4E0FD7F397E0112ADE744
:10171600900C74E0FEA3E0FFBE0108BF3A05A3E00B
:10172600FD8009900BD5E0FD7F3A7E0112ADE79072
:101736000C74E0FEA3E0FFBE0108BF3B05A3E0FD7D
:101746008009900BD6E0FD7F3B7E0112ADE7900C41
:1017560074E0FEA3E0FFBE0108BF3C05A3E0FD80E8
:1017660009900BD7E0FD7F3C7E0112ADE7900C742B
:10177600E0FEA3E0FFBE0108BF3D05A3E0FD800932
:10178600900BD8E0FD7F3D7E0112ADE7900C74E032
:10179600FEA3E0FFBE0108BF3E05A3E0FD80099061
:1017A6000BD9E0FD7F3E7E0112ADE7900C74E0FEA2
:1017B600A3E0FFBE0108BF3F05A3E0FD8009900B33
:1017C600DAE0FD7F3F7E0112ADE7900C74E0FEA3E8
:1017D600E0FFBE0108BF3605A3E0FD8009900BDBE4
:1017E600E0FD7F367E0112ADE7900C74E0FEA3E0CB
:1017F600FFBE0108BF3705A3E0FD8009900BDCE0C2
:10180600FD7F377E0112ADE7900C74E0FEA3E0FF8A
:10181600BE0108BFFB05A3E0FD8009900BF0E0FDCB
:101826007FFB7E0112ADE7900C74E0FEA3E0FFBEE5
:101836000108BFFC05A3E0FD8009900BEFE0FD7FEA
:10184600FC7E0112ADE7900C74E0FEA3E0FFBE0142
:1018560008BFFD05A3E0FD8009900BEDE0FD7FFDCF
:101866007E0112ADE7900C74E0FEA3E0FFBE010816
:10187600BFFE05A3E0FD8009900BEEE0FD7FFE7E36
:101886000112ADE7900C74E0FEA3E0FFBE0108BFB5
:101896004805A3E0FD8009900BF1E0FD7F487E013D
:1018A60012ADE7900C74E0FEA3E0FFBE0108BF494D
:1018B60005A3E0FD8009900BF2E0FD7F497E011251
:1018C600ADE7900C74E0FEA3E0FFBE0108BF4A0539
:1018D600A3E0FD8009900BF3E0FD7F4A7E0112AD87
:1018E600E7900C74E0FEA3E0FFBE0108BF4B05A322
:1018F600E0FD8009900BF4E0FD7F4B7E0112ADE721
:10190600900C74E0FEA3E0FFBE0108BF4C05A3E007
:10191600FD8009900BF5E0FD7F4C7E0112ADE7904E
:101926000C74E0FEA3E0FFBE0108BF5005A3E0FD76
:101936008009900BF8E0FD7F507E0112ADE7900C18
:1019460074E0FEA3E0FFBE0108BF5105A3E0FD80E1
:1019560009900BF9E0FD7F517E0112ADE7900C7402
:10196600E0FEA3E0FFBE0108BF5205A3E0FD80092B
:10197600900BFAE0FD7F527E0112ADE7900C74E009
:10198600FEA3E0FFBE0108BF5305A3E0FD8009905A
:101996000BFBE0FD7F537E0112ADE7900C74E0FE79
:1019A600A3E0FFBE0108BF5405A3E0FD8009900B2C
:1019B600FCE0FD7F547E0112ADE7900C74E0FEA3BF
:1019C600E0FFBE0108BF5805A3E0FD8009900BFFAC
:1019D600E0FD7F587E0112ADE7900C74E0FEA3E0B7
:1019E600FFBE0108BF5905A3E0FD8009900C00E089
:1019F600FD7F597E0112ADE7900C74E0FEA3E0FF77
:101A0600BE0108BF5A05A3E0FD8009900C01E0FD68
:101A16007F5A7E0112ADE7900C74E0FEA3E0FFBE94
