:104C2F00EFD3940540037F0122123B7CFED3940304
:104C3F0040037F0222EF7041EE700B900001123B98
:104C4F0095F452935294123B7CB4010B90000112D5
:104C5F003B954293F45294123B7CFEB4020A9000AF
:104C6F0001123B9542934294EEB4030D9000011252
:104C7F003B95FEF45293EE4294EF64017043123B66
:104C8F007CFE700B900001123B95F452915292EE04
:104C9F00B4010B900001123B954291F45292123BDA
:104CAF007CB4020A900001123B9542914292123B52
:104CBF007CB4030D900001123B95FEF45291EE422D
:104CCF0092EF64027043123B7CFE700B9000011256
:104CDF003B95F452955296EEB4010B900001123BA6
:104CEF00954295F45296123B7CB4020A9000011241
:104CFF003B9542954296123B7CB4030D90000112F6
:104D0F003B95FEF45295EE4296EF64037043123BCF
:104D1F007CFE700B900001123B95F452B152B2EE33
:104D2F00B4010B900001123B9542B1F452B2123B09
:104D3F007CB4020A900001123B9542B142B2123B81
:104D4F007CB4030D900001123B95FEF452B1EE427C
:104D5F00B2EF64047043123B7CFE700B90000112A3
:104D6F003B95F452B352B4EEB4010B900001123BD9
:104D7F009542B3F452B4123B7CB4020A9000011274
:104D8F003B9542B342B4123B7CB4030D9000011229
:104D9F003B95FEF452B3EE42B4EF64057043123B01
:104DAF007CFF700B900001123B95F452C952CAEF71
:104DBF00B4010B900001123B9542C9F452CA123B49
:104DCF007CB4020A900001123B9542C942CA123BC1
:104DDF007CB4030D900001123B95FFF452C9EF42D2
:044DEF00CA7F002255
:0D694300E4F5C7F5C5F5C675C380F5C4229F
:1066750075C78275C5018FC4EEF5C375C65A75C653
:07668500A500AFC21269433A
:01668C0022EB
:10665C0075C78275C5028FC4EEF5C3AF058FC275C1
:09666C00C65A75C6A50002694377
:1067460075C78275C5038FC4EEF5C375C65A75C67F
:05675600A500026943EB
:1049DF00900266EBF0A3EAF0A3E9F0900265EFF026
:1049EF00E4900269F0EF64016003024B3B900265B3
:1049FF00E0FF75F00DA4248CF582E43401F5837487
:104A0F0001F0A37401F0A374B3F0EF75F00DA424BB
:104A1F008FF582E43401F5837401F0A37401F0A3E0
:104A2F0074D2F0EF75F00DA4248CF582E43401F507
:104A3F0083E0FBA3E0FAA3E0F9EF75F00DA4249255
:104A4F00F582E43401F583EBF0A3EAF0A3E9F0EF8C
:104A5F0075F00DA4248CF582E43401F583E0FBA3FB
:104A6F00E0FAA3E0F9EF75F00DA42495F582E43494
:104A7F0001F583EBF0A3EAF0A3E9F0EF75F00DA4D5
:104A8F002498F582E43401F583E4F0FE7F20FD7B6A
:104A9F00017A0179B3123DFB900266E0FBA3E0FAC5
:104AAF00A3E0F9900001123B956401703053877FAA
:104ABF00759850438E40538EFE53890F4389209033
:104ACF000002123D8E7F007E467D057C00123CC5A4
:104ADF00EFF404F58BF58DC2ABD28E803A9002665F
:104AEF00E0FBA3E0FAA3E0F9900001123B9564020A
:104AFF00703A53877F759850438E04900002123D91
:104B0F008E7F007E467D057C00123CC5EFF404F5D8
:104B1F009C438E01438E10900266E0FBA3E0FAA344
:104B2F00E0F9900008123B9524FF92AC900265E0EB
:104B3F0064026003024C2EE0FF75F00DA4248CF587
:104B4F0082E43401F5837401F0A37401F0A374D3EC
:104B5F00F0EF75F00DA4248FF582E43401F5837422
:104B6F0001F0A37401F0A374F2F0EF75F00DA4241B
:104B7F008CF582E43401F583E0FBA3E0FAA3E0F9BE
:104B8F00EF75F00DA42492F582E43401F583EBF078
:104B9F00A3EAF0A3E9F0EF75F00DA4248CF582E4FD
:104BAF003401F583E0FBA3E0FAA3E0F9EF75F00D14
:104BBF00A42495F582E43401F583EBF0A3EAF0A386
:104BCF00E9F0EF75F00DA42498F582E43401F58334
:104BDF00E4F0FE7F20FD7B017A0179D3123DFB5378
:104BEF008EF7759A50438E04900266E0FBA3E0FAAD
:104BFF00A3E0F9900002123D8E7F007E467D057C7A
:104C0F0000123CC5EFF404F59C438E10900266E051
:0F4C1F00FBA3E0FAA3E0F9900008123B9542AF27
:014C2E002263
:03002300025A3747
:105A3700C0E0C0F0C083C082C0D075D000C000C035
:105A470001C002C003209803025B1BC29890019F0C
:105A5700E0FBA3E0FAA3E0F9C003C002C001A3A3DF
:105A6700E0FAA3E0F9C3D082D083D0E0E99582EAD7
:105A7700958340349001A5E0B4012D900199E0F998
:105A8700A3E0FAA3E09001A2C9F0A3EAF0A3E9F02A
:105A9700900199E0F9A3A3E090019FC9F0A3EAF070
:105AA700A3E9F09001A5E4F090019CE0FBA3E0FAE4
:105AB700A3E0F9C003C002C0019001A2E0FBA3E08C
:105AC700FAA3E0F9D082D083D0E06B7008E9658251
:105AD7007003EA65839001A27028E0FBA3E0FAA3B4
:105AE700E0F9E599123C17900199E0F9A3E0FAA3D0
:105AF700E09001A2C9F0A3EAF0A3E9F0A37401F0D2
:105B07008012E0FBA3E475F001123C73A9F0FAE5FB
:105B170099123C17D003D002D001D000D0D0D08248
:075B2700D083D0F0D0E03282
:0300430002593728
:10593700C0E0C0F0C083C082C0D075D000C000C036
:1059470001C002C003E59A20E003025A24539AFEDD
:105957009001ACE0FBA3E0FAA3E0F9C003C002C0EA
:1059670001A3E0FBA3E0FAA3E0F9D082D083D0E063
:105977006B7008E965827003EA658370349001B241
:10598700E0B4012D9001A6E0F9A3E0FAA3E09001AD
:10599700AFC9F0A3EAF0A3E9F09001A6E0F9A3A349
:1059A700E09001ACC9F0A3EAF0A3E9F09001B2E4FA
:1059B700F09001A9E0FBA3E0FAA3E0F9C003C0025D
:1059C700C0019001AFE0FBA3E0FAA3E0F9D082D0D9
:1059D70083D0E06B7008E965827003EA6583900104
:1059E700AF7028E0FBA3E0FAA3E0F9E59B123C17B0
:1059F7009001A6E0F9A3E0FAA3E09001AFC9F0A3F4
:105A0700EAF0A3E9F0A37401F08012E0FBA3E475C8
:105A1700F001123C73A9F0FAE59B123C17D003D0B2
:105A270002D001D000D0D0D082D083D0F0D0E032E5
:104FB300900253EBF0A3EAF0A3E9F0900252EFF072
:104FC30075F00DA42495F582E43401F583E0F9A38B
:104FD300E0FAA3E0900258C9F0A3EAF0A3E9F0EFE6
:104FE30075F00DA42492F582E43401F583E0F9A36E
:104FF300E0FAA3E090025BC9F0A3EAF0A3E9F0E4CE
:10500300FFFE900253E0F9A3E0FAA3E090025EC929
:10501300F0A3EAF0A3E9F0900258E0FBA3E0FAA3BF
:10502300E0F9C003C002C001A3E0FBA3E0FAA3E0E0
:10503300F9D082D083D0E06B7008E965827003EA0F
:105043006583700302511E0FBF00010ED3900257F8
:10505300E09F900256E09E500302511E900252E0E0
:1050630075F00DA4248FF582E43401F583E0FBA3EE
:10507300E0FAA3E0F9C003C002C00190025BE0FBC9
:10508300A3E0FAA3E0F9D082D083D0E06B7008E903
:1050930065827003EA658390025B7057E0FBA3E0CF
:1050A300FAA3E0F9123B7CFD900253E0FBA3E47505
:1050B300F001123C73A9F0FAED123C17900252E092
:1050C300FD75F00DA4248CF582E43401F583E0F939
:1050D300A3E0FAA3E090025BC9F0A3EAF0A3E9F02E
:1050E300ED75F00DA42498F582E43401F583E4F022
:1050F30002501AE0FBA3E475F001123C73A9F0FA25
:10510300123B7CFD900253E0FBA3E475F001123CDB
:1051130073A9F0FAED123C1702501A900258E0FB03
:10512300A3E0FAA3E0F9900252E075F00DA42492F3
:0F513300F582E43401F583EBF0A3EAF0A3E9F091
:01514200224A
:0F692500EF24FE6006047006C2AC2253AFFE22C0
:0F693400EF24FE6006047006D2AC2243AF0122AE
:055C2400900256EFF0B4
:105C2900E4FDFCEF7003025CFFE0FF126925E075FB
:105C3900F00DA4248CF582E43401F583A3E0FAA3E2
:105C4900E0AE02FF900256E075F00DA4248FF582B4
:105C5900E43401F583A3E0FAA3E0C39FFFEA9ECFF2
:105C69002401FDE43FFCFEAF057D00900256E0757E
:105C7900F00DA4248CF582E43401F583E0FBA3E064
:105C8900FAA3E0F9123DFB900256E0FF75F00DA46E
:105C9900248CF582E43401F583E0FBA3E0FAA3E068
:105CA900F9EF75F00DA42495F582E43401F583EB41
:105CB900F0A3EAF0A3E9F0EF75F00DA4248CF582C6
:105CC900E43401F583E0FBA3E0FAA3E0F9EF75F012
:105CD9000DA42492F582E43401F583EBF0A3EAF0F4
:105CE900A3E9F0EF75F00DA42498F582E43401F5E9
:065CF90083E4F01269349F
:015CFF002282
:10002600000000000001C2000000960000004B0026
:0C00360000002580000012C000000960DE
:105DC40012646C12695C1265CB900257123DCA00D2
:105DD40001C2007F0112545BC2B7900257123DCA40
:105DE4000001C2007F0112545B900000E0FBA3E0BD
:105DF400FAA3E0F9123B7C6073900001123B95C357
:105E04009407504B123B7CFFC007900001123B9556
:105E140025E025E02426F582E43400F583123D7E56
:105E2400900257123DBED00712545B900000E0FB75
:105E3400A3E0FAA3E0F9123B7CFF125C249000007B
:105E4400E0FBA3E0FAA3E0F9123B7CFF1269349073
:105E54000000E0FBA3E0FAA3E0F9900138123B95BF
:0F5E6400B4010912622F90013C7401F0D2AF22F9
:10622F0012478E900000E0FBA3E0FAA3E0F9123BC7
:10623F007C6056900001123B95C39407504B123B64
:10624F007CFFC007900001123B9525E025E0242636
:10625F00F582E43400F583123D7E900257123DBE65
:10626F00D00712545B900000E0FBA3E0FAA3E0F923
:10627F00123B7CFF125C24900000E0FBA3E0FAA32A
:0A628F00E0F9123B7CFF1269342293
:0100200022BD
:10646C0090024874FFF0E4900247F07B017A0279C5
:10647C0047FF124C2F7B017A0279477F01124C2F78
:10648C007B017A0279477F02124C2F7B017A0279C9
:10649C00477F03124C2F7B017A0279477F04024C11
:0164AC002FC0
:0B695C00438905E4F58CF58AD28C22FB
:1065CB00900000E0FBA3E0FAA3E0F99000D2123BAD
:1065DB009524FE600E047015438905E4F58CF58A4D
:0E65EB00D28C22438950E4F58DF58BD28E229E
:10582800EF14B42300400302593490584075F00334
:10583800A4C58325F0C583730258A90258AE02583F
:10584800B20258B60258BA0258BE0258C20258C626
:105858000258CA0258CE0258D20258D60258DA0262
:1058680058DE0258E20258E60258EA0258EE025898
:10587800F20258F60258FA0258FE02590202590674
:1058880002590A02590E02591202591602591A02ED
:10589800591E02592202592602592A02592E025922
:1058A8002EA280025930A281807EA282807AA283B1
:1058B8008076A2848072A285806EA286806AA28782
:1058C8008066A2A78062A2A6805EA2A5805AA2A432
:1058D8008056A2A38052A2A2804EA2A1804AA2A072
:1058E8008046A2908042A291803EA292803AA293E2
:1058F8008036A2948032A295802EA296802AA29702
:105908008026A2B28022A2B3801EA2B4801AA2B5B9
:105918008016A2B68012A2B7800EA2C7800AA2C6BD
:0F5928008006A2C58002A2C4E433FF227F0122C1
:105F1000E4FE123B7CFF125828123B7CC3944040A5
:105F2000037F0022900003123B95B4FF079000030B
:105F3000E4123C29900006123B9570329000011249
:105F40003B95B507059000058058900002123B95DF
:105F5000FD900005123B95C39D500C900005740107
:105F6000123BE47E0180419000067401800D900098
:105F700001123B956F600B900005E4123C29E4FE92
:105F80008026900003123B95FF900005123B95C3BD
:105F90009F500C9000057401123BE4E4FE800990D0
:0A5FA0000006E4123C297E01AF0662
:015FAA0022D4
:0E514300900256EBF0A3EAF0A3E9F0A3EDF022
:10515100900256E0FBA3E0FAA3E0F9EDFF7E00E93F
:105161002FF9EE3AFA90FFFF123B95FEE490025AB6
:10517100F0AF06125828AD07E490025BF0AF06EFDE
:10518100C3944040037F0022900256E0FBA3E0FA63
:10519100A3E0F9900012123B95FF900259E0FE1432
:1051A100FCEFA804088002C313D8FC540190025BF1
:1051B100F0EE2409F582E433F583123B959000115A
:1051C100123C29900008123B95B4FF12900256E060
:1051D100FBA3E0FAA3E0F9900008E4123C29900255
:1051E1005BE07051900256E0FBA3E0FAA3E0F99076
:1051F1000006123B95B50509900011E4123C298087
:1052010024900007123B95FF900011123B95C39F1C
:10521100501B900256E0FBA3E0FAA3E0F9900011C5
:105221007401123BE490025A7401F0805A90025BBF
:105231007401F08041900256E0FBA3E0FAA3E0F98B
:10524100900006123B956D6009900011E4123C2913
:105251008024900008123B95FF900011123B95C3EA
:105261009F501A900256E0FBA3E0FAA3E0F99000E8
:10527100117401123BE4E490025AF0800AE49002B6
:105281005BF090025A04F0900256E0FBA3E0FAA30F
:10529100E0F9900011123B95FF900259E0FE2409BC
:1052A100F582E433F583EF123C29E92412F9E43A5B
:1052B100FA123B7CFFEE14FE90025BE0FDA80608AB
:0F52C1008002C333D8FC4F123C1790025AE0FF13
:0152D00022BB
:106299004253505F47657455736172745278427501
:1062A900666665723A496E646578206F76657266CE
:1062B9006C6F772121212020555341525478203D7C
:1062C9002025623032640D0A0052786C656E74685C
:1062D9003A496E646578206F766572666C6F7721CE
:1062E90021212020555341525478203D20256230E8
:0562F90032640D0A00F3
:10691400900282EFF0FD7F011264AD900282E0FFED
:016924002250
:05545B00900256EFF085
:10546000640160030254ECE0FF75F00AA42429F5FE
:1054700082E43402F5837401F0A37401F0A374F3A1
:10548000F0EF75F00AA4242CF582E43402F583745D
:1054900001F0A37402F0A37412F0EF75F00AA424D3
:1054A00029F582E43402F583E0FBA3E0FAA3E0F9F6
:1054B000EF75F00AA4242FF582E43402F583EBF0B3
:1054C000A3EAF0A3E9F0EF75F00AA42432F582E430
:1054D0003402F583E4F0FE7F20FD7B017A0179F34D
:1054E000123DFB90025C7401F0025579900256E087
:1054F000FF640260030255BAEF75F00AA42429F58F
:1055000082E43402F5837401F0A37402F0A37413EF
:10551000F0EF75F00AA4242CF582E43402F58374CC
:1055200001F0A37402F0A37432F0EF75F00AA42422
:1055300029F582E43402F583E0FBA3E0FAA3E0F965
:10554000EF75F00AA4242FF582E43402F583EBF022
:10555000A3EAF0A3E9F0EF75F00AA42432F582E49F
:105560003402F583E4F0FE7F20FD7B017A0279139B
:10557000123DFB90025C7402F0E4FFFEFDFC900221
:1055800057E0F8A3E0F9A3E0FAA3E0FBC3123D6DF6
:105590006028900257E0FCA3E0FDA3E0FEA3E0FF3B
:1055A00090025D123DBE9002637401F0900256E0DD
:0A55B000FF7B017A02795B1249DFEC
:0155BA0022CE
:10451500900249EBF0A3EAF0A3E9F0900248EFF02E
:10452500E490024EF0A3F0A3F0A3F0EF600A90022E
:1045350048E0FBC394034004E4FEFF22EB75F00A58
:10454500A4242FF582E43402F583A3E0FAA3E0AEB8
:1045550002FF900248E075F00AA4242CF582E434A9
:1045650002F583A3E0FAA3E0C39FFFEA9EFEEF24D2
:1045750001FDE43EFC900248E0FF75F00AA4242FFB
:10458500F582E43402F583E0FBA3E0FAA3E0F990B9
:104595000256ECF0A3EDF0124FB390024EEEF0A3ED
:1045A500EFF0900248E0FF75F00AA4242FF582E4AD
:1045B5003402F583E0FBA3E0FAA3E0F990024EE0B4
:1045C500FCA3E0FDE92DF9EA3CFAEF75F00AA42415
:1045D5002FF582E43402F583EBF0A3EAF0A3E9F0CA
:1045E500900248E0FF75F00AA42429F582E434021C
:1045F500F583A3E0FAA3E0AC02FDEF75F00AA4246D
:104605002FF582E43402F583A3E0FAA3E0C39DFE0F
:10461500EA9C90024EF0A3CEF0900248E0FF75F0C0
:104625000AA4242CF582E43402F583E0FBA3E0FA26
:10463500A3E0F9C003C002C001EF75F00AA4242F5E
:10464500F582E43402F583A3E0FAA3E0F9C3D0824E
:10465500D083D0E0E99582EA9583401B125E737B97
:10466500FF7A627999900248E090025DF0123F0E60
:10467500E490024EF0A3F090024CE0FEA3E0FFC3ED
:1046850090024FE09F90024EE09E5003024716EEC7
:10469500F0A3EFF07BFF7A6279D2900248E09002B6
:1046A5005DF0123F0EE4900250F0A3F090024CE052
:1046B500FEA3E0FF900250E0FCA3E0FDC39FEC9E4B
:1046C5005045900248E075F00AA42429F582E434A7
:1046D50002F583E0FBA3E0FAA3E0F98D828C831257
:1046E5003B95FF900249E0FBA3E475F001123C7392
:1046F500A9F0FAEF123C17900251E004F070069011
:104705000250E004F080A5900248E0FF125E73803D
:1047150060E4900250F0A3F090024EE0FEA3E0FFAB
:10472500A3E0FCA3E0FDC39FEC9E5045900248E04A
:1047350075F00AA42429F582E43402F583E0FBA38D
:10474500E0FAA3E0F98D828C83123B95FF90024934
:10475500E0FBA3E475F001123C73A9F0FAEF123CFB
:1047650017900251E004F07006900250E004F080CA
:10477500A7900249E0FBA3E0FAA3E0F9E4123C1795
:0847850090024EE0FEA3E0FFEC
:01478D002209
:055E7300900252EFF067
:105E7800EF7003025F0FE0FFC394034003025F0F5C
:105E8800EF75F00AA42429F582E43402F583A3E02F
:105E9800FAA3E0AE02FF900252E075F00AA4242CA7
:105EA800F582E43402F583A3E0FAA3E0C39FFFEA96
:105EB8009ECF2401CF3400FCFE7D00900252E07595
:105EC800F00AA42429F582E43402F583E0FBA3E078
:105ED800FAA3E0F9123DFB900252E0FF75F00AA424
:105EE8002429F582E43402F583E0FBA3E0FAA3E079
:105EF800F9EF75F00AA4242FF582E43402F583EB58
:075F0800F0A3EAF0A3E9F0A9
:015F0F00226F
:1066A500EFB401063099FDC29922EFB40208E59ACC
:0766B50030E1FB539AFD22C6
:1064AD00900283EFF0A3EDF0D2B7126971900283E1
:1064BD00E0FF6028C394035023EF24FE600B0470AB
:1064CD000E900284E0F5998006900284E0F59B9091
:0D64DD000283E0FF1266A5C2B712697122AA
:0E636100900256EFF0A3EBF0A3EAF0A3E9F0F0
:10636F00E490025CF0A3F090025CF0A3F090025A6C
:10637F00E0FEA3E0FFC390025DE09F90025CE09E11
:10638F00502A900256E0FFA3E0FBA3E475F0011240
:10639F003C73A9F0FA123B7CFD1264AD90025DE0F4
:0C63AF0004F070C990025CE004F080C1B2
:0163BB0022BF
:1052D1006139000300000000000000000000000030
:1052E10000000000000000000000000000000000BD
:1052F10000000000000000000000000000000000AD
:10530100000000000000000000000000000000009C
:10531100000000000000000000000000000000008C
:10532100000000000000000000000000000000007C
:10533100000000000000000000000000000000006C
:10534100000000000000000000000000000000005C
:10535100000000000000000000000000000000004C
:10536100000000000000000000000000000000003C
:10537100000000000000000000000000000000002C
:10538100000000000000000000000000000000001C
:10539100000000000000000000000000000000000C
:1053A10000000000000000000000000000000000FC
:1053B10000000000000000000000000000000000EC
:1053C10000000000000000000000000000000000DC
:1053D10000000000000000000000000000000000CC
:1053E10000000000000000000000000000000000BC
:1053F10000000000000000000000000000000000AC
:105401000000000000000000000000000043000058
:0354110001000394
:10183B007F017E00126675900000E0FBA3E0FAA327
:10184B00E0F9EF123C177F027E00126675900000E4
:10185B00E0FBA3E0FAA3E0F9900001EF123C297F33
:10186B00037E00126675900000E0FBA3E0FAA3E094
:10187B00F9900003EF123C297F047E0012667590ED
:10188B000000E0FBA3E0FAA3E0F9900004EF123CA8
:10189B00297F147E00126675900000E0FBA3E0FA2E
:1018AB00A3E0F9900005EF123C297F057E0012663C
:1018BB0075900000E0FBA3E0FAA3E0F9900006EFBF
:1018CB00123C297F067E00126675900000E0FBA398
:1018DB00E0FAA3E0F9900007EF123C297F077E00A6
:1018EB00126675900000E0FBA3E0FAA3E0F990000C
:1018FB0009EF123C297F087E00126675900000E00C
:10190B00FBA3E0FAA3E0F990000AEF123C297F0950
:10191B007E00126675900000E0FBA3E0FAA3E0F9ED
:10192B0090000CEF123C297F0E7E00126675900022
:10193B0000E0FBA3E0FAA3E0F990000DEF123C29C5
:10194B007F0A7E00126675900000E0FBA3E0FAA30D
:10195B00E0F990000FEF123C297F0E7E00126675A6
:10196B00900000E0FBA3E0FAA3E0F9900010EF1267
:10197B003C297F0B7E00126675900000E0FBA3E014
:10198B00FAA3E0F9900012EF123C297F0E7E0012B1
:10199B006675900000E0FBA3E0FAA3E0F99000135A
:1019AB00EF123C297F0C7E00126675900000E0FB65
:1019BB00A3E0FAA3E0F9900015EF123C297F0E7E0D
:1019CB0000126675900000E0FBA3E0FAA3E0F9902B
:1019DB000016EF123C297F0D7E00126675900000F9
:1019EB00E0FBA3E0FAA3E0F9900018EF123C297F8B
:1019FB000E7E00126675900000E0FBA3E0FAA3E0F8
:101A0B00F9900019EF123C297F0F7E00126675903A
:101A1B000000E0FBA3E0FAA3E0F990001BEF123CFF
:101A2B00297F107E00126675900000E0FBA3E0FAA0
:101A3B00A3E0F990001EEF123C297F117E00126685
:101A4B0075900000E0FBA3E0FAA3E0F990001FEF14
:101A5B00123C297F127E00126675900000E0FBA3FA
:101A6B00E0FAA3E0F9900021EF123C297F137E00EE
:101A7B00126675900000E0FBA3E0FAA3E0F990007A
:101A8B0022EF123C297F207E00126675900000E049
:101A9B00FBA3E0FAA3E0F9900024EF123C297F218D
:101AAB007E00126675900000E0FBA3E0FAA3E0F95C
:101ABB00900025EF123C297F227E00126675900064
:101ACB0000E0FBA3E0FAA3E0F9900026EF123C291B
:101ADB007F237E00126675900000E0FBA3E0FAA363
:101AEB00E0F9900027EF123C297F247E00126675E7
:101AFB00900000E0FBA3E0FAA3E0F9900028EF12BE
:101B0B003C297F287E00126675900000E0FBA3E065
:101B1B00FAA3E0F990002BEF123C297F297E0012EB
:101B2B006675900000E0FBA3E0FAA3E0F990002CAF
:101B3B00EF123C297F2A7E00126675900000E0FBB5
:101B4B00A3E0FAA3E0F990002DEF123C297F2B7E46
:101B5B0000126675900000E0FBA3E0FAA3E0F99099
:101B6B00002EEF123C297F2C7E0012667590000030
:101B7B00E0FBA3E0FAA3E0F990002FEF123C297FE2
:101B8B00307E00126675900000E0FBA3E0FAA3E044
:101B9B00F9900032EF123C297F317E00126675906E
:101BAB000000E0FBA3E0FAA3E0F9900033EF123C56
:101BBB00297F327E00126675900000E0FBA3E0FAED
:101BCB00A3E0F9900034EF123C297F337E001266BC
:101BDB0075900000E0FBA3E0FAA3E0F9900035EF6D
:101BEB00123C297F347E00126675900000E0FBA347
:101BFB00E0FAA3E0F9900036EF123C297F387E0023
:101C0B00126675900000E0FBA3E0FAA3E0F99000E8
:101C1B0039EF123C297F397E00126675900000E087
:101C2B00FBA3E0FAA3E0F990003AEF123C297F3ACC
:101C3B007E00126675900000E0FBA3E0FAA3E0F9CA
:101C4B0090003BEF123C297F3B7E001266759000A3
:101C5B0000E0FBA3E0FAA3E0F990003CEF123C2973
:101C6B007F3C7E00126675900000E0FBA3E0FAA3B8
:101C7B00E0F990003DEF123C297F407E0012667523
:101C8B00900000E0FBA3E0FAA3E0F9900040EF1214
:101C9B003C297F417E00126675900000E0FBA3E0BB
:101CAB00FAA3E0F9900041EF123C297F427E00122B
:101CBB006675900000E0FBA3E0FAA3E0F990004208
:101CCB00EF123C297F437E00126675900000E0FB0B
:101CDB00A3E0FAA3E0F9900043EF123C297F447E86
:101CEB0000126675900000E0FBA3E0FAA3E0F99008
:101CFB000044EF123C297F487E001266759000006D
:101D0B00E0FBA3E0FAA3E0F9900047EF123C297F38
:101D1B00497E00126675900000E0FBA3E0FAA3E099
:101D2B00F9900048EF123C297F4A7E0012667590AD
:101D3B000000E0FBA3E0FAA3E0F9900049EF123CAE
:101D4B00297F4B7E00126675900000E0FBA3E0FA42
:101D5B00A3E0F990004AEF123C297F4C7E001266FB
:101D6B0075900000E0FBA3E0FAA3E0F990004BEFC5
:101D7B00123C297F507E00126675900000E0FBA399
:101D8B00E0FAA3E0F990004EEF123C297F517E0060
:101D9B00126675900000E0FBA3E0FAA3E0F9900057
:101DAB004FEF123C297F527E00126675900000E0C7
:101DBB00FBA3E0FAA3E0F9900050EF123C297F530C
:101DCB007E00126675900000E0FBA3E0FAA3E0F939
:101DDB00900051EF123C297F547E001266759000E3
:101DEB0000E0FBA3E0FAA3E0F9900052EF123C29CC
:101DFB007F587E00126675900000E0FBA3E0FAA30B
:101E0B00E0F9900055EF123C297F597E0012667560
:101E1B00900000E0FBA3E0FAA3E0F9900056EF126C
:101E2B003C297F5A7E00126675900000E0FBA3E010
:101E3B00FAA3E0F9900057EF123C297F5B7E00126A
:101E4B006675900000E0FBA3E0FAA3E0F990005860
:101E5B00EF123C297F5C7E00126675900000E0FB60
:101E6B00A3E0FAA3E0F9900059EF123C297F607EC2
:101E7B0000126675900000E0FBA3E0FAA3E0F99076
:101E8B00005CEF123C297F617E00126675900000AA
:101E9B00E0FBA3E0FAA3E0F990005DEF123C297F91
:101EAB00627E00126675900000E0FBA3E0FAA3E0EF
:101EBB00F990005EEF123C297F637E0012667590ED
:101ECB000000E0FBA3E0FAA3E0F990005FEF123C07
:101EDB00297F647E00126675900000E0FBA3E0FA98
:101EEB00A3E0F9900060EF123C297F687E00126638
:101EFB0075900000E0FBA3E0FAA3E0F9900063EF1C
:101F0B00123C297F697E00126675900000E0FBA3EE
:101F1B00E0FAA3E0F9900064EF123C297F6A7E009F
:101F2B00126675900000E0FBA3E0FAA3E0F99000C5
:101F3B0065EF123C297F6B7E00126675900000E006
:101F4B00FBA3E0FAA3E0F9900066EF123C297F6C4B
:101F5B007E00126675900000E0FBA3E0FAA3E0F9A7
:101F6B00900067EF123C297F707E0012667590001F
:101F7B0000E0FBA3E0FAA3E0F990006AEF123C2922
:101F8B007F717E00126675900000E0FBA3E0FAA360
:101F9B00E0F990006BEF123C297F727E00126675A0
:101FAB00900000E0FBA3E0FAA3E0F990006CEF12C5
:101FBB003C297F737E00126675900000E0FBA3E066
:101FCB00FAA3E0F990006DEF123C297F747E0012AA
:101FDB006675900000E0FBA3E0FAA3E0F990006EB9
:101FEB00EF123C297F787E00126675900000E0FBB3
:101FFB00A3E0FAA3E0F9900071EF123C297F797E00
:10200B0000126675900000E0FBA3E0FAA3E0F990E4
:10201B000072EF123C297F7A7E00126675900000E9
:10202B00E0FBA3E0FAA3E0F9900073EF123C297FE9
:10203B007B7E00126675900000E0FBA3E0FAA3E044
:10204B00F9900074EF123C297F7C7E00126675902C
:10205B000000E0FBA3E0FAA3E0F9900075EF123C5F
:10206B00297F807E00126675900000E0FBA3E0FAEA
:10207B00A3E0F9900078EF123C297F817E00126675
:10208B0075900000E0FBA3E0FAA3E0F9900079EF74
:10209B00123C297F827E00126675900000E0FBA344
:1020AB00E0FAA3E0F990007AEF123C297F837E00DF
:1020BB00126675900000E0FBA3E0FAA3E0F9900034
:1020CB007BEF123C297F847E00126675900000E046
:1020DB00FBA3E0FAA3E0F990007CEF123C297F8888
:1020EB007E00126675900000E0FBA3E0FAA3E0F916
:1020FB0090007FEF123C297F897E0012667590005D
:10210B0000E0FBA3E0FAA3E0F9900080EF123C297A
:10211B007F8A7E00126675900000E0FBA3E0FAA3B5
:10212B00E0F9900081EF123C297F8B7E00126675DF
:10213B00900000E0FBA3E0FAA3E0F9900082EF121D
:10214B003C297F8C7E00126675900000E0FBA3E0BB
:10215B00FAA3E0F9900083EF123C297F907E0012E6
:10216B006675900000E0FBA3E0FAA3E0F99000860F
:10217B00EF123C297F917E00126675900000E0FB08
:10218B00A3E0FAA3E0F9900087EF123C297F927E3F
:10219B0000126675900000E0FBA3E0FAA3E0F99053
:1021AB000088EF123C297F937E0012667590000029
:1021BB00E0FBA3E0FAA3E0F9900089EF123C297F42
:1021CB00947E00126675900000E0FBA3E0FAA3E09A
:1021DB00F990008AEF123C297F987E001266759069
:1021EB000000E0FBA3E0FAA3E0F99000E7EF123C5C
:1021FB00297FA07E00126675900000E0FBA3E0FA39
:10220B00A3E0F99000E8EF123C297FA87E0012664C
:10221B0075900000E0FBA3E0FAA3E0F99000E9EF72
:10222B00123C297FB07E00126675900000E0FBA384
:10223B00E0FAA3E0F99000EAEF123C297FB57E00AB
:10224B00126675900000E0FBA3E0FAA3E0F99000A2
:10225B00EBEF123C297F997E00126675900000E02F
:10226B00FBA3E0FAA3E0F99000EDEF123C297F9A73
:10227B007E00126675900000E0FBA3E0FAA3E0F984
:10228B009000EEEF123C297F9B7E0012667590004A
:10229B0000E0FBA3E0FAA3E0F99000EFEF123C297A
:1022AB007F9D7E00126675900000E0FBA3E0FAA311
:1022BB00E0F99000FAEF123C297FA47E00126675BC
:1022CB00900000E0FBA3E0FAA3E0F99000FBEF1213
:1022DB003C297FAC7E00126675900000E0FBA3E00A
:1022EB00FAA3E0F99000FCEF123C297FB47E0012B8
:1022FB006675900000E0FBA3E0FAA3E0F99000FD07
:10230B00EF123C297FB67E00126675900000E0FB51
:10231B00A3E0FAA3E0F99000FEEF123C297FB77E11
:10232B0000126675900000E0FBA3E0FAA3E0F990C1
:10233B0000FFEF123C297FB37E0012667590000000
:10234B00E0FBA3E0FAA3E0F9900100EF123C297F38
:10235B009C7E00126675900000E0FBA3E0FAA3E000
:10236B00F99000F0EF123C297FB87E001266759051
:10237B000000E0FBA3E0FAA3E0F990008DEF123C24
:10238B00297FB97E00126675900000E0FBA3E0FA8E
:10239B00A3E0F990008EEF123C297FBA7E00126603
:1023AB0075900000E0FBA3E0FAA3E0F990008FEF3B
:1023BB00123C297FBB7E00126675900000E0FBA3E8
:1023CB00E0FAA3E0F9900090EF123C297FBC7E006D
:1023DB00126675900000E0FBA3E0FAA3E0F9900011
:1023EB0091EF123C297FC07E00126675900000E0D1
:1023FB00FBA3E0FAA3E0F9900094EF123C297FC114
:10240B007E00126675900000E0FBA3E0FAA3E0F9F2
:10241B00900095EF123C297FC27E001266759000EA
:10242B0000E0FBA3E0FAA3E0F9900096EF123C2941
:10243B007FC37E00126675900000E0FBA3E0FAA359
:10244B00E0F9900097EF123C297FC47E001266756D
:10245B00900000E0FBA3E0FAA3E0F9900098EF12E4
:10246B003C297FC87E00126675900000E0FBA3E05C
:10247B00FAA3E0F990009BEF123C297FC97E001272
:10248B006675900000E0FBA3E0FAA3E0F990009CD6
:10249B00EF123C297FCA7E00126675900000E0FBAC
:1024AB00A3E0FAA3E0F990009DEF123C297FCB7ECD
:1024BB0000126675900000E0FBA3E0FAA3E0F99030
:1024CB00009EEF123C297FCC7E00126675900000B7
:1024DB00E0FBA3E0FAA3E0F990009FEF123C297F09
:1024EB00D07E00126675900000E0FBA3E0FAA3E03B
:1024FB00F99000A2EF123C297FD17E0012667590F5
:10250B000000E0FBA3E0FAA3E0F99000A3EF123C7C
:10251B00297FD27E00126675900000E0FBA3E0FAE3
:10252B00A3E0F99000A4EF123C297FD37E00126642
:10253B0075900000E0FBA3E0FAA3E0F99000A5EF93
:10254B00123C297FD47E00126675900000E0FBA33D
:10255B00E0FAA3E0F99000A6EF123C297FD87E00A9
:10256B00126675900000E0FBA3E0FAA3E0F990007F
:10257B00A9EF123C297FD97E00126675900000E00E
:10258B00FBA3E0FAA3E0F99000AAEF123C297FDA53
:10259B007E00126675900000E0FBA3E0FAA3E0F961
:1025AB009000ABEF123C297FDB7E0012667590002A
:1025BB0000E0FBA3E0FAA3E0F99000ACEF123C299A
:1025CB007FDC7E00126675900000E0FBA3E0FAA3AF
:1025DB00E0F99000ADEF123C297FE07E00126675AA
:1025EB00900000E0FBA3E0FAA3E0F99000B0EF123B
:1025FB003C297FE17E00126675900000E0FBA3E0B2
:10260B00FAA3E0F99000B1EF123C297FE27E0012B1
:10261B006675900000E0FBA3E0FAA3E0F99000B22E
:10262B00EF123C297FE37E00126675900000E0FB01
:10263B00A3E0FAA3E0F99000B3EF123C297FE47E0C
:10264B0000126675900000E0FBA3E0FAA3E0F9909E
:10265B0000B4EF123C297FE87E00126675900000F3
:10266B00E0FBA3E0FAA3E0F99000B7EF123C297F5F
:10267B00E97E00126675900000E0FBA3E0FAA3E090
:10268B00F99000B8EF123C297FEA7E001266759034
:10269B000000E0FBA3E0FAA3E0F99000B9EF123CD5
:1026AB00297FEB7E00126675900000E0FBA3E0FA39
:1026BB00A3E0F99000BAEF123C297FEC7E00126682
:1026CB0075900000E0FBA3E0FAA3E0F99000BBEFEC
:1026DB00123C297FF07E00126675900000E0FBA390
:1026EB00E0FAA3E0F9900101EF123C297FF87E009C
:1026FB00126675900000E0FBA3E0FAA3E0F99001ED
:10270B0002EF123C297F007E01126675900000E0FB
:10271B00FBA3E0FAA3E0F9900103EF123C297FF150
:10272B007E00126675900000E0FBA3E0FAA3E0F9CF
:10273B00900107EF123C297FF27E00126675900024
:10274B0000E0FBA3E0FAA3E0F9900108EF123C29AB
:10275B007FF37E00126675900000E0FBA3E0FAA306
:10276B00E0F9900109EF123C297FF47E00126675A7
:10277B00900000E0FBA3E0FAA3E0F990010AEF124E
:10278B003C297F087E01126675900000E0FBA3E0F8
:10279B00FAA3E0F99000BEEF123C297F097E0112EB
:1027AB006675900000E0FBA3E0FAA3E0F99000BF90
:1027BB00EF123C297F0A7E01126675900000E0FB48
:1027CB00A3E0FAA3E0F99000C0EF123C297F0B7E47
:1027DB0001126675900000E0FBA3E0FAA3E0F9900C
:1027EB0000C1EF123C297F0C7E0112667590000030
:1027FB00E0FBA3E0FAA3E0F99000C2EF123C297FC3
:10280B00107E01126675900000E0FBA3E0FAA3E0D6
:10281B00F99000C5EF123C297F117E01126675906D
:10282B000000E0FBA3E0FAA3E0F99000C6EF123C36
:10283B00297F127E01126675900000E0FBA3E0FA7F
:10284B00A3E0F99000C7EF123C297F137E011266BB
:10285B0075900000E0FBA3E0FAA3E0F99000C8EF4D
:10286B00123C297F147E01126675900000E0FBA3D9
:10287B00E0FAA3E0F99000C9EF123C297F207E011A
:10288B00126675900000E0FBA3E0FAA3E0F990005C
:10289B00D2EF123C297F217E01126675900000E079
:1028AB00FBA3E0FAA3E0F99000D3EF123C297F22BF
:1028BB007E01126675900000E0FBA3E0FAA3E0F93D
:1028CB009000D4EF123C297F237E01126675900095
:1028DB0000E0FBA3E0FAA3E0F99000D5EF123C294E
:1028EB007F247E01126675900000E0FBA3E0FAA343
:1028FB00E0F99000D6EF123C297F407E01126675FD
:10290B00900000E0FBA3E0FAA3E0F99000D9EF12EE
:10291B003C297F417E01126675900000E0FBA3E02D
:10292B00FAA3E0F99000DAEF123C297F427E011204
:10293B006675900000E0FBA3E0FAA3E0F99000DBE2
:10294B00EF123C297F437E01126675900000E0FB7D
:10295B00A3E0FAA3E0F99000DCEF123C297F447E60
:10296B0001126675900000E0FBA3E0FAA3E0F9907A
:10297B0000DDEF123C297FA87E01126675900000E6
:10298B00E0FBA3E0FAA3E0F99000E0EF123C297F13
:10299B00A97E01126675900000E0FBA3E0FAA3E0AC
:1029AB00F99000E1EF123C297FAA7E011266759027
:1029BB000000E0FBA3E0FAA3E0F99000E2EF123C89
:1029CB00297FAB7E01126675900000E0FBA3E0FA55
:1029DB00A3E0F99000E3EF123C297FAC7E01126675
:1029EB0075900000E0FBA3E0FAA3E0F99000E4EFA0
:1029FB00123C297FD47E01126675900000E0FBA388
:102A0B00E0FAA3E0F99000CCEF123C297FD07E01D5
:102A1B00126675900000E0FBA3E0FAA3E0F99000CA
:102A2B00CDEF123C297FD57E01126675900000E038
:102A3B00FBA3E0FAA3E0F99000CEEF123C297FD183
:102A4B007E01126675900000E0FBA3E0FAA3E0F9AB
:102A5B009000CFEF123C297FD27E01126675900059
:102A6B0000E0FBA3E0FAA3E0F99000D0EF123C29C1
:102A7B007FD37E01126675900000E0FBA3E0FAA302
:102A8B00E0F99000D1EF123C297F387E0112667578
:102A9B00900000E0FBA3E0FAA3E0F990011BEF121A
:102AAB003C297F397E01126675900000E0FBA3E0A4
:102ABB00FAA3E0F990011CEF123C297F3A7E011238
:102ACB006675900000E0FBA3E0FAA3E0F990011D0E
:102ADB00EF123C297F3B7E01126675900000E0FBF4
:102AEB00A3E0FAA3E0F990011EEF123C297F3C7E94
:102AFB0001126675900000E0FBA3E0FAA3E0F990E9
:102B0B00011FEF123C297F3D7E011266759000007C
:102B1B00E0FBA3E0FAA3E0F9900120EF123C297F40
:102B2B003E7E01126675900000E0FBA3E0FAA3E085
:102B3B00F9900121EF123C297F3F7E0112667590BF
:102B4B000000E0FBA3E0FAA3E0F9900122EF123CB6
:102B5B00297F367E01126675900000E0FBA3E0FA38
:102B6B00A3E0F9900123EF123C297F377E01126617
:102B7B0075900000E0FBA3E0FAA3E0F9900124EFCD
:102B8B00123C297FFB7E01126675900000E0FBA3CF
:102B9B00E0FAA3E0F9900138EF123C297FFC7E01AB
:102BAB00126675900000E0FBA3E0FAA3E0F9900138
:102BBB0037EF123C297FFD7E01126675900000E015
:102BCB00FBA3E0FAA3E0F9900135EF123C297FFE5D
:102BDB007E01126675900000E0FBA3E0FAA3E0F91A
:072BEB00900136EF023C29C6
:10004600900256EEF0A3EFF0A3EDF012183B9002EB
:1000560056E0FEA3E0FF126746900256E0FEA3E0DC
:10006600FF64014E7005A3E0FD8009900003E0FDEA
:100076007F017E0012665C900256E0FEA3E0FF64FC
:10008600024E7005A3E0FD8009900004E0FD7F02AA
:100096007E0012665C900256E0FEA3E0FF64034E0B
:1000A6007005A3E0FD8009900006E0FD7F037E0059
:1000B60012665C900256E0FEA3E0FF64044E7005F3
:1000C600A3E0FD8009900007E0FD7F047E00126634
:1000D6005C900256E0FEA3E0FF64144E7005A3E0B8
:1000E600FD8009900008E0FD7F147E0012665C909A
:1000F6000256E0FEA3E0FF64054E7005A3E0FD8016
:1001060009900009E0FD7F057E0012665C900256AC
:10011600E0FEA3E0FF64064E7005A3E0FD800990B3
:10012600000AE0FD7F067E0012665C900256E0FE45
:10013600A3E0FF64074E7005A3E0FD800990000C64
:10014600E0FD7F077E0012665C900256E0FEA3E0AB
:10015600FF64084E7005A3E0FD800990000DE0FDE8
:100166007F087E0012665C900256E0FEA3E0FF6404
:10017600094E7005A3E0FD800990000FE0FD7F09A0
:100186007E0012665C900256E0FEA3E0FF640E4E0F
:100196007005A3E0FD8009900010E0FD7F0E7E0053
:1001A60012665C900256E0FEA3E0FF640A4E7005FC
:1001B600A3E0FD8009900012E0FD7F0A7E00126632
:1001C6005C900256E0FEA3E0FF640E4E7005A3E0CD
:1001D600FD8009900013E0FD7F0E7E0012665C90A4
:1001E6000256E0FEA3E0FF640B4E7005A3E0FD801F
:1001F60009900015E0FD7F0B7E0012665C900256AA
:10020600E0FEA3E0FF640E4E7005A3E0FD800990BA
:100216000016E0FD7F0E7E0012665C900256E0FE40
:10022600A3E0FF640C4E7005A3E0FD800990001862
:10023600E0FD7F0C7E0012665C900256E0FEA3E0B5
:10024600FF640E4E7005A3E0FD8009900019E0FDE5
:100256007F0E7E0012665C900256E0FEA3E0FF640D
:100266000D4E7005A3E0FD800990001BE0FD7F0D9B
:100276007E0012665C900256E0FEA3E0FF640E4E1E
:100286007005A3E0FD800990001CE0FD7F0E7E0056
:1002960012665C900256E0FEA3E0FF640F4E700506
:1002A600A3E0FD800990001EE0FD7F0F7E00126630
:1002B6005C900256E0FEA3E0FF64104E7005A3E0DA
:1002C600FD8009900021E0FD7F107E0012665C90A3
:1002D6000256E0FEA3E0FF64114E7005A3E0FD8028
:1002E60009900022E0FD7F117E0012665C900256A6
:1002F600E0FEA3E0FF64124E7005A3E0FD800990C6
:100306000024E0FD7F127E0012665C900256E0FE3D
:10031600A3E0FF64134E7005A3E0FD80099000255D
:10032600E0FD7F137E0012665C900256E0FEA3E0BD
:10033600FF64204E7005A3E0FD8009900027E0FDD4
:100346007F207E0012665C900256E0FEA3E0FF640A
:10035600214E7005A3E0FD8009900028E0FD7F2175
:100366007E0012665C900256E0FEA3E0FF64224E19
:100376007005A3E0FD8009900029E0FD7F227E0044
:1003860012665C900256E0FEA3E0FF64234E700501
:10039600A3E0FD800990002AE0FD7F237E0012661F
:1003A6005C900256E0FEA3E0FF64244E7005A3E0D5
:1003B600FD800990002BE0FD7F247E0012665C9094
:1003C6000256E0FEA3E0FF64284E7005A3E0FD8020
:1003D6000990002EE0FD7F287E0012665C90025692
:1003E600E0FEA3E0FF64294E7005A3E0FD800990BE
:1003F600002FE0FD7F297E0012665C900256E0FE2B
:10040600A3E0FF642A4E7005A3E0FD80099000304A
:10041600E0FD7F2A7E0012665C900256E0FEA3E0B5
:10042600FF642B4E7005A3E0FD8009900031E0FDCE
:100436007F2B7E0012665C900256E0FEA3E0FF640E
:100446002C4E7005A3E0FD8009900032E0FD7F2C64
:100456007E0012665C900256E0FEA3E0FF64304E1A
:100466007005A3E0FD8009900035E0FD7F307E0039
:1004760012665C900256E0FEA3E0FF64314E700502
:10048600A3E0FD8009900036E0FD7F317E00126614
:100496005C900256E0FEA3E0FF64324E7005A3E0D6
:1004A600FD8009900037E0FD7F327E0012665C9089
:1004B6000256E0FEA3E0FF64334E7005A3E0FD8024
:1004C60009900038E0FD7F337E0012665C9002568C
:1004D600E0FEA3E0FF64344E7005A3E0FD800990C2
:1004E6000039E0FD7F347E0012665C900256E0FE25
:1004F600A3E0FF64384E7005A3E0FD800990003C40
:10050600E0FD7F387E0012665C900256E0FEA3E0B6
:10051600FF64394E7005A3E0FD800990003DE0FDC3
:100526007F397E0012665C900256E0FEA3E0FF640F
:100536003A4E7005A3E0FD800990003EE0FD7F3A4B
:100546007E0012665C900256E0FEA3E0FF643B4E1E
:100556007005A3E0FD800990003FE0FD7F3B7E0033
:1005660012665C900256E0FEA3E0FF643C4E700506
:10057600A3E0FD8009900040E0FD7F3C7E0012660E
:100586005C900256E0FEA3E0FF64404E7005A3E0D7
:10059600FD8009900043E0FD7F407E0012665C907E
:1005A6000256E0FEA3E0FF64414E7005A3E0FD8025
:1005B60009900044E0FD7F417E0012665C90025681
:1005C600E0FEA3E0FF64424E7005A3E0FD800990C3
:1005D6000045E0FD7F427E0012665C900256E0FE1A
:1005E600A3E0FF64434E7005A3E0FD80099000463A
:1005F600E0FD7F437E0012665C900256E0FEA3E0BB
:10060600FF64444E7005A3E0FD8009900047E0FDBD
:100616007F447E0012665C900256E0FEA3E0FF6413
:10062600484E7005A3E0FD800990004AE0FD7F4832
:100636007E0012665C900256E0FEA3E0FF64494E1F
:100646007005A3E0FD800990004BE0FD7F497E0028
:1006560012665C900256E0FEA3E0FF644A4E700507
:10066600A3E0FD800990004CE0FD7F4A7E00126603
:100676005C900256E0FEA3E0FF644B4E7005A3E0DB
:10068600FD800990004DE0FD7F4B7E0012665C9078
:100696000256E0FEA3E0FF644C4E7005A3E0FD8029
:1006A6000990004EE0FD7F4C7E0012665C9002567B
:1006B600E0FEA3E0FF64504E7005A3E0FD800990C4
:1006C6000051E0FD7F507E0012665C900256E0FE0F
:1006D600A3E0FF64514E7005A3E0FD80099000522F
:1006E600E0FD7F517E0012665C900256E0FEA3E0BC
:1006F600FF64524E7005A3E0FD8009900053E0FDB3
:100706007F527E0012665C900256E0FEA3E0FF6414
:10071600534E7005A3E0FD8009900054E0FD7F5321
:100726007E0012665C900256E0FEA3E0FF64544E23
:100736007005A3E0FD8009900055E0FD7F547E0022
:1007460012665C900256E0FEA3E0FF64584E700508
:10075600A3E0FD8009900058E0FD7F587E001266F8
:100766005C900256E0FEA3E0FF64594E7005A3E0DC
:10077600FD8009900059E0FD7F597E0012665C906D
:100786000256E0FEA3E0FF645A4E7005A3E0FD802A
:100796000990005AE0FD7F5A7E0012665C90025670
:1007A600E0FEA3E0FF645B4E7005A3E0FD800990C8
:1007B600005BE0FD7F5B7E0012665C900256E0FE09
:1007C600A3E0FF645C4E7005A3E0FD800990005C29
:1007D600E0FD7F5C7E0012665C900256E0FEA3E0C0
:1007E600FF64604E7005A3E0FD800990005FE0FDA8
:1007F6007F607E0012665C900256E0FEA3E0FF6416
:10080600614E7005A3E0FD8009900060E0FD7F6108
:100816007E0012665C900256E0FEA3E0FF64624E24
:100826007005A3E0FD8009900061E0FD7F627E0017
:1008360012665C900256E0FEA3E0FF64634E70050C
:10084600A3E0FD8009900062E0FD7F637E001266F2
:100856005C900256E0FEA3E0FF64644E7005A3E0E0
:10086600FD8009900063E0FD7F647E0012665C9067
:100876000256E0FEA3E0FF64684E7005A3E0FD802B
:1008860009900066E0FD7F687E0012665C90025665
:10089600E0FEA3E0FF64694E7005A3E0FD800990C9
:1008A6000067E0FD7F697E0012665C900256E0FEFE
:1008B600A3E0FF646A4E7005A3E0FD80099000681E
:1008C600E0FD7F6A7E0012665C900256E0FEA3E0C1
:1008D600FF646B4E7005A3E0FD8009900069E0FDA2
:1008E6007F6B7E0012665C900256E0FEA3E0FF641A
:1008F6006C4E7005A3E0FD800990006AE0FD7F6CF8
:100906007E0012665C900256E0FEA3E0FF64704E25
:100916007005A3E0FD800990006DE0FD7F707E000C
:1009260012665C900256E0FEA3E0FF64714E70050D
:10093600A3E0FD800990006EE0FD7F717E001266E7
:100946005C900256E0FEA3E0FF64724E7005A3E0E1
:10095600FD800990006FE0FD7F727E0012665C905C
:100966000256E0FEA3E0FF64734E7005A3E0FD802F
:1009760009900070E0FD7F737E0012665C9002565F
:10098600E0FEA3E0FF64744E7005A3E0FD800990CD
:100996000071E0FD7F747E0012665C900256E0FEF8
:1009A600A3E0FF64784E7005A3E0FD800990007413
:1009B600E0FD7F787E0012665C900256E0FEA3E0C2
:1009C600FF64794E7005A3E0FD8009900075E0FD97
:1009D6007F797E0012665C900256E0FEA3E0FF641B
:1009E6007A4E7005A3E0FD8009900076E0FD7F7ADF
:1009F6007E0012665C900256E0FEA3E0FF647B4E2A
:100A06007005A3E0FD8009900077E0FD7F7B7E0006
:100A160012665C900256E0FEA3E0FF647C4E700511
:100A2600A3E0FD8009900078E0FD7F7C7E001266E1
:100A36005C900256E0FEA3E0FF64804E7005A3E0E2
:100A4600FD800990007BE0FD7F807E0012665C9051
:100A56000256E0FEA3E0FF64814E7005A3E0FD8030
:100A66000990007CE0FD7F817E0012665C90025654
:100A7600E0FEA3E0FF64824E7005A3E0FD800990CE
:100A8600007DE0FD7F827E0012665C900256E0FEED
:100A9600A3E0FF64834E7005A3E0FD800990007E0D
:100AA600E0FD7F837E0012665C900256E0FEA3E0C6
:100AB600FF64844E7005A3E0FD800990007FE0FD91
:100AC6007F847E0012665C900256E0FEA3E0FF641F
:100AD600884E7005A3E0FD8009900082E0FD7F88C6
:100AE6007E0012665C900256E0FEA3E0FF64894E2B
:100AF6007005A3E0FD8009900083E0FD7F897E00FC
:100B060012665C900256E0FEA3E0FF648A4E700512
:100B1600A3E0FD8009900084E0FD7F8A7E001266D6
:100B26005C900256E0FEA3E0FF648B4E7005A3E0E6
:100B3600FD8009900085E0FD7F8B7E0012665C904B
:100B46000256E0FEA3E0FF648C4E7005A3E0FD8034
:100B560009900086E0FD7F8C7E0012665C9002564E
:100B6600E0FEA3E0FF64904E7005A3E0FD800990CF
:100B76000089E0FD7F907E0012665C900256E0FEE2
:100B8600A3E0FF64914E7005A3E0FD800990008A02
:100B9600E0FD7F917E0012665C900256E0FEA3E0C7
:100BA600FF64924E7005A3E0FD800990008BE0FD86
:100BB6007F927E0012665C900256E0FEA3E0FF6420
:100BC600934E7005A3E0FD800990008CE0FD7F93B5
:100BD6007E0012665C900256E0FEA3E0FF64944E2F
:100BE6007005A3E0FD800990008DE0FD7F947E00F6
:100BF60012665C900256E0FEA3E0FF64984E700514
:100C0600A3E0FD80099000EAE0FD7F987E00126671
:100C16005C900256E0FEA3E0FF64A04E7005A3E0E0
:100C2600FD80099000EBE0FD7FA07E0012665C90DF
:100C36000256E0FEA3E0FF64A84E7005A3E0FD8027
:100C4600099000ECE0FD7FA87E0012665C900256DB
:100C5600E0FEA3E0FF64B04E7005A3E0FD800990BE
:100C660000EDE0FD7FB07E0012665C900256E0FE6D
:100C7600A3E0FF64B54E7005A3E0FD80099000EE89
:100C8600E0FD7FB57E0012665C900256E0FEA3E0B2
:100C9600FF64994E7005A3E0FD80099000F0E0FD29
:100CA6007F997E0012665C900256E0FEA3E0FF6428
:100CB6009A4E7005A3E0FD80099000F1E0FD7F9A51
:100CC6007E0012665C900256E0FEA3E0FF649B4E37
:100CD6007005A3E0FD80099000F2E0FD7F9B7E0099
:100CE60012665C900256E0FEA3E0FF649C4E70051F
:100CF600A3E0FD80099000F3E0FD7F9C7E00126674
:100D06005C900256E0FEA3E0FF649D4E7005A3E0F2
:100D1600FD80099000FDE0FD7F9D7E0012665C90DF
:100D26000256E0FEA3E0FF64A44E7005A3E0FD803A
:100D3600099000FEE0FD7FA47E0012665C900256DC
:100D4600E0FEA3E0FF64AC4E7005A3E0FD800990D1
:100D560000FFE0FD7FAC7E0012665C900256E0FE6E
:100D6600A3E0FF64B44E7005A3E0FD800990010086
:100D7600E0FD7FB47E0012665C900256E0FEA3E0C2
:100D8600FF64B64E7005A3E0FD8009900101E0FD09
:100D96007FB67E0012665C900256E0FEA3E0FF641A
:100DA600B74E7005A3E0FD8009900102E0FD7FB714
:100DB6007E0012665C900256E0FEA3E0FF64B34E2E
:100DC6007005A3E0FD8009900103E0FD7FB37E007E
:100DD60012665C900256E0FEA3E0FF64B84E700512
:100DE600A3E0FD8009900090E0FD7FB87E001266CA
:100DF6005C900256E0FEA3E0FF64B94E7005A3E0E6
:100E0600FD8009900091E0FD7FB97E0012665C903E
:100E16000256E0FEA3E0FF64BA4E7005A3E0FD8033
:100E260009900092E0FD7FBA7E0012665C90025641
:100E3600E0FEA3E0FF64BB4E7005A3E0FD800990D1
:100E46000093E0FD7FBB7E0012665C900256E0FEDA
:100E5600A3E0FF64BC4E7005A3E0FD8009900094FA
:100E6600E0FD7FBC7E0012665C900256E0FEA3E0C9
:100E7600FF64C04E7005A3E0FD8009900097E0FD79
:100E86007FC07E0012665C900256E0FEA3E0FF641F
:100E9600C14E7005A3E0FD8009900098E0FD7FC17A
:100EA6007E0012665C900256E0FEA3E0FF64C24E2E
:100EB6007005A3E0FD8009900099E0FD7FC27E00E9
:100EC60012665C900256E0FEA3E0FF64C34E700516
:100ED600A3E0FD800990009AE0FD7FC37E001266C4
:100EE6005C900256E0FEA3E0FF64C44E7005A3E0EA
:100EF600FD800990009BE0FD7FC47E0012665C9039
:100F06000256E0FEA3E0FF64C84E7005A3E0FD8034
:100F16000990009EE0FD7FC87E0012665C90025636
:100F2600E0FEA3E0FF64C94E7005A3E0FD800990D2
:100F3600009FE0FD7FC97E0012665C900256E0FECF
:100F4600A3E0FF64CA4E7005A3E0FD80099000A0EF
:100F5600E0FD7FCA7E0012665C900256E0FEA3E0CA
:100F6600FF64CB4E7005A3E0FD80099000A1E0FD73
:100F76007FCB7E0012665C900256E0FEA3E0FF6423
:100F8600CC4E7005A3E0FD80099000A2E0FD7FCC69
:100F96007E0012665C900256E0FEA3E0FF64D04E2F
:100FA6007005A3E0FD80099000A5E0FD7FD07E00DE
:100FB60012665C900256E0FEA3E0FF64D14E700517
:100FC600A3E0FD80099000A6E0FD7FD17E001266B9
:100FD6005C900256E0FEA3E0FF64D24E7005A3E0EB
:100FE600FD80099000A7E0FD7FD27E0012665C902E
:100FF6000256E0FEA3E0FF64D34E7005A3E0FD8039
:10100600099000A8E0FD7FD37E0012665C90025630
:10101600E0FEA3E0FF64D44E7005A3E0FD800990D6
:1010260000A9E0FD7FD47E0012665C900256E0FEC9
:10103600A3E0FF64D84E7005A3E0FD80099000ACE4
:10104600E0FD7FD87E0012665C900256E0FEA3E0CB
:10105600FF64D94E7005A3E0FD80099000ADE0FD68
:101066007FD97E0012665C900256E0FEA3E0FF6424
:10107600DA4E7005A3E0FD80099000AEE0FD7FDA50
:101086007E0012665C900256E0FEA3E0FF64DB4E33
:101096007005A3E0FD80099000AFE0FD7FDB7E00D8
:1010A60012665C900256E0FEA3E0FF64DC4E70051B
:1010B600A3E0FD80099000B0E0FD7FDC7E001266B3
:1010C6005C900256E0FEA3E0FF64E04E7005A3E0EC
:1010D600FD80099000B3E0FD7FE07E0012665C9023
:1010E6000256E0FEA3E0FF64E14E7005A3E0FD803A
:1010F600099000B4E0FD7FE17E0012665C90025626
:10110600E0FEA3E0FF64E24E7005A3E0FD800990D7
:1011160000B5E0FD7FE27E0012665C900256E0FEBE
:10112600A3E0FF64E34E7005A3E0FD80099000B6DE
:10113600E0FD7FE37E0012665C900256E0FEA3E0CF
:10114600FF64E44E7005A3E0FD80099000B7E0FD62
:101156007FE47E0012665C900256E0FEA3E0FF6428
:10116600E84E7005A3E0FD80099000BAE0FD7FE837
:101176007E0012665C900256E0FEA3E0FF64E94E34
:101186007005A3E0FD80099000BBE0FD7FE97E00CD
:1011960012665C900256E0FEA3E0FF64EA4E70051C
:1011A600A3E0FD80099000BCE0FD7FEA7E001266A8
:1011B6005C900256E0FEA3E0FF64EB4E7005A3E0F0
:1011C600FD80099000BDE0FD7FEB7E0012665C901D
:1011D6000256E0FEA3E0FF64EC4E7005A3E0FD803E
:1011E600099000BEE0FD7FEC7E0012665C90025620
:1011F600E0FEA3E0FF64F04E7005A3E0FD800990D9
:101206000104E0FD7FF07E0012665C900256E0FE6F
:10121600A3E0FF64F84E7005A3E0FD800990010588
:10122600E0FD7FF87E0012665C900256E0FEA3E0C9
:10123600FFB40009EEB40105A3E0FD8009900106A4
:10124600E0FD7F007E0112665C900256E0FEA3E0A0
:10125600FF64F14E7005A3E0FD800990010AE0FDF0
:101266007FF17E0012665C900256E0FEA3E0FF640A
:10127600F24E7005A3E0FD800990010BE0FD7FF2C0
:101286007E0012665C900256E0FEA3E0FF64F34E19
:101296007005A3E0FD800990010CE0FD7FF37E0060
:1012A60012665C900256E0FEA3E0FF64F44E700501
:1012B600A3E0FD800990010DE0FD7FF47E0012663B
:1012C6005C900256E0FEA3E0FFBE0108BF0805A33E
:1012D600E0FD80099000C1E0FD7F087E0112665C9A
:1012E600900256E0FEA3E0FFBE0108BF0905A3E099
:1012F600FD80099000C2E0FD7F097E0112665C90C8
:101306000256E0FEA3E0FFBE0108BF0A05A3E0FD0A
:1013160080099000C3E0FD7F0A7E0112665C9002A0
:1013260056E0FEA3E0FFBE0108BF0B05A3E0FD806B
:10133600099000C4E0FD7F0B7E0112665C900256A8
:10134600E0FEA3E0FFBE0108BF0C05A3E0FD800997
:101356009000C5E0FD7F0C7E0112665C900256E0AF
:10136600FEA3E0FFBE0108BF1005A3E0FD800990C3
:1013760000C8E0FD7F107E0112665C900256E0FE1A
:10138600A3E0FFBE0108BF1105A3E0FD80099000A0
:10139600C9E0FD7F117E0112665C900256E0FEA355
:1013A600E0FFBE0108BF1205A3E0FD80099000CA58
:1013B600E0FD7F127E0112665C900256E0FEA3E01D
:1013C600FFBE0108BF1305A3E0FD80099000CBE036
:1013D600FD7F137E0112665C900256E0FEA3E0FFDD
:1013E600BE0108BF1405A3E0FD80099000CCE0FD16
:1013F6007F147E0112665C900256E0FEA3E0FFBEFB
:101406000108BF2005A3E0FD80099000D5E0FD7F1F
:10141600207E0112665C900256E0FEA3E0FFBE014C
:1014260008BF2105A3E0FD80099000D6E0FD7F21DD
:101436007E0112665C900256E0FEA3E0FFBE010844
:10144600BF2205A3E0FD80099000D7E0FD7F227E44
:101456000112665C900256E0FEA3E0FFBE0108BFE3
:101466002305A3E0FD80099000D8E0FD7F237E01DF
:1014760012665C900256E0FEA3E0FFBE0108BF24A0
:1014860005A3E0FD80099000D9E0FD7F247E0112CE
:10149600665C900256E0FEA3E0FFBE0108BF400571
:1014A600A3E0FD80099000DCE0FD7F407E0112662E
:1014B6005C900256E0FEA3E0FFBE0108BF4105A313
:1014C600E0FD80099000DDE0FD7F417E0112665C53
:1014D600900256E0FEA3E0FFBE0108BF4205A3E06E
:1014E600FD80099000DEE0FD7F427E0112665C9081
:1014F6000256E0FEA3E0FFBE0108BF4305A3E0FDE0
:1015060080099000DFE0FD7F437E0112665C900259
:1015160056E0FEA3E0FFBE0108BF4405A3E0FD8040
:10152600099000E0E0FD7F447E0112665C90025661
:10153600E0FEA3E0FFBE0108BFA805A3E0FD800909
:101546009000E3E0FD7FA87E0112665C900256E003
:10155600FEA3E0FFBE0108BFA905A3E0FD80099038
:1015660000E4E0FD7FA97E0112665C900256E0FE73
:10157600A3E0FFBE0108BFAA05A3E0FD8009900015
:10158600E5E0FD7FAA7E0112665C900256E0FEA3AE
:10159600E0FFBE0108BFAB05A3E0FD80099000E6B1
:1015A600E0FD7FAB7E0112665C900256E0FEA3E092
:1015B600FFBE0108BFAC05A3E0FD80099000E7E08F
:1015C600FD7FAC7E0112665C900256E0FEA3E0FF52
:1015D600BE0108BFD405A3E0FD80099000CFE0FD61
:1015E6007FD47E0112665C900256E0FEA3E0FFBE49
:1015F6000108BFD005A3E0FD80099000D0E0FD7F83
:10160600D07E0112665C900256E0FEA3E0FFBE01AA
:1016160008BFD505A3E0FD80099000D1E0FD7FD588
:101626007E0112665C900256E0FEA3E0FFBE010852
:10163600BFD105A3E0FD80099000D2E0FD7FD17EF9
:101646000112665C900256E0FEA3E0FFBE0108BFF1
:10165600D205A3E0FD80099000D3E0FD7FD27E0194
:1016660012665C900256E0FEA3E0FFBE0108BFD3FF
:1016760005A3E0FD80099000D4E0FD7FD37E011232
:10168600665C900256E0FEA3E0FFBE0108BF380587
:10169600A3E0FD800990011EE0FD7F387E01126601
:1016A6005C900256E0FEA3E0FFBE0108BF3905A329
:1016B600E0FD800990011FE0FD7F397E0112665C26
:1016C600900256E0FEA3E0FFBE0108BF3A05A3E084
:1016D600FD8009900120E0FD7F3A7E0112665C9054
:1016E6000256E0FEA3E0FFBE0108BF3B05A3E0FDF6
:1016F6008009900121E0FD7F3B7E0112665C90022D
:1017060056E0FEA3E0FFBE0108BF3C05A3E0FD8056
:1017160009900122E0FD7F3C7E0112665C90025634
:10172600E0FEA3E0FFBE0108BF3D05A3E0FD800982
:10173600900123E0FD7F3D7E0112665C900256E03B
:10174600FEA3E0FFBE0108BF3E05A3E0FD800990B1
:101756000124E0FD7F3E7E0112665C900256E0FEAB
:10176600A3E0FFBE0108BF3F05A3E0FD800990018D
:1017760025E0FD7F3F7E0112665C900256E0FEA3E7
:10178600E0FFBE0108BF3605A3E0FD8009900126F3
:10179600E0FD7F367E0112665C900256E0FEA3E015
:1017A600FFBE0108BF3705A3E0FD8009900127E0D1
:1017B600FD7F377E0112665C900256E0FEA3E0FFD5
:1017C600BE0108BFFB05A3E0FD800990013BE0FDDB
:1017D6007FFB7E0112665C900256E0FEA3E0FFBE30
:1017E6000108BFFC05A3E0FD800990013AE0FD7FFA
:1017F600FC7E0112665C900256E0FEA3E0FFBE018D
:1018060008BFFD05A3E0FD8009900138E0FD7FFDDE
:101816007E0112665C900256E0FEA3E0FFBE010860
:10182600BFFE05A3E0FD8009900139E0FD7FFE7E45
:051836000112665C22B6
:0B659B0090025AEBF0A3EAF0A3E9F035
:1065A600E4FF7EF1AD060EA805E6FD90025AE0FB7B
:1065B600A3E475F001123C73A9F0FAED123C170F33
:0465C600EFB407E047
:0165CA0022AE
:09696700007F0B7EBEDEFEDFFCAA
:016970002204
:10677000AD07AC06ED1DAE0470011C4E600512693C
:046780006780F1221B
:0769710000750D87D50DFD37
:0169780022FC
:105414004202910000420294000042028F000041C7
:105424000293004102850041028600410287004147
:105434000288004102890041028A0041028B004235
:08544400028C000041028E0001
:1064EA00900000E0FBA3E0FAA3E02432F9E43AFAD0
:1064FA00125F1090024DEFF0900000E0FBA3E0FA6B
:10650A00A3E02439F9E43AFA125F1090024DE0B49C
:0A651A000106EF70037F01227F00ED
:016524002254
:10652500900000E0FBA3E0FAA3E02432F9E43AFA94
:10653500125F1090024DEFF0900000E0FBA3E0FA2F
:10654500A3E02439F9E43AFA125F1090024DE070A5
:0A65550007EFB401037F01227F006D
:01655F002219
:104DF300900000E0FBA3E0FAA3E02463F9E43AFAAD
:104E0300125F1090024DEFF0900000E0FBA3E0FA78
:104E1300A3E0245CF9E43AFA125F1090024EEFF03B
:104E2300900000E0FBA3E0FAA3E0F9900060123BDE
:104E330095FF90024DE0B401069002857401F0EFF6
:104E4300B407004003024FB0904E52F82828730273
:104E53004E67024E89024EBF024EEC024F1A024FBA
:104E630020024F6390024EE0FEB40109900285E0F8
:104E7300B40102802FEEB4010A900286E0B401036C
:104E83007F0122024FA99000CD123B95FD7C00903B
:104E9300028FE0FAA3E0FBD39DEA9C400B900285CE
:104EA300E0B40104E4024F93D3EB9DEA9C400A90E3
:104EB3000286E0B401037F0122024FA990024EE073
:104EC300B40123900000E0FBA3E0FAA3E0F9900013
:104ED300CD123B95FFD3900290E09F90028FE09418
:104EE3000040037F01227F002290024EE0640160B4
:104EF30020900000E0FBA3E0FAA3E0F99000CD12BC
:104F03003B95FFD3900290E09F90028FE094004086
:104F1300037F01227F002290024EE0FF22900000D7
:104F2300E0FBA3E0FAA3E0F99000CD123B95FF90DC
:104F3300028FE0FCA3E0FDC39FEC940040089002C5
:104F4300877401F080149000CE123B95FFD3ED9F40
:104F5300EC94005005E4900287F0900287E0FF2272
:104F6300900000E0FBA3E0FAA3E0F99000CD123B30
:104F730095FFD3900290E09F90028FE0940040262B
:104F8300900285E0B4011290024DE0700990028511
:104F9300F0A304F0FF227F0022900286E0B4010315
:0F4FA3007F01227F0022E4900286F0FF227F0030
:014FB20022DC
:10678400900000E0FBA3E0FAA3E0242BF9E43AFA3A
:03679400125F1081
:0167970022DF
:10679800900000E0FBA3E0FAA3E0246AF9E43AFAE7
:0367A800125F106D
:0167AB0022CB
:10000300900000E0FBA3E0FAA3E02486F9E43AFAC7
:0C001300125F10EFB401037FF0227F00A9
:01001F0022BE
:1067AC00900000E0FBA3E0FAA3E024B0F9E43AFA8D
:0367BC00125F1059
:0167BF0022B7
:1067C000900000E0FBA3E0FAA3E0247FF9E43AFAAA
:0367D000125F1045
:0167D30022A3
:1065F900900000E0FBA3E0FAA3E02401F9EA3401EA
:10660900FA7D01125143EFB401047F4680027F14E1
:01661900225E
:10661A00900000E0FBA3E0FAA3E02401F9EA3401C8
:10662A00FA7D02125143EFB401047F4680027F14BF
:01663A00223D
:1067D400900000E0FBA3E0FAA3E024A2F9E43AFA73
:0367E400125F1031
:0167E700228F
:1067E800900000E0FBA3E0FAA3E02440F9E43AFAC1
:0367F800125F101D
:0167FB00227B
:1067FC00900000E0FBA3E0FAA3E02447F9E43AFAA6
:03680C00125F1008
:01680F002266
:10681000900000E0FBA3E0FAA3E02478F9E43AFA60
:03682000125F10F4
:016823002252
:10682400900000E0FBA3E0FAA3E02455F9E43AFA6F
:03683400125F10E0
:01683700223E
:10683800900000E0FBA3E0FAA3E024A9F9E43AFA07
:03684800125F10CC
:01684B00222A
:10684C00900000E0FBA3E0FAA3E0248DF9E43AFA0F
:03685C00125F10B8
:01685F002216
:105FAB00900000E0FBA3E0FAA3E0245CF9E43AFAEA
:105FBB00125F1090024DEFF0900000E0FBA3E0FAAF
:105FCB00A3E02463F9E43AFA125F1090024EEFF06B
:105FDB00900000E0FBA3E0FAA3E024B7F9E43AFA5F
:105FEB00125F10900000E0FBA3E0FAA3E0F9900031
:105FFB0067123B95603D24FE602504703390024D83
:10600B00E0FEB40111900288E0700B04F090006880
:10601B00E4123C29801DEE701A900288F0801490D7
:10602B00024EE0B40107EFB401037F01227F00228F
:08603B007F002290024EE0FFFD
:01604300223A
:10686000900000E0FBA3E0FAA3E02494F9E43AFAF4
:03687000125F10A4
:016873002202
:10687400900000E0FBA3E0FAA3E02424F9E43AFA50
:03688400125F1090
:0168870022EE
:1035B700E490024DF0900000E0FBA3E0FAA3E024C2
:1035C700E7F9E43AFA7D0112514390024EEFF09089
:1035D7000000E0FBA3E0FAA3E024E7F9E43AFA7D70
:1035E7000212514390024FEFF0900000E0FBA3E07E
:1035F700FAA3E024E7F9E43AFA7D03125143900273
:1036070050EFF0900000E0FBA3E0FAA3E024E7F915
:10361700E43AFA7D04125143900251EFF090000012
:10362700E0FBA3E0FAA3E024E7F9E43AFA7D051208
:103637005143900252EFF0900000E0FBA3E0FAA3A1
:10364700E0F99000F0123B95900253F0E92463F9FA
:10365700E43AFA125F10900254EFF0900000E0FB9A
:10366700A3E0FAA3E024B7F9E43AFA125F10900254
:1036770055EFF0900000E0FBA3E0FAA3E024B0F9D7
:10368700E43AFA125F10EFB40109900254E07003B4
:103697007F0822900253E00470030239C414B40A6D
:1036A700004003023A7B9036B4F82828730236D2DA
:1036B700023726023A7B0237710237B40237FA0221
:1036C7003834023A7B02387A02391390024FE025E8
:1036D700E0FF90024EE04FFF900250E025E025E02A
:1036E7004FFFA3E033333354F84FFF90024DF0BF41
:1036F7000103023A0A90024DE0FFB40203023A21A5
:10370700EFB40403023A32EFB40803023A49EFB4C4
:103717000503023A5AEFB40F03023A70023A78905F
:10372700024FE025E0FF90024EE04FFF900250E08D
:1037370025E025E04FFF90024DF0BF0603023A0A4D
:1037470090024DE0FFB40503023A21EFB4040302EF
:103757003A32EFB40303023A49EFB40203023A5A8A
:10376700EFB40103023A70023A78900254E0B401D0
:1037770003023A8090024FE025E0FF90024EE04FAF
:1037870090024DF0700790028904F0801490024D6A
:10379700E0B403089002897402F08005E49002897E
:1037A700F0900255E06003023A80023A7C9002549E
:1037B700E0B40103023A8090024FE025E0FF900257
:1037C7004EE04FFF90024DF0BF020890028974014E
:1037D700F0801490024DE0B401089002897402F061
:1037E7008005E4900289F0900255E06003023A8078
:1037F700023A7C90024FE025E0FF90024EE04FFF37
:10380700900250E025E025E04FFF90024DF0900236
:1038170093F0BF0103023A0A90024DE0FFB402039E
:10382700023A21EFB40403023A32023A7890024F87
:10383700E025E0FF90024EE04FFF900250E025E0C8
:1038470025E04FFFA3E033333354F84FFF90024D89
:10385700F0BF0703023A0A90024DE0FFB4020302E9
:103867003A21EFB40403023A32EFB40803023A49AB
:10387700023A7890024FE025E0FF90024EE04FFFBA
:10388700900250E025E025E04FFFA3E033333354A7
:10389700F84FFFA3E0C454F04F90024DF0E0FF90C3
:1038A7000293F0900000E0FBA3E0FAA3E0F9900098
:1038B700FA123B95FEEFB50603023A0A9000FB1297
:1038C7003B95FF90024DE0FEB50703023A219000B9
:1038D700FC123B95B50603023A329000FD123B9568
:1038E700FF90024DE0FEB50703023A499000FE1231
:1038F7003B95B50603023A5A9000FF123B95FF909D
:10390700024DE0B50703023A70023A7890024FE0A1
:1039170025E0FF90024EE04FFF900250E025E025A2
:10392700E04FFFA3E033333354F84FFFA3E0C45411
:10393700F04F90024DF0E0FF900293F0900000E00E
:10394700FBA3E0FAA3E0F99000FA123B95FEEFB56E
:103957000603023A0A9000FB123B95FF90024DE0E6
:10396700FEB50703023A219000FC123B95B506030A
:10397700023A329000FD123B95FF90024DE0FEB5F2
:103987000703023A499000FE123B95B50603023A37
:103997005A9000FF123B95FF90024DE0FEB50703DA
:1039A700023A70900000E0FBA3E0FAA3E0F990016F
:1039B70000123B956E6003023A80023A7C90024FF8
:1039C700E025E0FF90024EE04FFF900250E025E037
:1039D70025E04FFFA3E033333354F84FFFA3E0C490
:1039E70054F04F90024DF0E0FF900293F0900000EA
:1039F700E0FBA3E0FAA3E0F99000FA123B95FEEF93
:103A0700B506089002897401F0806E9000FB123BA6
:103A170095FF90024DE0FEB507089002897402F009
:103A270080579000FC123B95B506089002897403F5
:103A3700F080469000FD123B95FF90024DE0FEB5E9
:103A470007089002897404F0802F9000FE123B95BE
:103A5700B506089002897405F0801E9000FF123B9E
:103A670095FF90024DE0B507089002897408F08031
:0E3A770008E48001E4900289F0900289E0FFEB
:013A8500221E
:10688800900000E0FBA3E0FAA3E024C5F9E43AFA9B
:03689800125F107C
:01689B0022DA
:10689C00900000E0FBA3E0FAA3E0244EF9E43AFAFE
:0368AC00125F1068
:0168AF0022C6
:1068B000900000E0FBA3E0FAA3E024B7F9E43AFA81
:0368C000125F1054
:0168C30022B2
:1068C400900000E0FBA3E0FAA3E0249BF9E43AFA89
:0368D400125F1040
:0168D700229E
:1068D800900000E0FBA3E0FAA3E024BEF9E43AFA52
:0368E800125F102C
:0168EB00228A
:10663B00900000E0FBA3E0FAA3E02401F9EA3401A7
:10664B00FA7D03125143EFB401047F4680027F149D
:01665B00221C
:105D0000900000E0FBA3E0FAA3E02432F9E43AFAC1
:105D1000125F1090024DEFF0900000E0FBA3E0FA5C
:105D2000A3E02439F9E43AFA125F1090024EEFF042
:105D3000900000E0FBA3E0FAA3E02471F9E43AFA52
:105D4000125F1090024FEFF0900000E0FBA3E0FA2A
:105D5000A3E0F9900032123B95FF125828900250B0
:105D6000EFF0900000E0FBA3E0FAA3E0F990003927
:105D7000123B95FF125828900000E0FBA3E0FAA325
:105D8000E0F9900075123B95B4010690024FE0FFD8
:105D900022900250E0B4010FEFB4010B90028AE0B0
:105DA000700504F07F002290024DE0B4010FA3E0E3
:105DB000B4010A90028AE0B401037F0122E4900258
:035DC0008AF0FF67
:015DC30022BD
:0C6950001235B7EF60037F01227F0022A8
:1068EC00900000E0FBA3E0FAA3E024D9F9E43AFA23
:0368FC00125F1018
:0168FF002276
:10690000900000E0FBA3E0FAA3E024E0F9E43AFA07
:03691000125F1003
:016913002261
:1066BC00900000E0FBA3E0FAA3E0241BF9EA34010C
:0666CC00FA7D01125143AA
:0166D20022A5
:1066D300900000E0FBA3E0FAA3E0241BF9EA3401F5
:0666E300FA7D0212514392
:0166E900228E
:1066EA00900000E0FBA3E0FAA3E0241BF9EA3401DE
:0666FA00FA7D031251437A
:016700002276
:10670100900000E0FBA3E0FAA3E0241BF9EA3401C6
:06671100FA7D0412514361
:01671700225F
:10671800900000E0FBA3E0FAA3E0241BF9EA3401AF
:06672800FA7D0512514349
:01672E002248
:10672F00900000E0FBA3E0FAA3E0241BF9EA340198
:06673F00FA7D0612514331
:016745002231
:105B2E00900000E0FBA3E0FAA3E0F99000D0123B56
:105B3E0095FD7003FEFF2290028BE06D6003025C08
:105B4E0015F0AF8CA3F0A3EFF0E0F8E4F0E89002CC
:105B5E008CF0AF8AA3E02FF090028CE03400F0E0DE
:105B6E00FCA3E0FD90028FECF0A3EDF09000CF12BD
:105B7E003B95FF7009EF2401FFE433FE801C90007B
:105B8E0000E0FBA3E0FAA3E0F99000CF123B95FFF3
:105B9E007E0090028CE0FCA3E0FD123C4B90028C48
:105BAE00EEF0A3EFF0C390028DE0948890028CE0AB
:105BBE00941340077403F0A37420F0E4F58CF58A77
:105BCE0090028CE07002A3E07043900000E0FBA313
:105BDE00E0FAA3E0F99000D1123B95D39400402D4A
:105BEE00124DF3BF0127900000E0FBA3E0FAA3E003
:105BFE00F99000D1123B9575F00AA4FF90028CE546
:105C0E00F0F0A3EFF0800690028BE004F090028C8F
:055C1E00E0FEA3E0FF21
:015C2300225E
:1055BB00E490024DF0A3F0A3F0A3F0900000E0FB09
:1055CB00A3E0FAA3E0F99000D2123B9524FE600F02
:1055DB0004701890024FE58CF0A3E58AF0800F90D1
:1055EB00024FE58DF0A3E58BF080030256FE90028F
:1055FB004FE0FF90024DE4F0A3EFF0E0F8E4F0E8A9
:10560B0090024DF0900250E0FF90024EE02FF09090
:10561B00024DE03400F0900000E0FBA3E0FAA3E0C1
:10562B00F99000D5123B95FF700302570790029437
:10563B00E0FCA3E0FDC390024EE09D90024DE09C88
:10564B004020EFFD900294E0FAA3E0FB90024DE0C6
:10565B00FEA3E0FF9BFBEE9AFAD3EB9DEA9400507E
:10566B005222900294E0FEA3E0FBE4C39BFBE49E7A
:10567B00FA74019400F9E49400F890024DE0FEA353
:10568B00E0FFE4FCFDEB2FFFEA3EFEED39FDEC38CD
:10569B00FCC007900000E0FBA3E0FAA3E0F9900048
:1056AB00D5123B95FBE4FAF9F8D007C3123D5740EE
:1056BB00028049900294E0FCA3E0FDEC90024FF0D5
:1056CB00EDA3F0900000E0FBA3E0FAA3E0F990005B
:1056DB00D2123B9524FE600F04701890024FE0F538
:1056EB008CA3E0F58A801090024FE0F58DA3E0F5D6
:1056FB008B8004E4FEFF22900294800390024DE025
:04570B00FEA3E0FF1A
:01570F002277
:10478E0012183B900000E0FBA3E0FAA3E0F99000C2
:10479E0032123B95700790003204123C299000397A
:1047AE00123B9570089000397402123C2990005CFF
:1047BE00123B95700890005C7403123C2990002BFC
:1047CE00123B95700890002B7404123C2990006ADD
:1047DE00123B95700890006A7405123C2990008671
:1047EE00123B9570089000867406123C299000B01A
:1047FE00123B9570089000B07407123C2990007F10
:10480E00123B95700890007F7408123C29900101AC
:10481E00123B9570089001017409123C2990010217
:10482E00123B957008900102740A123C299000A266
:10483E00123B9570089000A2740B123C2990004018
:10484E00123B957008900040740C123C2990004762
:10485E00123B957008900047740D123C2990007819
:10486E00123B957008900078740E123C29900055FA
:10487E00123B957008900055740F123C299000A9B8
:10488E00123B9570089000A97410123C2990008D6F
:10489E00123B95700890008D7411123C29900063A4
:1048AE00123B9570089000637412123C299000948C
:1048BE00123B9570089000947413123C29900024BA
:1048CE00123B9570089000247414123C299000E756
:1048DE00123B9570089000E77415123C299000E881
:1048EE00123B9570089000E87416123C299000E96E
:1048FE00123B9570089000E97417123C299000EA5B
:10490E00123B9570089000EA7418123C299000EB47
:10491E00123B9570069000EB123C29900071123BF1
:10492E00957006900071123C299000C5123B95704F
:10493E00089000C57419123C2990004E123B9570D8
:10494E000890004E741A123C299000CC123B9570C0
:10495E00089000CC741B123C299000B7123B957046
:10496E00089000B7741C123C2990009B123B957066
:10497E000890009B741D123C299000BE123B95704E
:10498E00089000BE741E123C29900103123B9570D4
:10499E00089001037420123C299000E0123B9570A0
:1049AE00069000E0123C29123B7CD394024004E4B2
:1049BE00123C17900000E0FBA3E0FAA3E0F9900090
:1049CE0001123B95D3940A4007900001E4123C2952
:0149DE0022B6
:102BF200900248EBF0A3EAF0A3E9F0A3ECF0A3ED16
:012C0200F0E1
:102C0300E4900293F0125B2E900291EEF0A3EFF0AA
:102C13001255BB900294EEF0A3EFF0900248E0FB54
:102C2300A3E0FAA3E0F9C003C002C001123B7CFE9B
:102C3300C006126824D0E04FD001D002D003123C6A
:102C430017900248E0FBA3E0FAA3E0F9C003C00237
:102C5300C001123B7CFFC00712689CEF25E0FED049
:102C6300E04ED001D002D003123C17900248E0FBA3
:102C7300A3E0FAA3E0F9C003C002C001123B7CFF4A
:102C8300C0071267FCEF25E025E0FED0E04ED0013F
:102C9300D002D003123C17900248E0FBA3E0FAA352
:102CA300E0F9C003C002C001123B7CFFC0071267FA
:102CB300E8EF33333354F8FED0E04ED001D002D0E6
:102CC30003123C17900248E0FBA3E0FAA3E0F9C02B
:102CD30003C002C001123B7CFFC007126525EFC48D
:102CE30054F0FED0E04ED001D002D003123C179036
:102CF3000248E0FBA3E0FAA3E0F9C003C002C0016D
:102D0300123B7CFFC0071264EAEFC43354E0FED0E9
:102D1300E04ED001D002D003123C17900248E0FBF2
:102D2300A3E0FAA3E0F9C003C002C001123B7CFF99
:102D3300C007126784EFC4333354C0FED0E04ED0D3
:102D430001D002D003123C17900248E0FBA3E0FA43
:102D5300A3E0F9C003C002C001123B7CFFC007120D
:102D63006874EFC43333335480FED0E04ED001D0C7
:102D730002D003123C17900248E0FBA3E0FAA3E061
:102D83002401F9E43AFAC003C002C001123B7CFEFD
:102D9300C0061267C0D0E04FD001D002D003123C6E
:102DA30017900248E0FBA3E0FAA3E02401F9E43A18
:102DB300FAC003C002C001123B7CFFC0071267AC1C
:102DC300EF25E025E0FED0E04ED001D002D0031283
:102DD3003C17900248E0FBA3E0FAA3E02401F9E4E6
:102DE3003AFAC003C002C001123B7CFFC00712685D
:102DF30010EF33333354F8FED0E04ED001D002D07D
:102E030003123C17900248E0FBA3E0FAA3E024017D
:102E1300F9E43AFAC003C002C001123B7CFFC007C9
:102E2300125D00EFC454F0FED0E04ED001D002D0CA
:102E330003123C17900248E0FBA3E0FAA3E024014D
:102E4300F9E43AFAC003C002C001123B7CFFC00799
:102E5300126798EFC43354E0FED0E04ED001D002A5
:102E6300D003123C17900248E0FBA3E0FAA3E0244E
:102E730001F9E43AFAC003C002C001123B7CFFC06F
:102E830007125FABEFC4333354C0FED0E04ED00122
:102E9300D002D003123C17900248E0FBA3E0FAA350
:102EA300E02401F9E43AFAC003C002C001123B7CFA
:102EB300FFC007124DF3EFC43333335480FED0E029
:102EC3004ED001D002D003123C17900248E0FBA37E
:102ED300E0FAA3E02402F9E43AFAC003C002C00115
:102EE300123B7CFEC006120003D0E04FD001D0029B
:102EF300D003123C17900248E0FBA3E0FAA3E024BE
:102F030002F9E43AFAC003C002C001123B7CFEC0DE
:102F1300061235B7D0E04FD001D002D003123C17D0
:102F2300900248E0FBA3E0FAA3E0F9900003E41267
:102F33003C29E92404F9E43AFA123B7CFF9002911C
:102F4300A3E04F123C17900248E0FBA3E0FAA3E092
:102F53002405F9E43AFA123B7CFD900291E04D120C
:102F63003C17900248E0FBA3E0FAA3E02406F9E44F
:102F73003AFAC003C002C001123B7CFEC0061269CC
:102F830050D0E04FD001D002D003123C179002483A
:102F9300E0FBA3E0FAA3E02406F9E43AFAC003C095
:102FA30002C001123B7CFFC007126888EF33333342
:102FB30054F8FED0E04ED001D002D003123C17905B
:102FC3000248E0FBA3E0FAA3E02407F9E43AFAC0DD
:102FD30003C002C001123B7CFEC006126838D0E079
:102FE3004FD001D002D003123C17900248E0FBA35C
:102FF300E0FAA3E02407F9E43AFAC003C002C001EF
:10300300123B7CFFC0071267D4EF25E0FED0E04EF1
:10301300D001D002D003123C17900248E0FBA3E09A
:10302300FAA3E02407F9E43AFAC003C002C001128C
:103033003B7CFFC007126860EF25E025E0FED0E08F
:103043004ED001D002D003123C17900248E0FBA3FC
:10305300E0FAA3E02407F9E43AFAC003C002C0018E
:10306300123B7CFFC00712684CEF33333354F8FE36
:10307300D0E04ED001D002D003123C17900248E0BA
:10308300FBA3E0FAA3E02407F9E43AFAC003C00281
:10309300C001123B7CFFC0071267FCEFC454F0FE73
:1030A300D0E04ED001D002D003123C17900248E08A
:1030B300FBA3E0FAA3E02407F9E43AFAC003C00251
:1030C300C001123B7CFFC0071267E8EFC454F0FE57
:1030D300D0E04ED001D002D003123C17900248E05A
:1030E300FBA3E0FAA3E02407F9E43AFAC003C00221
:1030F300C001123B7CFFC0071268C4EFC43354E025
:10310300FED0E04ED001D002D003123C179002480B
:10311300E0FBA3E0FAA3E02407F9E43AFAC003C012
:1031230002C001123B7CFFC007125FABEFC4333315
:1031330054C0FED0E04ED001D002D003123C179011
:103143000248E0FBA3E0FAA3E02409F9E43AFAC059
:1031530003C002C001123B7CFFC007126900EFC429
:103163003333335480FED0E04ED001D002D003126B
:103173003C17900000E0FBA3E0FAA3E0F990010AFA
:10318300123B95702F1265F9900248E0FBA3E0FA19
:10319300A3E0F990000AEF123C2912661A90024844
:1031A300E0FBA3E0FAA3E0F990000BEF123C291235
:1031B30065F98042900000E0FBA3E0FAA3E0F990F8
:1031C300010A123B956406705412661A900248E095
:1031D300FBA3E0FAA3E0F990000AEF123C29126581
:1031E300F9900248E0FBA3E0FAA3E0F990000BEFAB
:1031F300123C2912661A900248E0FBA3E0FAA3E00E
:10320300F990000CEF123C2912663B900248E0FB58
:10321300A3E0FAA3E0F990000DEF123C299000001F
:10322300E0FBA3E0FAA3E0F99000F0123B95B4FFB2
:103233002D900248E0FBA3E0FAA3E0F990000A74A2
:10324300FF123C2990000B74FF123C2990000C7470
:10325300FF123C29900293E090000D123C2990024A
:1032630094E0FCA3E0FDECFF900248E0FBA3E0FA4E
:10327300A3E0F990000EEF123C2990000FED123CF1
:1032830029900000E0FBA3E0FAA3E0F990013612D5
:103293003B95FF900248E0FBA3E0FAA3E0F990001E
:1032A30011EF123C29900000E0FBA3E0FAA3E0F940
:1032B300900135123B95FF900248E0FBA3E0FAA38F
:1032C300E0F9900012EF123C29900017E4123C2918
:1032D300900018E4123C29900019E4123C29900054
:1032E3001AE4123C29900000E0FBA3E0FAA3E0F902
:1032F3009000F0123B95FF64086004EFB409179047
:103303000293E0FF900248E0FBA3E0FAA3E0F99008
:10331300001AEF123C29900248E0FBA3E0FAA3E075
:10332300F990001BE4123C2990001CE4123C299004
:10333300001DE4123C2990001EE4123C29E9241FDD
:10334300F9E43AFAC003C002C001123B7CFEC00696
:103353001268B0D0E04FD001D002D003123C1790D6
:103363000248E0FBA3E0FAA3E0241FF9E43AFAC021
:1033730003C002C001123B7CFFC0071268D8EF25CF
:10338300E0FED0E04ED001D002D003123C179002F1
:1033930048E0FBA3E0FAA3E0F99000207422123C7A
:1033A3002990002174FF123C29E92422F9E43AFA16
:1033B300C003C002C001123B7CFFC0071266BCEF12
:1033C300C43333335480FED0E04ED001D002D00357
:1033D300123C17900248E0FBA3E0FAA3E02422F991
:1033E300E43AFAC003C002C001123B7CFFC00712DB
:1033F30066D3EFC4333354C0FED0E04ED001D002C5
:10340300D003123C17900248E0FBA3E0FAA3E024A8
:1034130022F9E43AFAC003C002C001123B7CFFC0A8
:10342300071266EAEFC43354E0FED0E04ED001D079
:1034330002D003123C17900248E0FBA3E0FAA3E09A
:103443002422F9E43AFAC003C002C001123B7CFF14
:10345300C007126701EFC454F0FED0E04ED001D094
:1034630002D003123C17900248E0FBA3E0FAA3E06A
:103473002422F9E43AFAC003C002C001123B7CFFE4
:10348300C007126718EF33333354F8FED0E04ED041
:1034930001D002D003123C17900248E0FBA3E0FAEC
